:020000040800F2
:1000000040070020D5010008EF1600083F16000841
:10001000ED160008EF050008011A000800000000B6
:10002000000000000000000000000000F3160008BF
:10003000F105000800000000F1160008F5160008A0
:10004000EF010008EF010008EF010008EF010008D0
:10005000EF010008EF010008EF010008EF010008C0
:10006000EF010008EF010008EF010008EF010008B0
:10007000EF010008EF010008EF010008EF010008A0
:10008000EF010008EF010008EF010008EF01000890
:10009000EF010008EF010008EF010008EF01000880
:1000A000EF010008EF010008EF010008EF01000870
:1000B000EF010008EF010008EF010008EF01000860
:1000C000EF010008EF010008EF010008EF01000850
:1000D000EF010008F9190008EF010008EF0100081E
:1000E000EF010008EF010008EF010008EF01000830
:1000F000EF010008EF010008EF010008EF01000820
:10010000EF010008EF010008EF010008EF0100080F
:10011000EF010008EF01000861170008EF01000877
:10012000EF010008EF010008EF010008EF010008EF
:1001300000F002F800F03EF80AA090E8000C8244BB
:100140008344AAF10107DA4501D100F033F8AFF298
:10015000090EBAE80F0013F0010F18BFFB1A43F0A5
:1001600001031847081C0000281C0000103A24BF97
:1001700078C878C1FAD8520724BF30C830C144BF0C
:1001800004680C607047000000230024002500264E
:10019000103A28BF78C1FBD8520728BF30C148BFEA
:1001A0000B6070471FB59DE8030000F00FF91FBDFD
:1001B00010B510BD00F08FF91146FFF7F3FF01F005
:1001C00033FC00F0ADF903B4FFF7F2FF03BC00F01D
:1001D0004FF900000948804709480047FEE7FEE75D
:1001E000FEE7FEE7FEE7FEE7FEE7FEE7FEE7FEE7E7
:1001F00004480549054A064B704700005F17000890
:100200003101000840010020400700204003002089
:100210004003002070B5064600F0BCF8056806F102
:100220000B0020F00704B4429CBF002070BD2B4699
:100230006A68BAB11068A04210D304F1080188427C
:100240003CBF5068586007D351681019416011686D
:10025000091B016058601460101D70BD1346526880
:10026000002AE7D12146284600F09CF80028DED17C
:1002700070BD70B50446051F00F08CF80068002CB6
:1002800014BF446870BD002C18BFAC423CBF204670
:100290006468F8D301680A18AA4218BF456003D100
:1002A0002A6805461144016028684119A1421CBF13
:1002B0006C6070BD6168696021680844286070BD29
:1002C0000EB5054614460E4613A000F0C0F82846A9
:1002D00000F0BDF816A000F0BAF8304600F0B7F80C
:1002E00015A000F0B4F800218DF80B100A210DF1D3
:1002F0000A008DF80A1008E094FBF1F201FB1242AB
:1003000094FBF1F4303200F8012D002CF4DC00F005
:100310009EF800F091F800002A2A2A206173736584
:100320007274696F6E206661696C65643A200000C2
:100330002C2066696C6520002C206C696E6520009D
:100340004FF0000200B5134694469646203922BF6E
:10035000A0E80C50A0E80C50B1F12001BFF4F7AFB9
:10036000090728BFA0E80C5048BF0CC05DF804EB9B
:10037000890028BF40F8042B08BF704748BF20F809
:10038000022B11F0804F18BF00F8012B7047704707
:100390007047704700487047200000207047704742
:1003A0007047704738B504460A4600206946AFF3E7
:1003B0000080002808BF38BD02460099204600F0A2
:1003C00061F8012038BD012000F07DB8F8B5AFF329
:1003D0000080054600200C46102000BF0646A819E4
:1003E000A0420DD9324669460020AFF300800700D5
:1003F00008BF00F068F80098A04218BF0546C4196D
:10040000FFF7C8FF05600746F01D20F007004619FA
:10041000284600F00AF8B44208BFF8BDA21B3146D6
:100420003868BDE8F84000F02DB800210160C0E94F
:10043000011070471020704710B5002000F03CF804
:10044000FFF7B6FEBDE81040012000F011B810B56E
:10045000044602E0641C00F004F820780028F9D17A
:1004600010BD08B569468DF800000320ABBE08BD7D
:1004700001491820ABBEFEE7260002000048704785
:1004800018000020034640688C46002818BF8842A8
:100490003CBF03464068F8D318681844884207D028
:1004A0000CF1030020F00700001D411A521A01460A
:1004B000081D0A60FFF7DDBE10B500F03FF8BDE88B
:1004C000104000F036B810B500F050F8BDE810400C
:1004D00000F02FB870477546FFF7D0FFAE46050015
:1004E0006946534620F00700854618B020B5FFF74F
:1004F0007FFEBDE820404FF000064FF000074FF0B0
:1005000000084FF0000BAC46ACE8C009ACE8C009ED
:10051000ACE8C009ACE8C00921F007018D4670477E
:1005200010B50446AFF300802046BDE81040FFF749
:100530004ABE002801D0FFF79BBF704710B50021CD
:1005400002A000F03BF8012010BD000053494741D4
:100550004252543A2041626E6F726D616C20746534
:10056000726D696E6174696F6E00000010B50128CC
:1005700005D0002103A000F021F8012010BD09A141
:10058000F8E7000053494752544D454D3A204F7506
:1005900074206F662068656170206D656D6F72797B
:1005A000000000003A2048656170206D656D6F7233
:1005B0007920636F727275707465640070B505465A
:1005C0000C460A2000E06D1CFFF74BFF35B1287880
:1005D0000028F8D102E0641CFFF743FF14B1207833
:1005E0000028F8D1BDE870400A20FFF73ABFFEE7C7
:1005F0007047EFF3108072B6FEE710B590F8211047
:10060000022911D10168D0E90F230C6824F00E04EF
:100610000C600C6824F001040C60012180F82110AA
:1006200099405160002102E00421816301210022F0
:1006300080F82020084610BD10B590F8211002293E
:1006400019D10268116821F00E011160116821F0C2
:1006500001011160294901F17C039A420FD92F4B06
:100660009A4224D02E4B9A4223D02E4B9A4222D12A
:100670004FF4807327E004218163012010BD204BDB
:100680009A4226D01F4B9A4225D01F4B9A4224D023
:100690001E4B9A4224D01E4B9A4217D01D4B9A42B1
:1006A00021D01D4B9A4211D14FF080721DE00123E1
:1006B00009E0102307E001F588644FF48033A2427B
:1006C00008BF4FF48053C1F800340FE04FF480327C
:1006D0000BE0012209E0102207E04FF4807204E0F1
:1006E0004FF4805201E04FF480120A604FF48071A1
:1006F0000184416B01B18847002010BD0400024015
:10070000080002401C000240300002404400024049
:10071000580002406C000240800002400804024081
:100720001C040240300402402DE9FC4F81465C4825
:10073000062381455B485C4E48444FEAB02208BF1F
:100740000523052A4FF0000B4FF001084FF00F0E64
:100750004FF0000A4FF0000238BF4FEAB023009379
:100760000C6834FA02F508BFBDE8FC8F08FA02F500
:100770002C4200F091804F68032F16D9112F26D0FC
:10078000122F28D04A48874213D04A48874210D0B7
:10079000494887420DD0494887420AD04848874295
:1007A00007D04848874204D022E0DFE807F002186B
:1007B0001B1F8C6844B1012C14BFC9F81450C9F830
:1007C00010504FF0080A13E04FF0040A10E0CC6814
:1007D00004F1040A0CE0CC6804F10C0A08E0D1F83A
:1007E0000CA005E0CC6804F1080A01E04FF0000A13
:1007F0005C4648463346082A28BF203C28BF0430C0
:1008000006680EFA04F7BE430AFA04F4344304609F
:10081000C879C00601D41E463EE0554822F00306C2
:10082000044600681E4440F001002060206800F08B
:1008300001000190019F244F0BF00C00BC46F759BA
:100840000EFA00F427EA0404009F07FA00F02043A0
:1008500046F80C004F681E46F803186854BF20EA9B
:10086000050440EA05041C60B803706854BF20EA20
:10087000050440EA05047460F802B06854BF20EA39
:10088000050440EA0504B8020848B460034600685D
:1008900054BFA843284318600BF1040B01325FE7F3
:1008A000001C014000F8FEBF000401400C040140A0
:1008B0000000111000001210000021100000221092
:1008C000000031100000321008FCFFFF05480068EE
:1008D000704700BF1A48034900780A68104408604E
:1008E000704700BF3801002080B58B48016841F097
:1008F00010010160032000F067F80F2000F004F8F9
:1009000000F020F8002080BD70B50D4E0446307810
:100910004FF47A71B1FBF0F08C490968B1FBF0F04B
:1009200000F0DAFA01250F2C08D838B94FF0FF3063
:1009300021460022002500F02BF87460284670BD87
:100940000400002082B00A48016841F00101016002
:10095000016801F0010101910199416841F0805164
:100960004160406800F080500090009802B07047ED
:1009700018100240002808D400F01F01012202FADA
:1009800001F1024A400942F82010704700E100E0FE
:10099000B0B5134B4FF0FF351B68C3F30223DC1EC9
:1009A00083F0070338BF0024042B28BF042305FA73
:1009B00003F3994305FA04F3A1409A431143BDE8B8
:1009C000B04001F01FB800BF05494FF6FF030A68A9
:1009D0001A4060F30A22034810430860704700BFC2
:1009E0000CED00E00000FA052DE9F843002800F0C6
:1009F0009080884648490446086800F00700404552
:100A00000AD2086820F0070040EA08000860086879
:100A100000F0070040457CD120685B4B8946810788
:100A200011D5410703D5196841F4E0611960010748
:100A300003D5196841F460511960A1681A6822F061
:100A4000F00211431960C0072BD06068012804D15F
:100A500053F8041C890309D45BE053F8041C0228F2
:100A600002D1890102D454E0890752D519681D4684
:100A700021F0030108431860FFF728FF064641F202
:100A80008837606829682B4601F00C01B1EB800FB4
:100A900007D0FFF71BFF801BB842F2D90320BDE847
:100AA000F883D9F8000000F0070040450DD9D9F8C7
:100AB000000020F0070040EA0800C9F80000D9F85B
:100AC000000000F00700404523D12068410705D50C
:100AD000E1681A6822F4E06211431960000706D544
:100AE0002069196821F4605141EAC00018601C4671
:100AF00000F030F82168094AC1F30311515CC84085
:100B0000F349086006480068FFF7FEFE0020BDE8D4
:100B1000F8830120BDE8F88300200240281D00086A
:100B200008000020EA48184900680968084AC1F32B
:100B30000221515CC8407047E548134900680968C4
:100B4000034AC1F3C221515CC84070471000002025
:100B5000381D000810B50C490C480A6802F00C0357
:100B6000082B07D1C2F3834309A4E35CD20302D468
:100B70000C48584310BD096809A2C1F34041515CBB
:100B80005843B0FBF1F010BD0410024000127A008F
:100B900002030405060708090A0B0C0D0E0F1010BE
:100BA0000102000000093D002DE9FC41002800F091
:100BB000CC8004460078C44EC0074AD0706800F06C
:100BC0000C00042817D0706800F00C00082802D12F
:100BD0007068C0030FD4606898B1B0F5803F06D04C
:100BE0003168B0F5A02F21D141F480203060306809
:100BF00040F4803020E0306880032AD5606840BB34
:100C0000A3E0306820F480303060306820F4802029
:100C10003060FFF75BFE05463068800319D5FFF7AB
:100C200055FE411B03206429F6D94AE121F48030A6
:100C30003060306820F480203060FFF747FE0546C2
:100C40003068800305D4FFF741FE401B6428F7D9C4
:100C50000AE1207880072CD5706810F00C0F07D0BF
:100C6000706800F00C00082809D17068C00306D431
:100C70003068800716D52069012813D065E0216906
:100C80009248002900F0B58001210160FFF71EFEA7
:100C900005463068800705D4FFF718FE401B022880
:100CA000F7D9E1E06069316821F0F80141EAC0005C
:100CB0003060207800072ED5A06978B183480121E3
:100CC000C0F88014FFF702FE0546706A800715D44D
:100CD000FFF7FCFD401B0228F7D9C5E07B48002147
:100CE000C0F88014FFF7F2FD0546706A800712D540
:100CF000FFF7ECFD401B0228F7D9B5E074484FF42C
:100D0000FA510068B0FBF1F0019000BF0198411E5C
:100D100000280191F9D12078400719D4E769002F04
:100D200000F0CE80706800F00C00082843D1012F3D
:100D30000BD0216A706800F480328A4205D1616A62
:100D400000F47010884200F0BB800120BDE8FC81F7
:100D5000F069C0000BD4F0694FF0010840F08050FA
:100D6000F061F06900F080500090009801E04FF0D1
:100D70000008584F3868C0050FD4386840F48070B8
:100D80003860FFF7A3FD05463868C00505D4FFF7B6
:100D90009DFD401B6428F7D966E0E068C8B30128D0
:100DA00005D0316A05284BD141F004003062306A29
:100DB00040F001004AE04549002088460866FFF7F8
:100DC00085FD0546022F0AD147463068800157D578
:100DD000FFF77CFD411B03200229F6D971E0306842
:100DE00080016DD5FFF772FD411B03200229F6D962
:100DF00067E000210160FFF769FD05463068800764
:100E00007FF557AFFFF762FD411B03200229F5D99B
:100E100057E0306A20F001003062306A20F00400B0
:100E20003062FFF753FD054641F28837306A80078C
:100E30001DD5FFF74BFD411B0320B942F6D940E019
:100E400021F001003062306A20F004003062FFF7C8
:100E50003DFD054641F28837306A800707D4FFF729
:100E600035FD401BB842F7D90320BDE8FC81B8F13D
:100E7000000F3FF453AFF06920F08050F0614DE770
:100E8000206AB0F5803F05D1A168726822F4003273
:100E900011437160616A0843716821F47411084359
:100EA000706001203866FFF711FD0446306880014C
:100EB00006D4FFF70BFD011B03200229F6D900E041
:100EC0000020BDE8FC8100BF00100240000042424B
:100ED0001000002000700040411E0020B0EB116F98
:100EE0001CBF01207047044AF023516003490B7076
:100EF000072190601160704710E000E023ED00E0F2
:100F00007047704710B590F83C300222012B2AD070
:100F100080F83D20012280F83C2002680B6854686C
:100F2000B2F1804F24F0700444EA030493685460E3
:100F30000ED0494CA2420BD0484CA24208D0484C9B
:100F4000A24205D0474CA24202D0474CA24204D153
:100F5000496823F08003194391600022012180F841
:100F60003C2080F83D10104610BD00BF40B310B5C6
:100F7000044690F83D0028B9002084F83C00204643
:100F800000F020F8022084F83D002068211D00F0C8
:100F9000EBFB012084F8460084F83E0084F83F0013
:100FA00084F8400084F8410084F8420084F843004B
:100FB00084F8440084F8450084F83D00002010BD0A
:100FC00001207047E0B500680B49884218BF8CBD0E
:100FD0000A480022016841F0100101600068002108
:100FE00000F01000019001983620FFF7D1FC362068
:100FF000BDE88C40FFF7BEBC001000401C10024052
:1010000090F83D1001291CBF01207047022180F893
:101010003D100068C168B0F1804F41F00101C1602E
:101020000ED00D4988420BD00C49884208D00C499B
:10103000884205D00B49884202D00B49884204D12E
:10104000816801F00701062903D0016841F0010120
:1010500001600020704700BF00040040000800400D
:10106000000C004000340140002C0140704710B5D6
:10107000044600680169890744BFC1685FEA81715D
:1010800039D40169490744BFC1685FEA41713ED460
:101090000169090744BFC1685FEA017144D401696D
:1010A000C90644BFC1685FEAC16149D40169C90783
:1010B0001CBFC1685FEAC1714FD10169090644BF15
:1010C000C1685FEA016150D40169490644BFC16843
:1010D0005FEA416151D40169890644BFC1685FEA92
:1010E000816100D410BD6FF0200101612046BDE890
:1010F0001040FFF706BF6FF0020101610121217767
:101100008069800741D02046FFF7B0FF43E06FF0D1
:101110000401016102212177806910F4407F3ED0F3
:101120002046FFF7A3FF40E06FF0080101610421B2
:101130002177C06980073CD02046FFF797FF3EE04B
:101140006FF01001016108212177C06910F4407F20
:1011500039D02046FFF78AFF3BE06FF001010161C3
:10116000204600F03DF82068A7E76FF0800101619C
:101170002046FFF7C5FE2068A6E76FF04001016139
:10118000204600F041F82068A5E7204600F025F849
:10119000204600F023F800202077206871E72046E1
:1011A00000F01BF8204600F019F800202077206896
:1011B0006EE7204600F011F8204600F00FF80020FE
:1011C000207720686BE7204600F007F8204600F003
:1011D00005F800202077206868E770477047000016
:1011E000084900684A6890420BD1087848B9488895
:1011F0000130488080B20A2803D3002048800120B3
:1012000008707047780000207047704770470000F2
:10121000F8B5016804460868CA684E6900F02F05F1
:1012200002F02003202D05D123B12046BDE8F8406F
:1012300000F002BB5FEA007E07D006F0010686F0F0
:10124000010712F4907F3FD1F7B31040C206226B22
:1012500028D5012A26D1002000900868009048680F
:10126000009000984869400600F18380E08DA28DCF
:10127000E38D002B00F0D180101A020400F0CD8025
:10128000CA6822F49072CA604A6922F001024A6177
:10129000202284F83E2000222263CA6822F0100235
:1012A000CA608DE0020600F19180400640F1B580F1
:1012B000C86820F04000C860202084F83D00204627
:1012C000BDE8F84000F0BAB9C50718BF12F4807540
:1012D00003D0256C45F00105256400F004054FF0AE
:1012E000010C8CEA95053D4303D1256C45F00205C0
:1012F000256400F002058CEA55053D4303D1256CB9
:1013000045F004052564334318BF0123BEF1000FE7
:1013100004D51BB1236C43F008032364236C002B1A
:101320007BD01040800603D5204600F085FA216866
:101330004869216C00F0400001F0080140185AD0C3
:10134000204600F063FA2068416949064ED541699C
:1013500021F040014161A06B002847D0344941632E
:10136000FFF76AF9002858D0A06B416BBDE8F84040
:101370000847A06B026853689DB2002D4DD0A28D26
:1013800095424AD2E3858369202B17D0CA6822F49C
:101390008072CA604A6922F001024A614A6922F0F9
:1013A00040024A61202284F83E2000222263CA685B
:1013B00022F01002CA60FFF720F9A28DE08D101A0A
:1013C00081B22046BDE8F840FFF71FBF94F83D000A
:1013D000212822D1A068B0F5805F01D1206980B1B9
:1013E000206A421C22620078486011E02046BDE875
:1013F000F840FFF70BBF2046FFF708FF00202064EE
:10140000F8BD206A30F8022B6FF35F2220624A6039
:10141000E08C0138E084000400D0F8BDC86820F0FA
:101420008000C860C86840F04000C860F8BD00BFD8
:101430000118000850B310B5044690F83D0028B9D3
:10144000002084F83C00204600F022F8242084F894
:101450003D002068C16821F40051C160204600F0C1
:1014600045FA2068016921F490410161416921F048
:101470002A014161C16841F40051C160002020216E
:10148000206484F83D1084F83E1010BD01207047A0
:1014900070B586B00026CDE90466CDE902661C4C25
:1014A000006804F5405188422FD1704802AD0168B0
:1014B00041F480410160016801F48041019101998A
:1014C000016841F0040101600068294600F0040051
:1014D000019003200590022003904FF400700290C9
:1014E00001982046FFF720F94FF48060CDE90366AC
:1014F000029020462946FFF717F9252000210022F7
:10150000FFF746FA2520FFF735FA06B070BD00BF99
:101510000008014010B590F83E30202B06D1012480
:1015200029B122B190F83C30012B02D1022420468F
:1015300010BD00240123046380F83C3000F016FA4B
:10154000F5E70000B0B5684900680968884218BF2F
:10155000B0BD084C084D2178286800F0A5FB28682C
:10156000064900F0ADFA604821460122BDE8B040CE
:10157000FFF7D0BF34010020EC0000201400002051
:101580002DE9F047044690F83D0020280AD10D4689
:101590000120002950D01646002A4DD094F83C0076
:1015A000012802D10220BDE8F0874FF0000A012097
:1015B000C4F840A084F83C002120994684F83D00FE
:1015C000FFF784F9E684A6848046A068B0F5805FC2
:1015D00006D127690026002F0CBF2E462F4601E0BA
:1015E0002F46002684F83CA0E08CB8B1204680212C
:1015F00042464B4600F0D4F9B8B927B117F8010BB1
:101600002168486006E036F8021B20686FF35F210E
:1016100041600027E08C0138E084E5E72046402166
:1016200042464B4600F0BCF910B10320BDE8F087FC
:10163000202084F83D000020BDE8F0877047FEE7D9
:1016400082B00A48016841F020010160016801F0A0
:10165000200101910199016841F0040101600068D5
:1016600000F004000090009802B07047181002408B
:10167000BCB50F4C0F49204640F8041F002540F22E
:10168000E73147228561C0E90125C160CDE90055F8
:10169000FFF76CFC08B1FEF7ACFF201D6946CDE9F1
:1016A0000055FFF72FFC08B1FEF7A3FFBCBD00BF3C
:1016B000780000200010004010B5FA48AA4C002124
:1016C0000C224FF4E133C0E90043C0E90211C0E944
:1016D0000412C0E90611FFF7ADFE18B1BDE81040D5
:1016E000FEF787BF10BD00BFF0000020FEE7FEE759
:1016F00070477047FFF7EEB8B0B590B0002401A86E
:101700001421CDE90B44CDE90944FEF719FE4FF44D
:10171000E0100F904FF48030022501210E900D95BE
:101720000A910894CDE9061006A8FFF73DFA18B112
:10173000EFF3108072B6FEE74FF480600594CDE9B8
:1017400003400F20CDE9010501A80221FFF74CF964
:1017500018B1EFF3108072B6FEE710B0B0BD70475D
:10176000D248FFF784BC00BFB0B50268B0F1804F2B
:101770000ED01E4B98420BD01D4B984208D01D4BEB
:10178000984205D01C4B984202D01C4B984203D182
:101790004B6822F070021A43B0F1804F0ED0134B09
:1017A00098420BD0124B984208D0124B984205D069
:1017B000114B984202D0114B984203D1CB6822F4CE
:1017C00040721A434D6922F080022A430B688C68EC
:1017D0000260094AC4629042836202D0074A904282
:1017E00001D10969016301214161B0BD00040040DC
:1017F00000080040000C004000340140002C014073
:10180000406A0021C185C184FFF700BD0168CA6834
:1018100022F49072CA604A6922F001024A61026BA6
:10182000012A03D1CA6822F01002CA60202180F880
:101830003E1000210163704781B090F83E102229CC
:1018400020D18368B3F5805F08D10169002941D0B8
:1018500000F128010A6803685B680AE0014651F854
:10186000282F13B90369002BF5D003685B6803F0D8
:101870007F0313700A6801320A60C18D0139C18586
:10188000090401D001B070470168CA6822F0200243
:10189000CA60CA6822F48072CA604A6922F00102F2
:1018A0004A61202280F83E20026B012A1BD10022CF
:1018B0000263CB6823F01003CB600B68DB0605D511
:1018C00000920A680092496800910099818D01B0E8
:1018D000FFF79BBC0168826A49686FF35F2122F8B9
:1018E000021B8262C9E701B0FFF72CBEB0B5044607
:1018F000006804F108030ECB0569194325F440552F
:101900002A430261C268636941F20C65AA43194324
:101910001143C1604169A26921F4407111434161E1
:101920001149884202D0FFF7FDF801E0FFF704F902
:1019300019214843D4E900126FF063049200B0FB10
:10194000F2F06422B0FBF2F303FB0400322404EB58
:101950000010B0FBF2F000F0F00202EB031200F016
:101960000F0010448860B0BD00380140B0B50023BE
:101970002224C285036480F83E400468E56845F48B
:101980008075E560656945F0010565618285816264
:1019900080F83C30E06840F02000E0600020B0BDFE
:1019A0002DE9F0411D4690460F4604465E1C206816
:1019B00001683940B9421CD0002EF8D035B1FEF78D
:1019C00085FFA0EB0800A842F1D92068C16821F486
:1019D000D071C160416921F00101416120200021E5
:1019E00084F83D0084F83C1084F83E000320BDE8F4
:1019F000F0810020BDE8F081CA48FFF709BC00BFB4
:101A0000FEE7000010B5074C00F00F032344044A22
:101A1000B0F1FF3FC8BF83180801187010BD00BFA8
:101A200000E400E014ED00E0FEF75EFFFFF764FE67
:101A3000FFF706FEFFF740FEFFF71AFE184DB94C00
:101A4000AE1C194F2046314602220A23B8471748D8
:101A50006FF0010201680A61FFF7D2FA202000F05E
:101A6000A7F82046294602220A23B84762480222E4
:101A700000680A23002808BF354620462946B84793
:101A80000B4920460122FFF745FD0A4E0A4C0B4D3B
:101A900030780028FCD02046294600F02BF9F7E7E3
:101AA00000000020F0000020811500087C000020CC
:101AB0003401002078000020C6000020140000201F
:101AC0001CB5024600208DF807000C460978002955
:101AD0006AD00DF10701104600F0AEF8A8B1334905
:101AE000087804285FD8DFE800F003121E2E3900C2
:101AF0009DF807200120552A56D108704A78531CBA
:101B00004B70114455228A701CBD00201CBD4878C2
:101B10009DF807300A189370022201300A7048704D
:101B200081F822303FE048789DF807300A180130EC
:101B30009370487091F82220C0B2023A824204BFEA
:101B4000032008702FE091F822008A1C831E0020D9
:101B50008BB112F8014B013B6040F9E79DF807009B
:101B6000AA2820D14878AA22084482700020087050
:101B70004870207017E09DF80720904207D104229A
:101B80000A704A788B189870501C48700BE000203F
:101B90000022202A03D08B1898700132F9E7002028
:101BA000087081F8220001201CBD00BFC400002085
:101BB00070B5E0B105461020FEF72CFB0E4E044632
:101BC000306090B125F003052846FEF723FB01465F
:101BD0000A480160204621B12A4600F04DF83468D9
:101BE00003E0FEF746FB00243460204670BD2D481C
:101BF0003F496022FEF764FBEC000020E800002073
:101C000010B5D0E90112022382EA0104022C38BF88
:101C100004F001031BB1012B03D1C06810BD0020EB
:101C200010BD52084B08B2EB510F8FBFD01AD11A1A
:101C3000C068084410BD0000B0B5B8B10D460446F8
:101C4000FFF7DEFF80B1D4E900014908405C28704D
:101C50006168E2680120013A8B1CB2EB510F08BFAA
:101C600020EA01036360B0BD0020B0BD1F482049D9
:101C700040F29512FEF724FB48B1002A0CDD002348
:101C800022F00302C0E90013C0E90232704717488E
:101C900017494B22FEF714FB024815494C22FEF768
:101CA0000FFB00BF401D000870B5C0B1C6680D46EF
:101CB0000446FFF7A5FF864204BF002070BDA1685F
:101CC000206849084554D4E902120120013A8B1CCE
:101CD000B2EB510F08BF20EA0103A36070BD0348B7
:101CE000034940F24D12FEF7EBFA00BF491D000810
:101CF000571D000810B50C46097801B110BD807859
:101D0000012804D0022808D10548811C00E00449BC
:101D1000044802220A23FFF733FC0120207010BD83
:101D20000C000020F0000020000000000000000077
:101D30000102030406070809000000000102030471
:101D400073697A65203E203000726220213D205266
:101D5000545F4E554C4C0075736172742F647276EB
:101D60005F75736172742E6300000000901D00089F
:101D700000000020180000006C010008A81D0008E9
:101D8000180000202807000088010008000000005B
:101D900055AA11220100000010000000AAAABBBB36
:081DA0000024F4000200000021
:0400000508000131BD
:00000001FF
