:020000040800F2
:10000000F82D0020450100085D4C0008C54500089A
:10001000594C0008A5070008B9A20008000000001C
:1000200000000000000000000000000091620008D5
:10003000A907000800000000D5520008E962000886
:100040005F0100085F0100085F0100085F01000810
:100050005F0100085F0100085F0100085F01000800
:100060005F0100085F0100085F0100085F010008F0
:100070005F0100085F0100085F0100085F010008E0
:100080005F0100085F0100085F0100085F010008D0
:1000900045A100085F0100085F0100085F0100083A
:1000A0005F0100085F0100085F0100085F010008B0
:1000B0005F0100085F0100085F0100085F010008A0
:1000C0005F0100085F0100085F0100085F01000890
:1000D0005F010008716700085F0100085F01000808
:1000E0005F0100085F0100085F0100085F01000870
:1000F0005F0100085F0100085F0100085F01000860
:100100005F0100085F0100085F0100085F0100084F
:100110005F0100085F0100085F0100085F0100083F
:100120005F0100085F0100085F0100085F0100082F
:10013000DFF80CD000F02AFA004800470DA90008AB
:10014000F82D00200648804706480047FEE7FEE7F6
:10015000FEE7FEE7FEE7FEE7FEE7FEE7FEE7FEE777
:100160008D63000831010008D2B201E000F8012BD4
:10017000491EFBD270470022F6E710B513460A4627
:1001800004461946FFF7F0FF204610BD30B50B4678
:10019000014600202022012409E021FA02F59D42B7
:1001A00005D303FA02F5491B04FA02F52844151E8B
:1001B000A2F10102F1DC30BD2DE9F05F054600201F
:1001C00092469B4688460646814640241BE02846C8
:1001D00041464746224600F0FAF953465A46C01AAD
:1001E000914110D311461846224600F0E1F92D1A2C
:1001F00067EB01084F4622460120002100F0D8F9A4
:1002000017EB00094E41201EA4F10104DFDC484633
:1002100031462A464346BDE8F09F2DE9FE4F804611
:1002200081EA0300C00F0C46009021F0004123F04A
:100230000045B8EB0200A94105D240462146904650
:100240001C460B46024623F00040104347D0270DC2
:10025000C7F30A00C3F30A510290401A01904028E4
:100260006BDAC3F3130040F4801B0098924620B170
:100270000023D2EB030A63EB0B0B01985946C0F144
:100280004002504600F094F906460D465046594645
:10029000019A00F0ACF910EB08006141002487EAF4
:1002A000115284EAE7731A4340D0009A62B3019A6C
:1002B000012A4FEA075215DC001B61EB02014FF0E7
:1002C000004202EA0752CDE90042001C41F58011CC
:1002D00032462B4600F0ACF903B0BDE8F08F404643
:1002E0002146F9E7001B61EB0201001C41F5801378
:1002F00000185B412018A2F5001747EB030140EA04
:10030000D570B6196D4111E06D084FEA360645EA21
:10031000C0754FEA0752001B61EB0201001C41F55A
:10032000801149084FEA30000019514132462B46EE
:1003300003B0BDE8F04F00F06CB900980122400016
:100340000023D0EB020263EBE073009821464FEAF2
:10035000E074B8EB000061EB0401E9E783F00043CF
:100360005BE781F0004158E72DE9FE4F81EA030485
:1003700004F0004421F0004100944FF0000B23F002
:10038000004350EA01045ED052EA03045BD0C3F399
:100390000A54C1F30A552C44A4F2F3340194A0FB8F
:1003A0000254C1F3130141F48011C3F3130343F466
:1003B000801301FB024400FB034E840A970A44EABF
:1003C000815447EA8357A4FB076802958D0A05FB11
:1003D00007854FEA932C04FB0C542705029D4FEA36
:1003E000065847EA1637B5EB08056EEB070C870E83
:1003F000920E47EA811742EA8312A7FB0201B6EB8D
:100400000B0164EB00042B0D43EA0C335E1844EB44
:100410001C50DA465146E7FB0201C5F313044FEACC
:100420000B3343EA14534FEA0432019C43EA0603B8
:10043000A4F10C040294009CCDE900B400F0F8F89B
:1004400003B0BDE8F08F00200146F9E72DE9F04D3B
:1004500081EA030404F0004B21F0004514464FF0FC
:10046000000A23F0004150EA050220D054EA0102BC
:100470001DD0C5F30A570246C5F31303C1F3130099
:10048000C1F30A5640F4801543F48013A7EB060825
:10049000101BD64608F2FD3873EB050002D308F1B5
:1004A000010801E092185B41B8F1000F03DA002067
:1004B0000146BDE8F08D00204FF4801106468446C9
:1004C0000EE0171B73EB050705D3121B63EB050347
:1004D00006434CEA010C49084FEA300092185B4190
:1004E00050EA0107EDD152EA030012D082EA04007B
:1004F00083EA0501084305D0101BAB4106D2012257
:10050000002306E000224FF0004302E06FF00102FA
:1005100053101AEB06004CEB085110EB0A0041EBAC
:100520000B01BDE8F04D00F074B8C1F30A52C1F3FD
:10053000130140F2FF3341F480119A4202DA0020A5
:100540000146704740F233439A42A2F2334202DC42
:10055000524200F03CB800F02BB8000030B5041E49
:1005600071F1000404DB4FF00044404264EB0101F0
:10057000141E73F1000405DB1C464FF00043524289
:1005800063EB0403994208BF904230BD064C074D0F
:1005900006E0E06840F0010394E807009847103453
:1005A000AC42F6D3FFF7C8FD7876020898760208C9
:1005B000202A04DB203A00FA02F100207047914023
:1005C000C2F1200320FA03F3194390407047202A18
:1005D00004DB203A21FA02F00021704721FA02F3ED
:1005E000D040C2F120029140084319467047202AAA
:1005F00006DBCB17203A41FA02F043EAE07306E04B
:1006000041FA02F3D040C2F120029140084319465A
:10061000704710B5141E73F1000408DA401C41F154
:10062000000192185B411A4301D120F0010010BD76
:100630002DE9F04D92469B4611B1B1FA81F202E0EC
:10064000B0FA80F220329046FFF7B2FF04460F4620
:1006500040EA0A0041EA0B0153465A46084313D0C8
:10066000114653EA010019D0C8F140025046FFF785
:10067000AEFF05460E46504659464246FFF798FFE4
:10068000084305D0012004E020463946BDE8F08D3E
:100690000020054346EAE0762C4337430A98630579
:1006A000E40AA0EB08000022FD0A44EA47540A309D
:1006B00002D500200146E9E7010510196941DDE98D
:1006C000084500196941BDE8F04DA2E780B588B042
:1006D00005208DF81E0040F60040C4F201004FF4E2
:1006E000805100220690059100F03EFC42F6501029
:1006F000C2F200000DF11E0101224FF47A73049042
:100700000392029303F076F80DF11D01049A019013
:100710001046039A029B02F0A5FE06990090084637
:100720000599039A00F020FC9DF81D00C0070028E1
:1007300004D0FFE702208DF81F0003E000208DF8B1
:100740001F00FFE79DF81F0008B080BD80B500F0D6
:1007500003F8FFF7BBFF80BD80B584B049F6661093
:10076000ADF80E0040F60040C4F201004FF4805195
:1007700000220290019100F0F7FB42F65010C2F205
:1007800000000DF10E0102224FF47A7303F032F8EB
:100790000122029900900846019900F0E5FB04B09F
:1007A00080BD0000FFE7FEE77047000081B0EFF377
:1007B000108072B60090FFE7FEE7000080B584B0BD
:1007C0004FF2E870C1F6FF70006803904FF2EC70D2
:1007D000C1F6FF70006802904FF2F070C1F6FF7032
:1007E0000068019001980399084403900398002839
:1007F00013D0FFE7039840F20011C2F200018A1CF7
:100800000823009111461A4603F0DEFE0298009973
:100810001231042203F0D8FEFFE704B080BD0000CF
:1008200083B0019000208DF80300019890F821001A
:1008300002280DD0FFE7019804218163FFE70198AA
:10084000002180F82010FFE701208DF80B0022E046
:1008500001980068016821F00E01016001980068AC
:10086000016821F0010101600198C16B006C012257
:1008700002FA00F04860FFE70198012180F821109A
:10088000FFE70198002180F82010FFE79DF80300A2
:100890008DF80B00FFE79DF80B0003B070470000D8
:1008A00080B596B0159000208DF85300159890F8FB
:1008B0002100022807D0FFE7159804218163012059
:1008C0008DF8530075E115980068016821F00E015C
:1008D000016015980068016821F001010160159818
:1008E00000688121C4F202018842C0F0A880FFE7BD
:1008F000159800680821C4F20201884203D1FFE77D
:100900000120139094E0159800681C21C4F20201A4
:10091000884203D1FFE71020129086E01598006806
:100920003021C4F20201884204D1FFE74FF4807005
:10093000119077E0159800684421C4F202018842C2
:1009400004D1FFE74FF48050109068E015980068DC
:100950005821C4F20201884204D1FFE74FF48030ED
:100960000F9059E0159800686C21C4F2020188428A
:1009700004D1FFE74FF480100E904AE0159800680C
:100980008021C4F20201884204D1FFE74FF0807059
:100990000D903BE01598006840F20841C4F2020156
:1009A000884203D1FFE701200C902CE015980068E5
:1009B00040F21C41C4F20201884203D1FFE710203B
:1009C0000B901DE01598006840F23041C4F202011E
:1009D000884204D1FFE74FF480700A900DE015982B
:1009E000006840F24441C4F202014FF48032884270
:1009F00008BF4FF480520A92FFE70A980B90FFE776
:100A00000B980C90FFE70C980D90FFE70D980E9057
:100A1000FFE70E980F90FFE70F981090FFE71098F0
:100A20001190FFE711981290FFE712981390FFE7DB
:100A3000139840F20441C4F202010860A5E0159841
:100A400000680821C4F20201884203D1FFE70120B7
:100A5000099094E0159800681C21C4F202018842B4
:100A600003D1FFE71020089086E015980068302138
:100A7000C4F20201884204D1FFE74FF4807007906E
:100A800077E0159800684421C4F20201884204D13D
:100A9000FFE74FF48050069068E0159800685821F1
:100AA000C4F20201884204D1FFE74FF48030059080
:100AB00059E0159800686C21C4F20201884204D103
:100AC000FFE74FF4801004904AE0159800688021F9
:100AD000C4F20201884204D1FFE74FF08070039016
:100AE0003BE01598006840F20841C4F202018842D8
:100AF00003D1FFE7012002902CE01598006840F236
:100B00001C41C4F20201884203D1FFE7102001908A
:100B10001DE01598006840F23041C4F2020188429D
:100B200004D1FFE74FF4807000900DE01598006845
:100B300040F24441C4F202014FF48032884208BFBF
:100B40004FF480520092FFE700980190FFE7019870
:100B50000290FFE702980390FFE703980490FFE7F5
:100B600004980590FFE705980690FFE70698079020
:100B7000FFE707980890FFE708980990FFE70998B2
:100B80000421C4F202010860FFE71598012180F8F2
:100B90002110FFE71598002180F82010FFE7159835
:100BA000406B002804D0FFE71598416B8847FFE7AA
:100BB000FFE79DF8530016B080BD000080B584B0FB
:100BC000039000F0EBF90290039801900198013036
:100BD000002809D0FFE740F22010C2F200000078A0
:100BE000019908440190FFE7FFE700F0D7F9029967
:100BF000401A0199884201D2FFE7F6E704B080BDB0
:100C000092B01190109100200F900B90FFE7109878
:100C100000680F99C840002800F0A381FFE70F98F3
:100C2000012101FA00F00E90109800680E9908401A
:100C30000D900D980E99884240F08F81FFE7109833
:100C400040680028079051D0FFE7079801283AD064
:100C5000FFE7079802283FD0FFE70798032860D0F6
:100C6000FFE70798112832D0FFE70798122838D0FD
:100C7000FFE70020C1F211000799814236D0FFE75B
:100C80000020C1F21200079981422FD0FFE7002017
:100C9000C1F221000799814228D0FFE70020C1F26C
:100CA00022000799814221D0FFE70020C1F23100E4
:100CB000079981421AD0FFE70020C1F2320007995C
:100CC000814213D030E01098C0680B902DE010984E
:100CD000C06804300B9028E01098C06808300B9072
:100CE00023E01098C0680C300B901EE010988068CC
:100CF000002803D1FFE704200B9011E010988068D2
:100D0000012806D1FFE708200B900E981199086181
:100D100005E008200B900E9811994861FFE7FFE766
:100D200003E000200B9000E0FFE70D98FF2803D8B8
:100D3000FFE71198069003E0119804300690FFE752
:100D400006980A900D98FF2804D8FFE70F988000B6
:100D5000059006E00F986FF01F0101EB80000590F1
:100D6000FFE7059809900A98006809990F228A40C0
:100D700090430B9A02FA01F108430A99086010980F
:100D8000C079C006002840F1E780FFE7FFE741F2A5
:100D90001800C4F20200016841F00101016000681E
:100DA00000F0010008900898FFE70F9820F003007A
:100DB0000821C4F2010140580C900F9800F0030084
:100DC00080000F2101FA00F00C9921EA00000C903C
:100DD000119840F60001C4F20101884203D1FFE7F7
:100DE0000020049042E0119840F60041C4F2010155
:100DF000884203D1FFE70120039034E0119841F2CB
:100E00000001C4F20101884203D1FFE702200290F1
:100E100026E0119841F20041C4F20101884203D159
:100E2000FFE70320019018E0119841F60001C4F299
:100E30000101884203D1FFE7042000900AE01198E5
:100E400041F60041C4F201010622884208BF052292
:100E50000092FFE700980190FFE701980290FFE7FA
:100E600002980390FFE703980490FFE704980F9916
:100E700001F00301890088400C9908430C900C98FC
:100E80000F9921F003010822C4F201028850109842
:100E90008079C007002809D0FFE70D9840F2004193
:100EA000C4F201010A681043086009E00D9840F29D
:100EB0000041C4F201010A6822EA00000860FFE76D
:100EC000109880798007002809D5FFE70D9840F237
:100ED0000441C4F201010A681043086009E00D985A
:100EE00040F20441C4F201010A6822EA00000860ED
:100EF000FFE710988079C006002809D5FFE70D9814
:100F000040F20841C4F201010A681043086009E098
:100F10000D9840F20841C4F201010A6822EA00007B
:100F20000860FFE7109880798006002809D5FFE760
:100F30000D9840F20C41C4F201010A6810430860A8
:100F400009E00D9840F20C41C4F201010A6822EA5E
:100F500000000860FFE7FFE7FFE70F9801300F9000
:100F600055E612B07047000082B013468C460190DF
:100F7000ADF802108DF801209DF80100002805D081
:100F8000FFE7BDF802000199086105E0BDF8020025
:100F9000000401990861FFE702B0704742F6F010C3
:100FA000C2F200000068704740F22010C2F2000058
:100FB000007842F6F011C2F200010A68104408609D
:100FC0007047000080B582B042F20000C4F2020017
:100FD000016841F010010160032000F0A1F80F202A
:100FE00000F006F8019000F03DF8002002B080BD4E
:100FF00080B582B0009040F22000C2F2000000688C
:1010000040F22011C2F2000109784FF47A72B2FB6B
:10101000F1F1B0FBF1F002F0B1FF002804D0FFE7DE
:1010200001208DF8070018E000980F280DD8FFE781
:1010300000994FF0FF30002200F052F8009840F283
:101040002411C2F20001086003E001208DF80700BE
:1010500003E000208DF80700FFE79DF8070002B0CD
:1010600080BD000083B0FFE741F21800C4F2020027
:10107000016841F001010160006800F00100029088
:101080000298FFE7FFE741F21C00C4F2020001688A
:1010900041F080510160006800F08050019001989B
:1010A000FFE7FFE70420C4F2010001680091009906
:1010B00021F0E0610091009941F0007100910099E8
:1010C0000160FFE703B0704780B582B001468DF83C
:1010D00007009DF90700009109F0A0FB02B080BD58
:1010E00080B588B003468DF81F0006910592002058
:1010F0000490039309F0ACFB04909DF91F00049940
:10110000069A059B0290084611461A4603F0A8FD70
:10111000029901900846019909F0A2FB08B080BD30
:1011200080B582B00190019809F0BCFB02B080BD8F
:1011300080B584B094468E460390ADF80A10ADF8A1
:1011400008200193BDF80A00000600280CD5FFE72F
:101150000398BDF80A1001F0070101EB810100EBD3
:10116000C100283000900AE00398BDF80A1001EB96
:10117000810100EBC10000F5B4700090FFE7BDF8FD
:101180000800002807D1FFE70098002101730198AB
:101190000099C8800AE00098012101730198009924
:1011A0000881BDF8060000994881FFE7002004B0DF
:1011B00080BD000082B00A4601908DF803109DF8B2
:1011C0000300012801D1FFE700E0FFE702B070470C
:1011D00080B584B00A4603908DF80B100398D0F8C0
:1011E000E8129DF80B3003EB830C00EBCC00C06BD6
:1011F000019008461946019B00921A4605F050FFDF
:1012000004B080BD80B584B00A4603908DF80B1001
:101210000398D0F8E8129DF80B3003EB830C00EB39
:10122000CC00D0F87C01019008461946019B009241
:101230001A4605F0F5FF04B080BD000080B584B00B
:101240000A4602908DF807109DF807000006002856
:101250000FD5FFE702989DF8071001F0070101EB99
:10126000810100EBC10028300090009801214170FD
:101270000FE002989DF8071001F0070101EB8101D2
:1012800000EBC10000F5B47000900098002141709F
:10129000FFE79DF8070000F0070000990870FFE7DE
:1012A000029890F8A802012804D1FFE702208DF8E7
:1012B0000F0014E00298012180F8A812FFE7FFE771
:1012C00002980068009907F0CFFBFFE70298002121
:1012D00080F8A812FFE700208DF80F00FFE79DF8C7
:1012E0000F0004B080BD000080B584B00A460290B3
:1012F0008DF807109DF8070000F00F00029949686B
:10130000884204D9FFE701208DF80F004DE09DF8D9
:101310000700000600280FD5FFE702989DF8071088
:1013200001F0070101EB810100EBC10028300090C2
:101330000098012141700FE002989DF8071001F01C
:10134000070101EB810100EBC10000F5B4700090D2
:10135000009800214170FFE70098002181709DF8FE
:10136000070000F0070000990870FFE7029890F866
:10137000A802012804D1FFE702208DF80F0014E035
:101380000298012180F8A812FFE7FFE702980068A1
:10139000009907F067FDFFE70298002180F8A81286
:1013A000FFE700208DF80F00FFE79DF80F0004B065
:1013B00080BD000080B588B0134607900691ADF857
:1013C0001620BDF81600400400287CD5FFE70798DA
:1013D0000068B0F850000699097800EBC100079941
:1013E000096801EB4000B0F804046FF39F20ADF8EA
:1013F000140006988069BDF81410884207D3FFE7EF
:10140000BDF8140006998A69101A886103E00698ED
:1014100000218161FFE70698806900281FD1FFE75E
:10142000FFE7079800680699097830F821004BF625
:101430008F710840ADF81200BDF8120080F4005022
:10144000ADF81200BDF8120048F280010843079978
:101450000968069A127821F82200FFE7FFE7BDF835
:101460001600400600281BD5FFE7FFE7FFE70798B7
:1014700000680699097830F8210048F68F71084015
:10148000ADF81000BDF8100048F2C00108430799FC
:101490000968069A127821F82200FFE7FFE7FFE7C4
:1014A000BDF8140000280DD0FFE7079800680699E2
:1014B0004A690989BDF8143002911146029A08F070
:1014C00053FEFFE77BE007980068B0F850000699EC
:1014D000097800EBC1000799096801EB4000B0F8FA
:1014E0000C046FF39F20ADF8140006988069BDF8D6
:1014F0001410884207D3FFE7BDF8140006998A69E3
:10150000101A886103E0069800218161FFE70698C0
:10151000806900281FD1FFE7FFE707980068069958
:10152000097830F821004BF68F710840ADF80E00B5
:10153000BDF80E0080F40050ADF80E00BDF80E00AE
:1015400048F28001084307990968069A127821F841
:101550002200FFE7FFE7BDF81600400600281BD475
:10156000FFE7FFE7FFE7079800680699097830F87A
:10157000210048F68F710840ADF80C00BDF80C0052
:1015800048F2C001084307990968069A127821F8C1
:101590002200FFE7FFE7FFE7BDF8140000280DD0A9
:1015A000FFE70798006806994A694989BDF8143031
:1015B00001911146019A08F0D7FDFFE7FFE7BDF85A
:1015C000140008B080BD000080B5A8B01346279075
:1015D0002691ADF89620BDF896004006002840F10F
:1015E000C181FFE727980068B0F850002699097874
:1015F00000EBC1002799096801EB4000B0F8040432
:101600006FF39F20ADF88E0026988069BDF88E108C
:10161000884207D9FFE7BDF88E0026998A69101A1B
:10162000886103E0269800218161FFE726988069A0
:10163000002840F0B280FFE7FFE7269840780028B6
:1016400021D1FFE7FFE727980068229027980068DC
:10165000B0F85000229908442290229826990978DF
:1016600000EB011000F204402190FFE7219801886F
:1016700021F4F84101802198018841F40041018062
:10168000FFE7FFE71DE026984078012818D1FFE723
:10169000FFE7279800681F9027980068B0F850006F
:1016A0001F9908441F901F982699097800EB011094
:1016B00000F204401E901E9800210180FFE7FFE722
:1016C000FFE7FFE7FFE7279800681D90269840781E
:1016D000002821D1FFE7FFE7279800681B90279893
:1016E0000068B0F850001B9908441B901B9826997D
:1016F000097800EB011000F20C401A90FFE71A98ED
:10170000018821F4F84101801A98018841F40041D0
:101710000180FFE7FFE718E026984078012813D101
:10172000FFE727980068B0F850001D9908441D9005
:101730001D982699097800EB011000F20C401C90CE
:101740001C9800210180FFE7FFE7FFE72798269913
:101750000978FFF73DFDBDF89600400400281BD531
:10176000FFE7FFE7FFE7279800682699097830F838
:10177000210048F68F710840ADF86200BDF86200A4
:101780004CF28001084327990968269A127821F8BB
:101790002200FFE7FFE7FFE7E3E0BDF89600400423
:1017A00000281BD5FFE7FFE7FFE727980068269989
:1017B000097830F8210048F68F710840ADF86000D4
:1017C000BDF860004CF28001084327990968269A09
:1017D000127821F82200FFE7FFE7FFE7269890F84C
:1017E0002400012840F0BC80FFE7BDF88E00269958
:1017F0004A6910444861BDF88E002699CA691044B0
:10180000C86126980169006A884209D3FFE72698D3
:1018100000692490249826990A6A101A086217E031
:101820002698006A002808D1FFE7BDF88E002490B2
:101830002698002180F8241009E02698002180F8DD
:1018400024102698006A249026980162FFE7FFE79B
:10185000FFE726984078002856D1FFE7FFE7279852
:101860000068179027980068B0F85000179908444E
:10187000179017982699097800EB011000F20440A0
:101880001690FFE7249800280BD1FFE716980188EF
:1018900021F4F84101801698018841F4004101804B
:1018A0002FE024983E2814D8FFE7FFE7249840084B
:1018B00015909DF89000C007002804D0FFE7159808
:1018C00001301590FFE71598800216990880FFE710
:1018D00016E0FFE72498400915909DF89000C00697
:1018E000002804D1FFE7159801381590FFE71598F7
:1018F0004FF4004141EA802016990880FFE7FFE796
:10190000FFE7FFE7FFE71DE026984078012818D1A0
:10191000FFE7FFE727980068149027980068B0F861
:10192000500014990844149014982699097800EBF3
:10193000011000F204401390249813990880FFE7E7
:10194000FFE7FFE7FFE72798006826994A690989BA
:10195000BDF8903001911146019A08F06BFCFFE749
:10196000FFE7BDE127980068B0F850002699097894
:1019700000EBC1002799096801EB4000B0F80C04A6
:101980006FF39F20ADF88E0026988069BDF88E1009
:10199000884207D3FFE7BDF88E0026998A69101A9E
:1019A000886103E0269800218161FFE7269880691D
:1019B000002840F0B280FFE7FFE726984078002833
:1019C00021D1FFE7FFE72798006812902798006869
:1019D000B0F850001299084412901298269909788C
:1019E00000EB011000F204401190FFE7119801880C
:1019F00021F4F84101801198018841F400410180EF
:101A0000FFE7FFE71DE026984078012818D1FFE79F
:101A1000FFE7279800680F9027980068B0F85000FB
:101A20000F9908440F900F982699097800EB011040
:101A300000F204400E900E9800210180FFE7FFE7BE
:101A4000FFE7FFE7FFE7279800680D9026984078AA
:101A5000002821D1FFE7FFE7279800680B9027981F
:101A60000068B0F850000B9908440B900B98269929
:101A7000097800EB011000F20C400A90FFE70A9889
:101A8000018821F4F84101800A98018841F400415D
:101A90000180FFE7FFE718E026984078012813D17E
:101AA000FFE727980068B0F850000D9908440D90A2
:101AB0000D982699097800EB011000F20C400C906B
:101AC0000C9800210180FFE7FFE7FFE727982699A0
:101AD0000978FFF77DFBBDF89600400400281BD471
:101AE000FFE7FFE7FFE7279800682699097830F8B5
:101AF000210048F68F710840ADF82200BDF82200A1
:101B00004CF28001084327990968269A127821F837
:101B10002200FFE7FFE7FFE7E1E0BDF896004004A1
:101B200000281BD4FFE7FFE7FFE727980068269906
:101B3000097830F8210048F68F710840ADF8200090
:101B4000BDF820004CF28001084327990968269AC5
:101B5000127821F82200FFE7FFE7FFE7269890F8C8
:101B60002400012840F0BA80FFE7BDF88E002699D6
:101B70004A6910444861BDF88E002699CA6910442C
:101B8000C86126980169006A884209D3FFE7269850
:101B900000692490249826990A6A101A086217E0AE
:101BA0002698006A002808D1FFE7BDF88E0024902F
:101BB0002698002180F8241009E02698006A2490D5
:101BC000269800210162269880F82410FFE7FFE79D
:101BD000FFE727980068079026984078002856D19C
:101BE000FFE7FFE727980068059027980068B0F89E
:101BF000500005990844059005982699097800EB4E
:101C0000011000F20C400490FFE7249800280BD14B
:101C1000FFE70498018821F4F841018004980188C5
:101C200041F4004101802FE024983E2814D8FFE7BA
:101C3000FFE72498400803909DF89000C007002813
:101C400004D0FFE7039801300390FFE70398800278
:101C500004990880FFE716E0FFE724984009039005
:101C60009DF89000C006002804D1FFE703980138D2
:101C70000390FFE703984FF4004141EA8020049964
:101C80000880FFE7FFE7FFE7FFE7FFE718E0269898
:101C90004078012813D1FFE727980068B0F850007A
:101CA00007990844079007982699097800EB0110D6
:101CB00000F20C400690249806990880FFE7FFE7A1
:101CC000FFE72798006826994A694989BDF890304E
:101CD00000911146009A08F0ADFAFFE7FFE7FFE731
:101CE000FFE7279800682699097830F8210048F620
:101CF000BF710840ADF80A00BDF80A0080F010007E
:101D0000ADF80A00BDF80A0080F02000ADF80A0026
:101D1000BDF80A0048F28001084327990968269A0D
:101D2000127821F82200FFE7002028B080BD0000D3
:101D300080B584B00A4602908DF80710FFE702983C
:101D400090F8A802012804D1FFE702208DF80F00C7
:101D500023E00298012180F8A812FFE7FFE79DF831
:101D600007000006002809D5FFE7029800689DF8E3
:101D7000071001F0070108F0DFF904E0029800689D
:101D800008F0D4F9FFE7FFE70298002180F8A812D5
:101D9000FFE700208DF80F00FFE79DF80F0004B06B
:101DA00080BD000082B00A4601908DF803100198B2
:101DB0009DF8031001F0070101EB810100EBC10068
:101DC000D0F8840102B0704710B586B09C469646A4
:101DD0000C4604908DF80F10ADF80C208DF80B30E8
:101DE00000208DF80A009DF80F00000600280FD58E
:101DF000FFE704989DF80F1001F0070101EB810146
:101E000000EBC100283001900198012141700FE0E2
:101E100004989DF80F1001F0070101EB810100EB20
:101E2000C10000F5B4700190019800214170FFE7F6
:101E30009DF80F0000F0070001990870BDF80C0034
:101E4000019908619DF80B000199C87001984078CC
:101E5000002804D0FFE701980178C181FFE79DF8D1
:101E60000B00022804D1FFE7019800210171FFE770
:101E7000FFE7049890F8A802012804D1FFE70220A8
:101E80008DF8170015E00498012180F8A812FFE7EB
:101E9000FFE704980068019906F0BEFAFFE704988E
:101EA000002180F8A812FFE79DF80A008DF81700BE
:101EB000FFE79DF8170006B010BD000080B586B0A2
:101EC0008C4605908DF813100392029305989DF8A7
:101ED000131001F0070101EB810100EBC10000F5D7
:101EE000B470019003980199486102980199886142
:101EF00001980021C161019841709DF8130000F024
:101F00000700019908709DF813004007002806D1CA
:101F1000FFE705980068019907F08EF805E005983D
:101F20000068019907F088F8FFE7002006B080BD3F
:101F300080B586B00A4604908DF80F109DF80F000A
:101F400000F0070004994968884204D9FFE701209E
:101F50008DF817005BE09DF80F00000600280FD5F4
:101F6000FFE704989DF80F1001F0070101EB8101D4
:101F700000EBC100283002900298012141700DE071
:101F800004989DF80F1001EB810100EBC10000F5F2
:101F9000B4700290029800214170FFE7029801217D
:101FA00081709DF80F0000F0070002990870FFE7AC
:101FB000049890F8A802012804D1FFE702208DF8C8
:101FC000170024E00498012180F8A812FFE7FFE73A
:101FD00004980068029906F0E9FF9DF80F10490780
:101FE00000290AD1FFE70498016800F52C700190E0
:101FF0000846019906F030FFFFE7FFE7049800214B
:1020000080F8A812FFE700208DF81700FFE79DF881
:10201000170006B080BD000080B586B08C460590E4
:102020008DF813100392029305989DF8131001F098
:10203000070101EB810100EBC100283001900398FA
:10204000019948610298019988610198012180F8FD
:1020500024100298019A106201980022C26101982E
:1020600041709DF8130000F00700019908709DF879
:1020700013004007002806D1FFE705980068019982
:1020800006F0DAFF05E005980068019906F0D4FF34
:10209000FFE7002006B080BD80B586B005900598AA
:1020A000006808F057F80004002804D5FFE70598F9
:1020B00002F00EFEFFE70598006808F04BF84005B7
:1020C000002810D5FFE705980068B0F8441021F407
:1020D0008061A0F84410059800F038FA05980021B6
:1020E00000F066FAFFE70598006808F033F840044E
:1020F000002809D5FFE705980068B0F8441021F4DE
:102100008041A0F84410FFE70598006808F022F825
:102110008004002809D5FFE705980068B0F844104E
:1021200021F40051A0F84410FFE70598006808F07A
:1021300011F8C00400281CD5FFE705980068B0F826
:10214000401021F00401A0F8401005980068B0F894
:10215000401021F00801A0F84010059800F014FA92
:1021600005980068B0F8441021F48051A0F844109C
:10217000FFE70598006807F0EDFF0005002872D51D
:10218000FFE700208DF80300FFE79DF80300072814
:1021900012D8FFE7059800689DF8031030F8210079
:1021A0009DF8031001AA22F81100FFE79DF8030033
:1021B00001308DF80300E8E705980068B0F840109A
:1021C00041F00101A0F8401005980068B0F84010F7
:1021D00021F00101A0F84010FFE705980068B0F871
:1021E00044004005002801D4FFE7F6E705980068A1
:1021F000B0F8441021F48061A0F8441000208DF85C
:102200000300FFE79DF80300072810D8FFE79DF8BB
:10221000030001A931F81010059A126822F8201065
:10222000FFE79DF8030001308DF80300EAE7059809
:102230000068B0F8401041F00801A0F8401005987F
:102240000068B0F8441021F40061A0F8441005982B
:102250000068B0F8401041F00401A0F84010059863
:1022600000F018FAFFE70598006807F073FF800593
:1022700000280CD5FFE705980068B0F8441021F459
:102280000071A0F84410059800F088F9FFE7059860
:10229000006807F05FFFC005002809D5FFE7059833
:1022A0000068B0F8441021F48071A0F84410FFE7F2
:1022B00006B080BD2DE9F0418CB00A900A98002844
:1022C00004D1FFE701208DF82F0011E10A9890F862
:1022D000A902002808D1FFE70A98002180F8A81277
:1022E0000A9800F00BF9FFE70A98032180F8A91279
:1022F0000A98006806F0A0FD0A990A684B68D1F8B0
:1023000008C0D1F80CE00C694D698E69CF69096A83
:10231000E846C8F81010C8F80C70C8F80860C8F88B
:102320000450C8F8004008901046194662467346AB
:1023300006F07EFB002808D0FFE70A98022180F80B
:10234000A91201208DF82F00D2E00A980068002120
:10235000079107F055FF07998DF82710FFE79DF8C3
:1023600027000A994968884244D2FFE70A989DF8F5
:10237000271001EB810100EBC100012180F8291039
:102380009DF827000A9900EB800201EBC20181F859
:1023900028009DF827000A9900EB800201EBC2019A
:1023A000C8860A989DF8271001EB810100EBC10057
:1023B000002180F82B100A989DF8272002EB82025A
:1023C00000EBC20081630A989DF8272002EB82028D
:1023D00000EBC200C1630A989DF8272002EB82023D
:1023E00000EBC2000164FFE79DF8270001308DF883
:1023F0002700B4E700208DF82700FFE79DF82700AD
:102400000A99496888423ED2FFE70A989DF827104A
:1024100001EB810100EBC100002180F869119DF8FA
:1024200027000A9A00EB800302EBC30282F86801DE
:102430000A989DF8272002EB820200EBC20080F888
:102440006B110A989DF8272002EB820200EBC20074
:10245000C0F878110A989DF8272002EB820200EB61
:10246000C200C0F87C110A989DF8272002EB820276
:1024700000EBC200C0F88011FFE79DF82700013093
:102480008DF82700BAE70A98016842688368D0F897
:102490000CC0D0F810E044698569C669006A6F46CF
:1024A0003861FE60BD607C60C7F800E008461146F8
:1024B0001A46634606F096FC002808D0FFE70A9803
:1024C000022180F8A91201208DF82F0010E00A984F
:1024D000002180F824100A98012280F8A9220A9885
:1024E0000068069106F078FC06998DF82F10FFE73A
:1024F0009DF82F000CB0BDE8F081000080B584B0DD
:1025000003900398006845F60041C4F20001884238
:102510001AD1FFE7FFE741F21C00C4F20200016894
:1025200041F400010160006800F40000029002988C
:10253000FFE71420002101900091009AFEF7D0FDE2
:102540000198FEF7C1FDFFE704B080BD80B584B0FF
:10255000039001208DF80B0003988068022803D0B7
:10256000FFE7FEF723F9FFE70398D0F8E8029DF8AC
:102570000B1005F05BF80399D1F8E81201900846BA
:1025800004F0E0FF04B080BD80B582B001900198F6
:10259000D0F8E80205F01EF802B080BD80B582B028
:1025A00001900198D0F8E80205F026F802B080BD4D
:1025B00080B584B00A4602908DF80710FFE70298B4
:1025C00090F8A802012804D1FFE702208DF80F003F
:1025D0001AE00298012180F8A812FFE7FFE79DF8B2
:1025E0000700029981F82400029800689DF80710FE
:1025F00007F00EFEFFE70298002180F8A812FFE71F
:1026000000208DF80F00FFE79DF80F0004B080BD9B
:1026100080B582B001900198D0F8E81200F52C70D6
:1026200000900846009905F02DF802B080BD00002A
:1026300080B584B00290FFE7029890F8A8020128C4
:1026400004D1FFE702208DF80F001EE0029801215F
:1026500080F8A812FFE7FFE70298006807F056FD30
:1026600002990122019008461146FEF7A3FD029847
:10267000006806F0ABFBFFE70298002180F8A81283
:10268000FFE700208DF80F00FFE79DF80F0004B072
:1026900080BD000080B582B001900198D0F8E802BA
:1026A00005F06CF801998969002909D0FFE74EF619
:1026B0001050CEF20000016841F006010160FFE712
:1026C00002B080BD80B586B00490002003900290D7
:1026D00004980078C007002800F0AE80FFE70020D3
:1026E0008DF8070041F21C00C4F202000068C0002F
:1026F000002813D4FFE7FFE741F21C00C4F20200F8
:10270000016841F080510160006800F08050009045
:102710000098FFE701208DF80700FFE747F200006F
:10272000C4F200000068C005002822D4FFE747F289
:102730000000C4F20000016841F480710160FEF7FE
:102740002DFC0390FFE747F20000C4F20000006890
:10275000C00500280CD4FFE7FEF720FC0399401ABF
:10276000652804D3FFE703208DF817008CE0EAE723
:10277000FFE741F22000C4F20200006800F440705C
:102780000290029800283DD0FFE70298049949681A
:1027900001F44071884235D0FFE741F22000C4F2D5
:1027A0000200016821F44071029140F24041C4F2FC
:1027B000422101220A6000220A60029901609DF80C
:1027C0000800C00700281CD0FFE7FEF7E7FB0390D6
:1027D000FFE741F22000C4F20200006880070028F1
:1027E0000ED4FFE7FEF7DAFB0399401A41F2893174
:1027F000884204D3FFE703208DF8170044E0E8E7A0
:10280000FFE7FFE741F22000C4F20200016821F473
:102810004071049A5268114301609DF80700012835
:1028200009D1FFE741F21C00C4F20200016821F067
:1028300080510160FFE7FFE70498007880070028D7
:102840000CD5FFE741F20400C4F20200016821F454
:102850004041049A926811430160FFE704980078B0
:10286000C00600280CD5FFE741F20400C4F20200C4
:10287000016821F48001049A526911430160FFE765
:1028800000208DF81700FFE79DF8170006B080BD07
:1028900080B584B0029001910298002804D1FFE72E
:1028A00001208DF80F001BE1019842F20001C4F2F3
:1028B0000201096801F00701884216D9FFE742F2D8
:1028C0000000C4F20200016821F00701019A1143DF
:1028D0000160006800F007000199884204D0FFE71A
:1028E00001208DF80F00FBE0FFE7029800788007D9
:1028F00000282AD5FFE7029800784007002809D56C
:10290000FFE741F20400C4F20200016841F4E06113
:102910000160FFE7029800780007002809D5FFE76B
:1029200041F20400C4F20200016841F46051016008
:10293000FFE741F20400C4F20200016821F0F00157
:10294000029A926811430160FFE702980078C0077D
:10295000002860D0FFE70298406801280ED1FFE709
:1029600041F20000C4F2020000688003002804D491
:10297000FFE701208DF80F00B2E021E002984068E7
:1029800002280ED1FFE741F20000C4F20200006805
:102990008001002804D4FFE701208DF80F009FE09C
:1029A0000DE041F20000C4F2020000688007002838
:1029B00004D4FFE701208DF80F0091E0FFE7FFE767
:1029C00041F20400C4F20200016821F00301029AFE
:1029D000526811430160FEF7E1FA0090FFE741F20F
:1029E0000400C4F20200006800F00C00029949687B
:1029F000B0EB810F0ED0FFE7FEF7D0FA0099401A36
:102A000041F28931884204D3FFE703208DF80F009B
:102A100066E0E4E7FFE7019842F20001C4F2020138
:102A2000096801F00701884216D2FFE742F2000070
:102A3000C4F20200016821F00701019A114301600C
:102A4000006800F007000199884204D0FFE70120E8
:102A50008DF80F0044E0FFE7029800784007002857
:102A60000CD5FFE741F20400C4F20200016821F432
:102A7000E061029AD26811430160FFE70298007892
:102A8000000700280DD5FFE741F20400C4F2020060
:102A9000016821F46051029A126941EAC2010160A1
:102AA000FFE700F04BF841F20401C4F202010968AB
:102AB000C9B209094BF25A32C0F60002515CC84053
:102AC00040F22001C2F20001086040F22410C2F27C
:102AD00000000068FEF78CFA00218DF80F10FFE768
:102AE0009DF80F0004B080BD40F22000C2F200004B
:102AF0000068704780B5FFF7F7FF41F20401C4F2A8
:102B000002010968C1F302214BF26A32C0F60002E9
:102B1000515CC84080BD000080B5FFF7E5FF41F281
:102B20000401C4F202010968C1F3C2214BF26A3206
:102B3000C0F60002515CC84080BD00008BB040F67A
:102B40000E70C1F210000A9040F60A30C0F60C5028
:102B5000099040F20670C0F60810089040F202306A
:102B6000C0F20450079040F20120ADF81A00002096
:102B70000590049003900290019041F20400C4F289
:102B8000020000680590059800F00C00014600283E
:102B900000913DD0FFE70098042804D0FFE700989B
:102BA000082806D035E041F20020C0F27A000190FA
:102BB00035E00598C0F3834007A9085C02909DF8B2
:102BC0001600C007002818D0FFE741F20400C4F245
:102BD0000200006800F400300DF11A0141EA504093
:102BE00000780490029841F20021C0F27A01484333
:102BF0000499B0FBF1F0039007E0029840F6001151
:102C0000C0F23D0148430390FFE70398019006E0BE
:102C1000FFE741F20020C0F27A000190FFE701983F
:102C20000BB0704780B586B004900498002804D19A
:102C3000FFE701208DF8170035E304980078C007FE
:102C4000002800F0B180FFE741F20400C4F2020066
:102C5000006800F00C00042813D0FFE741F20400E4
:102C6000C4F20200006800F00C0008281CD1FFE745
:102C700041F20400C4F202000068C003002813D52A
:102C8000FFE741F20000C4F2020000688003002860
:102C900009D5FFE704984068002804D1FFE7012028
:102CA0008DF81700FFE27EE0FFE704984068B0F57A
:102CB000803F09D1FFE741F20000C4F20200016841
:102CC00041F48031016033E00498406800280DD160
:102CD000FFE741F20000C4F20200016821F48031F4
:102CE0000160016821F48021016020E004984068BF
:102CF000B0F5A02F0DD1FFE741F20000C4F20200B1
:102D0000016841F480210160016841F48031016073
:102D10000CE041F20000C4F20200016821F48031AD
:102D20000160016821F480210160FFE7FFE7FFE710
:102D3000FFE70498406800281AD0FFE7FEF72EF955
:102D40000390FFE741F20000C4F202000068800334
:102D500000280CD4FFE7FEF721F90399401A6528F3
:102D600004D3FFE703208DF817009CE2EAE719E09F
:102D7000FEF714F90390FFE741F20000C4F20200ED
:102D80000068800300280CD5FFE7FEF707F90399D8
:102D9000401A652804D3FFE703208DF8170082E26C
:102DA000EAE7FFE7FFE7FFE70498007880070028DD
:102DB00040F18E80FFE741F20400C4F20200006897
:102DC00010F00C0F13D0FFE741F20400C4F2020030
:102DD000006800F00C00082829D1FFE741F2040048
:102DE000C4F202000068C003002820D4FFE741F2CB
:102DF0000000C4F2020000688007002809D5FFE740
:102E000004980069012804D0FFE701208DF817001D
:102E100049E241F20000C4F20200016821F0F80129
:102E2000049A526941EAC2010160FFE74FE0049849
:102E3000006900282BD0FFE70020C4F242200121C6
:102E40000160FEF7ABF80390FFE741F20000C4F227
:102E500002000068800700280CD4FFE7FEF79EF808
:102E60000399401A032804D3FFE703208DF81700C5
:102E700019E2EAE741F20000C4F20200016821F021
:102E8000F801049A526941EAC20101601EE0002083
:102E9000C4F2422000210160FEF780F80390FFE7B2
:102EA00041F20000C4F202000068800700280CD53F
:102EB000FFE7FEF773F80399401A032804D3FFE7EE
:102EC00003208DF81700EEE1EAE7FFE7FFE7FFE7F1
:102ED000049800780007002849D5FFE70498806926
:102EE000002823D0FFE740F28040C4F242200121B5
:102EF0000160FEF753F80390FFE741F22400C4F2AB
:102F000002000068800700280CD4FFE7FEF746F8AF
:102F10000399401A032804D3FFE703208DF8170014
:102F2000C1E1EAE7012002F0D7F91FE040F280405A
:102F3000C4F2422000210160FEF730F80390FFE761
:102F400041F22400C4F202000068800700280CD57A
:102F5000FFE7FEF723F80399401A032804D3FFE79D
:102F600003208DF817009EE1EAE7FFE7FFE70498EA
:102F700000784007002840F1DA80FFE700208DF854
:102F8000070041F21C00C4F202000068C0000028E3
:102F900013D4FFE7FFE741F21C00C4F2020001680E
:102FA00041F080510160006800F08050009000986E
:102FB000FFE701208DF80700FFE747F20000C4F2A9
:102FC00000000068C005002822D4FFE747F2000097
:102FD000C4F20000016841F480710160FDF7DEFF7A
:102FE0000390FFE747F20000C4F200000068C0054C
:102FF00000280CD4FFE7FDF7D1FF0399401A65289C
:1030000004D3FFE703208DF817004CE1EAE7FFE760
:10301000FFE70498C068012809D1FFE741F22000CA
:10302000C4F20200016841F00101016032E004983D
:10303000C06800280DD1FFE741F22000C4F2020071
:10304000016821F001010160016821F004010160C3
:103050001FE00498C06805280DD1FFE741F2200069
:10306000C4F20200016841F004010160016841F00E
:10307000010101600CE041F22000C4F2020001688D
:1030800021F001010160016821F004010160FFE706
:10309000FFE7FFE7FFE70498C06800281CD0FFE7C0
:1030A000FDF77CFF0390FFE741F22000C4F202002D
:1030B0000068800700280ED4FFE7FDF76FFF039933
:1030C000401A41F28931884204D3FFE703208DF88A
:1030D0001700E8E0E8E71BE0FDF760FF0390FFE77B
:1030E00041F22000C4F202000068800700280ED5DB
:1030F000FFE7FDF753FF0399401A41F289318842F7
:1031000004D3FFE703208DF81700CCE0E8E7FFE7E2
:103110009DF80700012809D1FFE741F21C00C4F225
:103120000200016821F080510160FFE7FFE7049889
:10313000C069002800F0B380FFE741F20400C4F248
:103140000200006800F00C00082800F08280FFE711
:103150000498C06902285CD1FFE76020C4F24220D5
:1031600000210160FDF71AFF0390FFE741F2000024
:10317000C4F202000068800100280CD5FFE7FDF7CB
:103180000DFF0399401A032804D3FFE703208DF8AD
:10319000170088E0EAE70498006AB0F5803F0CD198
:1031A000FFE741F20400C4F20200016821F400319B
:1031B000049A926811430160FFE741F20400C4F2EF
:1031C0000200016821F47411049A136A526A1A43C6
:1031D000114301606020C4F2422001210160FDF72B
:1031E000DDFE0390FFE741F20000C4F20200006838
:1031F000800100280CD4FFE7FDF7D0FE0399401AA8
:10320000032804D3FFE703208DF817004BE0EAE71B
:103210001EE06020C4F2422000210160FDF7BEFEE6
:103220000390FFE741F20000C4F202000068800151
:1032300000280CD5FFE7FDF7B1FE0399401A0328DB
:1032400004D3FFE703208DF817002CE0EAE7FFE73F
:1032500024E00498C069012804D1FFE701208DF81B
:10326000170020E041F20400C4F20200006802905E
:10327000029800F480300499096A884208D1FFE777
:10328000029800F470100499496A884204D0FFE75C
:1032900001208DF8170006E0FFE7FFE7FFE70020B9
:1032A0008DF81700FFE79DF8170006B080BD0000FD
:1032B00080B582B000900098002804D1FFE701207B
:1032C0008DF807007DE00098406A00280CD1FFE7E8
:1032D00000984068B0F5827F01D1FFE703E00098D5
:1032E0000021C161FFE705E000980021016100981D
:1032F0004161FFE70098806AB0F5005F01D1FFE708
:10330000FFE7009890F85100002808D1FFE70098E7
:10331000002180F85010009800F058F8FFE700985E
:10332000022180F8511000980068016821F04001E6
:1033300001600098016842688368D0F80CC002F40C
:10334000827203F404431A440CF400631A440369C0
:1033500003F002031A44436903F001031A4483692A
:1033600003F400731A44C36903F038031A44036A70
:1033700003F080031A43806A00F400501043086091
:103380000098418B01F00401006841600098806A58
:10339000B0F5005F05D1FFE70098818D00680161FD
:1033A000FFE700980068C16921F40061C1610098DD
:1033B000002141650098012280F851208DF8071006
:1033C000FFE79DF8070002B080BD000080B58AB01D
:1033D00009900020089007900690059009980068D1
:1033E00043F60001C4F20001884239D1FFE7FFE74C
:1033F00041F21C00C4F20200016841F48041016006
:10340000006800F4804004900498FFE7FFE741F271
:103410001800C4F20200016841F008010160006870
:1034200000F0080003900398FFE74FF42040059058
:10343000022006900320089040F60040C4F20100EC
:1034400005A902900191FDF7DBFB4FF48040059048
:1034500000200690079002980199FDF7D1FBFFE745
:103460000AB080BD80B58CB094460A900991ADF841
:1034700022200793002006908DF813000A984068D8
:10348000B0F5827F18D1FFE70A988068002813D131
:10349000FFE70A98042180F851100A980999BDF8AD
:1034A0002230079AEC46CCF800200391039A00F0F2
:1034B00013FB8DF82F0099E1FFE70A9890F8500070
:1034C000012804D1FFE702208DF82F008EE10A9831
:1034D000012180F85010FFE7FFE7FDF75FFD059041
:1034E0000A9890F85100012804D0FFE702208DF8D7
:1034F00013006CE10998002805D0FFE7BDF8220011
:10350000002804D1FFE701208DF813005FE10A983D
:10351000042180F851100A980021416509980A9AFF
:103520009063BDF822000A9A9087BDF822000A9A9B
:10353000D0870A9801630A9881860A98C1860A98FA
:1035400001640A9841640A98806AB0F5005F13D15B
:10355000FFE7FFE70A980068016821F40051016065
:103560000A980068016841F400510160FFE70A9879
:10357000C18F0139C187FFE70A988068B0F5004F15
:103580000DD1FFE70A980068016821F04001016051
:103590000A980068016821F480410160FFE70A98F9
:1035A0000068006800F04000402807D0FFE70A9854
:1035B0000068016841F040010160FFE70A98C068B7
:1035C000002834D1FFE7FFE70A98C08F00282DD0EC
:1035D000FFE70A9800688068C00700280FD0FFE75F
:1035E0000A980068007B0A99896B08700A98816BB9
:1035F000013181630A98C18F0139C18715E0FDF758
:10360000CDFC0599401A0799884205D3FFE7079832
:103610000130002804D1FFE70798002804D1FFE714
:1036200003208DF81300D2E0FFE7CDE733E0FFE79A
:103630000A98C08F00282DD0FFE70A98006880689C
:10364000C00700280FD0FFE70A980068C0680A99F1
:10365000896B08800A98816B023181630A98C18F57
:103660000139C18715E0FDF799FC0599401A0799C2
:10367000884205D3FFE707980130002804D1FFE70F
:103680000798002804D1FFE703208DF813009EE07F
:10369000FFE7CDE7FFE70A98806AB0F5005F55D1F4
:1036A000FFE70A980068016841F4805101600A98B8
:1036B00000680068C004002807D5FFE70A98006882
:1036C000016821F480510160FFE70A98079B059982
:1036D0006A46116001210291029A02F0F7FC00286B
:1036E00004D0FFE703208DF8130070E00A98C0684B
:1036F000B0F5006F07D1FFE70A980068C0680A9923
:10370000896B088006E00A980068007B0A99896B3B
:103710000870FFE70A98079B05996A461160012126
:103720000191019A02F0D2FC002809D0FFE70A9823
:10373000416D41F00201416503208DF8130046E020
:103740000A980068C06806900698FFE70A980799EB
:10375000059A02F035FC002804D0FFE70A982021E2
:103760004165FFE70A980068806800F010000021BA
:10377000B1EB101F21D0FFE70A9802F0A1FC01284D
:1037800014D1FFE70A98416D41F002014165FFE75E
:103790000A980068016821F4005101600A980068E5
:1037A000016841F400510160FFE705E00A980068F4
:1037B0004FF6EF718160FFE7FFE70A98406D002840
:1037C00004D0FFE701208DF81300FFE7FFE70A9818
:1037D000012180F85110FFE70A98002180F850106D
:1037E000FFE79DF813008DF82F00FFE79DF82F00ED
:1037F0000CB080BD80B588B0944606900591ADF8B8
:103800001220039300208DF80700FFE7069890F838
:103810005000012804D1FFE702208DF81F0057E176
:103820000698012180F85010FFE7FFE7FDF7B6FB8F
:103830000290BDF81200ADF80400069890F851000F
:10384000012804D0FFE702208DF8070031E1059838
:10385000002805D0FFE7BDF81200002804D1FFE7DB
:1038600001208DF8070024E10698032180F851100B
:103870000698002141650598069A1063BDF812006C
:10388000069A9086BDF81200069AD0860698816343
:10389000069881870698C187069841640698016456
:1038A00006988068B0F5004F0DD1FFE706980068D4
:1038B000016821F04001016006980068016841F448
:1038C00080410160FFE70698806AB0F5005F0FD184
:1038D000FFE7FFE706980068016821F400510160E6
:1038E00006980068016841F400510160FFE7FFE7B6
:1038F00006980068006800F04000402807D0FFE705
:1039000006980068016841F040010160FFE70698F1
:10391000C068B0F5006F4BD1FFE7069840680028FB
:1039200005D0FFE7BDF8040001280ED1FFE7069897
:103930000168006B0088C8600698016B0231016362
:103940000698C18E0139C186FFE7FFE70698C08E51
:1039500000282CD0FFE706980068806880070028C0
:103960000ED5FFE706980168006B0088C8600698CE
:10397000016B023101630698C18E0139C18615E0E1
:10398000FDF70CFB0299401A0399884205D3FFE723
:1039900003980130002804D1FFE70398002804D1E0
:1039A000FFE703208DF8070083E0FFE7CEE74AE05A
:1039B00006984068002805D0FFE7BDF804000128FC
:1039C0000ED1FFE706980168006B0078087306982F
:1039D000016B013101630698C18E0139C186FFE791
:1039E000FFE70698C08E00282CD0FFE706980068F5
:1039F0008068800700280ED5FFE706980168006BF5
:103A0000007808730698016B013101630698C18E36
:103A10000139C18615E0FDF7C1FA0299401A0399F0
:103A2000884205D3FFE703980130002804D1FFE75F
:103A30000398002804D1FFE703208DF8070038E041
:103A4000FFE7CEE7FFE70698806AB0F5005F07D191
:103A5000FFE706980068016841F480510160FFE7C4
:103A600006980399029A02F009FB002804D0FFE7A8
:103A7000069820214165FFE70698806800280ED14E
:103A8000FFE7FFE70020009006980068C0680090FC
:103A900006980068806800900098FFE7FFE70698A6
:103AA000406D002804D0FFE701208DF80700FFE7F4
:103AB000FFE70698012180F85110FFE706980021E2
:103AC00080F85010FFE79DF807008DF81F00FFE712
:103AD0009DF81F0008B080BD80B590B0DDF848C0EB
:103AE0009E460E900D910C92ADF82E30002007905E
:103AF000012106918DF81700FFE70E9890F850000D
:103B0000012804D1FFE702208DF83F0032E20E9831
:103B1000012180F85010FFE7FFE7FDF73FFA08901A
:103B20000E9890F851008DF827000E9840680A9082
:103B3000BDF82E00ADF82C009DF82700012813D009
:103B4000FFE70A98B0F5827F0AD1FFE70E988068F8
:103B5000002805D1FFE79DF82700042804D0FFE7DF
:103B600002208DF81700F6E10D98002809D0FFE734
:103B70000C98002805D0FFE7BDF82E00002804D1DE
:103B8000FFE701208DF81700E5E10E9890F851004D
:103B9000042805D0FFE70E98052180F85110FFE7B3
:103BA0000E98002141650C980E9A9063BDF82E0086
:103BB0000E9AD087BDF82E000E9A90870D980E9A17
:103BC0001063BDF82E000E9AD086BDF82E000E9A16
:103BD00090860E9801640E9841640E98806AB0F544
:103BE000005F0FD1FFE7FFE70E980068016821F43E
:103BF000005101600E980068016841F400510160B5
:103C0000FFE7FFE70E980068006800F040004028DA
:103C100007D0FFE70E980068016841F0400101609D
:103C2000FFE70E98C068B0F5006F40F08F80FFE7A7
:103C30000E984068002805D0FFE7BDF82C00012849
:103C40000ED1FFE70E980168006B0088C8600E98DF
:103C5000016B023101630E98C18E0139C186FFE705
:103C6000FFE70E98C08E01210028039107D1FFE7DE
:103C70000E98C08F002818BF01200390FFE703981B
:103C8000C007002861D0FFE70E98006880688007B1
:103C900000282BD5FFE70E98C08E002826D0FFE71E
:103CA0000698012822D1FFE70E980168006B008872
:103CB000C8600E98016B023101630E98C18E013904
:103CC000C186002006900E98C08E00280DD1FFE717
:103CD0000E98806AB0F5005F07D1FFE70E98006884
:103CE000016841F480510160FFE7FFE70E9800682A
:103CF0008068C007002816D0FFE70E98C08F002804
:103D000011D0FFE70E980068C0680E99896B088093
:103D10000E98816B023181630E98C18F0139C18782
:103D200001200690FFE7FDF739F90899401A12992A
:103D3000884209D3FFE712980130002804D0FFE73A
:103D400003208DF8170006E18BE791E00E9840689C
:103D5000002805D0FFE7BDF82C0001280ED1FFE7B1
:103D60000E980168006B007808730E98016B0131A2
:103D700001630E98C18E0139C186FFE7FFE70E98F7
:103D8000C08E01210028029107D1FFE70E98C08F55
:103D9000002818BF01200290FFE70298C007002802
:103DA00065D0FFE70E9800688068800700282BD553
:103DB000FFE70E98C08E002826D0FFE7069801285E
:103DC00022D1FFE70E980168006B007808730E9807
:103DD000016B013101630E98C18E0139C18600204B
:103DE00006900E98C08E00280DD1FFE70E98806ACD
:103DF000B0F5005F07D1FFE70E980068016841F455
:103E000080510160FFE7FFE70E9800688068C007F7
:103E1000002816D0FFE70E98C08F002811D0FFE7CA
:103E20000E980068C0680E99896B08700E98816BB7
:103E3000013181630E98C18F0139C187012006903D
:103E4000FFE7FDF7ABF80899401A1299884205D3AD
:103E5000FFE712980130002804D1FFE712980028EC
:103E600004D1FFE703208DF8170074E087E7FFE730
:103E70000E98806AB0F5005F1CD1FFE70E98129B88
:103E800008996A46116001210191019A02F01EF918
:103E9000002809D0FFE70E98416D41F0020141650D
:103EA00003208DF8170056E00E980068C068079050
:103EB0000798FFE70E980068806800F01000002166
:103EC000B1EB101F24D0FFE70E9802F0F9F801289B
:103ED00017D1FFE70E98416D41F002014165FFE700
:103EE0000E980068016821F4005101600E98006886
:103EF000016841F400510160FFE701208DF81700CF
:103F000005E00E9800684FF6EF718160FFE7FFE76C
:103F10000E981299089A02F0B1F8002807D0FFE72E
:103F200001208DF817000E982021416513E00E98AE
:103F3000806800280ED1FFE7FFE7002004900E986C
:103F40000068C06804900E98006880680490049827
:103F5000FFE7FFE7FFE70E98012180F85110FFE728
:103F60000E98002180F85010FFE79DF817008DF89B
:103F70003F00FFE79DF83F0010B080BD80B582B0E4
:103F80000190019802F086F902B080BD82B00A4625
:103F90000190ADF8021002B07047000081B00090AF
:103FA00001B0704780B588B0079007980068006836
:103FB000069007980068C0680590079800684069F7
:103FC0000490002003900290069800F00F000390E8
:103FD0000398002811D1FFE79DF8180080060028FB
:103FE0000AD5FFE79DF814008006002804D5FFE7F6
:103FF000079802F015FA82E1FFE70398002800F025
:10400000BD80FFE79DF81000C007002807D1FFE73B
:10401000BDF8140010F4907F00F0B080FFE79DF829
:104020001800C00700280CD0FFE79DF81500C00756
:10403000002806D0FFE70798016C41F001010164F8
:10404000FFE79DF81800400700280CD5FFE79DF812
:104050001000C007002806D0FFE70798016C41F068
:1040600002010164FFE79DF81800800700280CD5C5
:10407000FFE79DF81000C007002806D0FFE707986B
:10408000016C41F004010164FFE79DF8180000078E
:10409000002812D5FFE79DF814008006002806D4FA
:1040A000FFE79DF81000C007002806D0FFE707983B
:1040B000016C41F008010164FFE70798006C0028DB
:1040C0005BD0FFE79DF81800800600280AD5FFE7BF
:1040D0009DF814008006002804D5FFE7079802F039
:1040E0009FF9FFE7079800684069C0F380100290CD
:1040F0000798006C0007002804D4FFE70298002806
:1041000033D0FFE7079802F053F907980068406939
:104110004006002824D5FFE707980068416921F090
:10412000400141610798806B002814D0FFE7079891
:10413000806B46F29131C0F6000141630798806BB5
:10414000FCF7AEFB002805D0FFE70798806B416BBA
:104150008847FFE703E00798FFF720FFFFE703E04A
:104160000798FFF71BFFFFE706E00798FFF716FF2A
:10417000079800210164FFE7FFE7C0E00798006BA4
:10418000012840F09C80FFE79DF81800C006002839
:1041900040F19580FFE79DF81400C006002840F12B
:1041A0008E80FFE7FFE70020019007980068006815
:1041B000019007980068406801900198FFE7079810
:1041C000006840694006002849D5FFE70798806BE2
:1041D00000684068ADF80200BDF8020000283DD03C
:1041E000FFE7BDF802000799898D884236DAFFE7BC
:1041F000BDF802000799C8850798806B8069202860
:1042000024D0FFE707980068C16821F48071C1607D
:1042100007980068416921F0010141610798006831
:10422000416921F0400141610798202180F83E104A
:1042300007980021016307980068C16821F0100108
:10424000C1600798806BFCF7EBFAFFE70798818D58
:10425000C28D891A89B2FFF799FEFFE74FE00798F0
:10426000818DC08D081AADF800000798C08D002818
:1042700024D0FFE7BDF8000000281FD0FFE7079813
:104280000068C16821F49071C160079800684169B5
:1042900021F0010141610798202180F83E10079824
:1042A0000021016307980068C16821F01001C16016
:1042B0000798BDF80010FFF769FEFFE71FE09DF8C3
:1042C0001800000600280AD5FFE79DF81400000634
:1042D000002804D5FFE7079802F0ACF90FE09DF83D
:1042E0001800400600280AD5FFE79DF81400400694
:1042F000002804D5FFE7079802F07EF8FFE708B032
:1043000080BD000080B582B000900098002804D1E4
:10431000FFE701208DF8070040E000988069002841
:1043200001D0FFE700E0FFE7009890F83D0000288B
:1043300008D1FFE70098002180F83C10009800F0B9
:1043400031F8FFE70098242180F83D1000980068BC
:10435000C16821F40051C160009802F009F9009889
:104360000068016921F49041016100980068416989
:1043700021F02A01416100980068C16841F40051B0
:10438000C1600098002101640098202280F83D203F
:10439000009880F83E208DF80710FFE79DF8070091
:1043A00002B080BD80B58CB00B9000200A900990BF
:1043B000089007900B98006843F60001C4F20101D1
:1043C000884244D1FFE7FFE741F21800C4F202003F
:1043D000016841F480410160006800F4804006906B
:1043E0000698FFE7FFE741F21800C4F202000168F7
:1043F00041F004010160006800F004000590059898
:10440000FFE74FF4007007900220089003200A9005
:1044100040F60000C4F2010007A904900391FCF7E4
:10442000EFFB4FF4806007900020089009900499FA
:10443000029008460399FCF7E3FB252001900299BE
:10444000029AFCF74DFE0198FCF73EFEFFE70CB028
:1044500080BD000081B0009001B0704780B58AB087
:10446000944608900791ADF81A2005930020029019
:10447000089890F83D00202840F09780FFE70798C3
:10448000002805D0FFE7BDF81A00002804D1FFE797
:1044900001208DF827008CE0FFE7089890F83C0099
:1044A000012804D1FFE702208DF8270081E0089859
:1044B000012180F83C10FFE7FFE708980021016424
:1044C0000898212180F83D10FCF768FD0290BDF8A6
:1044D0001A0008998884BDF81A000899C8840898B9
:1044E0008068B0F5805F0AD1FFE70898006900286E
:1044F00005D1FFE7002004900798039004E0079897
:10450000049000200390FFE7FFE70898002180F85F
:104510003C10FFE7FFE70898C08C00282DD0FFE78C
:104520000898029B05996A4611608021002202F0DA
:10453000CDF8002804D0FFE703208DF8270038E0ED
:10454000049800280BD1FFE7039800886FF35F20E1
:1045500008990968486003980230039008E00498BD
:104560000078089909684860049801300490FFE7D2
:104570000898C18C0139C184CDE70898029B059940
:104580006A4611604021002202F0A0F8002804D001
:10459000FFE703208DF827000BE00898202180F822
:1045A0003D1000208DF8270003E002208DF8270041
:1045B000FFE79DF827000AB080BD000081B00090A1
:1045C00001B07047FFE7FEE783B013460290019108
:1045D0008DF8032000208DF80200FFE79DF802000F
:1045E0009DF80310884229DAFFE70298000F092896
:1045F00009D8FFE70298000F303001999DF802209A
:1046000001F8120009E00298372101EB10700199BE
:104610009DF8022001F81200FFE7029800010290C5
:1046200001989DF8021000EB410000214170FFE766
:104630009DF8020001308DF80200CFE703B070470B
:1046400080B582B001900198D0F8B802009000982F
:1046500041F21801405C002811D1FFE7009841F2B7
:104660001401405800280AD0FFE70098407A00283B
:1046700005D1FFE70198012103F046F8FFE7019813
:10468000812103F041F80099497A02290AD1FFE714
:104690000198009941F20C020A4401211F2302F003
:1046A00027FFFFE702B080BD80B584B00390039878
:1046B000D0F8B8020290029841F21001415841F23C
:1046C00030028150029841F21401415841F2340203
:1046D00081500398012102F04BFE1F2820D1FFE7F3
:1046E000029841F20C01405845F25531C4F2423172
:1046F000884215D1FFE7029841F21901405C012878
:104700000ED8FFE7029841F21A01405C002807D05A
:10471000FFE7029841F21A01405C112810D3FFE72D
:104720000398029941F21902895C0522202301F0C5
:10473000A1FA0298022141720398FFF781FF51E02C
:104740000398029941F219028A5C41F21B03194451
:1047500001911146019A00F0C1FEB0F1FF3F0FDC5C
:10476000FFE70298007A052805D1FFE703980121A9
:1047700000F02CF903E00398FFF762FFFFE730E059
:104780000298007A02282AD0FFE70298007A0128CE
:1047900025D0FFE70298007A032820D0FFE702988F
:1047A000408900280BD0FFE70398029901F10C0221
:1047B000498900911146009A00F042F90EE00298F2
:1047C0004089002805D1FFE70398002100F0FEF89A
:1047D00003E00398FFF734FFFFE7FFE700E001E0A5
:1047E000FFE7FFE704B080BD80B584B00A460390C0
:1047F0008DF80B100398D0F8B80201900198407A18
:10480000022808D1FFE70398812102F07DFF01997A
:1048100000224A7211E09DF80B00000600280AD51C
:10482000FFE70198407A012805D0FFE703980121AE
:1048300000F0CCF800E000E0FFE704B080BD00002D
:1048400080B586B00A4605908DF813100598D0F80B
:10485000B80203900398007A01460228029105D01D
:10486000FFE70298C11E022917D31BE005980399A0
:1048700041F219028A5C41F21B031944019111466D
:10488000019A00F02BFEB0F1FF3F05DCFFE7059831
:10489000012100F09BF8FFE705E00598002100F0FA
:1048A00095F800E0FFE706B080BD000080B586B057
:1048B0000A4605908DF813100598D0F8B8020390B9
:1048C0000398007A01460028029104D0FFE702987D
:1048D000012804D01AE00598FFF7E6FE17E00598D6
:1048E000039941F219028A5C41F21B0319440191B8
:1048F0001146019A00F0F2FDB0F1FF3F05DCFFE741
:104900000598012100F062F8FFE700E0FFE706B03C
:1049100080BD000082B001900198D0F8B8020090EC
:1049200000980021017202B07047000080B588B085
:1049300007900798D0F8B8020690069800210172F7
:1049400006984172069841F25D028154069841F240
:104950005C0281540798D0F8BC02006805900846B4
:104960000599884707990122049008461146039249
:1049700002F0DEFC0799812202900846114602F0FF
:10498000D7FC0799069A41F20C031A441F230190A1
:104990000846039902F0ACFD08B080BD80B582B036
:1049A00001900198D0F8B80200900098002101729F
:1049B0000098012141720198009A41F20C031A44B7
:1049C0001F2302F095FD02B080BD000080B586B0C7
:1049D0000A4605908DF813100598D0F8B802039098
:1049E000039841F22C0145F25533C5F2423343504E
:1049F0009DF81300039B41F2380C03F80C00039858
:104A0000002303720598039B194481234FF00D0C7A
:104A100002911946029B01921A46634602F0BCFEBF
:104A20000599039A41F20C031A4401234FF01F0C1D
:104A3000009008461946634602F05AFD06B080BD54
:104A400080B586B0134605900491ADF80E20059808
:104A5000D0F8B8020290029841F214014058BDF813
:104A60000E10884206D2FFE7029841F21401405826
:104A7000009003E0BDF80E000090FFE70098ADF84D
:104A80000600BDF80E00029941F234028B58181A44
:104A90008850029841F238010022425402980421C1
:104AA00001720598049ABDF80630812102F074FE67
:104AB00006B080BD80B58AB00020099008900790AC
:104AC0000690FFE741F21800C4F20200016841F0CD
:104AD00020010160006800F0200005900598FFE7C4
:104AE000FFE741F21800C4F20200016841F008013A
:104AF0000160006800F0080004900498FFE7FFE7F9
:104B000041F21800C4F20200016841F004010160A2
:104B1000006800F0040003900398FFE740F60040AF
:104B2000C4F201004FF480510122029001910092E1
:104B3000FCF71AFA01980690009907910022089252
:104B40000322099206A90298FCF75AF80AB080BD20
:104B500080B542F65010C2F2000043F60001C4F2E4
:104B6000000101604FF48271416000218160C160E9
:104B7000016141614FF400728261C1610162416271
:104B80004FF4005181620A21C162FEF791FB0028B7
:104B900003D0FFE7FBF70AFEFFE780BD80B542F6D2
:104BA000A810C2F2000043F60001C4F20101016046
:104BB0004FF4E131416000218160C16001610C224C
:104BC00042618161C161FFF79DFB002803D0FFE7CF
:104BD000FBF7ECFDFFE780BD80B542F2A030C2F2EA
:104BE000000040F20401C2F20001002202F0E2F9EA
:104BF000002803D0FFE7FBF7D9FDFFE742F2A03022
:104C0000C2F2000040F23C01C2F2000103F036F8AB
:104C1000002803D0FFE7FBF7C9FDFFE742F2A03011
:104C2000C2F2000040F2E001C2F2000102F0BCFE5C
:104C3000002803D0FFE7FBF7B9FDFFE742F2A03001
:104C4000C2F2000003F068F9002803D0FFE7FBF789
:104C5000ADFDFFE780BD0000FFE7FEE7FFE7FEE7F1
:104C600088B0079006910592079800F0070004901D
:104C70000498C0F10700052803D3FFE70420019042
:104C800004E00498C0F107000190FFE70198039049
:104C900004980430062803D8FFE70020009003E0C2
:104CA000049803380090FFE7009802900698039953
:104CB000012202FA01F10139084002998840059B5E
:104CC00002FA01F101391940084308B070470000A9
:104CD00080B592B01190FFE711980068B0F84400D9
:104CE0000004002840F1F282FFE711980068B0F854
:104CF0004400ADF83C00BDF83C0000F00F008DF81A
:104D000037009DF83700002840F05B81FFE7BDF8D1
:104D10003C00C006002848D4FFE7FFE71198006870
:104D2000008848F60F710840ADF83400BDF8340033
:104D300040F40040119909680880FFE71198283075
:104D4000109011980068B0F8500010990A7800EBA4
:104D5000C200119A126802EB4000B0F804046FF32D
:104D60009F20C86110984169C2691144416111983E
:104D70000021FCF72DFA119890F82400002813D098
:104D8000FFE71098806900280ED1FFE7119890F88E
:104D9000240040F0800011990968A1F84C00119896
:104DA000002180F82410FFE70AE1119800F5B470A3
:104DB0001090119800680088ADF83A00BDF83A00EC
:104DC0000005002835D5FFE711980068B0F85000BD
:104DD00010990A7800EBC200119A126802EB4000A9
:104DE000B0F80C046FF39F20C8611198016800F5BA
:104DF0002C70109AD388928B0690084606990592DB
:104E00001A46059B05F0B0F9FFE711980068008885
:104E100040F68F710840ADF83200BDF8320040F026
:104E20008000119909680880FFE71198FDF7F0FBF1
:104E3000C5E0BDF83A000004002840F1BF80FFE75C
:104E4000FFE711980068008840F68F710840ADF8C0
:104E50003000BDF8300040F08000119909680880EA
:104E6000FFE711980068B0F8500010990A7800EB3D
:104E7000C200119A126802EB4000B0F80C046FF304
:104E80009F20C8611098C06900281BD0FFE71098C8
:104E90004069002816D0FFE71198006810994A6908
:104EA000CB88898B049111461A46049B05F05CF966
:104EB00010984169C2691144416111980021FCF7C1
:104EC000A1F9FFE71198006800880005002874D454
:104ED000FFE7FFE7119800680B9011980068B0F8A1
:104EE00050000B9908440B900B9800F20C400A906C
:104EF000FFE71098006900280BD1FFE70A980188A6
:104F000021F4F84101800A98018841F400410180B0
:104F100032E0109800693E2815D8FFE7FFE71098A7
:104F20000069400809901098007CC007002804D050
:104F3000FFE7099801300990FFE7099880020A9974
:104F40000880FFE717E0FFE7109800694009099023
:104F50001098007CC006002804D1FFE709980138AA
:104F60000990FFE709984FF4004141EA80200A992F
:104F70000880FFE7FFE7FFE7FFE7FFE7FFE711989C
:104F8000006800884BF68F710840ADF82200BDF82C
:104F9000220080F48050ADF82200BDF8220080F499
:104FA0000050ADF82200BDF8220048F2800108430D
:104FB000119909680880FFE7FFE7FFE7FFE7FFE7D0
:104FC00083E1119800689DF8371030F82100ADF8A2
:104FD0003A00BDF83A000004002840F1EF80FFE7F6
:104FE000FFE7119800689DF8371030F8210040F66F
:104FF0008F710840ADF82000BDF8200040F080001F
:10500000119909689DF8372021F82200FFE71198CF
:105010009DF8371001EB810100EBC10000F5B47081
:1050200010901098007B002825D1FFE711980068A8
:10503000B0F850001099097800EBC1001199096887
:1050400001EB4000B0F80C046FF39F20ADF83E0078
:10505000BDF83E0000280DD0FFE7119800681099B8
:105060004A69C988BDF83E3003911146039A05F09C
:105070007BF8FFE77DE01098C078022809D1FFE7B0
:1050800011981099BDF83A20FCF794F9ADF83E005C
:105090006EE0FFE7FFE7119800681099097830F893
:1050A000210048F68F710840ADF81E00BDF81E00C3
:1050B00048F2C001084311990968109A127821F842
:1050C0002200FFE7FFE7119800681099097830F88F
:1050D00021004004002825D5FFE711980068B0F8AA
:1050E00050001099097800EBC1001199096801EB93
:1050F0004000B0F804046FF39F20ADF83E00BDF807
:105100003E0000280DD0FFE71198006810994A6909
:105110000989BDF83E3002911146029A05F024F843
:10512000FFE724E011980068B0F850001099097862
:1051300000EBC1001199096801EB4000B0F80C04C4
:105140006FF39F20ADF83E00BDF83E0000280DD063
:10515000FFE71198006810994A694989BDF83E3007
:1051600001911146019A04F0FFFFFFE7FFE7FFE717
:10517000FFE7BDF83E001099CA691044C861BDF848
:105180003E0010994A6910444861109880690028CF
:1051900007D0FFE7BDF83E0010990969884206D2A2
:1051A000FFE7119810990978FCF72CF805E01198A1
:1051B0000068109903F040FFFFE7FFE7BDF83A00F1
:1051C0000006002840F18080FFE711989DF8371015
:1051D00001EB810100EBC10028301090FFE711982E
:1051E00000689DF8371030F8210048F60F7108402C
:1051F000ADF81C00BDF81C0040F40040119909688E
:105200009DF8372021F82200FFE71098C078032886
:1052100010D0FFE71098C07800280BD0FFE7109857
:10522000C078022848D1FFE7BDF83A00C005002841
:1052300042D4FFE711980068B0F85000109909783F
:1052400000EBC1001199096801EB4000B0F80404BB
:105250006FF39F20ADF8380010988069BDF83810C2
:10526000884207D9FFE7BDF8380010998A69101AFB
:10527000886103E0109800218161FFE71098806940
:10528000002806D1FFE7119810990978FBF7A0FFD5
:1052900011E0BDF8380010994A6910444861BDF822
:1052A00038001099CA691044C861119800681099B3
:1052B00003F0C2FEFFE706E011981099BDF83A200E
:1052C000FCF782F9FFE7FFE7FFE705E5002012B0F2
:1052D00080BD00007047000082B00190019840F24C
:1052E0002001C2F200010968C90844F6D352C1F294
:1052F0006202A1FB0212920950430090FFE700BF37
:10530000FFE70098411E00910028F8D1FFE702B0A6
:105310007047000080B586B08C4604908DF80F1061
:10532000029201930498D0F8B80200900298019973
:10533000084400994FF48352895888420BD9FFE7FB
:1053400004989DF80F100522212300F093FCFF2004
:105350008DF8170003E000208DF81700FFE79DF996
:10536000170006B080BD000086B00B4605908DF892
:10537000131003920598D0F8B80200900398407873
:10538000C00700281ED0FFE70720ADF80600BDF8D3
:10539000060000994881FFE7BDF80600002810D0FC
:1053A000FFE7BDF806000138ADF80600BDF80600BD
:1053B0004BF28231C0F60001095C009A104401737F
:1053C000EAE733E00598D0F8BC02C0699DF81310F5
:1053D00001EBC10100EB81000290029800790530D9
:1053E000ADF8060003980079BDF80610884205DC88
:1053F000FFE703980079ADF80600FFE7BDF8060067
:1054000000994881FFE7BDF8060000280DD0FFE7AE
:10541000BDF806000138ADF806000298BDF8061088
:10542000405C009A11440873EDE7FFE7002006B0E6
:105430007047000085B00B4604908DF80F10029263
:105440000820ADF806000498D0F8B8020090BDF826
:10545000060000994881FFE7BDF80600002810D03B
:10546000FFE7BDF806000138ADF80600BDF80600FC
:105470004BF27231C0F60001095C009A10440173CE
:10548000EAE7002005B0704785B00B4604908DF820
:105490000F1002920498D0F8B80201900820ADF8DD
:1054A0000200BDF8020001994881FFE7BDF8020043
:1054B000002810D0FFE7BDF802000138ADF8020067
:1054C000BDF802004BF27A31C0F60001095C019A86
:1054D00010440173EAE7002005B0704780B586B03C
:1054E0000B4604908DF80F10029202980078014646
:1054F0005A28019100F2B2800199DFE811F05B00B7
:10550000AF00AF006200AF00AF00AF00AF00AF0070
:10551000AF00AF00AF00AF00AF00AF00AF00AF0013
:10552000AF006900AF00AF00AF00AF00AF00AF0049
:10553000AF007E007000AF00AF007700AF00AF009B
:10554000AF00AF008C00AF009300AF00AF009A0037
:10555000AF00A100AF00AF00AF00AF00A800AF00E8
:10556000AF00AF00AF00AF00AF00AF00AF00AF00C3
:10557000AF00AF00AF00AF00AF00AF00AF00AF00B3
:10558000AF00AF00AF00AF00AF00AF00AF00AF00A3
:10559000AF00AF00AF00AF00AF00AF00AF00AF0093
:1055A000AF00AF00AF00AF00AF00AF00AF00AF0083
:1055B000AF00850004989DF80F10029A00F09EFB42
:1055C00057E004989DF80F10029A00F0E9FA50E0B5
:1055D00004989DF80F10029AFFF7C6FE49E0049860
:1055E0009DF80F10029A00F079FB42E004989DF8B4
:1055F0000F10029A00F072FB3BE004989DF80F1028
:10560000029AFFF741FF34E004989DF80F10029AC8
:10561000FFF710FF2DE004989DF80F10029A00F09C
:1056200053FA26E004989DF80F10029A00F0F2F960
:105630001FE004989DF80F10029A00F059F918E045
:1056400004989DF80F10029A00F0DAFB11E004981C
:105650009DF80F10029A00F095FB0AE004989DF85F
:105660000F100522202300F005FBFF208DF8170006
:1056700003E000208DF81700FFE79DF9170006B042
:1056800080BD000010B588B00A4606908DF817104E
:105690000698D0F8B8020490049841F26801415885
:1056A00041F25E03C05A4843039003980021B1EBD6
:1056B000103F03D1FFE70398029003E04FF48050BE
:1056C0000290FFE7029803900698D0F8BC020069A8
:1056D0009DF81710049A02F10C0341F2640C52F881
:1056E0000CC0DDF80CE041F25E04125BBEFBF2F28E
:1056F00092B201900846194600926246009BDDF87E
:1057000004C0E047B0F1FF3F0BDCFFE706989DF8CF
:1057100017100422112300F0ADFAFF208DF81F00AE
:105720003AE00698049901F10C02BDF80C30812191
:1057300002F032F80399049A41F25E0332F803C092
:10574000B1FBFCF141F2640C52F80CE0714442F8F8
:105750000C100399049AD35AB1FBF3F141F2680398
:1057600052F803C0ACEB0101D1500399049A41F205
:10577000340C52F80CE0AEEB010142F80C10049925
:10578000C958002904D1FFE7049803210172FFE7FB
:1057900000208DF81F00FFE79DF91F0008B010BD25
:1057A00010B58AB00A4608908DF81F100898D0F8F6
:1057B000B8020690069841F26801415841F25E0332
:1057C000C05A4843059005980021B1EB103F03D122
:1057D000FFE70598049003E04FF480500490FFE742
:1057E000049805900898D0F8BC0240699DF81F10F5
:1057F000069A02F10C0341F2640C52F80CC0DDF879
:1058000014E041F25E04125BBEFBF2F292B203902E
:105810000846194602926246029BDDF80CC0E0473A
:10582000B0F1FF3F0BDCFFE708989DF81F10042242
:10583000032300F01FFAFF208DF8270054E005989D
:10584000069941F25E028B5AB0FBF3F041F2640319
:1058500051F803C06044C850059806998A5AB0FBB5
:10586000F2F041F268028B58181A88500598069990
:1058700041F2340351F803C0ACEB0000C850069865
:105880008058002805D1FFE708980021FFF79EF80F
:1058900026E0069841F26801415841F25E02805AC2
:1058A00048430021B1EB103F0AD1FFE7069841F2CF
:1058B0006801415841F25E02805A4843019003E07A
:1058C0004FF480500190FFE70198059008980699E1
:1058D00001F10C02BDF81430012101F009FEFFE7CF
:1058E00000208DF82700FFE79DF927000AB010BDC2
:1058F00080B586B00B4604908DF80F100292049884
:10590000D0F8B80201900198007A002871D1FFE721
:10591000019841F21801405C00F0800080280DD011
:10592000FFE70498019941F21902895C05222023BE
:1059300000F0A0F9FF208DF8170066E00498D0F879
:10594000BC0280689DF80F100090084600998847B7
:1059500000280BD0FFE704989DF80F1002223A238D
:1059600000F088F9FF208DF817004EE00298D0F87B
:10597000020000BA019941F2640288500298C1798C
:10598000007A40EA0120019941F26803C850049866
:105990009DF80F10DDF804C05CF802205CF80330BD
:1059A000FFF7B8FCB0F1FF3F04DCFFE7FF208DF804
:1059B00017002AE0019802210172019841F21401B6
:1059C000415841F26802825841F25E03C05A504386
:1059D00081420DD0FFE70498019941F21902895CD8
:1059E0000522202300F046F9FF208DF817000CE077
:1059F000FFE701984FF48051418104989DF80F1002
:105A0000FFF740FE8DF81700FFE79DF9170006B07D
:105A100080BD000080B588B00B4606908DF8171049
:105A200004920698D0F8B80203900698D0F8BC0209
:105A300040689DF81710039A02F5835C41F25E0EF0
:105A40007244029008466146DDF808C00193E047C1
:105A500000280BD0FFE706989DF8171002223A2382
:105A600000F008F9FF208DF81F0029E003984FF49B
:105A700083514258013A120E027303984258013A78
:105A8000120C427303984258013A120A8273039827
:105A900041580139C173039800210174039841747E
:105AA000039841F25F02825C8274039841F25E02C5
:105AB000825CC2740398082242818DF81F10FFE7B0
:105AC0009DF91F0008B080BD80B58AB00B460890D4
:105AD0008DF81F1006920898D0F8B80205900020A3
