:020000040800F2
:1000000000040020470100082D0600082F06000804
:1000100033060008370600083B0600080000000011
:100020000000000000000000000000003F06000883
:1000300041060008000000004306000845060008CD
:1000400067010008670100086701000867010008F0
:1000500067010008670100086701000867010008E0
:1000600067010008670100086701000867010008D0
:1000700067010008670100086701000867010008C0
:1000800067010008670100086701000867010008B0
:1000900067010008670100086701000867010008A0
:1000A0006701000867010008670100086701000890
:1000B0006701000867010008670100086701000880
:1000C0006701000867010008670100086701000870
:1000D0006701000867010008670100086701000860
:1000E0006701000867010008670100086701000850
:1000F0006701000867010008670100086701000840
:10010000670100084706000867010008670100084A
:10011000670100086701000867010008670100081F
:10012000670100086701000867010008670100080F
:10013000DFF80CD003F0A2FC00480047F7010008EC
:10014000F80E0020704708488047084981F3088866
:1001500007480047FEE7FEE7FEE7FEE7FEE7FEE7AB
:10016000FEE7FEE7FEE7FEE745010008F80E002087
:100170003101000810B5034607E018680C68A0427A
:1001800001D0002010BD1B1D091D101EA2F101048D
:10019000A2B2F2D10120F5E710B50346002000BF5E
:1001A00004E0841843F82040441CA0B28842F8DBE5
:1001B00010BD024604E0106808B100207047121D0F
:1001C000081EA1F1010399B2F5D10120F6E708B5A7
:1001D0004FF4C06003F012FA31208DF800000020C7
:1001E0008DF801008DF8020001208DF803006846AB
:1001F00003F009FA08BD03F001FC00F029FAFFF74B
:10020000E6FF77A003F04CFC00F0FEFD814908708A
:10021000084600782A2807D17FA003F041FC8348D4
:1002200000F023FE7B490870804890F84E1080A0B3
:1002300003F036FC7D48416C83A003F031FC7B4821
:10024000816C88A003F02CFC7848B0F84C108CA08E
:1002500003F026FC754890F82C108EA003F020FCCB
:100260006C4800782A280AD191A003F019FC6F4944
:10027000B1F84C10080401F021F96649087065488E
:1002800000782A2807D191A003F00AFC002001F091
:10029000AEF8604908705F4800782A2806D14FF40C
:1002A0008061002002F0CBF85A4908705948007864
:1002B0002A2807D18DA003F0F3FB002001F0DFF81E
:1002C00054490870534800782A280AD18CA003F0BA
:1002D000E7FB02231A029249002001F058FA4D4927
:1002E00008704C4800782A280ED18EA003F0D8FB65
:1002F0004FF480718A48FFF75CFF92490870084606
:10030000017891A003F0CCFB984A80219848FFF730
:1003100043FF404800782A2807D14FF400729449DF
:10032000002001F0ABFC3B4908703A4800782A28CD
:100330000AD190A003F0B4FB4FF40072944900205E
:1003400001F008F933490870324800782A2809D1A9
:1003500090A003F0A5FB80228D498548FFF70AFF96
:100360009249087091480078012802D190A003F0CA
:1003700097FB00224FF480719648FFF70DFF254848
:1003800000782A2807D102231A029249002001F09E
:1003900036FE204908701F4800782A2807D102231A
:1003A0001A025F49002001F0F2F91A490870194851
:1003B00000782A2807D14FF4807259498548FFF701
:1003C000D9FE8549087084480078012802D183A0AD
:1003D00003F066FB8BA003F063FB00BFFEE70000A9
:1003E0000D0A20D5E2CAC7D2BBB8F64D6963726F59
:1003F0005344BFA8CAB5D1E928C3BBD3D0C5DCCE0E
:10040000C4BCFECFB5CDB3292E2E2E2E2E2E2E2ED1
:100410002E20000003000020200D0A2053445F49D5
:100420006E6974206973206F6B2000004400002007
:10043000200D0A204361726454797065206973202D
:10044000A3BA256420000000200D0A2043617264D5
:10045000436170616369747920697320A3BA25646C
:1004600020000000200D0A2043617264426C6F631B
:100470006B53697A6520697320A3BA256420000054
:10048000200D0A2052434120697320A3BA2564201D
:1004900000000000200D0A204D616E7566616374D6
:1004A00075726572494420697320A3BA25642000DF
:1004B0000D0A2053445F47657443617264496E6658
:1004C0006F206973206F6B2000000000200D0A2050
:1004D00053445F53656C656374446573656C656311
:1004E00074206973206F6B2020000000200D0A200B
:1004F00053445F4572617365206973206F6B200000
:10050000200D0A2053445F53657444657669636522
:100510004D6F6465206973206F6B20200000000020
:1005200094080020200D0A2053445F526561644DF9
:10053000756C7469426C6F636B73206973206F6BA9
:100540002020000000000020200D0A206542756672
:10055000666572636D702045726173655374617472
:1005600075732069732025642000000078563412CA
:1005700094000020200D0A2053445F57726974656F
:10058000426C6F636B206973206F6B20000000006A
:1005900094020020200D0A2053445F52656164429A
:1005A0006C6F636B206973206F6B2000010000206B
:1005B0000D0A2053696E676C6520426C6F636B2077
:1005C000526561642F5772697465206973206F6B7F
:1005D000200000009404002002000020200D0A20CA
:1005E0004D756C7469706C6520426C6F636B205242
:1005F0006561642F5772697465206973206F6B2081
:1006000000000000200D0A20BAC3CFFBCFA2A3BA7E
:100610004D6963726F5344BFA8B6C1D0B4B2E2CA89
:10062000D4B3C9B9A6200D0A20000000704700BF4E
:10063000FEE700BFFEE700BFFEE700BFFEE7704732
:1006400070477047704710B502F0A1F810BD000068
:1006500000B585B0012144F2040002F0CFFC4FF454
:100660000070ADF8100018208DF8130003208DF8ED
:10067000120004A9754802F025FA4FF48060ADF825
:10068000100004208DF8130004A9704802F01AFA33
:100690004FF4E13000900020ADF80400ADF8060002
:1006A000ADF80800ADF80C000C20ADF80A00694662
:1006B000674802F050FD0121654802F0BAFD05B01F
:1006C00000BD70B504460D46E1B2614802F019FE66
:1006D00000BF5F48008800F080000028F9D0204665
:1006E00070BDF0B503460D461646002729460A2E72
:1006F00003D0002008702846F0BD33B9302001F83F
:10070000010B002008702846F6E7002B03DA2D20A5
:1007100001F8010B5B4242F210720DE093FBF2F420
:1007200004B937B104F1300001F8010B04FB1233B6
:1007300001270A2092FBF0F2002AEFDC002008706B
:100740002846D9E70FB470B586B006460CA80190CC
:1007500073E00B9800785C281CD10B98401C0B9020
:1007600000786E2809D072280FD10D21304602F092
:10077000C8FD0B98401C0B900BE00A21304602F09C
:10078000C0FD0B98401C0B9003E00B98401C0B9095
:1007900000BF4BE00B980078252840D10B98401CF7
:1007A0000B900078642818D0732833D1019810C8B2
:1007B00001900BE02178304602F0A3FD00BF4021FC
:1007C000304602F0F5FD0028F9D0641C207800289E
:1007D000F0D10B98401C0B9020E0019820C80190AC
:1007E0000A2202A92846FFF77CFF02AC0BE0217821
:1007F000304602F086FD00BF4021304602F0D8FDB1
:100800000028F9D0641C20780028F0D10B98401CF7
:100810000B9003E00B98401C0B9000BF06E00B9878
:1008200010F8011B0B90304602F06BFD00BF402119
:10083000304602F0BDFD0028F9D00B980078002862
:1008400087D106B070BC5DF814FB000000080140C1
:100850000038014070B52A25FE48446B01E0FD4890
:10086000446B04F045000028F9D004F0040028B1DE
:100870000325042002F0A7FE284670BD04F0010005
:1008800028B10125012002F09EFE2846F5E740F23E
:10089000FF5002F098FE2846EFE72DE9F0410646AA
:1008A0000F464FF02A08EB48456B01E0E948456BDD
:1008B00005F045000028F9D005F0040038B14FF0EC
:1008C0000308042002F07FFE4046BDE8F08105F0F9
:1008D000010030B14FF00108012002F074FE4046E3
:1008E000F3E702F00FFEB04203D04FF0100840468D
:1008F000EBE740F2FF5002F066FE002002F006FE39
:10090000044604F4604018B9200C38804046DCE707
:1009100004F4005008B11320D7E704F4804008B174
:100920001020D2E704F4004008B10F20CDE7404684
:10093000CBE738B52A240120009002F0B4FD10B9AD
:100940002524204638BDC4480068042829D000204A
:10095000C249086002204860C02088600020C8604A
:100960004FF480600861084602F0B2FDFFF772FFA5
:1009700004462A2C01D02046E4E7002002F0C6FD00
:10098000B7490860042002F0C1FDB549486008205D
:1009900002F0BCFDB24988600C2002F0B7FDB049FE
:1009A000C860AD48006858B1AB480068012807D05E
:1009B000A9480068062803D0A7480068022817D174
:1009C0000020A6490860032048604020886000207D
:1009D000C8604FF480600861084602F079FD6946FE
:1009E0000320FFF75AFF04462A2C01D02046A9E72E
:1009F0009948006804282FD0BDF800009949086084
:100A0000BDF8000000049549086009204860C02036
:100A100088600020C8604FF480600861084602F0DA
:100A200057FDFFF717FF04462A2C01D0204689E71F
:100A3000002002F06BFD8C490860042002F066FD86
:100A400089494860082002F061FD874988600C20D0
:100A500002F05CFD8449C8602A24204672E770B524
:100A60002A257C48446B01E07A48446B04F0450039
:100A70000028F9D004F0040028B10325042002F076
:100A8000A2FD284670BD40F2FF5002F09CFD2846B2
:100A9000F8E72DE9F04106462A276E48456B01E04C
:100AA0006C48456B05F045000028F9D005F00400BE
:100AB00030B10327042002F086FD3846BDE8F081FE
:100AC00005F0010028B10127012002F07CFD384625
:100AD000F4E702F017FDB04202D010273846EDE7E8
:100AE00040F2FF5002F06FFD002002F00FFD0446BF
:100AF0005E48204008B93846E0E704F0004008B1FD
:100B00001C20DBE704F0804008B10920D6E704F0A0
:100B1000005008B10A20D1E704F0805008B10B2042
:100B2000CCE704F0006008B10C20C7E704F0806057
:100B300008B10D20C2E704F0807008B10E20BDE7B7
:100B400004F4000008B10F20B8E704F4800008B1F5
:100B50001020B3E704F4001008B11120AEE704F44C
:100B6000801008B11220A9E704F4002008B1132076
:100B7000A4E704F4802008B114209FE704F40030B7
:100B800008B115209AE704F4803008B1162095E7E3
:100B900004F4004008B1172090E704F4804008B145
:100BA00018208BE704F4005008B1192086E704F000
:100BB000080008B11A2081E738467FE770B52A2679
:100BC00042F210752348446B02E06D1E2148446BCD
:100BD00004F0450008B9002DF7D115B104F0040068
:100BE00028B10326042002F0EEFC304670BD04F06C
:100BF000400028B12A26402002F0E5FC3046F5E707
:100C00003046F3E770B52A2542F2107400E0641E06
:100C100024B1802002F0CDFC0028F8D014B90325BF
:100C2000284670BD40F2FF5002F0CDFC2846F8E7A0
:100C30002DE9F0412A240026002500274FF0000866
:100C4000B2200B490870002048608860C8600861C5
:100C500048610FE00080014004000020CC0C00201F
:100C6000A40C002008000020940C002008E0FFFDE8
:100C7000B40C0020084602F0EBFB032002F008FC55
:100C8000012002F002FC0020FE49086048608860F4
:100C9000C8604FF480600861084602F019FCFFF755
:100CA000B1FF04462A2C02D02046BDE8F0814FF463
:100CB000D570F44908600820486040208860002012
:100CC000C8604FF480600861084602F001FCFFF73D
:100CD00075FF04462A2C05D10120EB4908604FF02E
:100CE000804812E00020E749086037204860402033
:100CF00088600020C8604FF480600861084602F0F8
:100D0000E7FB3720FFF7C5FE04460020DD490860F9
:100D100037204860402088600020C8604FF4806021
:100D20000861084602F0D4FB3720FFF7B2FE044604
:100D30002A2C4CD138E00020D24908603720486086
:100D4000402088600020C8604FF480600861084639
:100D500002F0BEFB3720FFF79CFE04462A2C01D090
:100D60002046A2E7C94848EA0000C6490860292091
:100D70004860402088600020C8604FF480600861AF
:100D8000084602F0A5FBFFF76AFE04462A2C01D0B4
:100D900020468AE7002002F0B9FB0646012080EADF
:100DA000D67080F001076D1C1FB94FF6FF708542A9
:100DB000C1D34FF6FF70854202D31B24204674E74F
:100DC00006F08040061E02D00220AF49086020468F
:100DD0006BE708B50121302002F010F94FF4F8500C
:100DE000ADF8000003208DF8020018208DF80300F4
:100DF0006946A74801F066FE0420ADF80000694688
:100E0000A44801F05FFE08BD10B52A24FFF7E1FFFA
:100E10000121880202F0E5F80121022002F0E1F848
:100E200002F008FBFFF704FF04462A2C01D02046FD
:100E300010BDFFF77EFD04462A2C01D02046F7E7BF
:100E4000012095490870002048608860C8600861EA
:100E50004861084602F0FCFA2046E9E710B52A246A
:100E6000002002F015FB204610BD30B501462A20B7
:100E70000022854B1B7881F84E30884B1B88A1F8E7
:100E80004C30874B1B681A0E93090B70C2F3830317
:100E90004B7002F003038B70814B1B68C3F3074256
:100EA000CA707F4B1B88C3F307220A717C4B1A78E8
:100EB0004A715B681A0E1301CB80794B5B68C3F3F0
:100EC0000742CB8843EA1213CB8002F00F030B7268
:100ED000734B9B88C3F30722D3094B72C2F3801371
:100EE0008B72C2F34013CB72C2F300130B73002357
:100EF0004B73654B1B681BB1634B1B68012B3CD1CB
:100F000093071B0D0B61664B1A790B6943EA820349
:100F10000B61634B9B681A0E0B6943EA92130B61DA
:100F2000C2F3C2030B7502F007034B755C4B9B6861
:100F3000C3F3074253098B75C2F38203CB75930742
:100F40005B0F0B76564B1B89C3F307220B7E43EADC
:100F5000D2130B760B695B1C4B640C7E4B6CA41C90
:100F60000125A5406B434B640C7A0123A3408B649D
:100F7000D1E9113463434B6421E0434B1B68022BDE
:100F80001DD1474B1A7993069B0A0B61444B9B6812
:100F90001A0E0B6943EA02230B61414B9B68C3F3B2
:100FA00007420B6913430B613D4B1B89C3F30722B7
:100FB0000B695B1CDB044B644FF400738B64C2F35E
:100FC000801301F8193F93065B0E4B70344B1A7A6D
:100FD0004B7843EAD2134B7002F07F038B70304B97
:100FE000DB681A0ED309CB70C2F341130B71C2F345
:100FF00082034B7193071B0F8B71294BDB68C3F383
:1010000007428B7943EA92138B71C2F34013CB7181
:1010100000230B7202F001034B72214B9B89C3F337
:101020000722D3098B72C2F38013CB72C2F3401331
:101030000B73C2F300134B73C2F381038B7302F083
:101040000303CB73164B1A7B53080B7401234B74A9
:10105000144B1B681A0ECA741939124B1B68C3F360
:1010600007421402CC850F4B1B88C3F30722CB8D9C
:101070001343CB850B4B1A7814060C635B681A0E6E
:101080000B6B11E0CC0C002004000020000010804D
:101090000010014000140140B40C002008000020A2
:1010A000940C0020A40C002043EA02440C63F94B8A
:1010B0005B68C3F307420B6B43EA02240C63F54BF6
:1010C0009B88C3F307220B6B13430B63F14B1A7915
:1010D00034235A54EF4B9B681A0E35235A54ED4B68
:1010E0009B68C3F3074214068C63EA4B1B89C3F366
:1010F00007228B6B43EA02448C63E64B1A7A8B6BB4
:1011000043EA02248C63E34BDB681A0E8B6B1343B8
:101110008B63E04BDB68C3F307423C235B5C43EA31
:1011200012143C235C5413071C0DCC87D94B9B89AC
:10113000C3F30722CB8F1343CB87D64B1A7B5408BC
:1011400040235C54012441235C5430BD2DE9FC4113
:1011500007460D4600262A24002000900190082012
:10116000CD49086010204860402088600020C86099
:101170004FF480600861084602F0AAF91020FFF7DA
:1011800088FC04462A2C02D02046BDE8FC81C348D6
:1011900000880004C049086037204860402088600B
:1011A0000020C8604FF480600861084602F090F9A2
:1011B0003720FFF76EFC04462A2C01D02046E4E7D6
:1011C000B748B8490860082048603020886002208D
:1011D000C8600020086101204861084602F09BF9C0
:1011E0000020AD490860332048604020886000201E
:1011F000C8604FF480600861084602F069F9332046
:10120000FFF747FC04462A2C01D02046BDE709E041
:101210004FF4001002F0CDF920B102F09EF94DF824
:101220002600761CA048406B40F22A610840002846
:10123000EED0082002F0BDF928B1082002F0C3F971
:1012400004242046A1E7022002F0B3F928B10220CD
:1012500002F0B9F90224204697E7202002F0A9F90C
:1012600028B1202002F0AFF9062420468DE74FF484
:10127000007002F09EF930B14FF4007002F0A3F953
:101280000724204681E740F2FF5002F09CF90098C5
:101290000006009901F47F4140EA0120009901F421
:1012A0007F0140EA1120009940EA116068600198CE
:1012B0000006019901F47F4140EA0120019901F4FF
:1012C0007F0140EA1120019940EA11602860204620
:1012D0005BE77CB505462A2400200090019002F0CF
:1012E00015F900F0007010B10E2420467CBD6B494A
:1012F000098888B26946FFF729FF04462A2C01D0E5
:101300002046F3E7012D38D1019800F48020002811
:1013100030D06248008800045F4908603720486088
:10132000402088600020C860A8020861084602F0DA
:10133000CFF83720FFF7ADFB04462A2C01D020461A
:10134000D4E70220544908600620486040208860A5
:101350000020C8604FF480600861084602F0B8F8C9
:101360000620FFF796FB04462A2C01D02046BDE755
:101370002046BBE725242046B8E7019800F48030DA
:1013800078B3464800880004434908603720486025
:10139000402088600020C8604FF4806008610846E3
:1013A00002F096F83720FFF774FB04462A2C01D090
:1013B00020469BE70020384908600620486040200E
:1013C00088600020C8604FF480600861084602F021
:1013D0007FF80620FFF75DFB04462A2C02D020464A
:1013E00084E701E0204681E7252420467EE770B5AA
:1013F00004462A252D480068032802D127252846BF
:1014000070BD2A48006838B128480068012803D018
:1014100026480068022830D1B4F5805F02D1272524
:101420002846EDE7B4F5006F15D10120FFF751FF15
:1014300005462A2D21D101201D4908700020486051
:101440008860C8604FF40060086100204861084669
:1014500001F0FEFF11E00020FFF73BFF05462A2DBB
:101460000BD1012012490870002048608860C860D4
:1014700008614861084601F0EBFF2846C0E70146D5
:101480002A2019B1012901D0022915D1094A116078
:1014900013E00000A40C0020CC0C00200800002069
:1014A000FFFF0F00E00C002000800140040000203E
:1014B000B40C00200C0000202620704770B50446B4
:1014C0002A25FE4804600720FC49486040208860C7
:1014D0000020C8604FF480600861084601F0F8FF02
:1014E0000720FFF7D6FA0546284670BD30B58BB009
:1014F00005460C46F24802F0DFF90021F14802F0FF
:10150000AFF9F1480090019500200290A0080390E7
:1015100000200490802005908000069080000790B5
:10152000002008904FF40050099000200A9069466E
:10153000E44802F06AF90121E24802F091F90BB0A7
:1015400030BD0146002002E04910421CD0B2012902
:10155000FAD170472DE9F04707460D4614464FF083
:101560002A084FF000092E464FF0000A25B94FF027
:1015700026084046BDE8F0872A20D449087000209C
:10158000D3490860D3490860D348D4490860002093
:1015900048608860C86008614861084601F0BBFF88
:1015A000002001F092FF002001F0B0FF00F0007079
:1015B00018B14FF00E084046DCE7C9480068022821
:1015C00001D104027F0A002C21DDB4F5006F1EDC7E
:1015D000601E2040D8B92046FFF7B3FF8246B748C7
:1015E00004601020B5494860402088600020C86031
:1015F0004FF480600861084601F06AFF1020FFF791
:1016000048FA8046B8F12A0F05D04046B2E74FF0BD
:1016100026084046AEE7B048B04908600846446036
:101620004FEA0A1088600220C8600020086101208B
:101630004861084601F06FFFA64804600020A949F0
:101640000860A94805609D48076011209B494860D3
:10165000402088600020C8604FF480600861084620
:1016600001F036FF1120FFF714FA8046B8F12A0F77
:1016700001D040467EE79D480068022858D111E01D
:101680004FF4004001F095FF60B14FF0000905E014
:1016900001F063FF46F8290009F10109B9F1080FCB
:1016A000F6D3203688488038406B40F22A610840E3
:1016B0000028E5D0082001F07CFF30B1082001F0BF
:1016C00082FF4FF00408404654E7022001F071FF0A
:1016D00030B1022001F077FF4FF00208404649E7A1
:1016E000202001F066FF30B1202001F06CFF4FF0A8
:1016F000060840463EE74FF4007001F05AFF38B14B
:101700004FF4007001F05FFF4FF00708404631E7EB
:1017100003E001F022FF3060361D4FF4001001F0AD
:1017200048FF0028F5D140F2FF5001F04CFF2CE0BB
:101730006E480068012813D1012148F22A3001F0D7
:10174000B7FE00BF6248006818B9604800782A28D0
:10175000F8D05E4800782A2817D05C48007809E75E
:101760006248006888B9012140F22A3001F0A0FEE9
:10177000012001F0AAFE21462846FFF7B7FE00BF70
:101780005B4802F085F80028FAD04046F2E62DE9E1
:10179000F05F81460E4614461D464FF02A084FF072
:1017A000000A37464FF0000B26B94FF02608404696
:1017B000BDE8F09F2A204549087000204449086090
:1017C00044490860444845490860002048608860F2
:1017D000C86008614861084601F09DFE002001F0E4
:1017E00074FE002001F092FE00F0007018B14FF07E
:1017F0000E084046DCE73A480068022802D104029D
:101800004FEA5929002C21DDB4F5006F1EDC601E63
:101810002040D8B92046FFF794FE8346274804604D
:10182000102026494860402088600020C8604FF49E
:1018300080600861084601F04BFE1020FFF729F98F
:101840008046B8F12A0F05D04046B1E74FF0260890
:101850004046ADE7012D7DD905FB04F0B0F1007FD6
:1018600003D34FF026084046A2E705FB04F01949D0
:10187000086001201B4908601B480660164817498C
:10188000086005FB04F048604FEA0B1088600220F6
:10189000C8600020086101204861084601F03BFE55
:1018A0000648C0F800901220044948604020886033
:1018B0000020C8604FF4806008611BE0CC0C002061
:1018C00000F000104404024080800140200000200D
:1018D0002400002010000020FFFF0F00E00C00207B
:1018E00004000020140000201C0000200C00002038
:1018F00000200010084601F0EBFD1220FFF7C9F8A8
:101900008046B8F12A0F01D0404651E7FE480068F2
:1019100002287CD111E04FF4004001F04AFE60B192
:101920004FF0000A05E001F018FE47F82A000AF11E
:10193000010ABAF1080FF6D32037F448406B40F2A1
:101940002A3108400028E6D0082001F032FE40B1DC
:10195000082000E09EE001F036FE4FF0040840460B
:1019600026E7022001F025FE30B1022001F02BFE17
:101970004FF0020840461BE7202001F01AFE30B16C
:10198000202001F020FE4FF00608404610E74FF4FB
:10199000007001F00EFE38B14FF4007001F013FE3C
:1019A0004FF00708404603E703E001F0D6FD38603A
:1019B0003F1D4FF4001001F0FCFD0028F5D14FF45D
:1019C000807001F0F6FD18B3D148006838B1D048F6
:1019D0000068022803D0CE480068012818D10020F2
:1019E000CC4908600C204860402088600020C86016
:1019F0004FF480600861084601F06AFD0C20FFF793
:101A000048F88046B8F12A0F02D04046D0E604E0FC
:101A100040F2FF5001F0D7FD3CE0BB4800680128D0
:101A200013D1012148F22A3001F042FD00BFBA482B
:101A3000006818B9B94800782A28F8D0B748007863
:101A40002A2827D0B5480078B2E6AF48006808BB1E
:101A5000012140F22A3001F02BFD012001F035FD7B
:101A600005FB04F13046FFF741FD00BFAC4801F033
:101A70000FFF0028FAD000BFA748006818B9A74890
:101A800000782A28F8D0A54800782A2802D0A34850
:101A900000788DE640468BE67CB504462A2500207A
:101AA000019000909F48008800049A4908600D202A
:101AB0004860402088600020C8604FF48060086162
:101AC000084601F005FD9148406B009002E08F4808
:101AD000406B0090009800F045000028F7D0009877
:101AE00000F0040028B10325042001F06CFD284615
:101AF0007CBD009800F0010028B10125012001F013
:101B000062FD2846F4E701F0FDFC009000980D28E6
:101B100002D010252846EBE740F2FF5001F053FDBC
:101B2000002001F0F3FC01900198C0F343202070E5
:101B30007D490198084008B92846D9E7019800F086
:101B4000004008B11C20D3E7019800F0804008B1A4
:101B50000920CDE7019800F0005008B10A20C7E73E
:101B6000019800F0805008B10B20C1E7019800F007
:101B7000006008B10C20BBE7019800F0806008B15C
:101B80000D20B5E7019800F0807008B10E20AFE796
:101B9000019800F4000008B10F20A9E7019800F4B3
:101BA000800008B11020A3E7019800F4001008B1EC
:101BB00011209DE7019800F4801008B1122097E7EA
:101BC000019800F4002008B1132091E7019800F477
:101BD000802008B114208BE7019800F4003008B190
:101BE000152085E7019800F4803008B116207FE7C2
:101BF000019800F4004008B1172079E7019800F43B
:101C0000804008B1182073E7019800F4005008B133
:101C100019206DE7019800F0080008B11A2067E765
:101C2000284665E730B58BB005460C463F4801F0C5
:101C300043FE00213E4801F013FE344880300090FE
:101C4000019510200290A0080390002004908020AD
:101C500005908000069080000790002008904FF4C7
:101C60000050099000200A906946314801F0CDFDEE
:101C700001212F4801F0F4FD0BB030BD2DE9FF5FCD
:101C800082460F4614462A25002003900290834680
:101C90000026019080460090B94627B9262528469F
:101CA00004B0BDE8F09F2A201C49087000201A49A2
:101CB00008602049086020482049086000204860EA
:101CC0008860C86008614861084601F024FC002073
:101CD00001F0FBFB002001F019FC00F0007010B1D6
:101CE0000E252846DCE70A480068022802D10402D3
:101CF0004FEA5A2A002C3EDDB4F5006F3BDC601E33
:101D00002040B8BB20461BE00C00002000800140B2
:101D100004000020CC0C0020240000202000002023
:101D2000002000100800002008E0FFFD00F0001077
:101D30004404024010000020FFFF0F00E00C0020D0
:101D4000FFF7FFFB0390FE4804601020FC49486049
:101D5000402088600020C8604FF480600861084619
:101D600001F0B6FB1020FEF794FE05462A2D05D0A3
:101D7000284695E7FFE72625284691E7F1480088A1
:101D80000004EF4908600D20486040208860002072
:101D9000C8604FF480600861084601F099FB0D208F
:101DA000FEF777FE05462A2D01D0284678E7002069
:101DB00001F0ACFB0190DFF890B31EE0ABF1010B3A
:101DC000E04800880004DE4908600D20486040209B
:101DD00088600020C8604FF480600861084601F008
:101DE00077FB0D20FEF755FE05462A2D01D028462B
:101DF00056E7002001F08AFB0190019800F4807002
:101E000010B9BBF1000FD9D1BBF1000F01D12920CE
:101E100046E7CB48C0F800A01820C94948604020D8
:101E200088600020C8604FF480600861084601F0B7
:101E30004FFB1820FEF72DFE05462A2D01D028461F
:101E40002EE7C24804600020C1490860C14807600D
:101E5000BD48C14908600846446003980001886095
:101E60000020C860086101204861084601F053FB6A
:101E7000BA48006802286BD139E04FF4804001F085
:101E800098FBA0B3B1480068801B202820D2AF483F
:101E90000078801B00F0030020B9AC480068801B6C
:101EA000800804E0A9480068801B8008401C00905E
:101EB0004FF0000808E0D9F8000001F052FB08F1EB
:101EC000010809F10409361D009880450FD2F2E798
:101ED0004FF0000805E059F8280001F042FB08F136
:101EE0000108B8F1080FF6D309F1200920369C4803
:101EF000406B40F21A6108400028BED0082001F073
:101F000058FB28B1082001F05EFB04252846C7E6EF
:101F1000022001F04EFB28B1022001F054FB022503
:101F20002846BDE6102001F044FB28B1102001F046
:101F30004AFB05252846B3E64FF4007001F039FB53
:101F4000F0B34FF4007001F03EFB07252846A7E6EA
:101F500082480068012813D1012144F21A3001F0AF
:101F6000A7FA00BF7F48006818B97F4800782A2880
:101F7000F8D07D4800782A2828D07B4800788FE662
:101F800076480068E0B9012140F21A3001F090FA79
:101F900021463846FFF746FE012001F096FA00BFC1
:101FA000724801F075FC0028FAD000BF6D48006847
:101FB00018B96D4800782A28F8D06B48007800E0FE
:101FC00004E02A2802D06848007869E640F2FF5011
:101FD00001F0F9FA02A8FFF75FFD054603E002A849
:101FE000FFF75AFD05462A2D07D19DF8080007285E
:101FF000F5D09DF808000628F1D0284650E62DE9D6
:10200000FE4F8346884614461E462A25002002902D
:102010000190002781460090C246B8F1000F03D11D
:1020200026252846BDE8FE8F2A204F49087000204B
:102030004C4908604549086043484749086000200A
:1020400048608860C86008614861084601F063FA2A
:10205000002001F03AFA002001F058FA00F0007078
:1020600010B10E252846DDE741480068022802D15C
:1020700004024FEA5B2B002C20DDB4F5006F1DDC61
:10208000601E2040D0B92046FFF75BFA02902C4832
:10209000046010202A494860402088600020C86001
:1020A0004FF480600861084601F012FA1020FEF734
:1020B000F0FC05462A2D04D02846B3E726252846FD
:1020C000B0E72048008800041D4908600D204860E2
:1020D000402088600020C8604FF480600861084696
:1020E00001F0F6F90D20FEF7D4FC05462A2D01D0AB
:1020F000284697E7012E76D906FB04F0B0F1007F61
:1021000002D3262528468DE71948006838B11848BB
:102110000068012803D01648006802284BD10948FE
:102120000088000406490860372048604020886025
:102130000020C8604FF48060086108461AE0000083
:10214000CC0C002008000020FFFF0F001000002032
:102150001400002018000020E00C00200C000020DB
:1021600000800140240000202000002000200010FA
:102170000400002001F0ACF93720FEF78AFC054688
:102180002A2D01D028464DE7F74806601720F6496A
:102190004860402088600020C8604FF4806008617B
:1021A000084601F095F91720FEF773FC05462A2D25
:1021B00001D0284636E7EC48C0F800B01920EA49BB
:1021C0004860402088600020C8604FF4806008614B
:1021D000084601F07DF91920FEF75BFC05462A2D23
:1021E00002D028461EE7F1E006FB04F0DF49086054
:1021F0000120DF490860DF48C0F80080DE48DF4981
:10220000086006FB04F04860029800018860002026
:10221000C860086101204861084601F07CF9D8488F
:10222000006802287ED139E04FF4804001F0C1F906
:10223000A0B3CE480068C01B20280FD34FF0000980
:1022400005E05AF8290001F08CF909F10109B9F10A
:10225000080FF6D30AF1200A20371FE0C3480078A0
:10226000C01B00F0030020B9C0480068C01B8008F4
:1022700004E0BE480068C01B8008401C00904FF07E
:10228000000908E0DAF8000001F06BF909F1010932
:102290000AF1040A3F1D00988145F3D3B948406B09
:1022A00040F21A3108400028BED0082001F081F920
:1022B00028B1082001F087F904252846B2E602205B
:1022C00001F077F928B1022001F07DF902252846B6
:1022D000A8E6102001F06DF928B1102001F073F983
:1022E000052528469EE64FF4007001F062F930B1F2
:1022F0004FF4007001F067F90725284692E64FF485
:10230000807001F056F9002860D09F48006838B10D
:102310009D480068012803D09B480068022855D1D9
:10232000002000E015E0904908600C204860402043
:1023300088600020C8604FF480600861084601F0A2
:10234000C7F80C20FEF7A5FB05462A2D3ED02846EF
:1023500068E68B480068012813D1012144F21A3045
:1023600001F0A6F800BF8948006818B988480078CD
:102370002A28F8D0864800782A2827D08448007870
:1023800050E67F48006808BB012140F21A3001F096
:102390008FF8012001F099F806FB04F14046FFF7A1
:1023A00041FC00BF7B4801F073FA0028FAD000BF5F
:1023B0007648006818B9764800782A28F8D074481A
:1023C00000782A2802D0724800782BE640F2FF50AD
:1023D00001F0F9F801A8FFF75FFB054603E001A84B
:1023E000FFF75AFB05462A2D07D19DF80400072860
:1023F000F5D09DF804000628F1D0284612E6614881
:10240000406B00F4405008B1012070470020FCE709
:1024100010B52A240020544908600C204860402050
:1024200088600020C8604FF480600861084601F0B1
:102430004FF80C20FEF72DFB0446204610BD2DE979
:10244000FC4105460E462A240027002001900090FA
:1024500051484068202101EA105018B9252420462F
:10246000BDE8FC8147484068C0B2801C4B49B1FBC5
:10247000F0F00190002001F049F800F0007010B178
:102480000E242046ECE740480068022801D16D0A7E
:10249000760A3D48006838B13B480068012803D0FF
:1024A0003948006802282DD12F48056020202E4988
:1024B0004860402088600020C8604FF48060086158
:1024C000084601F005F82020FEF7E3FA04462A2C1E
:1024D00001D02046C4E724480660212022494860F4
:1024E000402088600020C8604FF480600861084682
:1024F00000F0EEFF2120FEF7CCFA04462A2C01D092
:102500002046ADE70020184908602620486040209A
:1025100088600020C8604FF480600861084600F0C1
:10252000D7FF2620FEF7B5FA04462A2C01D0204614
:1025300096E7002700E07F1C01988742FBD368469E
:10254000FFF7AAFA044603E06846FFF7A5FA044637
:102550002A2C07D19DF800000728F5D09DF800002F
:102560000628F1D020467BE7CC0C0020100000208C
:102570001400002018000020FFFF0F00E00C0020D6
:102580000C000020008001400400002024000020F6
:102590002000002000200010940C002040190100B1
:1025A00070B504462A2514B92625284670BDFE4874
:1025B00000880004FD4908600D20486040208860C4
:1025C0000020C8604FF480600861084600F080FF7A
:1025D0000D20FEF75EFA05462A2D01D02846E5E7D4
:1025E000002000F093FF20602846DFE770B5044626
:1025F0002A260025002000F089FF00F0007010B1AD
:102600000E26304670BD4020E84908601020486022
:10261000402088600020C8604FF480600861084650
:1026200000F056FF1020FEF734FA06462A2E01D09D
:102630003046E7E7DC4800880004DC4908603720C2
:102640004860402088600020C8604FF480600861C6
:10265000084600F03DFF3720FEF71BFA06462A2EFB
:1026600001D03046CEE7D248D249086040204860C9
:10267000602088600220C860002008610120486155
:10268000084600F048FF0020C84908600D20486057
:10269000402088600020C8604FF4806008610846D0
:1026A00000F016FF0D20FEF7F4F906462A2E01D0A1
:1026B0003046A7E70EE04FF4004000F07AFF48B143
:1026C000002504E000F049FF44F825006D1C082DAA
:1026D000F8D32034B848406B40F22A610840002803
:1026E000E9D0082000F065FF28B1082000F06BFF5A
:1026F0000426304686E7022000F05BFF28B1022066
:1027000000F061FF022630467CE7202000F051FFF8
:1027100028B1202000F057FF0626304672E74FF41C
:10272000007000F046FF30B14FF4007000F04BFF36
:102730000726304666E703E000F00FFF2060241D07
:102740004FF4001000F035FF0028F5D140F2FF50A3
:1027500000F039FF403C002515E014F82500000684
:1027600034F8251001F47F4140EA012054F8251087
:1027700001F47F0140EA112054F8251040EA11606D
:1027800044F825006D1C102DE7D330463AE770B5AC
:102790000024002589480068012867D1C00300F0A3
:1027A00015FFA8B100BF06E000F0D7FE8449096814
:1027B00041F82400641C082CF6D3814800682030BE
:1027C0007F4908607F48006820307E4908604DE0FE
:1027D0004FF4804000F0FAFE002847D07A480068A5
:1027E00078490968401A20282BD277480078754923
:1027F0000968401A00F0030030B973480068714955
:102800000968401A800806E06F4800686D49096849
:10281000401A8008401C054600240FE06B490968F7
:10282000086800F09EFE641C68480068001D674947
:10283000086064480068001D62490860AC42EDD33E
:1028400014E0002406E06149096851F8240000F012
:1028500088FE641C082CF6D35C48006820305B4975
:102860000860584800682030564908604FF480706E
:1028700000F0ACFED8B351480068D0B10EE000F0D3
:102880006CFE4F49096808604D480068001D4C49BE
:1028900008604C480068001D4A4908604FF4001069
:1028A00000F087FE28B14748006847490968884218
:1028B000E5D347480068012804D1FFF7A9FD454941
:1028C000087002E02A20434908704FF4807000F03D
:1028D00087FE00214CF23A3000F0EAFD01203E492B
:1028E00008600020374908603A48007870BDFFE76B
:1028F000022000F06BFE70B1022000F071FE00219A
:102900004CF23A3000F0D4FD00202E49086002203D
:1029100030490870EAE7082000F058FE70B108203E
:1029200000F05EFE00214CF23A3000F0C1FD0020C4
:1029300024490860042027490870D7E7202000F0C8
:1029400045FE70B1202000F04BFE00214CF23A30E1
:1029500000F0AEFD00201B49086006201D490870EC
:10296000C4E7102000F032FE70B1102000F038FEF5
:1029700000214CF23A3000F09BFD00201149086024
:10298000052014490870B1E74FF4007000F01EFEF6
:1029900050B34FF4007000F023FE00214CF23A30A7
:1029A00000F086FD002019E008000020CC0C00207B
:1029B000FFFF0F00E00C0020008001400C00002011
:1029C0001C0000202800002010000020180000201B
:1029D000140000202000002024000020034908608B
:1029E00007200349087081E72A207FE7280000209C
:1029F0002000002010B50446C649601A8C422FD032
:102A000009DCC548204480B1B0F5806F16D0B0F520
:102A1000006F4AD11BE0B0F5806F2AD0B0F5006F8F
:102A200030D0B0F5406F40D135E00121042000F0F6
:102A3000FFFA0021042000F0FBFA37E00121082012
:102A400000F0F6FA0021082000F0F2FA2EE0012151
:102A5000102000F0EDFA0021102000F0E9FA25E046
:102A60000121202000F0E4FA0021202000F0E0FA0B
:102A70001CE00121402000F0DBFA0021402000F0A2
:102A8000D7FA13E00121802000F0D2FA0021802043
:102A900000F0CEFA0AE00121080200F0C9FA002194
:102AA0004FF4807000F0C4FA00E000BF00BF10BD1A
:102AB00010B50121084600F0BBFA0021012000F00A
:102AC000B7FA10BD2DE9F04102460025002600208E
:102AD00000230024002791F803C00CF00F0591F8A3
:102AE00003C00CF0100CBCF1000F03D091F802C031
:102AF0004CEA050591F800C0BCF1000F31D0146814
:102B000000202BE04FF0010C0CFA00F3B1F800C0EC
:102B10000CEA03069E4220D183004FF00F0C0CFA02
:102B200003F7BC4305FA03FC4CEA040491F803C024
:102B3000BCF1280F06D14FF0010C0CFA00FCC2F8D2
:102B400014C00AE091F803C0BCF1480F05D14FF062
:102B5000010C0CFA00FCC2F810C0401C0828D1D3AC
:102B60001460B1F800C0BCF1FF0F34DD54680020E0
:102B70002EE000F1080C4FF0010808FA0CF3B1F850
:102B800000C00CEA03069E4221D183004FF00F0CD7
:102B90000CFA03F7BC4305FA03FC4CEA040491F871
:102BA00003C0BCF1280F05D100F1080C08FA0CF89D
:102BB000C2F8148091F803C0BCF1480F07D100F1AE
:102BC000080C4FF0010808FA0CF8C2F81080401CFD
:102BD0000828CED35460BDE8F0814FF6FF71018024
:102BE000022181700421C170704702460020936861
:102BF0000B400BB1012000E00020704701468868BF
:102C000080B2704702460020D3680B400BB1012010
:102C100000E0002070470146C86880B2704701613B
:102C20007047416170470AB1016100E0416170473E
:102C3000C16070474FF480320A43826181618261D2
:102C400082698269704702460020344B18684FF64B
:102C50008073184040EA02100843304B18607047F8
:102C60002F49C8617047F0B50A46002300240021AF
:102C700000252A4E7168C0F3034583B200F4401664
:102C8000B6F5401F08D121F07061244E766826F019
:102C90007066224F7E6012E000F48016B6F5801F49
:102CA00006D1032606FA05F4A14341F0706106E05F
:102CB000460D360103FA06F6B14341F0706122B1C8
:102CC000460D360103FA06F63143144E7160F0BD2D
:102CD00030B500228B071C0F0F2303FA04F20F4BB1
:102CE00008338C1053F8243093430C4C08348D1067
:102CF00044F8253023468C1053F824308C07240FD9
:102D000000FA04F42343054C08348D1044F82530B0
:102D100030BD00000014014000F8FEBF000001407B
:102D200000002042DE48006840F00100DC490860F5
:102D300008464068DB490840D949486008460068B1
:102D4000D9490840D64908600846006820F4802028
:102D500008600846406820F4FE0048600020886053
:102D60007047CF49096821F48031CD4A116011467E
:102D7000096821F480211160B0F5803F03D0B0F5DF
:102D8000802F0ED106E0C649096841F48031C44A5B
:102D9000116007E0C249096841F4A021C04A1160EE
:102DA00000E000BF00BF704710B5014600220023BD
:102DB00000204A11012A02D1B94C236806E0022AF8
:102DC00002D1B74C236A01E0B54C636A01F01F02DF
:102DD000012494401C400CB1012000E0002010BDF3
:102DE00038B5002000900024002500BF3120FFF7F7
:102DF000DBFF05460098401C00901DB90098B0F517
:102E0000A06FF3D13120FFF7CFFF08B1012400E01C
:102E10000024204638BD01460020A14A106820F059
:102E2000F80040EAC10010607047A0490860704790
:102E3000024600209A4B586820F47C1042EA0103B5
:102E40001843974B58607047984908667047014689
:102E50000020934A506820F00300084350607047F8
:102E60008F48406800F00C007047014600208C4AF3
:102E7000506820F0F0000843506070470146002081
:102E8000874A506820F4E06008435060704701466C
:102E90000020834A506820F4605040EAC10050602E
:102EA000704729B17E4A527A02437D4B5A7204E040
:102EB0007B4A527A82437A4B5A7270477B49D831A7
:102EC0000860704701460020754A506820F4404071
:102ED0000843506070470021714A20321170704AD7
:102EE00082F82010012802D004280AD104E0012130
:102EF0006B4A2032117005E00521694A20321170B9
:102F000000E000BF00BF704769490860704764492E
:102F1000096A0143624A1162704765494439086091
:102F2000704730B500210022002400235C4D6D68FD
:102F300005F00C0121B1042905D0082923D105E0B1
:102F40005C4D056022E05B4D05601FE0544D6D68EF
:102F500005F47012022505EB9242514D6D6805F49F
:102F600080341CB9544D554305600BE04C4D6D68E1
:102F700005F400351DB1504D5543056002E04D4D3F
:102F80005543056002E04B4D056000BF00BF444D56
:102F90006D6805F0F0010909484D6B5C0568DD407E
:102FA00045603F4D6D6805F4E061090A434D6B5C77
:102FB0004568DD4085603A4D6D6805F46051C90A89
:102FC0003E4D6B5C4568DD40C560354D6D6805F470
:102FD0004041890B3A4D6B5CC568B5FBF3F5056163
:102FE00030BD29B12E4A526902432D4B5A6104E08B
:102FF0002B4A526982432A4B5A61704729B1284AA9
:1030000092690243264B9A6104E0254A9269824301
:10301000234B9A61704729B1214AD2690243204B60
:10302000DA6104E01E4AD26982431D4BDA617047BF
:1030300029B11B4AD2680243194BDA6004E0184AEE
:10304000D2688243164BDA60704729B1144A12697C
:103050000243134B1A6104E0114A12698243104B78
:103060001A61704712494039086070470F49C864B7
:1030700070470B49C87170470948406A40F080703A
:1030800007494862704701460020054A92680A4095
:103090000AB1012000E000207047014988727047A2
:1030A000001002400000FFF8FFFFF6FE0000424261
:1030B0008004424200127A0000093D002C000020EA
:1030C0003C00002010B50446D749601A8C422BD032
:1030D00006DCD648204498B1B0F5806F38D119E0AD
:1030E000B0F5806F2AD0B0F56C4F31D10121880343
:1030F000FFF79EFF00214FF48040FFF799FF28E083
:1031000001214804FFF7A1FF00214FF40030FFF731
:103110009CFF1EE001218804FFF797FF00214FF478
:103120008020FFF792FF14E00121C804FFF78DFF14
:1031300000214FF40020FFF788FF0AE00121080575
:10314000FFF783FF00214FF48010FFF77EFF00E0C0
:1031500000BF00BF10BD2DE9F04786B005460E4602
:103160000024A24600BF00BF00272F462C8A4CF641
:10317000FF700440F08804432C82AC894EF6F310B3
:103180000440B08831890843718908430443AC8105
:10319000AC8A4FF6FF400440B0890443AC8201A8DA
:1031A000FFF7BFFEA248874202D1DDF810A001E080
:1031B000DDF80CA00AEBCA0000EB0A1031688900A8
:1031C000B0FBF1F86420B8FBF0F0040120096421A1
:1031D00001FB1089322000EB0910B0FBF1F000F088
:1031E0000F0004432C8106B0BDE8F0874FF4165160
:1031F000016000218180C18001810C214181002179
:103200008181704710B502460020108A4FF2FF03FB
:1032100018400B884C8823438C882343CC88234355
:103220001843108210BD0021018041808180C1803F
:10323000704721B1828942F40052828104E0828980
:103240004DF6FF731A4082817047F0B503460024A3
:103250000026002500201846C1F3421401F01F0685
:10326000012707FA06F5012C01D10C3004E0022CED
:1032700001D1103000E014301AB107682F43076005
:1032800002E00768AF430760F0BD1AB1838A0B43C1
:10329000838202E0838A8B4383827047028A4FF6DF
:1032A000F0731A400282028A0A43028270478289BE
:1032B0004FF2FF731A40828182890A4382817047EC
:1032C00021B1828942F00202828104E082894FF6B4
:1032D000FD731A4082817047028A4FF6DF731A40ED
:1032E0000282028A0A430282704721B1028A42F4B2
:1032F0008042028204E0028A4BF6FF731A40028287
:103300007047C1F308028280704701468888C0F385
:1033100008007047818941F0010181817047028B6B
:10332000D2B20283028B42EA012202837047028BEF
:1033300002F47F420283028B0A430283704721B169
:10334000828A42F02002828204E0828A4FF6DF7392
:103350001A408282704721B1828A42F01002828232
:1033600004E0828A4FF6EF731A408282704721B1DF
:10337000828A42F00802828204E0828A4FF6F77362
:103380001A4082827047828A4FF6FB731A4082820B
:10339000828A0A438282704721B1828A42F0020205
:1033A000828204E0828A4FF6FD731A40828270475F
:1033B0000246002013880B400BB1012000E00020E2
:1033C0007047CA430280704770B502460B4600241E
:1033D000002100250020C3F3421503F01F01012640
:1033E00006FA01F1012D02D19689314006E0022D45
:1033F00002D1168A314001E0968A31401C12012622
:1034000006FA04F41688344011B10CB1012000E032
:10341000002070BD10B5002200230A120124944040
:10342000A3B2DC43048010BD004C004000BCFFBFD1
:103430000038014000206C49086048608860C8601E
:1034400048628862C862694888630020C863704720
:103450000021654A516847F6FF6291430278C368CC
:103460001A4383681A4303691A4343681A4343693A
:103470001A4311435C4A516070470021017041605A
:103480008160C160016141617047594908607047BE
:103490005549096821F00301534A11601146096832
:1034A0000143116070475048006800F00300704706
:1034B00029B14D4AD26B02434B4BDA6304E04A4ACE
:1034C000D26B8243484BDA6370474A4908607047C1
:1034D0000021454B02689A601A46D1686FF30A01D1
:1034E000D0E901231A43C3681A4303691A431143FD
:1034F0003D4AD16070470021016041608160C16038
:103500000161704738480069C0B2704701463648CB
:103510000844406970470021334B02685A62426890
:103520009A621A46D16A21F0F701D0E902231A43C0
:1035300003691A4343691A4311432B4AD162704706
:103540004FF0FF310160002141608160C160016185
:10355000416170472448006B704723488030006801
:10356000704721498031086070471F48806C704760
:1035700020491431086070471E49183108607047AF
:103580001C491C31086070471A4920310860704797
:103590001949086070471849091D086070470121E2
:1035A0008143154A08321160704713490C31086095
:1035B0007047014600200C4A526B0A400AB10120B4
:1035C00000E00020704708498863704701460020EA
:1035D000054A526B0A400AB1012000E00020704702
:1035E000014988637047000000800140FF07C00068
:1035F000A00030428C053042AC01304231490143D9
:10360000314A1160704770B5002100230F22C47841
:1036100004B32D4C246804F4E064C4F5E064210A8A
:10362000C1F10403CA40447804FA03F184781440D9
:1036300021430901254C0678A155047804F01F05A3
:103640000124AC4005786D11AD0005F1E025C5F809
:10365000004109E0047804F01F050124AC401C4D32
:103660000678761145F8264070BD1A4A0A40024392
:10367000154B1B1F1A60704739B1134A121D12688F
:103680000243114B1B1D1A6006E00F4A121D1268FF
:1036900082430D4B1B1D1A607047042808D14FF060
:1036A000E021096941F004014FF0E022116107E0D7
:1036B0004FF0E021096921F004014FF0E02211618F
:1036C000704700000000FA050CED00E000E400E0A7
:1036D00080E100E080FFFF1F016821F0010101602F
:1036E0000021016041608160C160874A811A904277
:1036F0005BD012DC854AA0EB020190423AD007DC95
:1037000083490144D9B1142922D028297AD128E04B
:10371000142938D0282975D13EE0B1F56C7F5BD0F3
:1037200006DCB1F5627F49D0B1F5677F6AD14CE024
:10373000B1F5717F57D0B1F5767F63D15BE0734906
:103740004439496841F00F01704A443A51605AE0E7
:103750006E494439496841F0F0016C4A443A51607D
:1037600051E06A494439496841F47061674A443A12
:10377000516048E065494439496841F47041634A01
:10378000443A51603FE061494439496841F470214D
:103790005E4A443A516036E05C494439496841F434
:1037A00070015A4A443A51602DE0584944394968F9
:1037B00041F07061554A443A516024E05549096826
:1037C00041F00F01534A11601DE05249096841F070
:1037D000F001504A116016E04E49096841F47061E9
:1037E0004C4A11600FE04B49096841F47041494A65
:1037F000116008E006E04749096841F47021454A34
:10380000116000E000BF00BF704710B500220268E1
:1038100047F6F0739A430C6A8B6823430C69234381
:103820004C6923438C692343CC6923434C6A23436B
:103830008C6A23431A430260CB6843600B68836041
:103840004B68C36010BD0021016041608160C160B0
:10385000016141618161C1610162416281627047C0
:1038600021B1026842F00102026003E0026822F026
:103870000102026070471AB103680B43036002E063
:1038800003688B43036070470146486880B2704705
:1038900001460020002201F080531BB11D4B1B1F6D
:1038A0001A6802E0194B443B1A6802EA01030BB1A3
:1038B000012000E00020704700F0805111B115494F
:1038C000086002E011494439486070470146002011
:1038D000002201F080531BB10E4B1B1F1A6802E03F
:1038E0000A4B443B1A6802EA01030BB1012000E0D5
:1038F0000020704700F0805111B10649086002E0D5
:103900000249443948607047800002404400024048
:10391000F8FFFDBF040402400CB5002001900090A8
:103920004748006840F480304549086000BF44487B
:10393000006800F4003000900198401C019000984D
:1039400018B90198B0F5A06FF1D13D48006800F4B6
:10395000003010B10120009001E00020009000989C
:10396000012844D13748006840F01000354908600C
:103970000846006820F0030008600846006840F030
:10398000020008602E4840682D494860084640689B
:1039900048600846406840F48060486008464068D7
:1039A00020F47C1048600846406840F4E810486005
:1039B0000846006840F08070086000BF204800683A
:1039C00000F000700028F9D01D48406820F0030086
:1039D0001B4948600846406840F00200486000BF4C
:1039E0001748406800F00C000828F9D101E000BF3A
:1039F000FEE70CBD10B5FFF78FFF10BD10B51048E6
:103A0000006840F001000E490860084640680E4911
:103A100008400B494860084600680C4908400849BE
:103A200008600846006820F4802008600846406866
:103A300020F4FE00486000208860FFF7DBFF10BD27
:103A400000100240002002400000FFF8FFFFF6FED9
:103A500030B50B46014600202022012409E021FA5E
:103A600002F59D4205D303FA02F5491B04FA02F55B
:103A70002844151EA2F10102F1DC30BD064C074DB1
:103A800006E0E06840F0010394E80700984710342E
:103A9000AC42F6D3FCF750FB343C0008543C000821
:103AA0000FB4054B10B503A9044A029800F018F8AA
:103AB00010BC5DF814FB0000C306000840000020A5
:103AC00002E008C8121F08C1002AFAD170477047E7
:103AD000002001E001C1121F002AFBD17047000045
:103AE0002DE9FF4F89B09B460446002506E02528B6
:103AF0000BD05A460B999047641C6D1C2078002807
:103B0000F5D10DB02846BDE8F08F0027B846012258
:103B1000474900E0074314F8013F203B02FA03F055
:103B20000842F7D120782E2819D114F8010F47F058
:103B300004072A280ED06FF02F022078A0F1300160
:103B400009290CD808EB880102EB410100EB0108C0
:103B5000641CF2E70A98641C50F8048B0A902078E1
:103B60000028CED0642808D0692806D075281ED039
:103B70005A460B9990476D1C58E00A994FF00A0974
:103B800001C90A91002802DA40422D2102E03905DC
:103B900004D52B218DF82010012103E0F90704D072
:103BA0002021F7E78A4608AE0DE00021FAE70A99DE
:103BB0004FF00A0901C90A91F7E74946FFF748FFA4
:103BC000303106F8011D0028F7D1ADEB060000F1F9
:103BD0002009780701D44FF00108C84502DDA8EBA1
:103BE000090000E000208046002706E008A85A46A9
:103BF000C05D0B9990476D1C7F1C5745F6DB04E0B8
:103C000030205A460B9990476D1CB8F10001A8F17D
:103C10000108F5DC05E016F8010B5A460B999047B0
:103C20006D1CB9F10001A9F10109F4DC641C65E720
:103C300009280100543C0008000000204400000056
:103C4000C03A0008983C000844000020B40E000070
:103C5000D03A00080000002A000000000000000028
:103C60000200000000000000000000000000000052
:103C7000000000002A00000000000000000000001A
:103C80000000000001020304010203040607080902
:083C9000020406080000000018
:0400000508000147A7
:00000001FF
