:020000040800F2
:100000000004002047010008110400081304000840
:10001000170400081B0400081F040008000000006B
:1000200000000000000000000000000023040008A1
:100030002504000800000000270400082904000827
:1000400067010008670100086701000867010008F0
:1000500067010008670100086701000867010008E0
:1000600067010008670100086701000867010008D0
:1000700067010008670100086701000867010008C0
:1000800067010008670100086701000867010008B0
:1000900067010008670100086701000867010008A0
:1000A0006701000867010008670100086701000890
:1000B0006701000867010008670100086701000880
:1000C0006701000867010008670100086701000870
:1000D0006701000867010008670100086701000860
:1000E0006701000867010008670100086701000850
:1000F0006701000867010008670100086701000840
:100100006701000831040008670100086701000862
:10011000670100086701000867010008670100081F
:10012000670100086701000867010008670100080F
:10013000DFF80CD005F030FE00480047030300084C
:10014000880B0020704708488047084981F30888D9
:1001500007480047FEE7FEE7FEE7FEE7FEE7FEE7AB
:10016000FEE7FEE7FEE7FEE745010008880B0020FA
:10017000310100082DE9F0479AB00025002634210E
:10018000684605F0E6FD7C49002003F01FFA694649
:100190000DA803F047FE002876D193E09DF85800A3
:1001A00010F0200FF9D09DF8590000B991E00DF141
:1001B000590272A1784804F022FA78A10DF1590091
:1001C00005F0D3FD074677A10DF1590005F0CDFDEF
:1001D000804676A10DF1590005F0C7FD814675A155
:1001E0000DF1590005F0C1FD824647B9B8F1000F85
:1001F00005D1B9F1000F02D1BAF1000F62D001228E
:100200000DF159016D4803F0F6F9044601206C49DF
:1002100008606C48C06820F040006A49C8606AA164
:100220005D4804F0ECF900BF654B4FF400726A4979
:10023000624803F0A4FA0446CCB900254FF47A7062
:1002400004F0CBFB10E080215E4804F0D7FC58B1ED
:10025000002607E06049485D04F0BCFA681C85B2DE
:10026000701CC6B2202EF5DBB5F5007FEBDB1CB9A8
:10027000534800680028D7D100BF00BF57A14648A7
:1002800004F0BDF9002510E024E080214D4804F081
:10029000B5FC50B1002606E0002004F09BFA681C73
:1002A00085B2701CC6B2202EF6DBB5F5006FECDB14
:1002B00000254448C06840F040004249C8603F48BB
:1002C00003F0C4FC14A90DA803F0E0FD00283FF4DE
:1002D00065AF00BF1AB0BDE8F08708B54FF4C06045
:1002E00005F086F931208DF8000000208DF801001E
:1002F0008DF8020001208DF80300684605F07DF9B5
:1003000008BD10B505F0F3FC04F03CFB04F000F967
:10031000FFF7E3FF35A1204804F071F904F0F6F986
:10032000002002F063F904F0D4FAFFF723FF00BFC6
:10033000FEE710B52A2400F054FB04462A2C03D112
:10034000324800F07FFB04462A2C06D12F49B1F831
:100350004C10080400F0A8FE04462A2C03D100200B
:1003600000F03CFE04462A2C03D1002000F090FE51
:100370000446204610BD0000A4000020200D0A20E5
:100380007468652066696C65206E616D65206973AF
:100390003A202573200D0A00003801402E6D70337D
:1003A000000000002E6D6964000000002E77617669
:1003B000000000002E776D6100000000D8020020D0
:1003C0000400002000100140200D0A20BFAACABC72
:1003D000B2A5B7C5200D0A0020070020200D0A2075
:1003E000B2A5B7C5BDE1CAF8200D0A00200D0A204C
:1003F000D5E2CAC7D2BBB8F64D5033B2E2CAD4C0B8
:10040000FDB3CC20210D0A20000000005400002084
:10041000704700BFFEE700BFFEE700BFFEE700BF7A
:10042000FEE770477047704710B504F0DEFA10BD64
:1004300010B501F0A5FF10BD70B52A25FF48446B2B
:1004400001E0FE48446B14F0450FFAD014F0040F9D
:1004500005D00325042005F0B0F8284670BD14F03F
:10046000010F05D00125012005F0A7F82846F5E782
:1004700040F2FF5005F0A1F82846EFE72DE9F041E2
:1004800004460D462A26ED48D0F8348002E0EB48B9
:10049000D0F8348018F0450FF9D018F0040F06D0CA
:1004A0000326042005F089F83046BDE8F08118F0F5
:1004B000010F05D00126012005F07FF83046F4E752
:1004C00005F01AF8A04202D010263046EDE740F2BF
:1004D000FF5005F072F8002005F012F8074617F4F7
:1004E000604F03D1380C28803046DEE717F4005FF8
:1004F00001D01320D9E717F4804F01D01020D4E7A2
:1005000017F4004F01D00F20CFE73046CDE738B5C4
:100510002A240120009004F0C0FF10B925242046B1
:1005200038BDC7480068042829D00020C5490860A4
:1005300002204860C02088600020C8604FF48060BE
:100540000861084604F0BEFFFFF776FF04462A2C38
:1005500001D02046E4E7002004F0D2FFBA49086049
:10056000042004F0CDFFB8494860082004F0C8FF1B
:10057000B54988600C2004F0C3FFB349C860B04897
:10058000006858B1AE480068012807D0AC48006840
:10059000062803D0AA480068022817D10020A949DC
:1005A000086003204860402088600020C8604FF445
:1005B00080600861084604F085FF69460320FFF764
:1005C0005DFF04462A2C01D02046A9E79C4800681C
:1005D000042834D0BDF800009949091D0860BDF811
:1005E000000000049749086009204860C020886026
:1005F0000020C8604FF480600861084604F062FF84
:10060000FFF71AFF04462A2C01D0204688E7002075
:1006100004F076FF8C4910390860042004F070FF64
:10062000894910394860082004F06AFF864910396A
:1006300088600C2004F064FF83491039C8602A24C4
:1006400020466DE770B52A257C48446B01E07B4865
:10065000446B14F0450FFAD014F0040F05D00325B5
:10066000042004F0AAFF284670BD40F2FF5004F0B9
:10067000A4FF2846F8E72DE9F04104462A256F48F3
:10068000476B01E06D48476B17F0450FFAD017F044
:10069000040F06D00325042004F08FFF2846BDE890
:1006A000F08117F0010F05D00125012004F085FF2E
:1006B0002846F4E704F020FFA04202D01025284687
:1006C000EDE740F2FF5004F078FF002004F018FF3F
:1006D00006465E490E4201D12846E0E716F0004F7B
:1006E00001D01C20DBE716F0804F01D00920D6E7AF
:1006F00016F0005F01D00A20D1E716F0805F01D02C
:100700000B20CCE716F0006F01D00C20C7E716F0E5
:10071000806F01D00D20C2E716F0807F01D00E203F
:10072000BDE716F4000F01D00F20B8E716F4800FD4
:1007300001D01020B3E716F4001F01D01120AEE75E
:1007400016F4801F01D01220A9E716F4002F01D063
:100750001320A4E716F4802F01D014209FE716F48D
:10076000003F01D015209AE716F4803F01D01620F3
:1007700095E716F4004F01D0172090E716F4804F4C
:1007800001D018208BE716F4005F01D0192086E70E
:1007900016F0080F01D01A2081E728467FE770B5D0
:1007A0002A2442F210752548466B02E06D1E23484C
:1007B000466B16F0450F01D1002DF7D115B116F09B
:1007C000040F05D00324042004F0F7FE204670BD7A
:1007D00016F0400F05D02A24402004F0EEFE2046FB
:1007E000F5E72046F3E770B52A2442F2107500E0E1
:1007F0006D1E25B1802004F0D6FE0028F8D015B972
:100800000324204670BD40F2FF5004F0D6FE20467F
:10081000F8E72DE9F0412A240025002600274FF0B3
:100820000008B2200A490870002048608860C8604B
:1008300008614861084604F005FE0BE000800140B5
:100840000C000020580900203009002008E0FFFDBE
:1008500040090020032004F015FE012004F00FFEE3
:100860000020FF49086048608860C8604FF48060DD
:100870000861084604F026FEFFF7B5FF04462A2C5F
:1008800002D02046BDE8F0814FF4D570F4490860ED
:1008900008204860402088600020C8604FF48060D5
:1008A0000861084604F00EFEFFF779FF04462A2C83
:1008B00005D10120EB4908604FF0804812E000208C
:1008C000E749086037204860402088600020C86001
:1008D0004FF480600861084604F0F4FD3720FFF70C
:1008E000CAFE04460020DE490860372048604020E8
:1008F00088600020C8604FF480600861084604F0FA
:10090000E1FD3720FFF7B7FE04462A2C4CD138E032
:100910000020D349086037204860402088600020CC
:10092000C8604FF480600861084604F0CBFD3720B2
:10093000FFF7A1FE04462A2C01D02046A2E7CA48B0
:1009400048EA0000C64908602920486040208860C5
:100950000020C8604FF480600861084604F0B2FDD2
:10096000FFF770FE04462A2C01D020468AE70020BB
:1009700004F0C6FD0546012080EAD57080F001072D
:10098000761C1FB94FF6FF708642C1D34FF6FF7039
:10099000864202D31B24204674E705F08040050000
:1009A00002D00220AF49086020466BE708B501215C
:1009B000302004F01FFB4FF4F850ADF80000032086
:1009C0008DF8020018208DF803006946A74804F04E
:1009D00087F80420ADF800006946A54804F080F8C7
:1009E00008BD10B52A24FFF7E1FF0121880204F0B9
:1009F000F4FA0121022004F0F0FA04F015FDFFF7EB
:100A000008FF04462A2C01D0204610BDFFF77FFDC9
:100A100004462A2C01D02046F7E7012095490870AA
:100A2000002048608860C86008614861084604F09A
:100A300009FD2046E9E710B52A24002004F022FD34
:100A4000204610BD30B501462A200022854B1B6888
:100A500081F84E30834B1B1D1B68A1F84C30864B30
:100A60001B681A0E93090B70C2F383034B7002F0DC
:100A700003038B70804B1B68C3F30742CA707E4B25
:100A80001B68C3F307220A717B4B1B68DAB24A71F9
:100A9000794B5B681A0E1301CB80774B5B68C3F30D
:100AA0000742CB8843EA1213CB8002F00F030B728C
:100AB000714B5B68C3F30722D3094B72C2F38013F7
:100AC0008B72C2F34013CB72C2F300130B7300237B
:100AD0004B73644B1B681BB1624B1B68012B3DD1F0
:100AE00093071B0D0B61644B5B68DAB20B6943EA39
:100AF00082030B61604B9B681A0E0B6943EA9213E9
:100B00000B61C2F3C2030B7502F007034B755A4B1E
:100B10009B68C3F3074253098B75C2F38203CB75FD
:100B200093075B0F0B76544B9B68C3F307220B7E36
:100B300043EAD2130B760B695B1C4B640C7E4D6C45
:100B4000A41C0123A3405D434D640C7A0123A34000
:100B50008B64D1E9113463434B6422E0414B1B6841
:100B6000022B1ED1444B5B68DAB293069B0A0B61E1
:100B7000414B9B681A0E0B6943EA02230B613E4B03
:100B80009B68C3F307420B6913430B613A4B9B68A5
:100B9000C3F307220B695B1CDB044B644FF4007347
:100BA0008B64C2F3801301F8193F93065B0E4B7000
:100BB000314B9B68DAB24B7843EAD2134B7002F0A8
:100BC0007F038B702C4BDB681A0ED309CB70C2F3FA
:100BD00041130B71C2F382034B7193071B0F8B718F
:100BE000254BDB68C3F307428B7943EA92138B7181
:100BF000C2F34013CB7100230B7202F001034B725E
:100C00001D4BDB68C3F30722D3098B72C2F3801339
:100C1000CB72C2F340130B73C2F300134B73C2F3D6
:100C200081038B7302F00303CB73134BDB68DAB2DF
:100C300053080B7401234B740F4B10331B681A0EAF
:100C4000CA7419390C4B10331B68C3F307421402E2
:100C5000CC85094B10331B68C3F30722CC8D0DE004
:100C6000580900200C0000200000108000100140F6
:100C70000014014040090020200900201443CC85C5
:100C8000FC4B1B68DAB214060C63FA4B5B681A0E55
:100C90000B6B43EA02440C63F64B5B68C3F30742F9
:100CA0000B6B43EA02240C63F24B5B68C3F307222D
:100CB0000C6B14430C63EF4B5B68DAB234235A5469
:100CC000EC4B9B681A0E35235A54EA4B9B68C3F3CE
:100CD000074214068C63E74B9B68C3F307228B6BB8
:100CE00043EA02448C63E34B9B68DAB28B6B43EAC2
:100CF00002248C63DF4BDB681A0E8C6B14438C630D
:100D0000DC4BDB68C3F307423C235C5C44EA12140F
:100D10005C5413071C0DCC87D64BDB68C3F307224A
:100D2000CC8F1443CC87D34BDB68DAB25408402312
:100D30005C54012441235C5430BD2DE9FC4107463D
:100D40000C4600252A266846002213460CC00820BF
:100D5000C949086010204860402088600020C860B1
:100D60004FF480600861084604F0ACFB1020FFF7E8
:100D700082FC06462A2E02D03046BDE8FC81BF48E0
:100D800000680004BC490860372048604020886043
:100D90000020C8604FF480600861084604F092FBB0
:100DA0003720FFF768FC06462A2E01D03046E4E7DC
:100DB000B348B449086008204860302088600220A9
:100DC000C8600020086101204861084604F09DFBCE
:100DD0000020A94908603320486040208860002036
:100DE000C8604FF480600861084604F06BFB332054
:100DF000FFF741FC06462A2E01D03046BDE709E048
:100E00004FF4001004F0CFFB20B104F0A0FB4DF82C
:100E100025006D1C9C48406B40F22A610842EFD0CF
:100E2000082004F0C0FB28B1082004F0C6FB04260B
:100E30003046A2E7022004F0B6FB28B1022004F0FD
:100E4000BCFB0226304698E7202004F0ACFB28B11A
:100E5000202004F0B2FB062630468EE74FF40070E7
:100E600004F0A1FB30B14FF4007004F0A6FB07269C
:100E7000304682E740F2FF5004F09FFB00980006E6
:100E8000009901F47F4140EA0120009901F47F01BB
:100E900040EA1120009940EA116060600198000664
:100EA000019901F47F4140EA0120019901F47F0199
:100EB00040EA1120019940EA1160206030465CE769
:100EC0007CB504462A25684600210A4606C0002053
:100ED00004F016FB10F0007F02D00E2528467CBDE2
:100EE00069466648006880B2FFF727FF05462A2D4D
:100EF00001D02846F3E7012C37D1019810F4802F58
:100F000030D05E48006800045B49086037204860C4
:100F1000402088600020C860A0020861084604F0F4
:100F2000D1FA3720FFF7A7FB05462A2D01D0284626
:100F3000D5E70220504908600620486040208860BC
:100F40000020C8604FF480600861084604F0BAFAD7
:100F50000620FFF790FB05462A2D01D02846BEE764
:100F60002846BCE725252846B9E7019810F4803FBC
:100F700031D04248006800043F490860372048608B
:100F8000402088600020C8604FF4806008610846F7
:100F900004F098FA3720FFF76EFB05462A2D01D0A2
:100FA00028469CE70020344908600620486040201D
:100FB00088600020C8604FF480600861084604F033
:100FC00081FA0620FFF757FB05462A2D01D0284657
:100FD00085E7284683E72525284680E770B504463F
:100FE0002A252648001F0068032802D12725284605
:100FF00070BD2248001F006848B12048001F0068EB
:10100000012804D01D48001F0068022830D1B4F523
:10101000805F02D127252846EAE7B4F5006F15D195
:101020000120FFF74DFF05462A2D21D10120174948
:101030000870002048608860C8604FF40060086154
:1010400000204861084604F0FDF911E00020FFF798
:1010500037FF05462A2D0BD101200C4908700020CE
:1010600048608860C86008614861084604F0EAF991
:101070002846BDE730090020580900201000002054
:10108000FFFF0F006C090020008001404009002094
:1010900001462A2019B1012901D0022902D1FF4AB3
:1010A000116000E02620704770B504462A25FC48F0
:1010B00004600720FA494860402088600020C8602A
:1010C0004FF480600861084604F0FCF90720FFF740
:1010D000D2FA0546284670BD30B58BB004460D46A1
:1010E000F04804F0EEFB0021EF4804F0BFFBEF48AE
:1010F0000090019400200290A80803900020049022
:1011000080200590800006908000079000200890C5
:101110004FF40050099000200A906946E24804F01C
:101120007AFB0121E04804F0A1FB0BB030BD014681
:10113000002002E04910421CD0B20129FAD17047C8
:101140002DE9F04704460D4616462A274FF00009C0
:10115000A8464FF0000A1DB926273846BDE8F0879B
:101160002A20D34908700020D2490860CB49091DC4
:101170000860D148D1490860002048608860C86094
:1011800008614861084604F0C0F9002004F097F9AE
:10119000002004F0B5F910F0007F02D00E27384689
:1011A000DCE7BE4808380068022801D10602640A5C
:1011B000002E20DDB6F5006F1DDC701E30421AD106
:1011C0003046FFF7B4FF8246B54806601020B449A8
:1011D0004860402088600020C8604FF4806008614B
:1011E000084604F06FF91020FFF745FA07462A2F4A
:1011F00004D03846B2E726273846AFE7AE48AF49B5
:101200000860084646604FEA0A1088600220C860FD
:101210000020086101204861084604F076F99F48E3
:10122000001D066000209D4908310860A448056043
:101230009B48046011209A49486040208860002043
:10124000C8604FF480600861084604F03BF9112043
:10125000FFF711FA07462A2F01D038467EE78F485C
:101260000068022856D112E04FF4004004F09BF9C8
:1012700068B14FF0000905E004F069F948F8290069
:1012800009F10109B9F1080FF6D308F120088748E0
:101290008038406B40F22A610842E5D0082004F013
:1012A00082F928B1082004F088F90427384655E768
:1012B000022004F078F928B1022004F07EF9022718
:1012C00038464BE7202004F06EF928B1202004F0C6
:1012D00074F90627384641E74FF4007004F063F9CB
:1012E00030B14FF4007004F068F90727384635E74D
:1012F00005E004F02CF9C8F8000008F104084FF4E8
:10130000001004F050F90028F3D140F2FF5004F02F
:1013100054F92CE061480068012813D1012148F2FA
:101320002A3004F0BFF800BF6248006818B960486E
:1013300000782A28F8D05E4800782A2817D05C4820
:1013400000780BE75548006888B9012140F22A303F
:1013500004F0A8F8012004F0B2F831462846FFF75F
:10136000BBFE00BF574804F099FA0028FAD038466F
:10137000F4E62DE9F05F04460D4616461F464FF091
:101380002A084FF00009AA464FF0000B25B94FF08C
:1013900026084046BDE8F09F2A20454908700020F5
:1013A000444908603D49091D0860434843490860B5
:1013B000002048608860C86008614861084604F001
:1013C000A4F8002004F07BF8002004F099F810F055
:1013D000007F03D04FF00E084046DBE72F48083867
:1013E0000068022801D10602640A002E21DDB6F54C
:1013F000006F1EDC701E30421BD13046FFF797FE97
:1014000083462748066010202549486040208860B0
:101410000020C8604FF480600861084604F052F86C
:101420001020FFF728F98046B8F12A0F05D0404672
:10143000B0E74FF026084046ACE7012F7CD907FB08
:1014400006F0B0F1007F03D34FF026084046A1E735
:1014500007FB06F01149091D08600120091D0860FD
:101460001748056014481549086007FB06F04860F6
:101470004FEA0B1088600220C8600020086101203C
:101480004861084604F041F8054804601220044908
:101490004860402088600020C86015E014000020EB
:1014A0005809002000F000104404024080800140F0
:1014B0002000002024000020FFFF0F006C09002006
:1014C00030000020002000104FF4806008610846C2
:1014D00003F0F8FF1220FFF7CEF88046B8F12A0F8C
:1014E00001D0404656E7FF48006802287ED112E04E
:1014F0004FF4004004F057F868B14FF0000905E0E0
:1015000004F025F84AF8290009F10109B9F1080F9A
:10151000F6D30AF1200AF448406B40F22A3108421F
:10152000E6D0082004F03FF838B1082004F045F870
:101530004FF0040840462DE79EE0022004F033F807
:1015400030B1022004F039F84FF00208404621E79C
:10155000202004F028F830B1202004F02EF84FF0BD
:101560000608404616E74FF4007004F01CF838B146
:101570004FF4007004F021F84FF00708404609E7E7
:1015800005E003F0E4FFCAF800000AF1040A4FF492
:10159000001004F008F80028F3D14FF4807004F034
:1015A00002F838B3CF480838006848B1CD48083849
:1015B0000068022804D0CB4808380068012819D1F7
:1015C0000020CA4908600C20486040208860002044
:1015D000C8604FF480600861084603F073FF0C2078
:1015E000FFF749F88046B8F12A0F00E007E001D084
:1015F0004046CFE640F2FF5003F0DFFF3CE0B94841
:101600000068012813D1012148F22A3003F04AFF73
:1016100000BFB748006818B9B64800782A28F8D043
:10162000B44800782A2827D0B2480078B2E6AD48FE
:10163000006808BB012140F22A3003F033FF01208B
:1016400003F03DFF07FB06F12846FFF745FD00BF0D
:10165000A94804F023F90028FAD000BFA448006884
:1016600018B9A44800782A28F8D0A24800782A2877
:1016700002D0A04800788DE640468BE62DE9F04187
:1016800004462A25002600279648001F006800040B
:10169000964908600D204860402088600020C8609E
:1016A0004FF480600861084603F00CFF8E48476BDA
:1016B00001E08D48476B17F0450FFAD017F0040F83
:1016C00006D00325042003F078FF2846BDE8F0810A
:1016D00017F0010F05D00125012003F06EFF284609
:1016E000F4E703F009FF07460D2F02D01025284626
:1016F000ECE740F2FF5003F060FF002003F000FF32
:101700000646C6F3432020707C48064201D1284695
:10171000DCE716F0004F01D01C20D7E716F0804F11
:1017200001D00920D2E716F0005F01D00A20CDE7F2
:1017300016F0805F01D00B20C8E716F0006F01D0D3
:101740000C20C3E716F0806F01D00D20BEE716F025
:10175000807F01D00E20B9E716F4000F01D00F20D2
:10176000B4E716F4800F01D01020AFE716F4001F85
:1017700001D01120AAE716F4801F01D01220A5E79E
:1017800016F4002F01D01320A0E716F4802F01D00B
:1017900014209BE716F4003F01D0152096E716F4BD
:1017A000803F01D0162091E716F4004F01D017209A
:1017B0008CE716F4804F01D0182087E716F4005FFD
:1017C00001D0192082E716F0080F01D01A207DE71A
:1017D00028467BE730B58BB004460D46484804F0F8
:1017E00070F80021474804F041F83F4880300090ED
:1017F000019410200290A8080390002004908020FB
:1018000005908000069080000790002008904FF41B
:101810000050099000200A9069463A4803F0FBFF07
:101820000121384804F022F80BB030BD2DE9FF5FEC
:1018300004460D4616462A274FF000080020039064
:1018400081468246029083460190009525B926275D
:10185000384604B0BDE8F09F2A20264908700020D1
:10186000234908601F49091D086027482749086067
:10187000002048608860C86008614861084603F03D
:1018800044FE002003F01BFE002003F039FE10F0A0
:10189000007F02D00E273846DBE712480838006880
:1018A000022801D10602640A002E38DDB6F5006F69
:1018B00035DC701E304232D13046FFF738FC8046AE
:1018C0000A480660102009494860402088600020CE
:1018D000C8604FF480600861084603F0F3FD1020F3
:1018E00016E000001400002000800140580900208C
:1018F00024000020200000200020001008E0FFFD50
:1019000000F0001044040240FFFF0F006C090020AB
:10191000FEF7B1FE07462A2F04D0384699E726275E
:10192000384696E7FF4800680004FF4908600D202C
:101930004860402088600020C8604FF480600861E3
:10194000084603F0BFFD0D20FEF795FE07462A2F3F
:1019500001D038467DE7002003F0D2FD0290DFF889
:10196000CC931EE0A9F10109EE4800680004EE499D
:1019700008600D204860402088600020C8604FF457
:1019800080600861084603F09DFD0D20FEF773FEA0
:1019900007462A2F01D038465BE7002003F0B0FD50
:1019A0000290029810F4807F02D1B9F1000FD9D1D2
:1019B000B9F1000F01D129204BE7DB480460182062
:1019C000D9494860402088600020C8604FF480609A
:1019D0000861084603F076FD1820FEF74CFE074626
:1019E0002A2F01D0384634E7CE4808300660002060
:1019F000CC490C310860CE480560CC48CD49086020
:101A0000084646604FEA081088600020C8600861F8
:101A100001204861084603F078FDC248001D0068B7
:101A200002287AD147E04FF4804003F0BCFD002843
:101A300041D0BC4808300068A0EB0A00202828D21A
:101A4000B84808300068A0EB0A0010F0030F06D178
:101A5000B44808300068A0EB0A00800806E0B148EE
:101A600008300068A0EB0A008008401C01904FF08D
:101A7000000B0AE00099086803F06DFD0BF1010B03
:101A80000098001D00900AF1040A01988345F1D3E3
:101A900011E04FF0000B06E0009951F82B0003F025
:101AA0005AFD0BF1010BBBF1080FF5D30098203064
:101AB00000900AF1200AA048406B40F21A610842E7
:101AC000B1D0082003F06FFD28B1082003F075FDA8
:101AD00004273846BDE6022003F065FD28B1022048
:101AE00003F06BFD02273846B3E6102003F05BFDE0
:101AF00028B1102003F061FD05273846A9E64FF410
:101B0000007003F050FD002845D04FF4007003F042
:101B100054FD072738469CE6FFE78248001D006811
:101B2000012813D1012144F21A3003F0BBFC00BF9D
:101B30008248006818B9824800782A28F8D080487E
:101B400000782A2827D07E48007882E67548001D54
:101B5000006800BB012140F21A3003F0A3FC3146BB
:101B60002846FFF737FE012003F0A9FC00BF7548A7
:101B700003F094FE0028FAD000BF7048006818B93E
:101B80006F4800782A28F8D06D4800782A2802D0BB
:101B90006B4800785DE640F2FF5003F00EFD03A8AD
:101BA000FFF76CFD074603E003A8FFF767FD074654
:101BB0002A2F07D19DF80C000728F5D09DF80C00BE
:101BC0000628F1D0384644E62DE9FE4F04460D467E
:101BD00016461F464FF02A084FF0000900200290D9
:101BE000824683460190009525B94FF0260840466D
:101BF000BDE8FE8F2A205249087000204F49086036
:101C000048490831086049484A490860002048604E
:101C10008860C86008614861084603F076FC0020CF
:101C200003F04DFC002003F06BFC10F0007F03D0AC
:101C30004FF00E084046DBE73A48001F00680228D4
:101C400001D10602640A002E21DDB6F5006F1EDC0C
:101C5000701E30421BD13046FFF769FA8146324888
:101C60000660102030494860402088600020C8602D
:101C70004FF480600861084603F024FC1020FEF752
:101C8000FAFC8046B8F12A0F05D04046B0E74FF085
:101C900026084046ACE72348006800042249086053
:101CA0000D204860402088600020C8604FF48060AC
:101CB0000861084603F006FC0D20FEF7DCFC8046B8
:101CC000B8F12A0F01D0404692E7012F74D907FBE3
:101CD00006F0B0F1007F03D34FF02608404687E7B7
:101CE0001048001F006848B10E48001F0068012816
:101CF00004D00C48001F0068022845D1094800683C
:101D000000040949086037204860402088600020AE
:101D1000C8604FF480600861084603F0D3FB3720A9
:101D200012E000001000002058090020FFFF0F0003
:101D30002C0000206C0900200080014024000020BD
:101D40002000002000200010FEF795FC8046B8F12E
:101D50002A0F01D040464BE7FB4807601720FA499D
:101D60004860402088600020C8604FF480600861AF
:101D7000084603F0A7FB1720FEF77DFC8046B8F16C
:101D80002A0F01D0404633E7EF4804601920EE499E
:101D90004860402088600020C8604FF4806008617F
:101DA000084603F08FFB1920FEF765FC8046B8F16A
:101DB0002A0F02D040461BE703E107FB06F0E34988
:101DC00008600120091D0860E1480560E148E2491A
:101DD000086007FB06F048604FEA091088600020A1
:101DE000C860086101204861084603F08EFBD748AF
:101DF000001F0068022878D143E04FF4804003F0D0
:101E0000D2FB00283DD0D1480068A0EB0A00202872
:101E100012D34FF0000B06E0009951F82B0003F0AD
:101E20009AFB0BF1010BBBF1080FF5D300982030A2
:101E300000900AF1200A24E0C4480068A0EB0A00E0
:101E400010F0030F05D1C1480068A0EB0A0080081C
:101E500005E0BE480068A0EB0A008008401C019025
:101E60004FF0000B0AE00099086803F074FB0BF1D7
:101E7000010B0098001D00900AF1040A01988345A7
:101E8000F1D3B648406B40F21A310842B5D0082071
:101E900003F089FB30B1082003F08FFB4FF00408FA
:101EA0004046A5E6022003F07EFB30B1022003F09D
:101EB00084FB4FF0020840469AE6102003F073FBC3
:101EC00030B1102003F079FB4FF0050840468FE653
:101ED0004FF4007003F067FB40B14FF4007003F063
:101EE0006CFB4FF00708404682E62BE04FF4807011
:101EF00003F059FB002864D094480C38006848B1BE
:101F000092480C380068012804D090480C380068CA
:101F1000022856D100208C4908600C2048604020DF
:101F200088600020C8604FF480600861084603F0B4
:101F3000C9FA0C20FEF79FFB8046B8F12A0F40D06B
:101F4000404655E68148001F0068012813D1012151
:101F500044F21A3003F0A6FA00BF8148006818B9AD
:101F6000804800782A28F8D07E4800782A2828D08F
:101F70007C4800783CE67548001F006808BB0121DA
:101F800040F21A3003F08EFA012003F098FA07FBB2
:101F900006F12846FFF71EFC00BF734803F07EFCE5
:101FA0000028FAD000BF6E48006818B96D48007864
:101FB0002A28F8D06B4800782A2802D0694800788F
:101FC00016E640F2FF5003F0F8FA02A8FFF756FBBE
:101FD000804603E002A8FFF751FB8046B8F12A0FC4
:101FE00007D19DF808000728F4D09DF808000628BE
:101FF000F0D04046FCE55948406B10F4405F01D0FA
:10200000012070470020FCE710B52A2400204E492B
:1020100008600C204860402088600020C8604FF4B1
:1020200080600861084603F04DFA0C20FEF723FBA0
:102030000446204610BD2DE9F84304460D462A26E5
:1020400000274FF0000800200090484840682021F9
:1020500011EA105F03D125263046BDE8F8833F48DA
:102060004068C0B2801C4249B1FBF0F8002003F088
:1020700047FA10F0007F02D00E263046EDE73348D5
:102080000C380068022801D1640A6D0A2F480C3808
:10209000006848B12D480C380068012804D02B484E
:1020A0000C38006802282DD12748046020202649DA
:1020B0004860402088600020C8604FF4806008615C
:1020C000084603F0FFF92020FEF7D5FA06462A2E2F
:1020D00001D03046C1E71C48056021201A494860FC
:1020E000402088600020C8604FF480600861084686
:1020F00003F0E8F92120FEF7BEFA06462A2E01D0A9
:102100003046AAE700201049086026204860402099
:1021100088600020C8604FF480600861084603F0C2
:10212000D1F92620FEF7A7FA06462A2E01D030461E
:1021300093E7002700E07F1C4745FCD36846FFF784
:102140009DFA06461AE000005809002018000020F9
:102150002C000020FFFF0F006C09002000800140D0
:102160002400002020000020002000102009002072
:10217000401901006846FFF781FA06462A2E07D16A
:102180009DF800000728F5D09DF800000628F1D042
:10219000304662E770B504462A2514B9262528463C
:1021A00070BDFA4800680004F94908600D204860D5
:1021B000402088600020C8604FF4806008610846B5
:1021C00003F080F90D20FEF756FA05462A2D01D0BE
:1021D0002846E5E7002003F093F920602846DFE772
:1021E00070B504462A250026002003F089F910F076
:1021F000007F02D00E25284670BD4020E4490860CB
:1022000010204860402088600020C8604FF4806043
:102210000861084603F056F91020FEF72CFA05462F
:102220002A2D01D02846E7E7D84800680004D8499D
:10223000086037204860402088600020C8604FF464
:1022400080600861084603F03DF93720FEF713FA75
:1022500005462A2D01D02846CEE7CE48CE49086053
:1022600040204860602088600220C860002008612B
:1022700001204861084603F048F90020C44908607D
:102280000D204860402088600020C8604FF48060C6
:102290000861084603F016F90D20FEF7ECF9054633
:1022A0002A2D01D02846A7E70EE04FF4004003F0A6
:1022B0007AF948B1002604E003F049F944F8260011
:1022C000761C082EF8D32034B448406B40F22A61C3
:1022D0000842EAD0082003F066F928B1082003F08C
:1022E0006CF90425284687E7022003F05CF928B141
:1022F000022003F062F9022528467DE7202003F042
:1023000052F928B1202003F058F90625284673E732
:102310004FF4007003F047F930B14FF4007003F050
:102320004CF90725284667E703E003F010F9206021
:10233000241D4FF4001003F036F90028F5D140F2C7
:10234000FF5003F03AF9403C002615E054F826000F
:10235000000654F8261001F47F4140EA012054F8A9
:10236000261001F47F0140EA112054F8261040EABB
:10237000116044F82600761C102EE7D328463BE770
:1023800070B5002400258148001D006801286BD12C
:10239000C00303F015F9A8B100BF06E003F0D7F8B9
:1023A0007F49096841F82400641C082CF6D37C4856
:1023B000006820307A4908607A48006820307949FE
:1023C000086051E04FF4804003F0FAF800284BD049
:1023D0006E480830006873490968401A20282ED2D8
:1023E0006A48083000686F490968401A10F0030F06
:1023F00007D16648083000686A490968401A8008B1
:1024000007E062480830006866490968401A800899
:10241000401C054600240FE063490968086803F082
:102420009AF8641C60480068001D5F4908605D48B8
:102430000068001D5B490860AC42EDD314E0002445
:1024400006E05949096851F8240003F084F8641C37
:10245000082CF6D35448006820305349086051488E
:10246000006820304F4908604FF4807003F0A8F8EE
:1024700000283ED04548001D0068D8B10EE003F0AA
:1024800066F847490968086045480068001D4449E6
:10249000086044480068001D424908604FF400107D
:1024A00003F081F830B13F480068384908310968C5
:1024B0008842E4D335480C300068012804D1FFF786
:1024C000A3FD3A49087002E02A20384908704FF409
:1024D000807003F07FF800214CF23A3002F0E2FF06
:1024E00001203349086000202E4908602F480078F9
:1024F00070BD022003F064F870B1022003F06AF8A6
:1025000000214CF23A3002F0CDFF0020254908604E
:10251000022026490870EBE7082003F051F870B15B
:10252000082003F057F800214CF23A3002F0BAFFCD
:1025300000201C49086004201C490870D8E72020AE
:1025400003F03EF870B1202003F044F800214CF273
:102550003A3002F0A7FF0020124908600620134914
:102560000870C5E7102003F02BF870B1102003F0BD
:1025700031F800214CF23A3002F094FF0020094972
:102580000860052009490870B2E713E01000002038
:1025900058090020FFFF0F006C0900200080014057
:1025A00030000020280000202C0000202000002007
:1025B000240000204FF4007003F002F878B14FF4CB
:1025C000007003F007F800214CF23A3002F06AFF85
:1025D00000200449086007200349087088E72A2082
:1025E00086E70000280000202000002070B5054686
:1025F00025B1012D0BD0022D0DD10AE0FDF799FE7A
:1026000004462A2C01D1002070BD0120FCE70120E6
:10261000FAE70120F8E70120F6E7014621B1012998
:1026200004D0022906D103E0002070470020FCE717
:102630000020FAE700BF00BF0120F6E72DE9F041D6
:1026400007460D4614461E46012E07D11949896CCE
:102650008AB260022946FEF773FD07E01549896CCE
:102660008AB2600233462946FEF783FE0020BDE8A9
:10267000F0812DE9F04107460D4614461E46012E15
:1026800007D10C49896C8AB260022946FFF7CEF85F
:1026900007E00849896C8AB2600233462946FFF791
:1026A00093FA0020BDE8F081034600207047002027
:1026B000704700005400002070B504460B4603E04C
:1026C00013F8015B04F8015B1500A2F10102F7D1D8
:1026D00070BD30B5034601E003F8011B1400A2F100
:1026E0000102F9D130BDF0B5044625460B46002065
:1026F00000BF1600A2F1010207D015F8017B13F804
:1027000001CBA7EB0C063000F3D0F0BD024600E091
:10271000521C107810B110788842F9D110787047A7
:102720002DE9F04104460D46E66AAE422FD02079ED
:1027300008B360780123324604F13001FFF799FFB6
:1027400010B10120BDE8F08100202071A169206A4C
:102750000844B0420FD9E7780AE0A06906446078DF
:102760000123324604F13001FFF783FF781EC7B220
:10277000012FF2DC00BF55B1607801232A4604F135
:102780003001FFF75BFF08B10120DBE7E5620020C5
:10279000D8E770B5044600212046FFF7C1FF054683
:1027A000002D58D1207803284ED1A07A00284BD094
:1027B0000020E0624FF40072002104F13000FFF7C6
:1027C00088FF552184F82E12AA2184F82F12522155
:1027D0003020015531200155612132200155412120
:1027E00033200155722184F8141284F81512412106
:1027F00084F81612612184F81712206984F81802EF
:102800002069010A84F819122069010C84F81A124F
:102810002069010E84F81B12E06884F81C02E0684D
:10282000010A84F81D12E068010C84F81E12E068A9
:10283000010E84F81F126078012304F130016269EF
:10284000FFF717FF0020A072607800221146FFF703
:102850002BFF00B10125284670BD2DE9F04104464B
:102860000D46022D02D3E069A84202D80120BDE83E
:10287000F081D4F820802078012804D0022829D0C3
:10288000032875D141E02F463D4607EB570708EB7B
:1028900057212046FFF744FF00B169E0C7F3080164
:1028A00004F13000465C7F1C08EB57212046FFF7FF
:1028B00037FF00B15CE0C7F3080104F13000405C71
:1028C00046EA002615F0010F01D03009CFE7C6F324
:1028D0000B00CCE708EB15212046FFF721FF00B1E4
:1028E00046E0A8B240F2FF1101EA400104F13000D5
:1028F000415CA8B240F2FF1202EA400204F130004B
:102900001044407841EA0020B1E708EBD511204699
:10291000FFF706FF00B12BE0A8B240F2FF1101EA79
:10292000800104F130000844C0780106A8B240F2EA
:10293000FF1202EA800204F130001044807841EA7C
:102940000041A8B240F2FF1202EA800204F1300016
:102950001044407841EA0021A8B240F2FF1202EA96
:10296000800204F13000805C014321F070407EE77A
:1029700000BF4FF0FF307AE72DE9F04704460D46DF
:102980001646022D02D3E069A84202D84FF0020A8F
:10299000A2E0D4F820902078012804D0022845D065
:1029A00003287ED15FE02F463D4607EB570709EB32
:1029B00057212046FFF7B4FE8246BAF1000F00D03F
:1029C00087E0C7F3080104F1300001EB000815F0BF
:1029D000010F05D0F1B298F8000061F31F1000E07C
:1029E000F0B288F800007F1C0120207109EB57210C
:1029F0002046FFF795FE8246BAF1000F00D068E04E
:102A0000C7F3080104F1300001EB000815F0010FD5
:102A100002D0C6F3071006E098F8000000F0F000BE
:102A2000C6F30321084388F8000052E009EB1521A2
:102A30002046FFF775FE8246BAF1000F00D048E04D
:102A4000A8B240F2FF1202EA400204F130008654BC
:102A5000300AA9B240F2FF1202EA410204F1300149
:102A60001144487035E009EBD5112046FFF758FEB8
:102A70008246BAF1000F00D02BE0A8B240F2FF125C
:102A800002EA800204F130008654300AA9B240F212
:102A9000FF1202EA810204F1300111444870310C46
:102AA00000E013E0A8B240F2FF1202EA800204F153
:102AB000300010448170310EA8B240F2FF1202EAD9
:102AC000800204F130001044C17002E04FF0020AAD
:102AD00000BF00BF012020715046BDE8F0872DE9FE
:102AE000F04104460D46022D02D3E069A84201D808
:102AF000022725E000271FE029462046FFF7ADFE0C
:102B0000064606B91BE0012E01D1022717E0701C12
:102B100001D1012713E0002229462046FFF72CFFB0
:102B2000074607B10BE02069401C04D02069401C17
:102B300020610120A0723546E069A842DCD800BFC0
:102B40003846BDE8F0812DE9F04704460D46D4F83B
:102B50001C904DB9D4F80C80B8F1000F01D0C845D5
:102B600011D34FF001080EE029462046FFF775FE0D
:102B70000646022E02D20120BDE8F0874E4501D262
:102B80003046F9E7A846474600BF7F1C4F4504D3AF
:102B90000227474501D90020EEE739462046FFF7D6
:102BA0005CFE064606B909E0701C01D0012E01D179
:102BB0003046E1E74745E8D10020DDE700BF6FF090
:102BC000704239462046FFF7D7FE10B14FF0FF3074
:102BD000D2E745B13A4629462046FFF7CDFE10B16F
:102BE0004FF0FF30C8E7E7602069401C04D020693F
:102BF000401E20610120A0723846BDE70246891EB2
:102C0000D069801E884201D8002070479378906A6E
:102C100001FB0300F9E72DE9F04106460C46F4807C
:102C2000B768012F03D03068C069B84202D80220CB
:102C3000BDE8F0812FB930680078032801D13068F1
:102C4000476A67B9F76030680089A04201DC02205A
:102C5000EEE73068406A00EB1410306120E0306825
:102C60008078050112E039463068FFF7F6FD074627
:102C7000781C01D10120DBE7022F03D33068C06943
:102C8000B84201D80220D3E7601B84B2AC42EADA32
:102C9000F76039463068FFF7B1FF00EB1410306180
:102CA0003068303004F00F0100EB411070610020FB
:102CB000BEE72DE9F04104460D46E088401C87B28E
:102CC0000FB1206910B90420BDE8F08117F00F0F93
:102CD00070D12069401C2061E06828B92068008913
:102CE000B84267DC0420EFE720688078401E10EAD5
:102CF000171F5FD1E1682068FFF7AFFD0646012E80
:102D000001D80220E0E7701C01D10120DCE7206837
:102D1000C069B04248D80DB90420D5E7E168206801
:102D2000FFF711FF06460EB90720CDE7012E01D1AE
:102D30000220C9E7701C01D10120C5E700212068ED
:102D4000FFF7EEFC08B10120BEE7216801F1300079
:102D50004FF400720021FFF7BCFC31462068FFF7FA
:102D60004DFF2168C8624FF0000812E00120216881
:102D7000087100212068FFF7D3FC08B10120A3E708
:102D80002068C06A401C2168C86208F1010000F098
:102D9000FF08206880784045E8DC2068C06AA0EB26
:102DA00008002168C86200BFE66031462068FFF76E
:102DB00025FF2061E7802068303007F00F0100EB2D
:102DC0004110606100207FE72DE9F04104460021B9
:102DD0002046FFF720FF064616B13046BDE8F081D9
:102DE00000BF21692068FFF79BFC064606B116E08C
:102DF00065692F780FB9042611E0E87A10F0080F02
:102E000006D10B222846A169FFF76DFC00B906E048
:102E100000212046FFF74DFF0646002EE1D000BFFF
:102E20003046DBE72DE9F041064604271CE0316916
:102E30003068FFF775FC074607B118E075692C7814
:102E40000CB9042713E0E52C07D000BF2E2C04D0CA
:102E5000E87A10F0080F00D109E000213046FFF7B2
:102E600028FF074607B102E030690028DFD100BF24
:102E70000FB1002030613846BDE8F0812DE9F04106
:102E8000044600212046FFF7C6FE0546ADB900BF47
:102E900021692068FFF744FC054605B10CE0606934
:102EA0000678E52E00D006B906E001212046FFF79E
:102EB00000FF0546002DEBD000BFC5B92169206891
:102EC000FFF72EFC054695B9676920220021384698
:102ED000FFF7FFFB0B223846A169FFF7EDFBA06966
:102EE000C07A00F018003873012021680871284664
:102EF000BDE8F08170B50446E1882046FFF78BFEFF
:102F000005465DB921692068FFF70AFC05462DB921
:102F1000E52061690870012021680871284670BDAC
:102F20002DE9F34F81B00C460198D0F818800B22A0
:102F300020214046FFF7CDFB002005468246814612
:102F400008200090D4F800B000BF484609F10109FC
:102F50001BF80060202E03DB2F2E01D05C2E00D149
:102F60005AE02E2E02D0009882450EDB00980828E9
:102F700001D12E2E02D00620BDE8FE8F4FF0080AA8
:102F80000B200090A806050EDFE7802E01DB45F040
:102F90000305812E01DB9F2E03DDE02E1FDBFC2EBF
:102FA0001DDC484609F101091BF80070402F01DBC8
:102FB0007E2F03DD802F05DBFC2F03DC0098401EF5
:102FC000504501DC0620D7E750460AF1010A08F80F
:102FD000006050460AF1010A08F800701BE0314613
:102FE000FFA0FFF793FB08B10620C5E7412E04DBE5
:102FF0005A2E02DC45F0020508E0612E06DB7A2E2F
:1030000004DC45F00105A6F12000C6B250460AF1E5
:10301000010A08F8006098E700BF0BEB0900206088
:10302000202E01DA042000E00020C6B2BAF1000F21
:1030300001D10620A0E798F80000E52802D105207C
:1030400088F800000098082801D1A806050E05F0B0
:103050000300012801D146F0100605F00C000428F9
:1030600001D146F0080688F80B60002084E7F0B52F
:1030700001F109060769002F52D043691D7B002228
:1030800013E09C5C202C00D111E0052C00D1E5243C
:1030900015F0080F06D0412C04DB5A2C02DC04F199
:1030A0002007FCB206F8014B521C082AE9DB00BFDE
:1030B0001F7A202F18D02E2706F8017B082210E057
:1030C0009C5C202C00D10EE015F0100F06D0412C96
:1030D00004DB5A2C02DC04F12007FCB206F8014B99
:1030E000521C0B2AECDB00BFDF7A0F72DF7F4FEA46
:1030F000076C9F7F4CEA074C5F7F4CEA072793F8E9
:103100001CC047EA0C070F6093F818C05F7E4CEABA
:1031100007278F8093F816C0DF7D4CEA0727CF8002
:1031200000273770F0BD2DE9F3410446019800787F
:103130002F2803D0019800785C2802D10198401C08
:1031400001900020A06001980078202807D200217B
:103150002046FFF760FD0546002060612BE000BFC0
:1031600001A92046FFF7DCFE054605B122E0204616
:10317000FFF72AFE0546A069C07A00F0040725B1D2
:10318000042D01D107B9052514E007B112E06669E5
:10319000F07A10F0100F01D105250BE0B17EF07E22
:1031A00041EA0021327D707D42EA002041EA004080
:1031B000A060D5E700BF2846BDE8FC8170B5044695
:1031C0000D46607801232A4604F13001FFF736FAF4
:1031D00008B1032070BD94F82E1294F82F0241EA32
:1031E0000020A0F52A41553901D00220F2E7032240
:1031F0007E4904F16600FFF776FA08B90020E9E796
:1032000003227A4904F18200FFF76DFA30B994F88D
:10321000580010F0800F01D10020DBE70120D9E732
:103220002DE9F74F86B004461546206802900298B3
:103230000078A0F13008B8F1090F09D80298407859
:103240003A2805D10298801C02900298206001E083
:103250004FF00008B8F1000F03D00B2009B0BDE813
:10326000F08F634850F82800019007990860019892
:1032700008B90C20F2E70198007878B101994878F4
:10328000FFF7CBF9814619F0010F07D125B119F0ED
:10329000040F01D00A20E1E70020DFE700200199B8
:1032A0000870019981F8018001994878FFF79EF92B
:1032B000814619F0010F01D00320CFE725B119F0A5
:1032C000040F01D00A20C9E74FF0000A51460198C7
:1032D000FFF774FF0646012E14D1019800F5F77729
:1032E000387978B1F87A0106B87A41EA0041787AFB
:1032F00041EA0020397A40EA010A51460198FFF775
:103300005DFF0646032E01D10120A7E74EB90198C3
:1033100090F83B1090F83C0041EA0020B0F5007FA7
:1033200001D00D209AE7019890F8461090F84700D8
:1033300041EA002BBBF1000F12D1019890F8570021
:103340000106019890F8560041EA0041019890F872
:10335000550041EA0021019890F8540041EA000B21
:103360000198C0F818B0019890F84010C170019809
:10337000C0780BFB00FB019890F83E1090F83F00DE
:1033800041EA002000EB0A0101980162019890F8DF
:103390003D108170019890F8411090F8420041EA88
:1033A000002001990881019890F8431090F844009A
:1033B00041EA002004900498E8B9019890F853007D
:1033C0000106019890F8520041EA0041019890F8F6
:1033D000510041EA0021019890F85000014309E0B2
:1033E00020222A2B2C5B3D5D7C7F0000DA5D0008EB
:1033F000340000200491019890F83E1090F83F00AE
:1034000041EA00200499081AA0EB0B0101980089F9
:10341000A1EB101001998978B0FBF1F0801C0390AA
:103420000199C861012640F6F7710398884200D3DC
:1034300002264FF6F7710398884200D30326032E25
:1034400014D1019890F85F000106019890F85E0091
:1034500041EA0041019890F85D0041EA002101989D
:1034600090F85C0001430198416204E00198006A11
:103470005844019948620198006A584401990989A1
:1034800000EB1110019988624FF0FF30019908613B
:10349000002001990871032E72D101998872019858
:1034A00090F8601090F8610041EA002000EB0A01FA
:1034B000019841610199487801234A693031FFF749
:1034C000BDF800285CD1019890F82E1290F82F02D8
:1034D00041EA0020A0F52A41553951D1019890F8D0
:1034E00033000106019890F8320041EA004101984A
:1034F00090F8310041EA0020019991F8301008431A
:10350000FF4988423CD1019890F8170201060198C2
:1035100090F8160241EA0041019890F8150241EA3C
:103520000021019890F814020143F648814227D106
:10353000019890F81F020106019890F81E0241EAD6
:103540000041019890F81D0241EA0021019890F88D
:103550001C0201430198C160019890F81B0201060A
:10356000019890F81A0241EA0041019890F8190276
:1035700041EA0021019890F8180201430198016185
:103580000198067000210198C162DF480088401C44
:1035900080B2DD4908800199C88000200590059817
:1035A0005CE670B504460D4624B1207810B1E08881
:1035B000A84201D0092070BD6078FFF72EF810F006
:1035C000010F01D00320F6E70020F4E70346012BAA
:1035D00001DB0B207047CC48001F50F823200AB1B4
:1035E0000020107009B100200870C748001F40F883
:1035F00023100020EEE72DE9F7438AB00446154674
:103600000020206005F01F0505F01E0203A90BA88D
:10361000FFF706FE06461EB130460DB0BDE8F0834A
:10362000CDF824D003A80B99FFF77DFD064615F0D1
:103630001C0F67D066B1042E03D103A8FFF71EFC50
:1036400006460EB13046E8E745F00805089F40E021
:1036500015F0040F01D00820DFE7089F1FB1F87AAA
:1036600010F0110F01D00720D7E715F0080F30D068
:10367000B97EF87E41EA00203A7D797D42EA012157
:1036800040EA01490020387500217975B876F9764D
:1036900038777977B977F97701200399087103981A
:1036A000D0F82C80B9F1000F0BD049460398FFF7F2
:1036B00016FA06460EB13046AFE7A9F101000399AC
:1036C000C86041460398FFF72BF806460EB1304616
:1036D000A3E715F0080F14D00020F872FEF7E7FFFB
:1036E000804687F80E804FEA1821F9734FEA184197
:1036F00039744FEA1861797401200399087145F013
:10370000200513E00EB1304687E7089F1FB1F87A15
:1037100010F0100F01D004207FE715F0020F05D044
:10372000F87A10F0010F01D0072076E70398C06AFD
:10373000E06108982062A571B97EF87E41EA002117
:103740003A7D787D42EA002041EA00402061F87F1E
:103750000106B87F41EA0041787F41EA0020397FC5
:103760000843E0600020A060FF20E0710020A0611D
:10377000039820600398C088A08000204DE72DE9C1
:10378000FE4F04460D4616461F4600950020386041
:10379000A1882068FFF705FF8046B8F1000F02D02E
:1037A0004046BDE8FE8FA07910F0800F01D00220C6
:1037B000F7E7A07910F0010F01D10720F1E7D4E974
:1037C0000210401A02900298864200D9029ECCE074
:1037D000A068C005C00D7DD1E07921688978884254
:1037E0001EDBA06808B9206903E061692068FFF763
:1037F00034F88146B9F1010F05D8A07940F0800076
:10380000A0710220CDE719F1010005D1A07940F0A7
:103810008000A0710120C4E7C4F814900020E0717A
:1038200061692068FFF7EAF98246BAF1000F05D115
:10383000A07940F08000A0710220B2E7E0798244D4
:103840004FEA562BBBF1000F35D0E0795844216880
:103850008978884204D920688078E179A0EB010B4F
:10386000216848780BF0FF0352460099FEF7E6FE08
:1038700028B1A07940F08000A071012091E7A079E3
:1038800010F0400F10D0A069A0EB0A0058450BD2F1
:10389000A169A1EB0A01009A02EB41204FF40072EA
:1038A00004F12401FEF708FFE0795844E0714FEA83
:1038B0004B2001904BE0A07910F0400F14D021680C
:1038C0004878012304F12401A269FEF7D2FE38B141
:1038D000A07900E026E040F08000A071012060E7C0
:1038E000A07920F04000A071A069504515D0216852
:1038F00048780123524604F12401FEF79FFE05E0BB
:1039000052526141727241613800002028B1A079A1
:1039100040F08000A071012043E7C4F818A0E079CE
:10392000401CE071A068C0F30800C0F50070019071
:103930000198B04200D90196A068C0F3080204F1D2
:1039400024001118DDE90002FEF7B6FE00BFDDE934
:10395000000108440090A06801990844A0603968FB
:103960000198084438600198361A002E7FF430AF71
:10397000002016E72DE9FC5F04460D4616461F465B
:10398000009500203860A1882068FFF70AFE804675
:10399000B8F1000F02D04046BDE8FC9FA07910F0BE
:1039A000800F01D00220F7E7A07910F0020F01D1BB
:1039B0000720F1E7E0683044E168884200D2002641
:1039C000D9E0A068C005C00D78D1E0792168897878
:1039D00088422CDBA06858B9D4F81090B9F1000FD8
:1039E0000BD100212068FFF7AEF88146206104E08A
:1039F00061692068FFF7A7F88146B9F1000F00D18F
:103A0000BCE0B9F1010F05D1A07940F08000A071B0
:103A10000220C1E719F1010005D1A07940F0800032
:103A2000A0710120B8E7C4F814900020E071A079DB
:103A300010F0400F12D021684878012304F12401CE
:103A4000A269FEF716FE28B1A07940F08000A071AF
:103A50000120A1E7A07920F04000A07161692068F1
:103A6000FFF7CCF88246BAF1000F05D1A07940F0FB
:103A70008000A07102208FE7E0798244700A0190F3
:103A8000019800283AD0E0790199084421688978A2
:103A9000884204D920688078E179401A0190216831
:103AA00048780199CBB252460099FEF7E2FD30B159
:103AB000A07940F08000A07101206DE739E0A06995
:103AC000A0EB0A010198814210D2A069A0EB0A0084
:103AD0000246009800EB42214FF4007204F12400EA
:103AE000FEF7EAFDA07920F04000A071E17901988D
:103AF0000844E07101984FEA402B31E0A06950453D
:103B000012D0D4E9020188420ED2216848780123FC
:103B1000524604F12401FEF791FD28B1A07940F04E
:103B20008000A071012037E7C4F818A0E079401C9C
:103B3000E071A068C0F30800C0F5007BB34500D970
:103B4000B346A168C1F3080204F1240150185A4693
:103B50000099FEF7B1FDA07940F04000A07100BFD0
:103B6000009858440090A0685844A06038685844B1
:103B70003860A6EB0B06002E7FF423AF00BFD4E91C
:103B80000201884201D9A068E060A07940F02000DD
:103B9000A071002000E72DE9F0410446A1882068CB
:103BA000FFF7FFFC0546002D4ED1A07910F0200F45
:103BB0004AD0A07910F0400F0FD021684878012337
:103BC00004F12401A269FEF754FD10B10120BDE803
:103BD000F081A07920F04000A071E1692068FEF733
:103BE0009FFD0546002D2FD1276AF87A40F020006E
:103BF000F872E0683877E068010A7977E068010CCC
:103C0000B977E068000EF8772069B8762069000A75
:103C1000F8762069000C38752069010E7975FEF779
:103C200046FD0646BE75310AF975310C3976310EFE
:103C30007976A07920F02000A07101202168087118
:103C40002068FEF7A6FD05462846C0E770B5044685
:103C50002046FFF7A0FF05460DB90020206028464A
:103C600070BD2DE9F04704460D46A1882068FFF796
:103C700098FC064616B13046BDE8F087A07910F0F2
:103C8000800F01D00220F7E7E068A84204D2A079B3
:103C900010F0020F00D1E568D4F808A04FF0000939
:103CA000C4F80890FF20E071002D7AD02068807859
:103CB0004FEA4028BAF1000F12D0681EB0FBF8F0AE
:103CC000AAF10101B1FBF8F1884209D3AAF1010080
:103CD000A8F101018843A060A0682D1A676918E067
:103CE0002769AFB900212068FEF72DFF0746012F95
:103CF00005D1A07940F08000A0710220BCE7781CBB
:103D000005D1A07940F08000A0710120B4E72761BF
:103D10006761002F4BD02AE0A07910F0020F07D086
:103D200039462068FEF70FFF074637B9454620E0C1
:103D300039462068FEF791FD0746781C05D1A07929
:103D400040F08000A071012096E7012F03D9206880
:103D5000C069B84205D8A07940F08000A071022067
:103D60008AE76761A0684044A060A5EB0805454567
:103D7000D2D800BFA0682844A060C5F34720E071F6
:103D8000E805C00D13D039462068FEF737FF81469D
:103D9000B9F1000F06D1A07940F08000A071022097
:103DA0006AE704E0E0798144E079401CE071A068B2
:103DB000C005C00D2AD0A069484527D0A07910F0D1
:103DC000400F12D021684878012304F12401A26930
:103DD000FEF74FFC28B1A07940F08000A0710120CF
:103DE0004AE7A07920F04000A071216848780123BB
:103DF0004A4604F12401FEF721FC28B1A07940F0E5
:103E00008000A071012037E7C4F81890D4E90201BE
:103E1000884205D9A068E060A07940F02000A07138
:103E2000304629E773B584B004460022214605A830
:103E3000FFF7F6F9064636BB01A8A06120460599B2
:103E4000FFF771F90646DEB9656985B1E87A10F0C9
:103E5000100F0BD0A97EE87E41EA00212A7D687D03
:103E600042EA002041EA0040A06000E005263EB999
:103E70002068C088A08000212046FEF7CCFE0646C0
:103E8000042E00D10526304606B070BDFEB50446AE
:103E90000D46A1882068FFF784FB064606BBC4F8E0
:103EA00018D02DB900212046FEF7B5FE064617E0D2
:103EB0002046FEF7B7FF0646042E02D100202061FF
:103EC00000266EB929462046FFF7D1F8002120468A
:103ED000FEF7EFFE0646042E02D1002020610026E8
:103EE0003046FEBD33B58BB00C46002204A90BA8AA
:103EF000FFF796F905467DB901A80A9004A80B9929
:103F0000FFF711F905463DB9099820B1214604A8EB
:103F1000FFF7ADF800E0062528460DB030BD2DE9CD
:103F2000F74F82B00C4615460022294602A8FFF73B
:103F300077F906461EB1304605B0BDE8F08F286817
:103F400000692968C969891E884204D828680069FF
:103F500020600020F0E7286890F800B00020019071
:103F6000BBF1010F1DD1022700BF39462868FEF7BB
:103F700074FC814619F1010001D10120DCE7B9F19F
:103F8000010F01D10220D7E7B9F1000F02D101984A
:103F9000401C0190781C07462968C9698842E4D30F
:103FA00047E02868C7692868D0F820804FF0000AE9
:103FB0000020009000BFBAF1000F0ED1414608F179
:103FC00001082868FEF7ACFB06460EB13046B3E7A1
:103FD0002868303000904FF4007ABBF1020F0ED108
:103FE00000980178407851EA002002D10198401CE5
:103FF00001900098801C0090AAF1020A16E0009837
:10400000C07800060099897840EA0141009840781C
:1040100041EA002000990978084302D10198401C28
:1040200001900098001D0090AAF1040A781E070074
:10403000C1D1019829680861BBF1030F02D10120A9
:104040002968887201982060002075E770B50446E1
:10405000A1882068FFF7A5FA05460DB1284670BD76
:10406000A07910F0800F01D00220F8E7A07910F0BD
:10407000020F01D10720F2E7D4E9021088422DD9BE
:10408000A068E060A07940F02000A071A06838B975
:1040900021692068FEF723FD0546002020611DE010
:1040A00061692068FEF7D9FB06460025701C00D127
:1040B0000125012E00D1022585B92068C069B042D2
:1040C0000CD96FF0704261692068FEF755FC054617
:1040D00025B931462068FEF702FD05461DB1A079DD
:1040E00040F08000A0712846B9E771B591B0012277
:1040F0000AA911A8FFF794F8044614B1204612B09B
:1041000070BDCDF840D00AA81199FFF70CF804460D
:1041100000BF0CB12046F2E70F9D0DB90620EEE777
:10412000E87A10F0010F01D00720E8E7A97EE87EC9
:1041300041EA00212A7D687D42EA002041EA0046EA
:10414000E87A10F0100F1BD0022E01D20220D6E721
:104150001C220AA903A8FEF7AFFA0596002103A8BE
:10416000FEF759FD04460CB12046C8E703A8FEF748
:1041700059FE044604B90724042C01D02046BEE7AA
:104180000AA8FEF7B7FE044654B926B131460A988C
:10419000FEF7A5FC04461CB90A98FEF7FAFA044695
:1041A0002046ACE72DE9F1478BB0012204A90BA80A
:1041B000FFF736F804461CB120460CB0BDE8F08786
:1041C00001A80A9004A80B99FEF7ADFF044604B9B4
:1041D000082400BF042C01D02046EEE700210498FB
:1041E000FEF7B1FC80460024B8F1000F00D107248F
:1041F000B8F1010F00D1022418F1010000D101240F
:1042000024B900210498FEF78BFA04460CB120462D
:10421000D3E741460498FEF7F1FC0746049800F105
:1042200030054FF4007200212846FEF752FA0B22A7
:1042300020212846FEF74DFA2E2129701021E9721F
:10424000FEF735FA824685F816A04FEA1A21E9757D
:104250004FEA1A4129764FEA1A61697685F81A8081
:104260004FEA1821E9764FEA184129754FEA18619B
:1042700069752022294605F12000FEF71DFA2E213E
:1042800085F82110DDF8189004980078032805D1EE
:104290000498406A484501D14FF0000985F83A90EA
:1042A000C9F307213B204155C9F30741342041554B
:1042B0004FEA196135204155002615E00498C76280
:1042C0007F1C01200499087100210498FEF728FA48
:1042D00004460CB1204670E74FF4007200212846D6
:1042E000FEF7F7F9701CC6B204988078B042E5DC9E
:1042F00004A8FEF7C3FD044624B141460498FEF726
:10430000EEFB1FE0099D1020E87285F816A04FEA29
:104310001A21E9754FEA1A4129764FEA1A60687640
:1043200085F81A804FEA1821E9764FEA1840287577
:104330004FEA186169750120049908710498FEF725
:1043400028FA0446204638E7F7B58AB00C461546E9
:10435000012203A90AA8FEF763FF0746EFB9CDF8CB
:1043600024D003A80A99FEF7DEFE074600BFA7B9CE
:10437000089E0EB9062710E005F0270504EA05009F
:10438000F17AEA43D2B211400843F0720120039956
:1043900008710398FEF7FDF9074638460DB0F0BDE9
:1043A00073B58AB00C46012203A90AA8FEF738FFAC
:1043B0000646EEB9CDF824D003A80A99FEF7B3FE5D
:1043C000064600BFA6B9089D0DB9062610E0E08894
:1043D000A875E0880112E975A0882876A0880112E6
:1043E00069760120039908710398FEF7D2F9064611
:1043F00030460CB070BDF3B597B00C4606A81690C9
:10440000012210A917A8FEF70BFF05463DB9109829
:10441000099010A81799FEF786FE054600BF15B152
:10442000284619B0F0BD159808B90420F9E7159889
:1044300000F10B0115226846FEF73EF91C2210A977
:1044400009A8FEF739F9214609A8FEF76CFE0546D2
:1044500005B90825042D58D109A8FEF70FFD05461A
:10446000002D52D10E9E13220DF1020106F10D0016
:10447000FEF722F99DF8000040F02001F1720120C2
:1044800010990871F07A10F0100F34D0337D727DDE
:1044900043EA022396F81AC0F27E4CEA022243EA6B
:1044A00002010998FEF7AAFB07460FB9022522E090
:1044B00039460998FEF734F90546099800F1500687
:1044C000CDB970782E2816D109980078032806D126
:1044D00009990B98496A884201D1002000E00B98A5
:1044E0000746B776380AF076380C3075380E707596
:1044F00001200999087145B910A8FEF7FBFC054693
:104500001DB91098FEF745F90546284689E70000D1
:1045100000B585B0012144F2040000F06BFD4FF4BA
:104520000070ADF8100018208DF8130003208DF8EE
:10453000120004A9734800F0D3FA4FF48060ADF87C
:10454000100004208DF8130004A96E4800F0C8FA8A
:104550004FF4E13000900020ADF80400ADF8060003
:10456000ADF80800ADF80C000C20ADF80A00694663
:10457000654800F0EAFD0121634800F053FE05B0F4
:1045800000BD70B504460D46E1B25F4800F0B4FED0
:1045900000BF5D48008810F0800FFAD0204670BD43
:1045A000F0B5034600270E460A2A03D000203070DB
:1045B0000846F0BD33B9302006F8010B00203070FA
:1045C0000846F6E7002B03DA2D2006F8010B5B42C4
:1045D00042F210740DE093FBF4F505B937B105F123
:1045E000300006F8010B05FB143301270A2094FB69
:1045F000F0F4002CEFDC002030700846D9E70FB44F
:1046000070B586B004460CA8019073E00B98007852
:104610005C281CD10B98401C0B9000786E2809D0A8
:1046200072280FD10D21204600F066FE0B98401C29
:104630000B900BE00A21204600F05EFE0B98401C18
:104640000B9003E00B98401C0B9000BF4BE00B98C5
:104650000078252840D10B98401C0B9000786428E6
:1046600018D0732833D1019820C801900BE0297825
:10467000204600F041FE00BF4021204600F093FE9E
:104680000028F9D06D1C28780028F0D10B98401C28
:104690000B9020E0019840C801900A2202A9304600
:1046A000FFF77EFF02AD0BE02978204600F024FEE4
:1046B00000BF4021204600F076FE0028F9D06D1C96
:1046C00028780028F0D10B98401C0B9003E00B9841
:1046D000401C0B9000BF06E00B9810F8011B0B90DC
:1046E000204600F009FE00BF4021204600F05BFE9E
:1046F0000028F9D00B980078002887D106B070BC4C
:104700005DF814FB000801400038014000B587B097
:1047100001211C2000F06EFC0121880300F077FCD1
:104720004FF46040ADF8040003208DF80600182017
:104730008DF8070001A98F4800F0D2F94FF480509E
:10474000ADF8040003208DF8060010208DF8070056
:1047500001A9884800F0C4F94FF40060ADF80400E6
:1047600001A9844800F0BCF94020ADF8040001A97B
:10477000814800F0B5F948208DF807008020ADF899
:10478000040001A97C4800F0ABF90020ADF8080056
:104790004FF48270ADF80A000020ADF80C00ADF8BF
:1047A0000E00ADF810004FF40070ADF8120020209C
:1047B000ADF814000020ADF816000720ADF8180081
:1047C00002A96E4801F0D8F801216C4801F06CF99B
:1047D00007B000BD10B5044600BF0221674801F0D4
:1047E000ECF90028F9D02146644801F093F900BFA4
:1047F0000121624801F0E1F90028F9D05F4801F099
:104800008BF9C0B210BD10B500BF02215B4801F0AA
:10481000D4F90028F9D00021584801F07BF900BFF5
:104820000121564801F0C9F90028F9D0534801F098
:1048300073F9C0B210BD70B504460D4616464E4819
:10484000C06840F040004C49C8604A480C300068DD
:1048500020F480504A49C1F80C0C0220FFF7BAFF3F
:104860002046FFF7B7FF2846FFF7B4FF3046FFF7B3
:10487000B1FF40480C30006840F480504049C1F816
:104880000C0C70BD70B5044600253B48C06840F074
:1048900040003949C86037480C30006820F4805027
:1048A0003749C1F80C0C0320FFF794FF2046FFF7AF
:1048B00091FFFFF7A8FF0502FFF7A5FF05432D486D
:1048C0000C30006840F480502D49C1F80C0C28468B
:1048D00070BD70B50024002526480C30006820F417
:1048E00000602749C1F80C0C4FF47A7000F075F89D
:1048F000FF20FFF76FFF2048C06840F040001E49CE
:10490000C8601C480C30006840F480501C49C1F855
:104910000C0C18480C30006840F40060C1F80C0C16
:104920004FF47A7000F059F8002208211046FFF782
:1049300082FF002298210320FFF77DFF8122BB2107
:104940000520FFF778FF224629460220FFF773FF74
:10495000002211460B20FFF76EFF4FF47A7000F033
:104960003CF800BF8021044800F048F90028F9D045
:1049700070BD0000000C01400010014000380040F4
:10498000000001401D4909681D4AB1FBF2F0B0F179
:10499000807F01D301211CE020F07F41491E4FF0B0
:1049A000E022516100BF5117002905DA0F210901EA
:1049B000144A0B23D15404E00F210901124A531762
:1049C000D15400BF00214FF0E02291610721116115
:1049D000002109B100BFFEE770470C49086000BF25
:1049E0000A4909680029FBD170470848006820B1CE
:1049F00006480068401E054908607047E05D0008F1
:104A0000A086010018ED00E000E400E03C0000207A
:104A100010B50446C149601A8C422FD009DCC04849
:104A2000201810D0B0F5806F16D0B0F5006F4AD1C5
:104A30001BE0B0F5806F2AD0B0F5006F30D0B0F534
:104A4000406F40D135E00121042000F0EDFA002153
:104A5000042000F0E9FA37E00121082000F0E4FA30
:104A60000021082000F0E0FA2EE00121102000F0E3
:104A7000DBFA0021102000F0D7FA25E001212020E8
:104A800000F0D2FA0021202000F0CEFA1CE0012133
:104A9000402000F0C9FA0021402000F0C5FA13E0E0
:104AA0000121802000F0C0FA0021802000F0BCFA33
:104AB0000AE00121080200F0B7FA00214FF48070EB
:104AC00000F0B2FA00E000BF00BF10BD10B5012138
:104AD000084600F0A9FA0021012000F0A5FA10BD57
:104AE000F0B500220023002400250026002791F8BD
:104AF00003C00CF00F0291F803C01CF0100F03D09C
:104B000091F802C04CEA0202B1F800C01CF0FF0F9D
:104B100031D0066800242BE04FF0010C0CFA04F5AC
:104B2000B1F800C00CEA0503AB4220D1A5004FF05C
:104B30000F0C0CFA05F7BE4302FA05FC4CEA060618
:104B400091F803C0BCF1280F06D14FF0010C0CFA0C
:104B500004FCC0F814C00AE091F803C0BCF1480F8F
:104B600005D14FF0010C0CFA04FCC0F810C0641C15
:104B7000082CD1D30660B1F800C0BCF1FF0F34DDC2
:104B8000466800242EE004F1080C4FF0010E0EFAE6
:104B90000CF5B1F800C00CEA0503AB4221D1A50029
:104BA0004FF00F0C0CFA05F7BE4302FA05FC4CEA75
:104BB000060691F803C0BCF1280F05D104F1080CDA
:104BC0000EFA0CFEC0F814E091F803C0BCF1480FD7
:104BD00007D104F1080C4FF0010E0EFA0CFEC0F8DC
:104BE00010E0641C082CCED34660F0BD4FF6FF7178
:104BF0000180022181700421C170704702460020AB
:104C000093680B4201D0012000E00020704701466C
:104C1000886880B2704702460020D3680B4201D0FA
:104C2000012000E0002070470146C86880B270474C
:104C300001617047416170470AB1016100E0416163
:104C40007047C16070474FF480320A4382618161CE
:104C500082618269826970470022324B1A684FF67E
:104C600080731A4042EA00120A432E4B1A607047C2
:104C70002D49C8617047F0B50022002300250024AB
:104C8000284E7568C0F3034482B200F44016B6F5AE
:104C9000401F08D125F07065224E766826F07066B8
:104CA000204F7E6012E000F48016B6F5801F06D11A
:104CB000032606FA04F39D4345F0706506E0460DB1
:104CC000360102FA06F6B54345F0706521B1460D8E
:104CD000360102FA06F63543124E7560F0BD30B566
:104CE00000228B071C0F0F2303FA04F20D4B08332D
:104CF0008C1053F8244094438D1043F825408C10B9
:104D000053F824308C07240F00FA04F42343054C95
:104D100008348D1044F8253030BD000000140140E7
:104D200000F8FEBF0000014000002042DA480068A1
:104D300040F00100D849086008464068D74908405B
:104D4000D549486008460068D5490840D2490860FE
:104D50000846006820F4802008600846406820F477
:104D6000FE004860002088607047CB49096821F444
:104D70008031C94A11601146096821F4802111600F
:104D8000B0F5803F03D0B0F5802F0ED106E0C249C8
:104D9000096841F48031C04A116007E0BE490968E2
:104DA00041F4A021BC4A116000E000BF00BF704781
:104DB00010B501460022002300204A11012A02D129
:104DC000B54C236806E0022A02D1B34C236A01E005
:104DD000B14C636A01F01F02012494401C4201D0CF
:104DE000012000E0002010BD70B500240025002641
:104DF00000BF3120FFF7DCFF0646641C16B9B4F58E
:104E0000A06FF6D13120FFF7D3FF08B1012500E0F4
:104E10000025284670BD00219F4A116821F0F80145
:104E200041EAC001116070479E4908607047002246
:104E3000994B5A6822F47C1240EA01031A43964BBC
:104E40005A6070479749086670470021924A516836
:104E500021F003010143516070478F48406800F022
:104E60000C00704700218C4A516821F0F001014389
:104E7000516070470021884A516821F4E061014384
:104E8000516070470021844A516821F4605141EA21
:104E9000C0015160704729B17F4A527A02437E4B6C
:104EA0005A7206E07C4A527AC343DBB21A407A4B0C
:104EB0005A7270477B49D831086070470021764AA2
:104EC000516821F440410143516070470021724A0A
:104ED00020321170704A82F82010012802D0042874
:104EE0000AD104E001216C4A2032117005E005214D
:104EF000694A2032117000E000BF00BF70476A4964
:104F0000086070476449096A0143634A1162704747
:104F1000654944390860704730B5002100220023FC
:104F200000245D4D6D6805F00C0121B1042905D008
:104F3000082923D105E05D4D056022E05B4D056049
:104F40001FE0554D6D6805F47012022505EB924285
:104F5000514D6D6805F480331BB9554D55430560BF
:104F60000BE04D4D6D6815F4003F03D0504D554397
:104F7000056002E04D4D5543056002E04B4D056074
:104F800000BF00BF444D6D6805F0F0010909494DAF
:104F90006C5C0568E54045603F4D6D6805F4E06177
:104FA000090A444D6C5C4568E54085603A4D6D6882
:104FB00005F46051C90A3F4D6C5C4568E540C56029
:104FC000354D6D6805F44041890B3A4D10356C5CE8
:104FD000C568B5FBF4F5056130BD29B12E4A5269AB
:104FE00002432D4B5A6104E02B4A526982432A4BFB
:104FF0005A61704729B1284A92690243264B9A6147
:1050000004E0254A92698243234B9A61704729B193
:10501000214AD2690243204BDA6104E01E4AD26978
:1050200082431D4BDA61704729B11B4AD2680243A3
:10503000194BDA6004E0184AD2688243164BDA60F2
:10504000704729B1144A12690243134B1A6104E0F4
:10505000114A12698243104B1A6170471249403954
:10506000086070470F49C86470470B49C8717047A2
:105070000948406A40F0807007494862704701461D
:105080000020054A92680A4201D0012000E0002079
:105090007047014988727047001002400000FFF815
:1050A000FFFFF6FE000042428004424200127A00F6
:1050B00000093D004000002010B50446D749601AA1
:1050C0008C422BD006DCD648201813D0B0F5806F68
:1050D00038D119E0B0F5806F2AD0B0F56C4F31D1DE
:1050E00001218803FFF7A0FF00214FF48040FFF764
:1050F0009BFF28E001214804FFF7A3FF00214FF4A4
:105100000030FFF79EFF1EE001218804FFF799FFA2
:1051100000214FF48020FFF794FF14E00121C80420
:10512000FFF78FFF00214FF40020FFF78AFF0AE00E
:1051300001210805FFF785FF00214FF48010FFF7DC
:1051400080FF00E000BF00BF10BD2DE9F04786B032
:1051500004460D460026002700BF00BFB246A24607
:10516000268A4CF6FF700640E88806432682A68908
:105170004EF6F3100640A888298908436989084338
:105180000643A681A68A4FF6FF400640A88906433B
:10519000A68201A8FFF7C0FE5446A248824501D16D
:1051A000049F00E0039F07EBC70000EB071029688E
:1051B0008900B0FBF1F86420B8FBF0F0060130097B
:1051C000642101FB1089322101EB09106421B0FB3D
:1051D000F1F000F00F000643268106B0BDE8F0872D
:1051E0004FF41651016000218180C18001810C21A2
:1051F000418100218181704710B50022028A4FF25F
:10520000FF031A400B884C8823438C882343CC88A7
:1052100023431A43028210BD002101804180818016
:10522000C180704721B1828942F40052828104E03A
:1052300082894DF6FF731A4082817047F0B50024D1
:105240000025002600230346C1F3421401F01F0588
:10525000012707FA05F6012C01D10C3304E0022CDA
:1052600001D1103300E014331AB11F6837431F60B7
:1052700002E01F68B7431F60F0BD10B51AB1838A02
:105280000B43838204E0838ACC43A4B2234083820D
:1052900010BD028A4FF6F0731A400282028A0A4356
:1052A0000282704782894FF2FF731A40828182899D
:1052B0000A438281704721B1828942F002028281D1
:1052C00004E082894FF6FD731A4082817047028A9A
:1052D0004FF6DF731A400282028A0A430282704745
:1052E00021B1028A42F48042028204E0028A4BF633
:1052F000FF731A4002827047C1F308028280704730
:1053000001468888C0F308007047818941F0010197
:1053100081817047028BD2B20283028B42EA012262
:1053200002837047028B02F47F420283028B0A439E
:105330000283704721B1828A42F02002828204E017
:10534000828A4FF6DF731A408282704721B1828AC7
:1053500042F01002828204E0828A4FF6EF731A4014
:105360008282704721B1828A42F00802828204E080
:10537000828A4FF6F7731A4082827047828A4FF60C
:10538000FB731A408282828A0A438282704721B16B
:10539000828A42F00202828204E0828A4FF6FD7322
:1053A0001A40828270470246002013880B4201D0C7
:1053B000012000E000207047CA430280704770B5AA
:1053C00002460023002400250020C1F3421501F00D
:1053D0001F04012606FA04F4012D02D196893440F7
:1053E00006E0022D02D1168A344001E0968A34404C
:1053F0000B12012606FA03F31688334014B10BB1E1
:10540000012000E0002070BD10B5002200230A1228
:1054100001249440A3B2DC43048010BD004C004042
:1054200000BCFFBF0038014000206C4908604860A4
:105430008860C86048628862C862694888630020E2
:10544000C86370470021654A516847F6FF6291437F
:105450000278C3681A4383681A4303691A4343688E
:105460001A4343691A4311435C4A51607047002153
:10547000017041608160C1600161416170475949BB
:10548000086070475549096821F00301534A1160CB
:10549000114609680143116070475048006800F0E8
:1054A0000300704729B14D4AD26B02434B4BDA637C
:1054B00004E04A4AD26B8243484BDA6370474A4958
:1054C000086070470021454B02689A601A46D1680F
:1054D0006FF30A01D0E901231A43C3681A43036931
:1054E0001A4311433D4AD160704700210160416079
:1054F0008160C1600161704738480069C0B270477F
:10550000014636480844406970470021334B026821
:105510005A6242689A621A46D16A21F0F701D0E9CC
:1055200002231A4303691A4343691A4311432B4A5E
:10553000D16270474FF0FF3101600021416081600E
:10554000C1600161416170472448006B7047234886
:1055500080300068704721498031086070471F48DB
:10556000806C704720491431086070471E4918311B
:10557000086070471C491C31086070471A49203187
:10558000086070471949086070471849091D08608C
:10559000704701218143154A083211607047134951
:1055A0000C3108607047014600200C4A526B0A42D9
:1055B00001D0012000E0002070470849886370474F
:1055C00001460020054A526B0A4201D0012000E04A
:1055D0000020704701498863704700000080014047
:1055E000FF07C000A00030428C053042AC013042C1
:1055F00032490143324A1160704770B500210023DF
:105600000F22C4780CB32E4C246804F4E064C4F573
:10561000E064210AC1F10403CA40447804FA03F1AA
:105620008478144021430901264C0678A15504785A
:1056300004F01F050124AC4005786D114FF0E02601
:1056400006EB8505C5F8004109E0047804F01F0465
:105650000125A5401C4C0678761144F8265070BDF3
:105660001A4A0A400243164B1B1F1A60704741B189
:10567000134A121D126802434FF0E023C3F8102DA5
:1056800007E00F4A121D126882434FF0E023C3F86F
:10569000102D7047042808D14FF0E021096941F02E
:1056A00004014FF0E022116107E04FF0E0210969A9
:1056B00021F004014FF0E022116170470000FA056B
:1056C0000CED00E000E400E080E100E080FFFF1F5F
:1056D000016821F0010101600021016041608160E9
:1056E000C1608B4A811A90425BD012DC894AA0EBE0
:1056F000020190423AD007DC874941181BD0142997
:1057000022D0282971D128E0142938D028297FD126
:105710003EE0B1F56C7F5FD006DCB1F5627F49D029
:10572000B1F5677F74D14EE0B1F5717F5ED0B1F510
:10573000767F6DD163E077494439496841F00F01C4
:10574000744A443A516064E072494439496841F00E
:10575000F001704A443A51605BE06E49443949684F
:1057600041F470616B4A443A516052E069494439EE
:10577000496841F47041674A443A516049E06549DB
:105780004439496841F47021624A443A516040E02A
:1057900060494439496841F470015E4A443A5160B5
:1057A00037E05C494439496841F07061594A443AEC
:1057B00051602EE05949096841F00F01554A443AB9
:1057C000C2F8041425E05549096841F0F001514A36
:1057D000443AC2F804141CE05049096841F470616D
:1057E0004C4A443AC2F8041413E011E04B490968EA
:1057F00041F47041474A443AC2F8041409E0474969
:10580000096841F47021434A443AC2F8041400E0A4
:1058100000BF00BF704710B50022026847F6F07362
:105820009A430C6A8B6823430C6923434C692343D6
:105830008C692343CC6923434C6A23438C6A2343FA
:105840001A430260CB6843600B6883604B68C36097
:1058500010BD0021016041608160C1600161416152
:105860008161C161016241628162704721B1026858
:1058700042F00102026003E0026822F001020260CD
:1058800070471AB103680B43036002E003688B435F
:10589000036070470146486880B2704702460020A6
:1058A000002112F0805F03D01C4B1B1F196802E01F
:1058B000184B443B1968114201D0012000E0002040
:1058C000704710F0805F02D01449086002E011496F
:1058D00044394860704702460020002112F0805F82
:1058E00003D00E4B1B1F196802E00A4B443B19689A
:1058F000114201D0012000E00020704710F0805FCD
:1059000002D00649086002E0024944394860704705
:105910008000024044000240F8FFFDBF0404024042
:1059200010B50446BD4820180FD0B0F5806F16D0D2
:10593000B0F5784F1DD101210803FFF775FB002159
:105940004FF48050FFF770FB14E001218803FFF74C
:1059500078FB00214FF48040FFF773FB0AE0012140
:10596000C803FFF76EFB00214FF40040FFF769FB0F
:1059700000E000BF00BF10BD10B50022028802F495
:1059800041520B884C8823438C882343CC88234383
:105990000C8923434C8923438C892343CC8923439B
:1059A0001A430280838B4FF2FF74234083830B8A58
:1059B000038210BD2DE9F04786B004460D4600264F
:1059C0000227B0464FF00109B246A08B4FF24001CA
:1059D0000840A08302202084A68B2889022801D1B8
:1059E00000BF31E0A88810B94FF0010901E04FF085
:1059F000020901A8FFF790FAE888B0F5007F0BD103
:105A0000019800EB8000400029890902B0FBF1F009
:105A1000401D1FFA80FA0CE04FEA491029894843DB
:105A2000019901EB81014900B1FBF0F0401D1FFA23
:105A300080FA0A20BAFBF0FA0AF00108AAEB080083
:105A4000C0F34F074FEA0828022F01DBFF2F02DDCA
:105A500002274FF0000847EA0800E988084320843D
:105A6000288840F4006069880843A9880843698948
:105A700008430643A68306B0BDE8F08700210180F5
:105A800041808180C180018141818181C181072163
:105A9000018270470021018041808180C180022104
:105AA000018100214181704721B1028842F040020A
:105AB000028004E002884FF6BF731A4002807047EC
:105AC00021B1828B42F48062828304E0828B4FF6A4
:105AD000FF331A408283704770B5002300240B11F6
