:020000040800F2
:10000000E827002045010008CB160008C9150008A4
:10001000C9160008DB0300081120000800000000DA
:10002000000000000000000000000000A91D000802
:10003000F903000800000000CD160008AD1D0008FF
:100040005F0100085F0100085F0100085F01000810
:100050005F0100085F0100085F0100085F01000800
:100060005F0100085F0100085F0100085F010008F0
:100070005F0100085F0100085F0100085F010008E0
:100080005F0100085F0100085F0100085F010008D0
:100090005F0100085F0100085F0100085F010008C0
:1000A0005F0100085F0100085F0100085F010008B0
:1000B0005F0100085F0100085F0100085F010008A0
:1000C0005F0100085F0100085F0100085F01000890
:1000D0005F010008F11F00085F0100085F010008D0
:1000E0005F0100085F0100085F0100085F01000870
:1000F0005F0100085F0100085F0100085F01000860
:100100005F0100085F0100085F0100085F0100084F
:100110005F0100085F0100085F0100085F0100083F
:100120005F0100085F0100085F0100085F0100082F
:10013000DFF80CD000F030F900480047ED37000838
:10014000E82700200648804706480047FEE7FEE70C
:10015000FEE7FEE7FEE7FEE7FEE7FEE7FEE7FEE777
:100160002B1E000831010008202A04DB203A21FA66
:1001700002F00021704721FA02F3D040C2F12002C0
:100180009140084319467047D2B201E000F8012BB4
:10019000491EFBD270470022F6E710B513460A4607
:1001A00004461946FFF7F0FF204610BD2DE9FE4F2B
:1001B00081EA030404F0004421F0004100944FF070
:1001C000000B23F0004350EA01045ED052EA03041E
:1001D0005BD0C3F30A54C1F30A552C44A4F2F334A0
:1001E0000194A0FB0254C1F3130141F48011C3F345
:1001F000130343F4801301FB024400FB034E840A03
:10020000970A44EA815447EA8357A4FB076802959A
:100210008D0A05FB07854FEA932C04FB0C54270538
:10022000029D4FEA065847EA1637B5EB08056EEB14
:10023000070C870E920E47EA811742EA8312A7FB4A
:100240000201B6EB0B0164EB00042B0D43EA0C3307
:100250005E1844EB1C50DA465146E7FB0201C5F339
:1002600013044FEA0B3343EA14534FEA0432019C60
:1002700043EA0603A4F10C040294009CCDE900B407
:1002800000F03BF803B0BDE8F08F00200146F9E72D
:100290000EB540F2334102910021CDE900110A462A
:1002A0000B4600F02AF803B000BDC1F30A5210B5A6
:1002B000C1F3130140F2FF3341F480119A4201DA95
:1002C000002010BD40F233439A42A2F2334203DCD5
:1002D0005242FFF749FF10BD904010BD10B5141EEB
:1002E00073F1000408DA401C41F1000192185B41EF
:1002F0001A4301D120F0010010BD2DE9F04D9246C6
:100300009B4611B1B1FA81F202E0B0FA80F22032DC
:10031000904600F053F804460F4640EA0A0041EACE
:100320000B0153465A46084313D0114653EA0100C5
:1003300019D0C8F140025046FFF716FF05460E4699
:1003400050465946424600F039F8084305D001208E
:1003500004E020463946BDE8F08D0020054346EA1A
:10036000E0762C4337430A986305E40AA0EB0800C3
:100370000022FD0A44EA47540A3002D50020014613
:10038000E9E7010510196941DDE9084500196941EE
:10039000BDE8F04DA2E70000064C074D06E0E0681E
:1003A00040F0010394E8070098471034AC42F6D3BC
:1003B000FFF7C2FE3843000858430008202A04DB38
:1003C000203A00FA02F1002070479140C2F1200368
:1003D00020FA03F3194390407047FEE780B50548C3
:1003E0001021012200F0B4F90120BDE8804000F0A6
:1003F000CDB800BF00100140704700000348044919
:100400000A220A2301F081F8FEE700BF9C230020A6
:1004100028000020002200F001B80000B0B50E4C0A
:100420000346607A012884BF0120B0BD657A0020B0
:100430006055657A04EB85056B60637A23441A7214
:10044000627A531C637242F63A733032C870A1F874
:1004500001300A70B0BD00BFDC02002010B590F87A
:100460002110022911D10168D0E90F230C6824F072
:100470000E040C600C6824F001040C60012180F86B
:10048000211099405160002102E004218163012183
:10049000002280F82020084610BD000010B590F81A
:1004A0002110022919D10268116821F00E01116092
:1004B000116821F001011160294901F17C039A4280
:1004C0000FD92F4B9A4224D02E4B9A4223D02E4B39
:1004D0009A4222D14FF4807327E0042181630120E6
:1004E00010BD204B9A4226D01F4B9A4225D01F4B5D
:1004F0009A4224D01E4B9A4224D01E4B9A4217D0C7
:100500001D4B9A4221D01D4B9A4211D14FF080725F
:100510001DE0012309E0102307E001F588644FF492
:100520008033A24208BF4FF48053C1F800340FE07B
:100530004FF480320BE0012209E0102207E04FF473
:10054000807204E04FF4805201E04FF480120A60A0
:100550004FF480710184416B01B18847002010BDC8
:1005600004000240080002401C000240300002402B
:1005700044000240580002406C00024080000240EB
:10058000080402401C04024030040240B0B5044696
:1005900000F0E4F805468E48611C007818BF04445A
:1005A00000F0DCF8401BA042FAD3B0BD2DE9FC4FAF
:1005B00081465C48062381455B485C4E48444FEACF
:1005C000B02208BF0523052A4FF0000B4FF00108A9
:1005D0004FF00F0E4FF0000A4FF0000238BF4FEA05
:1005E000B02300930C6834FA02F508BFBDE8FC8F15
:1005F00008FA02F52C4200F091804F68032F16D9BB
:10060000112F26D0122F28D04A48874213D04A48AB
:10061000874210D0494887420DD0494887420AD0C6
:100620004848874207D04848874204D022E0DFE8A4
:1006300007F002181B1F8C6844B1012C14BFC9F8C5
:100640001450C9F810504FF0080A13E04FF0040A94
:1006500010E0CC6804F1040A0CE0CC6804F10C0A48
:1006600008E0D1F80CA005E0CC6804F1080A01E02C
:100670004FF0000A5C4648463346082A28BF203C13
:1006800028BF043006680EFA04F7BE430AFA04F4E1
:1006900034430460C879C00601D41E463EE05B487E
:1006A00022F00306044600681E4440F0010020606A
:1006B000206800F001000190019F244F0BF00C0016
:1006C000BC46F7590EFA00F427EA0404009F07FA23
:1006D00000F0204346F80C004F681E46F8031868E7
:1006E00054BF20EA050440EA05041C60B8037068A2
:1006F00054BF20EA050440EA05047460F802B068BB
:1007000054BF20EA050440EA0504B8020848B46072
:100710000346006854BFA843284318600BF1040B3C
:1007200001325FE7001C014000F8FEBF00040140F9
:100730000C040140000011100000121000002110F4
:1007400000002210000031100000321008FCFFFFF2
:10075000002A08BF090401617047000005480068CD
:10076000704700BF1A48034900780A6810440860BF
:10077000704700BFE023002080B58F48016841F03A
:1007800010010160032000F06FF80F2000F004F862
:1007900000F020F8002080BD70B50D4E0446307882
:1007A0004FF47A71B1FBF0F090490968B1FBF0F0B9
:1007B00000F012FD01250F2C08D838B94FF0FF309A
:1007C00021460022002500F033F87460284670BDF1
:1007D0000400002082B00D480222016841F00101AE
:1007E0000160016801F0010101910199416841F046
:1007F00080514160406800F08050009000980448AB
:10080000016862F31A61016002B07047181002407B
:1008100004000140002808D400F01F01012202FA60
:1008200001F1024A400942F82010704700E100E05F
:10083000B0B5134B4FF0FF351B68C3F30223DC1E2A
:1008400083F0070338BF0024042B28BF042305FAD4
:1008500003F3994305FA04F3A1409A431143BDE819
:10086000B04001F0D7BB00BF05494FF6FF030A684F
:100870001A4060F30A22034810430860704700BF23
:100880000CED00E00000FA052DE9F843002800F027
:100890009080884648490446086800F007004045B3
:1008A0000AD2086820F0070040EA080008600868DB
:1008B00000F0070040457CD120685B4B89468107EA
:1008C00011D5410703D5196841F4E06119600107AA
:1008D00003D5196841F460511960A1681A6822F0C3
:1008E000F00211431960C0072BD06068012804D1C1
:1008F00053F8041C890309D45BE053F8041C022854
:1009000002D1890102D454E0890752D519681D46E5
:1009100021F0030108431860FFF720FF064641F26B
:100920008837606829682B4601F00C01B1EB800F15
:1009300007D0FFF713FF801BB842F2D90320BDE8B0
:10094000F883D9F8000000F0070040450DD9D9F828
:10095000000020F0070040EA0800C9F80000D9F8BC
:10096000000000F00700404523D12068410705D56D
:10097000E1681A6822F4E06211431960000706D5A5
:100980002069196821F4605141EAC00018601C46D2
:1009900000F030F82168094AC1F30311515CC840E6
:1009A000F349086006480068FFF7F6FE0020BDE83E
:1009B000F8830120BDE8F88300200240743D000860
:1009C00008000020EA48184900680968084AC1F38D
:1009D0000221515CC8407047E54813490068096826
:1009E000034AC1F3C221515CC84070471000002087
:1009F000843D000810B50C490C480A6802F00C034D
:100A0000082B07D1C2F3834309A4E35CD20302D4C9
:100A10000C48584310BD096809A2C1F34041515C1C
:100A20005843B0FBF1F010BD0410024000127A00F0
:100A300002030405060708090A0B0C0D0E0F10101F
:100A40000102000000093D002DE9FC41002800F0F2
:100A5000CC8004460078C44EC0074AD0706800F0CD
:100A60000C00042817D0706800F00C00082802D190
:100A70007068C0030FD4606898B1B0F5803F06D0AD
:100A80003168B0F5A02F21D141F48020306030686A
:100A900040F4803020E0306880032AD5606840BB95
:100AA000A3E0306820F480303060306820F480208B
:100AB0003060FFF753FE05463068800319D5FFF715
:100AC0004DFE411B03206429F6D94AE121F4803010
:100AD0003060306820F480203060FFF73FFE05462C
:100AE0003068800305D4FFF739FE401B6428F7D92E
:100AF0000AE1207880072CD5706810F00C0F07D021
:100B0000706800F00C00082809D17068C00306D492
:100B10003068800716D52069012813D065E0216967
:100B20009248002900F0B58001210160FFF716FE10
:100B300005463068800705D4FFF710FE401B0228E9
:100B4000F7D9E1E06069316821F0F80141EAC000BD
:100B50003060207800072ED5A06978B18348012144
:100B6000C0F88014FFF7FAFD0546706A800715D4B7
:100B7000FFF7F4FD401B0228F7D9C5E07B480021B0
:100B8000C0F88014FFF7EAFD0546706A800712D5A9
:100B9000FFF7E4FD401B0228F7D9B5E074484FF495
:100BA000FA510068B0FBF1F0019000BF0198411EBE
:100BB00000280191F9D12078400719D4E769002F66
:100BC00000F0CE80706800F00C00082843D1012F9F
:100BD0000BD0216A706800F480328A4205D1616AC4
:100BE00000F47010884200F0BB800120BDE8FC8159
:100BF000F069C0000BD4F0694FF0010840F080505C
:100C0000F061F06900F080500090009801E04FF032
:100C10000008584F3868C0050FD4386840F4807019
:100C20003860FFF79BFD05463868C00505D4FFF71F
:100C300095FD401B6428F7D966E0E068C8B3012839
:100C400005D0316A05284BD141F004003062306A8A
:100C500040F001004AE04549002088460866FFF759
:100C60007DFD0546022F0AD147463068800157D5E1
:100C7000FFF774FD411B03200229F6D971E03068AB
:100C800080016DD5FFF76AFD411B03200229F6D9CB
:100C900067E000210160FFF761FD054630688007CD
:100CA0007FF557AFFFF75AFD411B03200229F5D905
:100CB00057E0306A20F001003062306A20F0040012
:100CC0003062FFF74BFD054641F28837306A8007F6
:100CD0001DD5FFF743FD411B0320B942F6D940E083
:100CE00021F001003062306A20F004003062FFF72A
:100CF00035FD054641F28837306A800707D4FFF793
:100D00002DFD401BB842F7D90320BDE8FC81B8F1A6
:100D1000000F3FF453AFF06920F08050F0614DE7D1
:100D2000206AB0F5803F05D1A168726822F40032D4
:100D300011437160616A0843716821F474110843BA
:100D4000706001203866FFF709FD044630688001B5
:100D500006D4FFF703FD011B03200229F6D900E0AA
:100D60000020BDE8FC8100BF0010024000004242AC
:100D7000100000200070004090F851007047F8B556
:100D800038B10446406A30B10020206104F11400FB
:100D900007E001254AE06068B0F5827F03D004F1E6
:100DA0001C00002101600025A56294F85100002874
:100DB0004FF0000007D1204684F8505000F038F87A
:100DC000A06A00F40050022184F8511094E84E000B
:100DD00002F482720F6803F4044327F040070F60A7
:100DE0001A4406F400631A44236903F002031A4408
:100DF000636903F001031A44A36903F400763244E3
:100E0000E66906F038063244266A06F08006324368
:100E100010430860042000EA13404860C86920F4C9
:100E20000060C8610120656584F851002846F8BD5E
:100E300070B586B00026CDE90466CDE90266174C90
:100E4000006804F52051884225D1154802AD01689B
:100E500041F480510160016801F4805101910199D0
:100E6000016841F0040101600068294600F00400B7
:100E700001900320059002200390A0200290019889
:100E80002046FFF793FB4020CDE903660290204601
:100E90002946FFF78BFB06B070BD00BF000801407C
:100EA000181002402DE9F843044690F8500001283C
:100EB00004BF0220BDE8F8834FF001091D46164625
:100EC0000F4684F85090FFF749FC804694F8510093
:100ED000012855D10120002F00F08F80002E00F056
:100EE0008C80032084F8510000206065E686A68689
:100EF0002763A087A063C4E91000E087A168206889
:100F0000B1F5004F07D1016821F04001016001688F
:100F100041F4804101600168490603D4016841F051
:100F2000400101606168731EE268B1FA81F1B3FAB1
:100F300083F349095B091943B2F5006F22D131B13E
:100F400037F8021BC1602763E08E0138E0866E1C13
:100F5000E08ED0B320688168890708D4FFF7FEFBD4
:100F6000002EF5D0A0EB0800A842F1D344E0216B9D
:100F700031F8022BC2602163E08E0138E086E7E79A
:100F800002203AE039B139780173206B01302063D7
:100F9000E08E0138E0866E1CE08EB0B1206881687A
:100FA000890708D4FFF7DAFB002EF5D0A0EB080084
:100FB000A842F1D320E0216B09780173206B013046
:100FC0002063E08E0138E086E6E720462946424667
:100FD00000F040FE08B120206065A06838B900200C
:100FE00000902068C1680091806800900098606D52
:100FF000002818BF012000E00320002184F85010D1
:1010000084F85190BDE8F8832DE9F843044690F840
:101010005000012804BF0220BDE8F88301201E46CD
:1010200015460F4684F85000FFF798FB94F85110CE
:101030008146012969D10120002F00F0AF80002DE9
:1010400000F0AC80002E00F0A98094F85100042834
:101050001CBF052084F8510000206065E687E68605
:10106000A563A6872763C4E91000A68620680168E7
:10107000490603D4016841F0400101606168731EB4
:10108000E268B1FA81F1B3FA83F3DDF8208049090F
:101090005B091943B2F5006F45D131B137F8021B36
:1010A000C1602763E08E0138E086012608F1010562
:1010B000E08E10B9E08F002878D020688168890719
:1010C0000CD5E18E012E09D141B1216B002631F8FA
:1010D000022BC2602163E18E0139E1868168C90774
:1010E0000AD0E18F41B1A16BC068012621F8020B43
:1010F000A163E08F0138E087FFF730FB002DD7D0E8
:10110000A0EB09004045D3D347E06068B0F5827F8B
:1011100007D10220042941D1A16800293FF48BAFF7
:101120003CE002203AE039B139780173206B01309C
:101130002063E08E0138E086012608F10105E08E8B
:1011400008B9E08F90B32068816889070ED5E18ED9
:10115000012E0BD151B1216B002609780173216B4F
:10116000206801312163E18E0139E1868168C90778
:101170000BD0E18F49B1A16BC06801260870A06B4C
:101180000130A063E08F0138E087FFF7E7FA002D18
:10119000D5D0A0EB09004045D1D30320002184F82D
:1011A0005010012184F85110BDE8F88320464146D3
:1011B0004A4600F04FFD18B1202060650120EDE7A0
:1011C000A16800200029E9D100902168CA68009236
:1011D000896800910099E1E7411E0020B0EB116F92
:1011E0001CBF01207047044AF023516003490B7073
:1011F000072190601160704710E000E023ED00E0EF
:1012000070477047F8B5016804460868CA684E69B7
:1012100000F02F0502F02003202D05D123B1204638
:10122000BDE8F84000F01EBE5FEA007E07D006F081
:10123000010686F0010712F4907F3FD1F7B310400A
:10124000C206226B28D5012A26D10020009008680A
:1012500000904868009000984869400600F183803B
:10126000E08DA28DE38D002B00F0D180101A0204D6
:1012700000F0CD80CA6822F49072CA604A6922F0F8
:1012800001024A61202284F83E2000222263CA68BB
:1012900022F01002CA608DE0020600F19180400643
:1012A00040F1B580C86820F04000C860202084F874
:1012B0003D002046BDE8F84000F085B9C50718BFDD
:1012C00012F4807503D0256C45F00105256400F00B
:1012D00004054FF0010C8CEA95053D4303D1256CC4
:1012E00045F00205256400F002058CEA55053D43F2
:1012F00003D1256C45F004052564334318BF012351
:10130000BEF1000F04D51BB1236C43F00803236426
:10131000236C002B7BD01040800603D5204600F0C4
:10132000A1FD21684869216C00F0400001F008012E
:1013300040185AD0204600F07FFD206841694906D8
:101340004ED5416921F040014161A06B002847D092
:1013500034494163FFF7A2F8002858D0A06B416BD5
:10136000BDE8F8400847A06B026853689DB2002DA5
:101370004DD0A28D95424AD2E3858369202B17D0A8
:10138000CA6822F48072CA604A6922F001024A6186
:101390004A6922F040024A61202284F83E2000225D
:1013A0002263CA6822F01002CA60FFF757F8A28DC4
:1013B000E08D101A81B22046BDE8F840FFF720BF4B
:1013C00094F83D00212822D1A068B0F5805F01D1BA
:1013D000206980B1206A421C22620078486011E0D6
:1013E0002046BDE8F840FFF70CBF2046FFF709FF95
:1013F00000202064F8BD206A30F8022B6FF35F22D2
:1014000020624A60E08C0138E084000400D0F8BD1E
:10141000C86820F08000C860C86840F04000C8601C
:10142000F8BD00BF2D1E000850B310B5044690F85B
:101430003D0028B9002084F83C00204600F022F846
:10144000242084F83D002068C16821F40051C16067
:10145000204600F061FD2068016921F4904101619E
:10146000416921F02A014161C16841F40051C16024
:1014700000202021206484F83D1084F83E1010BD27
:101480000120704770B586B00026CDE90466CDE92D
:1014900002661C4C006804F5405188422FD169480F
:1014A00002AD016841F480410160016801F48041AE
:1014B00001910199016841F0040101600068294629
:1014C00000F00400019003200590022003904FF4E7
:1014D0000070029001982046FFF768F84FF4806092
:1014E000CDE90366029020462946FFF75FF82520E4
:1014F00000210022FFF79CF92520FFF78BF906B0A9
:1015000070BD00BF0008014070472DE9F047044658
:1015100090F83D0020280AD10D460120002950D026
:101520001646002A4DD094F83C00012802D1022032
:10153000BDE8F0874FF0000A0120C4F840A084F80D
:101540003C002120994684F83D00FFF707F9E68426
:10155000A6848046A068B0F5805F06D12769002682
:10156000002F0CBF2E462F4601E02F46002684F8A0
:101570003CA0E08CB8B12046802142464B4600F0AA
:101580000BFDB8B927B117F8010B2168486006E0D8
:1015900036F8021B20686FF35F2141600027E08C62
:1015A0000138E084E5E72046402142464B4600F002
:1015B000F3FC10B10320BDE8F087202084F83D0043
:1015C0000020BDE8F0877047FEE7000010B5034C2F
:1015D0000348611CFEF71EFF207010BDB200002002
:1015E000140000207FB51748174C0168012241F014
:1015F000200101600168102501F02001009100998F
:101600000168012641F004010160016801F0040154
:1016100000910099016841F01001016000681021FB
:1016200000F01000009000982046FFF791F800208D
:101630000396029069462046CDE90056FEF7B6FFB4
:101640007FBD00BF1810024000100140B0B50E4829
:1016500000210E4B0A244FF48272C0E90811C0E940
:101660000A1430244FF40075C0E90032C0E90211B9
:10167000C0E90411C0E90654FFF781FB18B1BDE8C9
:10168000B040FEF7BBBEB0BD442300200030014097
:1016900010B50B480B4C00210C224FF4E133C0E98C
:1016A0000043C0E90211C0E90412C0E90611FFF7C6
:1016B000BBFE18B1BDE81040FEF7A0BE10BD00BFD4
:1016C0009C23002000380140FEE7FEE77047000041
:1016D0000548018811B1018801390180418811B1A3
:1016E0004188013941807047AC0000201CB5FEF7ED
:1016F00075FE0A2424B1FF2000F0E8FA013CF9E766
:1017000000F09AFA95208DF807000020CDF803002C
:1017100040208DF802000DF10200062100F0C4FA0D
:10172000074C00F0A9FA14B101340128F9D1FEF7F1
:1017300055FEFF2000F0CAFAE648012141701CBDA9
:1017400001E0FFFF10B5064C4FF4FA70208000F066
:1017500093FAFF2802D021880029F8D110BD00BFDC
:10176000AE00002070B5894E0C460546C82030807A
:1017700000F082FAFF2803D130880028F8D110E069
:10178000FE280ED100F078FA287000F075FA687023
:101790000235023CF6D100F06FFA00F06DFA01203C
:1017A00070BD002070BD00BF70B50D460446FFF748
:1017B000C9FFFF2801D0FF2025E0144E2046B04786
:1017C000280EB047C5F30740B047C5F30720B04720
:1017D000E8B2B0470120482C08BF6FF07800402CD9
:1017E00008BF6FF06A00C0B2B0474C2C08BF00F0D1
:1017F00043FA0A2400F040FA40B2B0F1FF3F02DCA5
:10180000013C2106F6D1C0B270BD00BFCD1C00085E
:10181000B0B50C460546FFF795FFFF281CBF00201A
:10182000B0BD204600F052FAFD2C17D028464FF4E8
:10183000007100F039FA00F01FFA00F01DFA0025DF
:10184000402D07D8013500F017FA044600F01F00BC
:101850000528F5D100F010FA0028FBD004F01F0095
:101860000538B0FA80F04009B0BD000008B1012091
:101870007047F8B5EE4C207880077ED4FFF736FF2E
:1018800000F0DAF9402000210026FFF78DFF012843
:1018900065D13E4D4FF47A70288048204FF4D571C1
:1018A000FFF782FF012808D100266F46042E13D0CF
:1018B00000F0E2F9B8550136F8E777200021FFF78C
:1018C00073FF01282FD869200021FFF76DFF022642
:1018D000012888BF012627E09DF8020001283DD19C
:1018E0009DF80300AA2839D177200021FFF75CFF7B
:1018F000012805D869204FF08041FFF755FF10B14E
:1019000028880028F0D1288840B37A2000210026BA
:10191000FFF74AFF18BB0025042D30D000F0ACF9CA
:1019200078550135F8E70126022E07D177200021EE
:10193000FFF73AFF012806D8692000E04120002186
:10194000FFF732FF10B128880028EDD1288828B190
:1019500050204FF40071FFF727FF00B10026B54D6E
:101960002E70FEF73BFD00F087F926B1207800F0DD
:10197000FE00207001E0002068702078F8BD9DF81E
:1019800000000626400658BF0226E8E7AC0000200B
:101990007FB518B10425284604B070BD14460E4624
:1019A00005290AD12078022822D0012825D0002834
:1019B000F0D1A04800254570EDE79D480078C007AC
:1019C00014D100F039F904250D2E5BD8DFE806F0BC
:1019D0000719355A5A5A5A5A5A5A5A3A3C43FFF733
:1019E000B1FEB0F1FF0518BF01254BE00325D2E79A
:1019F0009048002540786070CDE7FFF777FE00251E
:101A0000C9E749200021FFF7CFFE10BB684610212F
:101A1000FFF7A8FEE8B19DF8000000F0C0004028E4
:101A200035D19DF808009DF80910800440EA812016
:101A3000274900F58060084048E04FF4007020809E
:101A400000251FE0492000E04A200021FFF7ACFEFE
:101A500088B1012516E07A200021FFF7A5FE40B9E4
:101A60000025032D05D800F007F904F8010B013516
:101A7000F7E7042506E020461021FFF773FEB0FAD1
:101A800080F04509FEF7AAFC00F0F6F883E79DF820
:101A900005009DF80A509DF8072000F00F009DF802
:101AA00006109DF8083000EBD5109DF80950920003
:101AB00005F0030542EA931201F0030100EB450033
:101AC00042EA81210738013101FA00F02060B7E7CE
:101AD00000FCFF03B0000020F8B50426002843D125
:101AE0001D46002B40D052480078C00711D1514804
:101AF000174600780C46400758BF570200F09CF884
:101B0000012D08D151203946FFF74EFEB8B101260C
:101B100023E0032628E052203946FFF745FE28B18E
:101B20002E461AE0013D04F5007411D020464FF412
:101B30000071FFF717FE0028F4D12E4609E0204679
:101B40004FF40071FFF70EFEB0FA80F0460904E092
:101B500000264C200021FFF727FEFEF73FFC00F097
:101B60008BF8002E18BF01263046F8BD08B10120C1
:101B700070472F4800787047F8B50426002854D1E4
:101B80001D46002B51D02A480C460178C90713D1B5
:101B90000078400712D4274E17463078400758BFC8
:101BA000570200F049F8012D0AD158203946FFF7B5
:101BB000FBFD18B3012631E0032636E0022634E0AF
:101BC0003078800707D577200021FFF7EDFD5720FB
:101BD0002946FFF7E9FD59203946FFF7E5FD28B111
:101BE0002E461BE0013D04F500740FD02046FC2179
:101BF000FFF70EFE0028F5D12E4608E02046FE2114
:101C0000FFF706FEB0FA80F0460907E00026002044
:101C1000FD21FFF7FDFD002808BF0126FEF7DEFBD2
:101C200000F02AF8002E18BF01263046F8BD00BF8C
:101C30000C000020B000002080B5054810210022D3
:101C4000FEF786FD0120BDE88040FEF79FBC00BF87
:101C50000010014010B513460A468021044600F0EA
:101C600049F800280FBF0020606D40F0200060653B
:101C700018BF032010BD00001CB51D4CFF208DF8BF
:101C800007002046FFF778F80128FAD14FF47A7060
:101C9000009017480DF107010DF106020123FFF72F
:101CA000B3F99DF806001CBD70B5114E0C460546F3
:101CB0003046FFF761F80128FAD10D48294622463F
:101CC0004FF47A73BDE87040FFF7ECB81CB5084CD0
:101CD0008DF807002046FFF74FF80128FAD1044895
:101CE0000DF1070101224FF47A73FFF7DBF81CBDF9
:101CF000442300202DE9FC411E4617460D46804630
:101D0000FEF72CFD301AC419FEF728FD06462548BB
:101D100001370068C0F3CB3060430190D8F8000071
:101D200081682940A9420FD1002FF9D0FEF716FD96
:101D3000801BA0420BD2019801990028A1F101015A
:101D4000019108BF0446E9E70020BDE8FC81D8E91D
:101D500000014268B1F5827F22F0E00242600BD1BF
:101D6000D8F80810B1F5004F02D0B1F5806F03D15B
:101D7000016821F040010160D8F82810B1F5005F3A
:101D800007D1016821F400510160016841F400515C
:101D90000160002088F85000012088F851000320DD
:101DA000BDE8FC81100000207047000080B50748A6
:101DB00001780131017001780A2903D300210170F3
:101DC000FFF786FCBDE88040FEF7CCBCC0000020D9
:101DD000B0B590B0002401A81421CDE90B44CDE9A1
:101DE0000944FEF7D8F94FF4E0100F904FF480301B
:101DF000022501210E900D950A910894CDE9061057
:101E000006A8FEF721FE70B94FF480600594CDE975
:101E100003400F20CDE9010501A80221FEF734FDA2
:101E200008B910B0B0BDFEF7E9FA7047406A00216A
:101E3000C185C184FFF7E5B90168CA6822F49072D0
:101E4000CA604A6922F001024A61026B012A03D189
:101E5000CA6822F01002CA60202180F83E100021DA
:101E60000163704781B090F83E10222920D1836829
:101E7000B3F5805F08D10169002941D000F1280144
:101E80000A6803685B680AE0014651F8282F13B915
:101E90000369002BF5D003685B6803F07F031370C0
:101EA0000A6801320A60C18D0139C185090401D077
:101EB00001B070470168CA6822F02002CA60CA688F
:101EC00022F48072CA604A6922F001024A6120222B
:101ED00080F83E20026B012A1BD100220263CB68EE
:101EE00023F01003CB600B68DB0605D500920A686F
:101EF0000092496800910099818D01B0FFF780B987
:101F00000168826A49686FF35F2122F8021B8262CE
:101F1000C9E701B0FFF7F8BAB0B50446006804F1AC
:101F200008030ECB0569194325F440552A43026185
:101F3000C268636941F20C65AA4319431143C16049
:101F40004169A26921F440711143416111498842FC
:101F500002D0FEF737FD01E0FEF73EFD19214843B0
:101F6000D4E900126FF063049200B0FBF2F0642237
:101F7000B0FBF2F303FB0400322404EB0010B0FBCF
:101F8000F2F000F0F00202EB031200F00F00104438
:101F90008860B0BD003801402DE9F0411D469046F3
:101FA0000F4604465E1C206801683940B9421CD0C7
:101FB000002EF8D035B1FEF7D1FBA0EB0800A84207
:101FC000F1D92068C16821F4D071C160416921F064
:101FD000010141612020002184F83D0084F83C107B
:101FE00084F83E000320BDE8F0810020BDE8F081C8
:101FF0000148FFF707B900BF9C230020FFF736BC5C
:10200000FFF7C6BCFFF768BDFFF7B0BDFFF7B4BD73
:10201000FEE7000010B5074C00F00F032344044A0C
:10202000B0F1FF3FC8BF83180801187010BD00BF92
:1020300000E400E014ED00E010B5044641F20400B5
:102040000022225420444FF0FF328262204601F0E9
:10205000DDFC08B1032010BD94F8FE0194F8FF11D7
:1020600040EA01204AF6552188421CBF022010BDDB
:1020700094F8371094F8382094F83600090241EAB1
:10208000024101440948814204BF002010BD94F878
:10209000532094F8543094F85210120242EA03424A
:1020A0001144081A18BF012010BD00BF464154005A
:1020B00010F8012B0AB18A42FAD11046704700008D
:1020C000F0B5754B00F5805000220024182A11D07D
:1020D0009D5865B10668B5420AD19D186E6887683B
:1020E000BE4205D12E89C788BE4201D10BE0012432
:1020F0000C32EBE71222002C18BF0022881E18BFFA
:102100001046C0B2F0BD09B11020FAE76889A0F509
:102110008070B0FA80F040090001F2E710B55E4A25
:1021200000210023182B08BF10BDD458844208BFDB
:10213000D1500C33F6E700BF10B54FF480528258EF
:1021400041F20203D45C1A44128900F58050B1FBBD
:10215000F2F1406AB1FBF4F10430026822B191421D
:1021600004D3891A0830F8E7002010BD40680844FD
:1021700010BD41F2140282580239023A914224BF42
:102180000020704741F202021044D0F82620007867
:1021900001FB002070472DE9F041054641F20500A2
:1021A00088462F1881B12846414601F035FA0228A9
:1021B0003CBF0120BDE8F081411C25D0D7F80F10AD
:1021C0004446884208D23AE0D7F807401CB1D7F815
:1021D0000F00844200D301242646D7F80F000136B1
:1021E000864228BF022601D3022C0AD32846314654
:1021F00001F012FA411C22D050B101281FD0A64292
:10220000EBD10020BDE8F0814FF0FF30BDE8F08158
:10221000284631466FF0704201F019FC0146B8F1D2
:10222000000F06D029B928464146324601F00FFC7E
:10223000014631B10120012908BF4FF0FF30BDE850
:10224000F081C7F80760D7F80B00411C06D00138B1
:10225000C7F80B00387840F0010038703046BDE810
:10226000F081000010B50138012884BF022010BDA4
:10227000094A00EB400102EB8100438923F480749A
:10228000002C18BF5C1E448120044FF0000008BFE2
:1022900042F8210010BD00BFC40000202DE9F84F16
:1022A0000021044600F078FA08B1BDE8F88F04F583
:1022B00080574FF0FF304FF0FF094FF6FF764FF099
:1022C0000D084FF0FF0BB8843868396901F09EFBA8
:1022D0000028EAD17D692878E52809D0002800F097
:1022E0008280EA7A02F03F0112070BD50F2909D04C
:1022F000BE844FF0FF092046002100F079F8002845
:10230000E2D0D2E70F290BD1D7F820A0BAF1000F05
:10231000F1D0410619D45FFA89F18842E9D11AE077
:102320005FEA096004D1284601F074FC834557D068
:10233000B869C17AC907DBD100210B2950D0425CB2
:102340006B5C01319342F8D0D2E7F98895F80DB073
:10235000B98400F0BF09687B8345CAD12878CDF8DD
:1023600000B000F0BF0000FB08F0A0F10D0B01264B
:102370004FF000081D4810F80800285A80B276B1C6
:1023800000F094FEBBF1FE0F1BD806463AF81B0086
:1023900000F08CFE864214D10BF1010B04E04FF6E5
:1023A000FF76B04219D1002608F10108B8F10D0FEF
:1023B000E0D14EB1287810F0400005D03AF81B006B
:1023C00010B14FF0FF0901E0A9F101094FF6FF76C6
:1023D000DDF800B04FF00D088DE74FF0FF09F7E78B
:1023E0000020BDE8F88F0420BDE8F88F0C3E0008FF
:1023F0002DE9F84F0E4641F20601415A4F1C3904AF
:1024000055D000F580552969002950D02C6841F23B
:102410000A00205A4009B7FBF0F202FB1070A8B97D
:1024200001312961E96841F20200204451B100788C
:102430000138104209D1204601F0EEF802280BD2F3
:10244000022635E0C088874231D2002004EB4010DC
:102450000026EF8068612BE0804601302FD02C6889
:1024600041F21400205880450FD220464146C5F85D
:102470000C80FFF77EFE286141F20A00205A4009D5
:10248000B7FBF0F101FB1070E0E786B1E968204688
:10249000FFF781FE8046013003280CD2204901EA73
:1024A000C000204921FA00F0C0B2BDE8F88F042630
:1024B0003046BDE8F88F286801F0F4FB08B101262A
:1024C000F6E7286841F20A01425A00214FF000095C
:1024D00001F096FA2C6841462046FFF74AFE41F289
:1024E0002C0A41F2020B012644F80A0014F80B20D2
:1024F00004EB0B0191450ED220468E7001F0D2FB09
:102500000028D5D12C6809F1010954F80A000130DE
:1025100044F80A00EAE7A0EB0900C1F82A00A4E7A2
:10252000F8FFFF00010702002DE9F04F89B00446D3
:102530004FF4815054F8008041F21800255804A847
:1025400029460C2201F054FA9DF81B1004F5805620
:10255000C807039403D188075DD4012465E00024F3
:10256000EC72029634628A4E4FF0010A4FF0030972
:102570000DF11C0B0191BAF1640F00F0F9802846AF
:1025800004A90B2201F034FABAF1060F5146404675
:1025900010D3028872B1102353B102F0010747EA49
:1025A0004107090448BF7740013B52083946F3E729
:1025B0000230EEE7072006231A460B4669F31F1385
:1025C000392B88BF07330F090BF80030531E013831
:1025D000B4EB111F3946EFD17E210BF8001000211A
:1025E0002AB16B5C202B03D0013A0131F8E7014698
:1025F00007289ABF1BF80020013020226A540131BD
:102600000829F5D30398FFF749FE002840F0AD8074
:102610000AF1010AAFE7002038F810100130002954
:10262000FAD118300D21B0FBF1F40398002100F02D
:10263000B3F80746B0B900253068316901F0E6F912
:1026400078B970690078E52800D018B90135A5423D
:1026500001D10DE0002503980121FFF7C9FE0028F4
:10266000EAD00746042F08BF0727002F40F08180DB
:10267000B046B4F1010957D0B8F806004446A0EBC3
:102680000901039800F088F80746002871D1A06975
:1026900001F0C0FADFF8FCB082464FF6FF76D8F8BA
:1026A0000000D8F81010444601F0B0F900286DD1B0
:1026B000606900220F21D4F820C04283A0F80B10DB
:1026C0005FFA89F30D214B430D3B471C002480F832
:1026D0000DA0B4421ABF3CF8134001334FF6FF740B
:1026E0001BF80250210A002C02F1010279554455D1
:1026F00008BF34460D2AECD1B44204D03CF8131084
:102700000029494601D149F040010170D8F8000084
:1027100041F204010122425403980021FFF768FEB0
:10272000A0BBB9F10109BAD1D8F80000D8F810104F
:1027300001F06CF90746E0B9D8F814000021202216
:10274000002701F05DF9D8E905010B2201F050F9ED
:10275000D8E905010122C97A01F018010173D8F8FE
:10276000000041F20401425403E0BAF1640F04D1C5
:102770000727384609B0BDE8F08F029E07460428B7
:10278000F7D10199E972C6F82080E4E60746F0E740
:10279000211001000C3E00082DE9F8430C4641F2DF
:1027A0000601445241F208014658012E48D000F576
:1027B0008058D8F8005041F21400285886423FD281
:1027C00005F58050CEB18178408941F21409400965
:1027D00000FB01F7BC421CD32846314600F01CFF29
:1027E000064601302FD0022E2AD3D8F8005055F8D3
:1027F0000900864224D2E41BECE70178032902D1C8
:10280000466A002EDFD10189A14219D9406A00260B
:1028100003E028463146FFF7ACFCC8F80C6078B1FD
:1028200041F20A01695A4909B4FBF1F202FB114174
:10283000104405EB4111C8E904010020BDE8F8830C
:102840000220BDE8F8830120BDE8F883214A115C2D
:1028500009B10020704701211154111802EB8000CA
:102860004068097A02680846104700BF10B5194C45
:10287000231804EB800040681B7AD0F810C018467B
:10288000BDE81040604700BFB0B5124D2C1805EBF5
:1028900080004068247AD0F808C02046BDE8B040E7
:1028A000604700BF0B4A111802EB80004068097AAC
:1028B00042680846104700BFB0B5064D2C1805EB1E
:1028C00080004068247AD0F80CC02046BDE8B040B3
:1028D000604700BFDC02002010B5044600F0A4FAF7
:1028E00048B9204601F00BFA28B904F58054A06AD3
:1028F000FFF7B8FC00B110BD0020206010BD2DE92D
:10290000FE4F15468B46029002A91046002200F0A9
:10291000DFFB08B1BDE8FE8FD5F8008008F58059CF
:10292000D9E90474A01E874218D999F800A0BAF119
:10293000010F15D1002702264046314600F06CFEFB
:1029400020B1411C43D0012801D13EE00137D9F824
:10295000140001368642EFD3002039E000203FE02A
:10296000CDF804B0D9F820B000270020002148B9E4
:102970004046594601F04AF820BBB9F80A000BF16D
:10298000010B4146BAF1020F07D10A784B780226B3
:1029900042EA03236FF001020CE08E78CD784B7889
:1029A00036040A7865F31B6646EA032313446FF086
:1029B00003020426002B08BF013710443144013CB8
:1029C000D5D10020DDF804B002E0022000E00120B3
:1029D000C9F8107099F8051041F0010189F8051047
:1029E000CBF80070BDE8FE8F2DE9FC471546804608
:1029F0004E1E00240DF106096F468246B44215DAD8
:102A00002846494601223B4600F04BF90098012830
:102A10000CD19DF806000D28F0D00AF8010B013406
:102A20000A28EBD100208AF8000005E000208AF88F
:102A30000000002C08BFA0464046BDE8FC8700000F
:102A4000FEB50546029068461446CDE9001100F037
:102A500060FE002819D40F4901EB80077E6836B16B
:102A60003046FFF75BFB4FF480500021315475B1C5
:102A70004FF480510020012C68547D6004D102A8DD
:102A800001A9002200F024FBFEBD0B20FEBD0020AA
:102A90007D60FEBDB80000202DE9F04FADF5825DF0
:102AA00081B00DF58254216070B306A901F58059FB
:102AB00000F5805A002002F01E051746CAF80000F3
:102AC0000DF5825148462A4600F002FB0646E0B961
:102AD0005E482168C9F8200003A8C9F8180006A8B4
:102AE00007F01F0B00F048FCD9F81480064698B98F
:102AF000B8F1000F0FD0002D18BF012506A82946F8
:102B0000FFF7DEFA064607E0092630460DF5825D3E
:102B100001B0BDE8F08F06261BF01C0F13D0FEB1EC
:102B2000042E25D14A48002101F10C02242A1ED08E
:102B3000415800291146F7D106A8FFF7F5FCD9F84E
:102B40001480064614E0002EDFD198F80B00C10671
:102B500079D45FEA8B713DD510F0010005D139E0E1
:102B600098F80B0010F0110F67D00726CDE712265A
:102B70004BF0080B66BB1BF0080029D000F0C7FD26
:102B80000024C8F80E00C8F81C4088F80B40D9F89B
:102B900000504146284600F019FE074641F2040065
:102BA0000121A8F81A40A8F81440295497B12C180C
:102BB000A06A39460290284600F0F4FF0646002835
:102BC000A3D1781E0299A060284600F01FFF064698
:102BD000002E9AD1CAF82080D9F8004041F22C008A
:102BE00020580021CAF81C000BF008004BEA8005B1
:102BF00006A80026012D88BF012100F0A9FDCAF812
:102C00002800F0B141F206002718204641468AF814
:102C100007608AF8065000F0D9FDCAF81000D8F80D
:102C20001C00CAE90260CAF81860CAF80040CAF875
:102C300024603888AAF8040067E7082000EA4706FD
:102C400098E7022661E704265FE700BFDC0000206A
:102C5000C4000020B0B594B00546002001AC03903C
:102C6000CDE90110297821B1204600F079FF013526
:102C7000F8E7029A002A10D4019804F10C016B467F
:102C800000F01DF901464FF0FF3041B90099DDE930
:102C900002238A4208BF184601E04FF0FF3014B00B
:102CA000B0BD2DE9F84F81460020186048469A468D
:102CB00015460E4601F023F818B909F58054E0795D
:102CC00008B1BDE8F88FA079C00704BF0720BDE8B0
:102CD000F88FD4E9021041F20A0B401AA84238BF1B
:102CE0000546002D00F09780276837F80B30B1FBC0
:102CF000F3F202FB1310002855D141F202003844D0
:102D00000078FF3000EA02085FEA086001D06169DC
:102D100013E029B1606A28B14846FFF70DFA05E0D3
:102D2000216904E06169384600F076FC014601291A
:102D300074D9481C74D0616127683846FFF719FAC6
:102D400000286BD041F201013944B1F809305FFA33
:102D500088F200EB02089D423AD2A26942451BD09C
:102D6000A07940060BD5087849460123FFF7A4FD5A
:102D7000002855D1A07900F0BF00A071276841F26A
:102D80000100385C494642460123FFF77DFD0028DB
:102D900046D1206830F80B30C4F81880A068B0FB2A
:102DA000F3F101FB13001F1A09EB0001AF4288BFCA
:102DB0002F4630463A4600F01BFEA068ED1BC119B5
:102DC000A160DAF800003E443844CAF8000088E701
:102DD000B5FBF3F708784978BB188B4288BF8F1A88
:102DE000314642463B46FFF74FFDC8B9A079400641
:102DF0000CD5A069A0EB0800B84207D2216831F8D1
:102E00000B20494600FB026000F0F2FD206830F81C
:102E10000B004743D1E70020BDE8F88F022000E017
:102E20000120E071BDE8F88F70B5054600F067FF3E
:102E30000446E8B905F58056B079810601D400242E
:102E400016E040060ED5306841F20101B269405CDF
:102E5000294601230124FFF72FFD48B9B07900F07E
:102E6000BF00B0713068F16900F0D0FD044608B1D0
:102E7000204670BD346AE07A40F02000E072F068CD
:102E80002077F068000A6077F089A077F07BE07720
:102E90003169204600F0B8FE00F039FCC4F8160095
:102EA00000206082306841F2040101224254B1796D
:102EB00001F0DF01B171BDE8704000F0B9BE2DE94D
:102EC000F84F8046002018604046994615468A46CD
:102ED00000F015FF18B908F58056F07908B1BDE883
:102EE000F88FB07980075CBF0720BDE8F88FB16824
:102EF00041F20A0BC843A84238BF0025002D00F05C
:102F0000AA80326832F80B30B1FBF3F000FB1314E7
:102F1000002C5DD141F2020313441B78FF3303EA16
:102F2000000738061AD129B1706A40B14046FFF750
:102F300003F908E0306930B91046002101E07169F9
:102F40001046FFF728F9411C7ED001287ED00028CA
:102F500000F080807061316901B93061B07940065C
:102F60000ED5306841F20101B269405C414601234F
:102F7000FFF7A2FC002867D1B07900F0BF00B07164
:102F8000346871692046FFF7F4F800285ED041F2FA
:102F900001012144B1F80930FAB287189D4230D2BC
:102FA000B069B8420ED0D6E9020290420AD208783F
:102FB00041463A460123FFF767FC002844D13068B8
:102FC00030F80B30B761B068B0FBF3F101FB1304CC
:102FD00008EB04001C1BAC4288BF2C46514622461D
:102FE00000F006FDB07940F04000B071B0682D1BD4
:102FF0000119B160D9F80000A2442044C9F80000CA
:103000007CE7B5FBF3F408784978A3188B4288BFB6
:103010008C1A51463A462346FFF74EFCA0B9B069D8
:10302000C01BA0420BD2316831F80B2000FB02A17B
:10303000404600F0DDFCB07900F0BF00B0713068B0
:1030400030F80B004443D1E7012000E00220F0718A
:10305000BDE8F88FB168F068814288BFF160B0794F
:1030600040F02000B0710020BDE8F88F802800D229
:10307000704741B1FF2810D80B4901EB40006FF0B9
:10308000FF01405A7047084A0021802905D032F8D4
:103090001130834203D00131F7E70020704701F17E
:1030A0008000C0B2704700BF1A3E0008064A0021E7
:1030B000EF2908D032F81130834201D00131F7E70F
:1030C000024830F81100704756410008763F00086A
:1030D0002DE9F04F85B007460020386008461546B8
:1030E00000F017FB002819D4DFF88082064608EBB1
:1030F0008000446824B304F580593C6099F80000CE
:1031000070B199F80100FFF7CDFBC10708D1400766
:103110000A21002D18BF01EAE07581E00B257FE050
:10312000002089F8016089F80000F0B2FFF78EFBFB
:10313000C10707D145B110F0040005D00A256FE0A2
:103140000C256DE003256BE099F8010009F10A06F2
:1031500002213246FFF78AFB002860D13088A0F5B3
:103160000070B0F5606F5AD8204600210025FEF7A8
:1031700063FF01281ED10DF1040A002051464028AA
:103180000AD0221892F8C2311030002B14BFD2F8A6
:10319000C621002204C1F2E700275AF827502DB1BA
:1031A00020462946FEF748FF08B906E0022001370D
:1031B000042FF2D1032832D078BB207BE17A378804
:1031C00041EA0020B84228D1A17DE27D41EA022AED
:1031D000BAF1000F08BFD4F824A0C9F818A0267CC3
:1031E000721E012A89F8036017D8627B531EB2FA57
:1031F00082F113404FEA511189F8022018BF0123D0
:1032000019430AD1B4F811307909B3FBF1F7A9F8E1
:10321000083007FB1131090406D00D2500E0012517
:10322000284605B0BDE8F08F94F814C0E17C41EA6F
:103230000C2CBCF1000F08BFD4F820C094F80EE0AD
:10324000E17B4EEA012EBEF1000FE6D00AFB06FB41
:103250000BEB0E010F44BC45DFD3ACEB07069642E7
:10326000DBD3B6FBF2F27919C9F8281040F6F571F4
:1032700005EB0E0702F1020C01268A424FF6F571AA
:10328000C9E90757C9F814C088BF02268A424FF619
:10329000F67188BF03268A4207D3002BBDD1E16AAD
:1032A0004FEA8C03C9F824100FE0002BB5D007EBD0
:1032B0000B01C9F82410022E0FBF4FEA4C030CEB90
:1032C0004C010CF0010303EB5103C1180139B1FBB0
:1032D000F0F08245A1D34FF0FF30C9E90300802010
:1032E00089F805004FF6F670824231D394F8300029
:1032F00094F8311040EA0120012829D1691C2046A8
:1033000000F084FB20BB002089F8050094F8FE0142
:1033100094F8FF1140EA01204AF65521884217D15E
:10332000A178E2786078090441EA026141EA00206C
:10333000217808440E4988420AD1D4F8E4010D49A5
:10334000884205D1D4F8E801D4F8EC11C9E903109A
:10335000B8F800000130A8F8000089F80060A9F86A
:1033600006002046FEF7DAFE002559E7B8000020E7
:1033700052526141727241612DE9F04F85B00546AC
:1033800008780E4605F580595C2801D02F2800D119
:1033900001360024C9F808403078202806D2284693
:1033A0000021FFF7F9F9C9F8144009E103953078D5
:1033B0005C2801D02F2801D10136F8E7D9F820B0D8
:1033C00006F1010800245F46002504961BE0FF2D4E
:1033D00000F0F580C0B20121FFF748FE002800F0A0
:1033E000EE8006467F2806D87DA03146FEF760FEB7
:1033F000002840F0E4802BF81560691C18F80500DF
:103400000237013C0D462028C0F0D6804FF0000A5C
:103410002F2818BF5C28DAD104982844411C002CBE
:1034200000F0CD8037F8020C2E2818BF202802D1DA
:10343000023F0134F3E74FF00008A7F80080D9F805
:103440001800049120210B2200F0DAFA60423BF8C8
:1034500018102E2918BF202902D108F10108F6E71B
:10346000ABF10201CDF80890B8F1000F18BF4AF097
:10347000030A814628B131F81920A9F101002E2A4A
:10348000F7D1A9F101040825002700223BF8180014
:10349000414608F10108202803D02E2804D18C428F
:1034A00017D04AF0030AF1E7002848D0AA4241D2D7
:1034B0008C423FD0802801921BD300210026FFF7C9
:1034C000D5FD18B14949084410F8806C4AF0020A49
:1034D00010E00121C8464AF003000B2D30D000292E
:1034E00008BF8246C8452AD8BF000B250822C84617
:1034F000CCE7064626B13EA03146FEF7D9FD40B1E5
:103500004AF0030A5F260298019A806986540132C4
:10351000BCE7A6F1410080B2192802D847F00207A3
:10352000F1E7A6F1610080B219289CBF203E47F068
:103530000107E8E7601AB0FA80F04109CBE750468E
:10354000DDF80890049ED9F8181040F002030A78BC
:10355000E52A04BF05220A70082D08BFBF0007F046
:103560000301032908BF184607F00C020C2A08BF04
:103570001846039D830707D4012908BF40F01000B7
:10358000042A08BF40F00800D9F81810C87228466D
:10359000FEF784FED9F81810C97AA0B948071AD4E2
:1035A000D9F81410C87AC00617D5D9F8000000F071
:1035B0000DF9C9F80800FAE64FF0040A2CE70620D6
:1035C00005B0BDE8F08F0428FAD148074FF0040099
:1035D00058BF0520F4E70020F2E70520F0E700BF20
:1035E000222A3A3C3E3F7C7F000000008C3D0008D0
:1035F0002B2C3B3D5B5D00001CB504468DF807009D
:1036000004480DF1070101220123FDF77EFF20464A
:103610001CBD00BF9C2300202DE9F041022939D3B5
:1036200000F58056044670690D46884232D93078DC
:10363000032832D002284ED001282BD1708905EB07
:103640005507B7FBF0F0316A0144204600F0DEF97F
:1036500000284AD17089B7FBF0F101FB10710137E6
:1036600014F80180B7FBF0F0316A0144204600F005
:10367000CDF9D0BB7089EA07B7FBF0F101FB107000
:10368000205C48EA002108466FF31F3018BF080984
:10369000BDE8F0810120BDE8F0817089316A8008C1
:1036A000B5FBF0F00144204600F0B0F9E8B97089AC
:1036B000A900B1FBF0F14843C0EB850021188B78DD
:1036C0004A78C9781B0461F31B63205C43EA02213A
:1036D0000844BDE8F0817089316A4008B5FBF0F01C
:1036E0000144204600F092F918B14FF0FF30BDE8D8
:1036F000F08170896900B1FBF0F14843C0EB4500EF
:10370000215C2044407841EA0020BDE8F08100209F
:10371000704710B50268BAB10023D15C013320298B
:1037200001D33A29F9D13A290CD11178A1F1300409
:10373000092C09D84FF0FF31022B08BF002C05D10E
:10374000D1180160002101E04FF0FF31084610BDA3
:10375000F0B54FF4805284581B4A00F58053151D74
:10376000002002280ED055F8046CA64207D19E68AE
:103770002F68B74203D1DE88AF88B74212D00C352C
:103780000130EEE700201546022813D02E6816B14E
:103790000C350130F8E72C6000246C819C686C606B
:1037A000DB882B8100EB400302EB830232F80A3FF7
:1037B00011B11BB10020F0BD591C01E04FF4807124
:1037C00001301180F0BD00BFC40000204FF48052D2
:1037D000825C887ECB7E032A40EA032005D10A7DE5
:1037E000497D090641EA024108447047FCF7C4FFDD
:1037F000FEF7EEFAFDF7F6FEFDF74AFFFDF7E6FEEF
:10380000FDF724FF4448DFF81491C847454F44486A
:1038100039460022FFF714F94449434A002808BFFB
:1038200011460846C847424C424920461322FFF73A
:1038300033F94249404A002808BF11460846C847A4
:10384000DFF8FCA038460AF104025146FFF757F8AA
:103850003FA13CA2002808BF11460846C847DAE944
:10386000000641F2020B16F80B707843FCF710FDCE
:103870003B4B00229846FCF799FCFCF716FD0546E9
:10388000CAF80C0006EB0B00D0F81200023878439F
:10389000FCF7FEFC00224346FCF788FCFCF705FD24
:1038A000CAF8080033A02FA1002D08BF0846C8475A
:1038B00033A02146FFF7CEF938A02146FFF7CAF919
:1038C0002046FFF709F83DA139A2002808BF11469C
:1038D0000846C847174920460122FFF7DDF83EA1F8
:1038E0003AA2002808BF11460846C8470AF1100549
:1038F000284664212246FFF777F80028F8D10C48C3
:10390000FEF7EAFF3949384A002808BF1146084641
:1039100000F01EFAFEE700BF1A3F0008513D000804
:1039200014130020743F00083B3F00085F3F00086D
:10393000E80200206C3F0008323F0008533F0008B7
:103940003800002067657466726565206F6B0D0036
:1039500067657466726565206572726F720D00002E
:103960000000E03F667265653C31206572726F72DF
:103970000D000000667265653E31206F6B0D000022
:1039800068656C6C6F20776F726C6420616E642068
:103990006675636B20796F750D0A00007768617436
:1039A0002061206675636B20776F726C640D0A006E
:1039B000636C6F7365206F6B0D000000636C6F7339
:1039C00065206572726F720D000000006F70656E89
:1039D00032206F6B0D0000006F70656E32206572D3
:1039E000726F720D00000000273F0008453F00087D
:1039F0002AB111F8013B013A00F8013BF8E77047A2
:103A00001AB100F8011B013AFAE7704770B5054694
:103A100041F22C002858884204BF002070BD28467F
:103A20000C4600F03FF900B170BD41F201002E18C4
:103A30003078294622460123FEF726FF002818BFCA
:103A40004FF0FF34C6F82B4018BF012070BD2DE9A0
:103A5000F84302292AD300F58057044678690E46B8
:103A6000884223D938781546032822D0022840D02E
:103A700001281BD1788906EB5609B9FBF0F0396AA9
:103A800001442046FFF7C2FF002867D1788916F06D
:103A90000108B9FBF0F109F1010601FB10903BD0E0
:103AA000215C01F00F0165F30B1136E00220BDE847
:103AB000F8837889396A8008B6FBF0F00144204623
:103AC000FFF7A4FF002849D17889B100B1FBF0F1DC
:103AD0004843C0EB860025542044290C8170290AF4
:103AE0004170C17801F0F00145EA0161090EC17031
:103AF00031E07889396A4008B6FBF0F0014420468D
:103B0000FFF784FF50BB78897100B1FBF0F14843A7
:103B1000C0EB460025521EE0E9B221540120387165
:103B20007889396AB6FBF0F001442046FFF76EFF52
:103B3000A0B97889B8F1000FB6FBF0F101FB106075
:103B400002D0C5F3071105E0215CC5F3032201F0A3
:103B5000F00111442154012038710020BDE8F883A0
:103B6000BCB50D4604460A2903D120460D21FFF7B6
:103B7000F7FF6068002814D421180D73451C3C28F9
:103B80000BDB214651F80C0B01AB2A46FFF797F9E6
:103B90000198451B18BF4FF0FF356560A0680130E4
:103BA000A060BCBDF8B5022928D3044641F2050047
:103BB0002718D7F80F000D4688421FD985421FD21B
:103BC00020462946FFF728FD064601301AD0BEB12F
:103BD000012E13D0204629460022FFF738FF90B966
:103BE000D7F80B00013005D0C7F80B00387840F04B
:103BF00001003870D7F80F003546DFE70220F8BD26
:103C00000020F8BD0120F8BD41830A0E090C427561
:103C10000175704710B500210022D2B2435C5408F0
:103C200044EAC21201311A440B29F6D1D0B210BDB8
:103C300070B5044600F036F800B170BD04F580554B
:103C40002878032820D1687901281DD16A89204667
:103C500000210026FFF7D4FE4AF65520A4F8FE0105
:103C60000E480123C4F8E4010D482060D5E90301A2
:103C7000C4F8E811C4F8EC01E8692146421CEA6284
:103C80006878FEF719FE6E71687800210022FEF751
:103C9000EDFD002818BF012070BD00BF72724161A8
:103CA00052526141F8B5044641F20400205C18B359
:103CB00041F201002718D7F82B50387821462A46C0
:103CC00001230126FEF7F8FDB8B90026FE70D7F8EB
:103CD0001F10D7F81700691A81420ED2BE78022E43
:103CE0000AD3D7F817002146054438782A4601231D
:103CF000FEF7E2FD013EF2E700263046F8BD80B552
:103D0000A0B100F58050016881B101F580510A78B9
:103D100062B18088CA88824208D14878FEF7C2FD25
:103D200000F00100404200F0090080BD092080BD84
:103D300002E008C8121F08C1002AFAD17047704774
:103D4000002001E001C1121F002AFBD170470000D2
:103D500010B5044601E0FFF74FFC14F8010B0449CD
:103D60000028F8D1BDE810400A20FFF745BC00004C
:103D70000000002000000000000000000102030419
:103D8000060708090000000001020304809A90B6AB
:103D90008EB78F80D2D3D4D8D7DE8E8F909292E216
:103DA00099E3EAEB59999A9D9C9D9E9FB5D6E0E9CF
:103DB000A5A5A6A7A8A9AAABAC21AEAFB0B1B2B3D6
:103DC000B4B5B6B7B8B9BABBBCBDBEBFC0C1C2C33B
:103DD000C4C5C7C7C8C9CACBCCCDCECFD0D1D2D32A
:103DE000D4D5D6D7D8D9DADBDCDDDEDFE0E1E2E31B
:103DF000E5E5E6E7E7E9EAEBEDEDEEEFF0F1F2F30A
:103E0000F4F5F6F7F8F9FAFBFCFDFEFF01030507F0
:103E1000090E10121416181C1E00C700FC00E90041
:103E2000E200E400E000E500E700EA00EB00E80063
:103E3000EF00EE00EC00C400C500C900E600C600BB
:103E4000F400F600F200FB00F900FF00D600DC00F1
:103E5000F800A300D800D7009201E100ED00F300C4
:103E6000FA00F100D100AA00BA00BF00AE00AC0019
:103E7000BD00BC00A100AB00BB009125922593259D
:103E800002252425C100C200C000A90063255125D8
:103E900057255D25A200A5001025142534252C25C5
:103EA0001C2500253C25E300C3005A25542569251F
:103EB0006625602550256C25A400F000D000CA00BE
:103EC000CB00C8003101CD00CE00CF0018250C2555
:103ED00088258425A600CC008025D300DF00D400EF
:103EE000D200F500D500B500FE00DE00DA00DB00F0
:103EF000D900FD00DD00AF00B400AD00B100172017
:103F0000BE00B600A700F700B800B000A800B700D8
:103F1000B900B300B200A025A00031313131312009
:103F200031313131310D00636C6F736532206F6B4D
:103F30000D006F70656E206F6B0D006D6F756E7488
:103F4000206F6B0D00636C6F736532206572726F4A
:103F5000720D006F70656E206572726F720D006D6C
:103F60006F756E74206572726F720D006675636B8B
:103F70002E74787400004100420043004400450064
:103F800046004700480049004A004B004C004D00E5
:103F90004E004F0050005100520053005400550095
:103FA00056005700580059005A002100E0FFE1FF79
:103FB000E5FFE2FFE3FFC000C100C200C300C40090
:103FC000C500C600C700C800C900CA00CB00CC00AD
:103FD000CD00CE00CF00D000D100D200D300D4005D
:103FE000D500D600D800D900DA00DB00DC00DD0007
:103FF000DE007801000102010401060108010A0146
:104000000C010E01100112011401160118011A0110
:104010001C011E01200122012401260128012A0180
:104020002C012E01300132013401360139013B01EE
:104030003D013F0141014301450147014A014C0156
:104040004E01500152015401560158015A015C01C0
:104050005E01600162016401660168016A016C0130
:104060006E01700172017401760179017B017D019D
:10407000910191039203930394039503960397038D
:10408000980399039A039B039C039D039E039F033C
:10409000A003A103A303A403A503A603A703A803E6
:1040A000A903AA0310041104120413041404150430
:1040B00016041704180419041A041B041C041D0414
:1040C0001E041F04200421042204230424042504C4
:1040D00026042704280429042A042B042C042D0474
:1040E0002E042F040104020403040404050406043E
:1040F0000704080409040A040B040C040E040F044A
:10410000602161216221632164216521662167218B
:10411000682169216A216B216C216D216E216F213B
:1041200021FF22FF23FF24FF25FF26FF27FF28FF73
:1041300029FF2AFF2BFF2CFF2DFF2EFF2FFF30FF23
:1041400031FF32FF33FF34FF35FF36FF37FF38FFD3
:1041500039FF3AFF000061006200630064006500FF
:1041600066006700680069006A006B006C006D0003
:104170006E006F00700071007200730074007500B3
:1041800076007700780079007A00A100A200A300F1
:10419000A500AC00AF00E000E100E200E300E400B5
:1041A000E500E600E700E800E900EA00EB00EC00CB
:1041B000ED00EE00EF00F000F100F200F300F4007B
:1041C000F500F600F800F900FA00FB00FC00FD0025
:1041D000FE00FF00010103010501070109010B01B8
:1041E0000D010F01110113011501170119011B0127
:1041F0001D011F01210123012501270129012B0197
:104200002D012F0131013301350137013A013C0104
:104210003E01400142014401460148014B014D016C
:104220004F01510153015501570159015B015D01D6
:104230005F01610163016501670169016B016D0146
:104240006F0171017301750177017A017C017E01B3
:104250009201B103B203B303B403B503B603B703CA
:10426000B803B903BA03BB03BC03BD03BE03BF035A
:10427000C003C103C303C403C503C603C703C80304
:10428000C903CA033004310432043304340435044E
:1042900036043704380439043A043B043C043D0432
:1042A0003E043F04400441044204430444044504E2
:1042B00046044704480449044A044B044C044D0492
:1042C0004E044F045104520453045404550456043C
:1042D0005704580459045A045B045C045E045F04E8
:1042E000702171217221732174217521762177212A
:1042F000782179217A217B217C217D217E217F21DA
:1043000041FF42FF43FF44FF45FF46FF47FF48FF91
:1043100049FF4AFF4BFF4CFF4DFF4EFF4FFF50FF41
:1043200051FF52FF53FF54FF55FF56FF57FF58FFF1
:1043300059FF5AFF00000000584300080000002009
:1043400038000000303D000890430008380000208D
:10435000B0270000403D0008000000000100000000
:1043600010000000010000000024F400FD1F000800
:1043700009200008052000080D2000080120000881
:10438000494E4954204552524F520D0A0000000038
:0400000508000131BD
:00000001FF
