:020000040800F2
:1000000000040020470100081D0400081F04000828
:1000100023040008270400082B0400080000000047
:100020000000000000000000000000002F04000895
:100030003104000800000000330400083504000803
:1000400067010008670100086701000867010008F0
:1000500067010008670100086701000867010008E0
:1000600067010008670100086701000867010008D0
:1000700067010008670100086701000867010008C0
:1000800067010008670100086701000867010008B0
:1000900067010008670100086701000867010008A0
:1000A0006701000867010008670100086701000890
:1000B0006701000867010008670100086701000880
:1000C0006701000867010008670100086701000870
:1000D0006701000867010008670100086701000860
:1000E0006701000867010008670100086701000850
:1000F0006701000867010008670100086701000840
:10010000670100083D040008670100086701000856
:10011000670100086701000867010008670100081F
:10012000670100086701000867010008670100080F
:10013000DFF80CD005F0ACFD0048004707030008CD
:10014000880B0020704708488047084981F30888D9
:1001500007480047FEE7FEE7FEE7FEE7FEE7FEE7AB
:10016000FEE7FEE7FEE7FEE745010008880B0020FA
:10017000310100082DE9F0479AB000240025342110
:10018000684605F068FD7C49002003F0BAF969462D
:100190000DA803F0D0FD002878D195E09DF8580017
:1001A00000F020000028F8D09DF8590000B992E036
:1001B0000DF1590271A17A4804F0D8F979A10DF135
:1001C000590005F053FD804678A10DF1590005F066
:1001D0004DFD814677A10DF1590005F047FD82469E
:1001E00076A10DF1590005F041FD0646B8F1000F6A
:1001F00007D1B9F1000F04D1BAF1000F01D1002EDF
:1002000062D001220DF159016E4803F08DF90746C5
:1002100001206D4908606D48C06820F040006B49BE
:10022000C8606BA15E4804F0A1F900BF664B4FF4B3
:1002300000726B49634803F03DFA0746CFB90024CA
:100240004FF47A7004F0FBF810E080215F4804F06E
:1002500048FC58B1002507E06149085D04F071FAD7
:10026000601C84B2681CC5B2202DF5DBB4F5007F9C
:10027000EBDB1FB9544800680028D7D100BF00BF8E
:1002800058A1474804F072F9002410E024E08021CE
:100290004E4804F026FC50B1002506E0002004F092
:1002A00050FA601C84B2681CC5B2202DF6DBB4F590
:1002B000006FECDB00244548C06840F04000434933
:1002C000C860404803F04CFC14A90DA803F067FD7A
:1002D00000283FF463AF00BF1AB0BDE8F08708B54F
:1002E0004FF4C06005F006F931208DF800000020C1
:1002F0008DF801008DF8020001208DF8030068469A
:1003000005F0FDF808BD05F075FC04F06BF804F08D
:10031000B3F8FFF7E4FF38A1214804F027F904F00F
:10032000ADF9002002F05EF904F08AFAFFF722FF2F
:1003300000BFFEE710B52A2400F05EFB04462A2C1D
:1003400003D1354800F089FB04462A2C06D13249F6
:10035000B1F84C10080400F0A9FE04462A2C03D181
:10036000002000F03CFE04462A2C03D1002000F0BF
:100370007EFE0446204610BDA4000020200D0A2069
:10038000746865206D757369632066696C65206E9D
:10039000616D652069733A202573200D0A00000005
:1003A000003801402E6D7033000000002E6D69642E
:1003B000000000002E776176000000002E776D614E
:1003C00000000000D80200200400002000100140BE
:1003D000200D0A20BFAACABCB2A5B7C5200D0A00CD
:1003E00020070020200D0A20B2A5B7C5BDE1CAF83C
:1003F000200D0A0A0A0A0A00200D0A20D5E2CAC7FF
:10040000D2BBB8F64D5033B2E2CAD4C0FDB3CC2053
:10041000210D0A200000000054000020704700BF9A
:10042000FEE700BFFEE700BFFEE700BFFEE7704744
:100430007047704710B504F00CF810BD10B501F00E
:100440009EFF10BD70B52A25FE48446B01E0FD48B3
:10045000446B04F045000028F9D004F0040028B1F2
:100460000325042005F02BF8284670BD04F0010098
:1004700028B10125012005F022F82846F5E740F2D1
:10048000FF5005F01CF82846EFE72DE9F04106463D
:100490000F464FF02A08EB48456B01E0E948456BF1
:1004A00005F045000028F9D005F0040038B14FF000
:1004B0000308042005F003F84046BDE8F08105F08C
:1004C000010030B14FF00108012004F0F8FF404670
:1004D000F3E704F093FFB04203D04FF0100840461A
:1004E000EBE740F2FF5004F0EAFF002004F08AFF3F
:1004F000044604F4604018B9200C38804046DCE71C
:1005000004F4005008B11320D7E704F4804008B188
:100510001020D2E704F4004008B10F20CDE7404698
:10052000CBE738B52A240120009004F038FF10B939
:100530002524204638BDC4480068042829D000205E
:10054000C249086002204860C02088600020C8605E
:100550004FF480600861084604F036FFFFF772FF31
:1005600004462A2C01D02046E4E7002004F04AFF8C
:10057000B7490860042004F045FFB54948600820E9
:1005800004F040FFB24988600C2004F03BFFB04902
:10059000C860AD48006858B1AB480068012807D072
:1005A000A9480068062803D0A7480068022817D188
:1005B0000020A64908600320486040208860002091
:1005C000C8604FF480600861084604F0FDFE69468B
:1005D0000320FFF75AFF04462A2C01D02046A9E742
:1005E0009948006804282FD0BDF800009949086098
:1005F000BDF8000000049549086009204860C0204B
:1006000088600020C8604FF480600861084604F0EC
:10061000DBFEFFF717FF04462A2C01D0204689E7AE
:10062000002004F0EFFE8C490860042004F0EAFE8C
:1006300089494860082004F0E5FE874988600C205D
:1006400004F0E0FE8449C8602A24204672E770B5B1
:100650002A257C48446B01E07A48446B04F045004D
:100660000028F9D004F0040028B10325042004F088
:1006700026FF284670BD40F2FF5004F020FF2846B8
:10068000F8E72DE9F04106462A276E48456B01E060
:100690006C48456B05F045000028F9D005F00400D2
:1006A00030B10327042004F00AFF3846BDE8F0818A
:1006B00005F0010028B10127012004F000FF3846B1
:1006C000F4E704F09BFEB04202D010273846EDE775
:1006D00040F2FF5004F0F3FE002004F093FE0446C5
:1006E0005E48204008B93846E0E704F0004008B111
:1006F0001C20DBE704F0804008B10920D6E704F0B5
:10070000005008B10A20D1E704F0805008B10B2056
:10071000CCE704F0006008B10C20C7E704F080606B
:1007200008B10D20C2E704F0807008B10E20BDE7CB
:1007300004F4000008B10F20B8E704F4800008B109
:100740001020B3E704F4001008B11120AEE704F460
:10075000801008B11220A9E704F4002008B113208A
:10076000A4E704F4802008B114209FE704F40030CB
:1007700008B115209AE704F4803008B1162095E7F7
:1007800004F4004008B1172090E704F4804008B159
:1007900018208BE704F4005008B1192086E704F014
:1007A000080008B11A2081E738467FE770B52A268D
:1007B00042F210752348446B02E06D1E2148446BE1
:1007C00004F0450008B9002DF7D115B104F004007C
:1007D00028B10326042004F072FE304670BD04F0F8
:1007E000400028B12A26402004F069FE3046F5E793
:1007F0003046F3E770B52A2542F2107400E0641E1B
:1008000024B1802004F051FE0028F8D014B903254B
:10081000284670BD40F2FF5004F051FE2846F8E72C
:100820002DE9F0412A240026002500274FF000087A
:10083000B2200B490870002048608860C8600861D9
:1008400048610FE0008001400C00002058090020A2
:1008500030090020100000202009002008E0FFFDE2
:1008600040090020084604F06FFD032004F08CFDD1
:10087000012004F086FD0020FE4908604860886081
:10088000C8604FF480600861084604F09DFDFFF7E2
:10089000B1FF04462A2C02D02046BDE8F0814FF477
:1008A000D570F44908600820486040208860002026
:1008B000C8604FF480600861084604F085FDFFF7CA
:1008C00075FF04462A2C05D10120EB4908604FF042
:1008D000804812E00020E749086037204860402047
:1008E00088600020C8604FF480600861084604F00A
:1008F0006BFD3720FFF7C5FE04460020DD49086088
:1009000037204860402088600020C8604FF4806035
:100910000861084604F058FD3720FFF7B2FE044690
:100920002A2C4CD138E00020D2490860372048609A
:10093000402088600020C8604FF48060086108464D
:1009400004F042FD3720FFF79CFE04462A2C01D01C
:100950002046A2E7C94848EA0000C64908602920A5
:100960004860402088600020C8604FF480600861C3
:10097000084604F029FDFFF76AFE04462A2C01D040
:1009800020468AE7002004F03DFD0646012080EA6B
:10099000D67080F001076D1C1FB94FF6FF708542BD
:1009A000C1D34FF6FF70854202D31B24204674E763
:1009B00006F08040061E02D00220AF4908602046A3
:1009C0006BE708B50121302004F094FA4FF4F85099
:1009D000ADF8000003208DF8020018208DF8030008
:1009E0006946A74803F0EAFF0420ADF80000694615
:1009F000A44803F0E3FF08BD10B52A24FFF7E1FF88
:100A00000121880204F069FA0121022004F065FA4C
:100A100004F08CFCFFF704FF04462A2C01D020468A
:100A200010BDFFF77EFD04462A2C01D02046F7E7D3
:100A3000012095490870002048608860C8600861FE
:100A40004861084604F080FC2046E9E710B52A24F6
:100A5000002004F099FC204610BD30B501462A2044
:100A60000022854B1B7881F84E30884B1B88A1F8FB
:100A70004C30874B1B681A0E93090B70C2F383032B
:100A80004B7002F003038B70814B1B68C3F307426A
:100A9000CA707F4B1B88C3F307220A717C4B1A78FC
:100AA0004A715B681A0E1301CB80794B5B68C3F304
:100AB0000742CB8843EA1213CB8002F00F030B727C
:100AC000734B9B88C3F30722D3094B72C2F3801385
:100AD0008B72C2F34013CB72C2F300130B7300236B
:100AE0004B73654B1B681BB1634B1B68012B3CD1DF
:100AF00093071B0D0B61664B1A790B6943EA82035E
:100B00000B61634B9B681A0E0B6943EA92130B61EE
:100B1000C2F3C2030B7502F007034B755C4B9B6875
:100B2000C3F3074253098B75C2F38203CB75930756
:100B30005B0F0B76564B1B89C3F307220B7E43EAF0
:100B4000D2130B760B695B1C4B640C7E4B6CA41CA4
:100B50000125A5406B434B640C7A0123A3408B64B1
:100B6000D1E9113463434B6421E0434B1B68022BF2
:100B70001DD1474B1A7993069B0A0B61444B9B6826
:100B80001A0E0B6943EA02230B61414B9B68C3F3C6
:100B900007420B6913430B613D4B1B89C3F30722CB
:100BA0000B695B1CDB044B644FF400738B64C2F372
:100BB000801301F8193F93065B0E4B70344B1A7A81
:100BC0004B7843EAD2134B7002F07F038B70304BAB
:100BD000DB681A0ED309CB70C2F341130B71C2F359
:100BE00082034B7193071B0F8B71294BDB68C3F397
:100BF00007428B7943EA92138B71C2F34013CB7196
:100C000000230B7202F001034B72214B9B89C3F34B
:100C10000722D3098B72C2F38013CB72C2F3401345
:100C20000B73C2F300134B73C2F381038B7302F097
:100C30000303CB73164B1A7B53080B7401234B74BD
:100C4000144B1B681A0ECA741939124B1B68C3F374
:100C500007421402CC850F4B1B88C3F30722CB8DB0
:100C60001343CB850B4B1A7814060C635B681A0E82
:100C70000B6B11E0580900200C00002000001080D0
:100C80000010014000140140400900201000002025
:100C9000200900203009002043EA02440C63F94B8C
:100CA0005B68C3F307420B6B43EA02240C63F54B0A
:100CB0009B88C3F307220B6B13430B63F14B1A7929
:100CC00034235A54EF4B9B681A0E35235A54ED4B7C
:100CD0009B68C3F3074214068C63EA4B1B89C3F37A
:100CE00007228B6B43EA02448C63E64B1A7A8B6BC8
:100CF00043EA02248C63E34BDB681A0E8B6B1343CD
:100D00008B63E04BDB68C3F307423C235B5C43EA45
:100D100012143C235C5413071C0DCC87D94B9B89C0
:100D2000C3F30722CB8F1343CB87D64B1A7B5408D0
:100D300040235C54012441235C5430BD2DE9FC4127
:100D400007460D4600262A24002000900190082026
:100D5000CD49086010204860402088600020C860AD
:100D60004FF480600861084604F02EFB1020FFF766
:100D700088FC04462A2C02D02046BDE8FC81C348EA
:100D800000880004C049086037204860402088601F
:100D90000020C8604FF480600861084604F014FB2E
:100DA0003720FFF76EFC04462A2C01D02046E4E7EA
:100DB000B748B849086008204860302088600220A1
:100DC000C8600020086101204861084604F01FFB4C
:100DD0000020AD4908603320486040208860002032
:100DE000C8604FF480600861084604F0EDFA3320D3
:100DF000FFF747FC04462A2C01D02046BDE709E056
:100E00004FF4001004F051FB20B104F022FB4DF828
:100E10002600761CA048406B40F22A61084000285A
:100E2000EED0082004F041FB28B1082004F047FB75
:100E300004242046A1E7022004F037FB28B1022059
:100E400004F03DFB0224204697E7202004F02DFB10
:100E500028B1202004F033FB062420468DE74FF410
:100E6000007004F022FB30B14FF4007004F027FB57
:100E70000724204681E740F2FF5004F020FB009851
:100E80000006009901F47F4140EA0120009901F435
:100E90007F0140EA1120009940EA116068600198E2
:100EA0000006019901F47F4140EA0120019901F413
:100EB0007F0140EA1120019940EA11602860204634
:100EC0005BE77CB505462A2400200090019004F0E1
:100ED00099FA00F0007010B10E2420467CBD6B49D9
:100EE000098888B26946FFF729FF04462A2C01D0F9
:100EF0002046F3E7012D38D1019800F48020002826
:100F000030D06248008800045F490860372048609C
:100F1000402088600020C860A8020861084604F0EC
:100F200053FA3720FFF7ADFB04462A2C01D02046A8
:100F3000D4E70220544908600620486040208860B9
:100F40000020C8604FF480600861084604F03CFA55
:100F50000620FFF796FB04462A2C01D02046BDE769
:100F60002046BBE725242046B8E7019800F48030EE
:100F700078B3464800880004434908603720486039
:100F8000402088600020C8604FF4806008610846F7
:100F900004F01AFA3720FFF774FB04462A2C01D01C
:100FA00020469BE700203849086006204860402022
:100FB00088600020C8604FF480600861084604F033
:100FC00003FA0620FFF75DFB04462A2C02D02046D8
:100FD00084E701E0204681E7252420467EE770B5BE
:100FE00004462A252D480068032802D127252846D3
:100FF00070BD2A48006838B128480068012803D02D
:1010000026480068022830D1B4F5805F02D1272538
:101010002846EDE7B4F5006F15D10120FFF751FF29
:1010200005462A2D21D101201D4908700020486065
:101030008860C8604FF4006008610020486108467D
:1010400004F082F911E00020FFF73BFF05462A2D4E
:101050000BD1012012490870002048608860C860E8
:1010600008614861084604F06FF92846C0E7014668
:101070002A2019B1012901D0022915D1094A11608C
:1010800013E0000030090020580900201000002063
:10109000FFFF0F006C090020008001400C000020C1
:1010A00040090020140000202620704770B5044637
:1010B0002A25FE4804600720FC49486040208860DB
:1010C0000020C8604FF480600861084604F07CF995
:1010D0000720FFF7D6FA0546284670BD30B58BB01D
:1010E00005460C46F24804F063FB0021F14804F089
:1010F00033FBF1480090019500200290A008039076
:1011000000200490802005908000069080000790C9
:10111000002008904FF40050099000200A90694682
:10112000E44804F0EEFA0121E24804F015FB0BB0AC
:1011300030BD0146002002E04910421CD0B2012916
:10114000FAD170472DE9F04707460D4614464FF097
:101150002A084FF000092E464FF0000A25B94FF03B
:1011600026084046BDE8F0872A20D44908700020B0
:10117000D3490860D3490860D348D44908600020A7
:1011800048608860C86008614861084604F03FF91B
:10119000002004F016F9002004F034F900F000708B
:1011A00018B14FF00E084046DCE7C9480068022835
:1011B00001D104027F0A002C21DDB4F5006F1EDC92
:1011C000601E2040D8B92046FFF7B3FF8246B748DB
:1011D00004601020B5494860402088600020C86045
:1011E0004FF480600861084604F0EEF81020FFF725
:1011F00048FA8046B8F12A0F05D04046B2E74FF0D2
:1012000026084046AEE7B048B0490860084644604A
:101210004FEA0A1088600220C8600020086101209F
:101220004861084604F0F3F8A64804600020A94984
:101230000860A94805609D48076011209B494860E7
:10124000402088600020C8604FF480600861084634
:1012500004F0BAF81120FFF714FA8046B8F12A0F0B
:1012600001D040467EE79D480068022858D111E031
:101270004FF4004004F019F960B14FF0000905E0A7
:1012800004F0E7F846F8290009F10109B9F1080F5F
:10129000F6D3203688488038406B40F22A610840F7
:1012A0000028E5D0082004F000F930B1082004F04F
:1012B00006F94FF00408404654E7022004F0F5F820
:1012C00030B1022004F0FBF84FF00208404649E735
:1012D000202004F0EAF830B1202004F0F0F84FF0BC
:1012E000060840463EE74FF4007004F0DEF838B1DF
:1012F0004FF4007004F0E3F84FF00708404631E780
:1013000003E004F0A6F83060361D4FF4001004F03E
:10131000CCF80028F5D140F2FF5004F0D0F82CE0D2
:101320006E480068012813D1012148F22A3004F0E8
:101330003BF800BF6248006818B9604800782A2866
:10134000F8D05E4800782A2817D05C48007809E772
:101350006248006888B9012140F22A3004F024F87C
:10136000012004F02EF821462846FFF7B7FE00BF03
:101370005B4804F009FA0028FAD04046F2E62DE96D
:10138000F05F81460E4614461D464FF02A084FF086
:10139000000A37464FF0000B26B94FF026084046AA
:1013A000BDE8F09F2A2045490870002044490860A4
:1013B0004449086044484549086000204860886006
:1013C000C86008614861084604F021F8002003F075
:1013D000F8FF002004F016F800F0007018B14FF08C
:1013E0000E084046DCE73A480068022802D10402B1
:1013F0004FEA5929002C21DDB4F5006F1EDC601E78
:101400002040D8B92046FFF794FE83462748046061
:10141000102026494860402088600020C8604FF4B2
:1014200080600861084603F0CFFF1020FFF729F91C
:101430008046B8F12A0F05D04046B1E74FF02608A4
:101440004046ADE7012D7DD905FB04F0B0F1007FEA
:1014500003D34FF026084046A2E705FB04F01949E4
:10146000086001201B4908601B48066016481749A0
:10147000086005FB04F048604FEA0B10886002200A
:10148000C8600020086101204861084603F0BFFFE2
:101490000648C0F800901220044948604020886047
:1014A0000020C8604FF4806008611BE058090020EC
:1014B00000F0001044040240808001402800002019
:1014C0002C00002018000020FFFF0F006C090020F6
:1014D0000C0000201C00002024000020140000202C
:1014E00000200010084603F06FFF1220FFF7C9F834
:1014F0008046B8F12A0F01D0404651E7FE48006807
:1015000002287CD111E04FF4004003F0CEFF60B11F
:101510004FF0000A05E003F09CFF47F82A000AF1AB
:10152000010ABAF1080FF6D32037F448406B40F2B5
:101530002A3108400028E6D0082003F0B6FF40B169
:10154000082000E09EE003F0BAFF4FF00408404698
:1015500026E7022003F0A9FF30B1022003F0AFFF1D
:101560004FF0020840461BE7202003F09EFF30B1F9
:10157000202003F0A4FF4FF00608404610E74FF488
:10158000007003F092FF38B14FF4007003F097FF42
:101590004FF00708404603E703E003F05AFF3860C6
:1015A0003F1D4FF4001003F080FF0028F5D14FF4E9
:1015B000807003F07AFF18B3D148006838B1D04882
:1015C0000068022803D0CE480068012818D1002006
:1015D000CC4908600C204860402088600020C8602A
:1015E0004FF480600861084603F0EEFE0C20FFF720
:1015F00048F88046B8F12A0F02D04046D0E604E011
:1016000040F2FF5003F05BFF3CE0BB48006801285C
:1016100013D1012148F22A3003F0C6FE00BFBA48B8
:10162000006818B9B94800782A28F8D0B748007877
:101630002A2827D0B5480078B2E6AF48006808BB32
:10164000012140F22A3003F0AFFE012003F0B9FE81
:1016500005FB04F13046FFF741FD00BFAC4804F044
:1016600093F80028FAD000BFA748006818B9A74827
:1016700000782A28F8D0A54800782A2802D0A34864
:1016800000788DE640468BE67CB504462A2500208E
:10169000019000909F48008800049A4908600D203E
:1016A0004860402088600020C8604FF48060086176
:1016B000084603F089FE9148406B009002E08F4895
:1016C000406B0090009800F045000028F7D000988B
:1016D00000F0040028B10325042003F0F0FE2846A2
:1016E0007CBD009800F0010028B10125012003F025
:1016F000E6FE2846F4E703F081FE009000980D28EE
:1017000002D010252846EBE740F2FF5003F0D7FE49
:10171000002003F077FE01900198C0F34320207071
:101720007D490198084008B92846D9E7019800F09A
:10173000004008B11C20D3E7019800F0804008B1B8
:101740000920CDE7019800F0005008B10A20C7E752
:10175000019800F0805008B10B20C1E7019800F01B
:10176000006008B10C20BBE7019800F0806008B170
:101770000D20B5E7019800F0807008B10E20AFE7AA
:10178000019800F4000008B10F20A9E7019800F4C7
:10179000800008B11020A3E7019800F4001008B100
:1017A00011209DE7019800F4801008B1122097E7FE
:1017B000019800F4002008B1132091E7019800F48B
:1017C000802008B114208BE7019800F4003008B1A4
:1017D000152085E7019800F4803008B116207FE7D6
:1017E000019800F4004008B1172079E7019800F44F
:1017F000804008B1182073E7019800F4005008B148
:1018000019206DE7019800F0080008B11A2067E779
:10181000284665E730B58BB005460C463F4803F0D7
:10182000C7FF00213E4803F097FF34488030009006
:10183000019510200290A0080390002004908020C1
:1018400005908000069080000790002008904FF4DB
:101850000050099000200A906946314803F051FF7A
:1018600001212F4803F078FF0BB030BD2DE9FF5F59
:1018700082460F4614462A25002003900290834694
:101880000026019080460090B94627B926252846B3
:1018900004B0BDE8F09F2A201C49087000201A49B6
:1018A00008602049086020482049086000204860FE
:1018B0008860C86008614861084603F0A8FD002000
:1018C00003F07FFD002003F09DFD00F0007010B1DB
:1018D0000E252846DCE70A480068022802D10402E7
:1018E0004FEA5A2A002C3EDDB4F5006F3BDC601E47
:1018F0002040B8BB20461BE01400002000800140BF
:101900000C000020580900202C0000202800002096
:10191000002000101000002008E0FFFD00F0001083
:101920004404024018000020FFFF0F006C09002053
:10193000FFF7FFFB0390FE4804601020FC4948605D
:10194000402088600020C8604FF48060086108462D
:1019500003F03AFD1020FEF794FE05462A2D05D02F
:10196000284695E7FFE72625284691E7F1480088B5
:101970000004EF4908600D20486040208860002086
:10198000C8604FF480600861084603F01DFD0D201B
:10199000FEF777FE05462A2D01D0284678E700207D
:1019A00003F030FD0190DFF890B31EE0ABF1010BC6
:1019B000E04800880004DE4908600D2048604020AF
:1019C00088600020C8604FF480600861084603F01A
:1019D000FBFC0D20FEF755FE05462A2D01D02846BA
:1019E00056E7002003F00EFD0190019800F480708E
:1019F00010B9BBF1000FD9D1BBF1000F01D12920E3
:101A000046E7CB48C0F800A01820C94948604020EC
:101A100088600020C8604FF480600861084603F0C9
:101A2000D3FC1820FEF72DFE05462A2D01D02846AE
:101A30002EE7C24804600020C1490860C148076021
:101A4000BD48C149086008464460039800018860A9
:101A50000020C860086101204861084603F0D7FCF7
:101A6000BA48006802286BD139E04FF4804003F097
:101A70001CFDA0B3B1480068801B202820D2AF48CD
:101A80000078801B00F0030020B9AC480068801B80
:101A9000800804E0A9480068801B8008401C009072
:101AA0004FF0000808E0D9F8000003F0D6FC08F178
:101AB000010809F10409361D009880450FD2F2E7AC
:101AC0004FF0000805E059F8280003F0C6FC08F1C3
:101AD0000108B8F1080FF6D309F1200920369C4817
:101AE000406B40F21A6108400028BED0082003F085
:101AF000DCFC28B1082003F0E2FC04252846C7E6F8
:101B0000022003F0D2FC28B1022003F0D8FC022509
:101B10002846BDE6102003F0C8FC28B1102003F0D1
:101B2000CEFC05252846B3E64FF4007003F0BDFC5B
:101B3000F0B34FF4007003F0C2FC07252846A7E677
:101B400082480068012813D1012144F21A3003F0C1
:101B50002BFC00BF7F48006818B97F4800782A280E
:101B6000F8D07D4800782A2828D07B4800788FE676
:101B700076480068E0B9012140F21A3003F014FC05
:101B800021463846FFF746FE012003F01AFC00BF4D
:101B9000724803F0F9FD0028FAD000BF6D480068D4
:101BA00018B96D4800782A28F8D06B48007800E012
:101BB00004E02A2802D06848007869E640F2FF5025
:101BC00003F07DFC02A8FFF75FFD054603E002A8D5
:101BD000FFF75AFD05462A2D07D19DF80800072872
:101BE000F5D09DF808000628F1D0284650E62DE9EA
:101BF000FE4F8346884614461E462A250020029042
:101C00000190002781460090C246B8F1000F03D131
:101C100026252846BDE8FE8F2A204F49087000205F
:101C20004C4908604549086043484749086000201E
:101C300048608860C86008614861084603F0E7FBB7
:101C4000002003F0BEFB002003F0DCFB00F000707E
:101C500010B10E252846DDE741480068022802D170
:101C600004024FEA5B2B002C20DDB4F5006F1DDC75
:101C7000601E2040D0B92046FFF75BFA02902C4846
:101C8000046010202A494860402088600020C86015
:101C90004FF480600861084603F096FB1020FEF7C1
:101CA000F0FC05462A2D04D02846B3E72625284611
:101CB000B0E72048008800041D4908600D204860F6
:101CC000402088600020C8604FF4806008610846AA
:101CD00003F07AFB0D20FEF7D4FC05462A2D01D037
:101CE000284697E7012E76D906FB04F0B0F1007F75
:101CF00002D3262528468DE71948006838B11848D0
:101D00000068012803D01648006802284BD1094812
:101D10000088000406490860372048604020886039
:101D20000020C8604FF48060086108461AE0000097
:101D30005809002010000020FFFF0F0018000020AD
:101D40001C000020200000206C090020140000204E
:101D5000008001402C0000202800002000200010FE
:101D60000C00002003F030FB3720FEF78AFC05460C
:101D70002A2D01D028464DE7F74806601720F6497E
:101D80004860402088600020C8604FF4806008618F
:101D9000084603F019FB1720FEF773FC05462A2DB1
:101DA00001D0284636E7EC48C0F800B01920EA49CF
:101DB0004860402088600020C8604FF4806008615F
:101DC000084603F001FB1920FEF75BFC05462A2DAF
:101DD00002D028461EE7F1E006FB04F0DF49086068
:101DE0000120DF490860DF48C0F80080DE48DF4995
:101DF000086006FB04F0486002980001886000203B
:101E0000C860086101204861084603F000FBD8481B
:101E1000006802287ED139E04FF4804003F045FB92
:101E2000A0B3CE480068C01B20280FD34FF0000994
:101E300005E05AF8290003F010FB09F10109B9F196
:101E4000080FF6D30AF1200A20371FE0C3480078B4
:101E5000C01B00F0030020B9C0480068C01B800808
:101E600004E0BE480068C01B8008401C00904FF092
:101E7000000908E0DAF8000003F0EFFA09F10109BF
:101E80000AF1040A3F1D00988145F3D3B948406B1D
:101E900040F21A3108400028BED0082003F005FBAC
:101EA00028B1082003F00BFB04252846B2E60220E7
:101EB00003F0FBFA28B1022003F001FB02252846BB
:101EC000A8E6102003F0F1FA28B1102003F0F7FA89
:101ED000052528469EE64FF4007003F0E6FA30B17F
:101EE0004FF4007003F0EBFA0725284692E64FF412
:101EF000807003F0DAFA002860D09F48006838B19B
:101F00009D480068012803D09B480068022855D1ED
:101F1000002000E015E0904908600C204860402057
:101F200088600020C8604FF480600861084603F0B4
:101F30004BFA0C20FEF7A5FB05462A2D3ED028467D
:101F400068E68B480068012813D1012144F21A3059
:101F500003F02AFA00BF8948006818B98848007859
:101F60002A28F8D0864800782A2827D08448007884
:101F700050E67F48006808BB012140F21A3003F0A8
:101F800013FA012003F01DFA06FB04F14046FFF7A7
:101F900041FC00BF7B4803F0F7FB0028FAD000BFEC
:101FA0007648006818B9764800782A28F8D074482E
:101FB00000782A2802D0724800782BE640F2FF50C1
:101FC00003F07DFA01A8FFF75FFB054603E001A8D7
:101FD000FFF75AFB05462A2D07D19DF80400072874
:101FE000F5D09DF804000628F1D0284612E6614895
:101FF000406B00F4405008B1012070470020FCE71E
:1020000010B52A240020544908600C204860402064
:1020100088600020C8604FF480600861084603F0C3
:10202000D3F90C20FEF72DFB0446204610BD2DE908
:10203000FC4105460E462A2400270020019000900E
:1020400051484068202101EA105018B92524204643
:10205000BDE8FC8147484068C0B2801C4B49B1FBD9
:10206000F0F00190002003F0CDF900F0007010B105
:102070000E242046ECE740480068022801D16D0A92
:10208000760A3D48006838B13B480068012803D013
:102090003948006802282DD12F48056020202E499C
:1020A0004860402088600020C8604FF4806008616C
:1020B000084603F089F92020FEF7E3FA04462A2CAB
:1020C00001D02046C4E72448066021202249486008
:1020D000402088600020C8604FF480600861084696
:1020E00003F072F92120FEF7CCFA04462A2C01D025
:1020F0002046ADE7002018490860262048604020AF
:1021000088600020C8604FF480600861084603F0D2
:102110005BF92620FEF7B5FA04462A2C01D02046AA
:1021200096E7002700E07F1C01988742FBD36846B2
:10213000FFF7AAFA044603E06846FFF7A5FA04464B
:102140002A2C07D19DF800000728F5D09DF8000043
:102150000628F1D020467BE758090020180000200F
:102160001C00002020000020FFFF0F006C09002051
:1021700014000020008001400C0000202C000020F2
:102180002800002000200010200900204019010034
:1021900070B504462A2514B92625284670BDFE4888
:1021A00000880004FD4908600D20486040208860D8
:1021B0000020C8604FF480600861084603F004F90D
:1021C0000D20FEF75EFA05462A2D01D02846E5E7E8
:1021D000002003F017F920602846DFE770B50446B9
:1021E0002A260025002003F00DF900F0007010B140
:1021F0000E26304670BD4020E84908601020486037
:10220000402088600020C8604FF480600861084664
:1022100003F0DAF81020FEF734FA06462A2E01D031
:102220003046E7E7DC4800880004DC4908603720D6
:102230004860402088600020C8604FF480600861DA
:10224000084603F0C1F83720FEF71BFA06462A2E8F
:1022500001D03046CEE7D248D249086040204860DD
:10226000602088600220C860002008610120486169
:10227000084603F0CCF80020C84908600D204860EB
:10228000402088600020C8604FF4806008610846E4
:1022900003F09AF80D20FEF7F4F906462A2E01D035
:1022A0003046A7E70EE04FF4004003F0FEF848B1D7
:1022B000002504E003F0CDF844F825006D1C082D3E
:1022C000F8D32034B848406B40F22A610840002817
:1022D000E9D0082003F0E9F828B1082003F0EFF86E
:1022E0000426304686E7022003F0DFF828B10220FA
:1022F00003F0E5F8022630467CE7202003F0D5F80D
:1023000028B1202003F0DBF80626304672E74FF4B0
:10231000007003F0CAF830B14FF4007003F0CFF84A
:102320000726304666E703E003F093F82060241D9B
:102330004FF4001003F0B9F80028F5D140F2FF5037
:1023400003F0BDF8403C002515E014F82500000618
:1023500034F8251001F47F4140EA012054F825109B
:1023600001F47F0140EA112054F8251040EA116081
:1023700044F825006D1C102DE7D330463AE770B5C0
:102380000024002589480068012867D1C00303F0B4
:1023900099F8A8B100BF06E003F05BF8844909682A
:1023A00041F82400641C082CF6D3814800682030D2
:1023B0007F4908607F48006820307E4908604DE012
:1023C0004FF4804003F07EF8002847D07A48006838
:1023D00078490968401A20282BD277480078754937
:1023E0000968401A00F0030030B973480068714969
:1023F0000968401A800806E06F4800686D4909685E
:10240000401A8008401C054600240FE06B4909680B
:10241000086803F022F8641C68480068001D6749DA
:10242000086064480068001D62490860AC42EDD352
:1024300014E0002406E06149096851F8240003F023
:102440000CF8641C082CF6D35C48006820305B490B
:102450000860584800682030564908604FF4807082
:1024600003F030F8D8B351480068D0B10EE002F064
:10247000F0FF4F49096808604D480068001D4C494D
:1024800008604C480068001D4A4908604FF400107D
:1024900003F00BF828B147480068474909688842AB
:1024A000E5D347480068012804D1FFF7A9FD454955
:1024B000087002E02A20434908704FF4807003F04E
:1024C0000BF800214CF23A3002F06EFF01203E4939
:1024D00008600020374908603A48007870BDFFE77F
:1024E000022002F0EFFF70B1022002F0F5FF0021A0
:1024F0004CF23A3002F058FF00202E4908600220CA
:1025000030490870EAE7082002F0DCFF70B10820CB
:1025100002F0E2FF00214CF23A3002F045FF0020C9
:1025200024490860042027490870D7E7202002F0DA
:10253000C9FF70B1202002F0CFFF00214CF23A30E9
:1025400002F032FF00201B49086006201D49087078
:10255000C4E7102002F0B6FF70B1102002F0BCFFFB
:1025600000214CF23A3002F01FFF002011490860B0
:10257000052014490870B1E74FF4007002F0A2FF83
:1025800050B34FF4007002F0A7FF00214CF23A3034
:1025900002F00AFF002019E0100000205809002076
:1025A000FFFF0F006C090020008001401400002094
:1025B000240000203000002018000020200000200F
:1025C0001C000020280000202C0000200349086087
:1025D00007200349087081E72A207FE730000020A8
:1025E0002800002070B5054625B1012D0BD0022D25
:1025F0000DD10AE0FDF79EFE04462A2C01D10020F1
:1026000070BD0120FCE70120FAE70120F8E7012076
:10261000F6E7014621B1012904D0022906D103E0E1
:10262000002070470020FCE70020FAE700BF00BF51
:102630000120F6E72DE9F04107460E4614461D46F7
:10264000012D08D11B49B1F848108AB26002314609
:10265000FEF778FD08E01749B1F848108AB2600229
:102660002B463146FEF78BFE0020BDE8F0812DE9B8
:10267000F04107460E4614461D46012D08D10D496E
:10268000B1F848108AB260023146FFF7EFF808E06F
:102690000849B1F848108AB260022B463146FFF76C
:1026A000A6FA0020BDE8F081034600207047002014
:1026B000704700005400002070B503460C4603E04C
:1026C00014F8015B03F8015B151EA2F10102F7D1BA
:1026D00070BD30B5034601E003F8011B141EA2F1E2
:1026E0000102F9D130BDF0B503461C460D4600206D
:1026F00000BF161EA2F1010207D014F8017B15F8E5
:1027000001CBA7EB0C06301EF3D0F0BD024600E073
:10271000521C107810B110788842F9D110787047A7
:102720002DE9F04104460D46E66AAE422FD02079ED
:1027300008B360780123324604F13001FFF797FFB8
:1027400010B10120BDE8F08100202071A169206A4C
:102750000844B0420FD9E7780AE0A06906446078DF
:102760000123324604F13001FFF781FF781EC7B222
:10277000012FF2DC00BF55B1607801232A4604F135
:102780003001FFF757FF08B10120DBE7E5620020C9
:10279000D8E770B5044600212046FFF7C1FF054683
:1027A000002D59D1207803284FD1A07A00284CD091
:1027B0000020E0624FF40072002104F13000FFF7C6
:1027C00088FF552184F82E12AA2184F82F12522056
:1027D00084F8300052213120015561213220015509
:1027E000412133200155722184F8141284F8151206
:1027F000412184F81612612184F81712217C84F893
:102800001812208A010A84F819122069010C84F830
:102810001A122069010E84F81B12217B84F81C1205
:10282000A089010A84F81D12E068010C84F81E12C8
:10283000E068010E84F81F126078012304F1300172
:102840006269FFF714FF0020A07260780022114631
:10285000FFF72AFF00B10125284670BD2DE9F041A0
:1028600005460C46022C02D3E869A04202D801209A
:10287000BDE8F0812F6A2878012804D002282AD0E8
:10288000032870D140E0264606EB560607EB56219A
:102890002846FFF745FF00B165E0C6F3080105F1E2
:1028A000300010F80180761C07EB56212846FFF710
:1028B00037FF00B157E0C6F3080105F13000405C76
:1028C00048EA002804F0010010B14FEA1810CFE7E1
:1028D000C8F30B00CCE707EB14212846FFF720FFD5
:1028E00000B140E040F2FF1000EA440105F1300081
:1028F000415C40F2FF1000EA440205F13000104450
:10290000407841EA0020B3E707EBD4112846FFF7EF
:1029100007FF00B127E040F2FF1000EA840105F153
:1029200030000844C078010640F2FF1000EA84023B
:1029300005F130001044807841EA004140F2FF1078
:1029400000EA840205F130001044407841EA00209A
:1029500040F2FF1101EA840205F13001895C08436D
:1029600020F0704084E700BF4FF0FF3080E72DE992
:10297000F04705460C461646022C02D3E869A042F1
:1029800001D8022793E0D5F820A02878012804D0A8
:10299000022841D003287DD157E0A04608EB580813
:1029A0000AEB58212846FFF7BBFE074607B17BE03C
:1029B000C8F3080105F1300001EB000904F0010043
:1029C00028B1F1B299F8000061F31F1000E0304621
:1029D00089F8000008F10108012028710AEB58214C
:1029E0002846FFF79DFE074607B15DE0C8F30801E2
:1029F00005F1300001EB000904F0010010B1C6F34D
:102A0000071006E099F8000000F0F000C6F303217B
:102A1000084389F8000047E00AEB14212846FFF735
:102A20007FFE074607B13FE040F2FF1000EA440294
:102A300005F130008654310A40F2FF1000EA4402EA
:102A400005F13000104441702EE00AEBD411284605
:102A5000FFF766FE074607B126E040F2FF1000EAE6
:102A6000840205F130008654310A40F2FF1000EA7A
:102A7000840205F1300010444170310C40F2FF1027
:102A800000EA840205F1300010448170310E40F2FA
:102A9000FF1000E006E000EA840205F13000104477
:102AA000C17001E0022700BF00BF01202871384635
:102AB000BDE8F0872DE9F04104460E46022E02D310
:102AC000E069B04201D8022725E000271FE0314627
:102AD0002046FFF7C3FE054605B91BE0012D01D1D5
:102AE000022717E0681C08B9012713E000223146CD
:102AF0002046FFF73CFF074607B10BE02069401C6A
:102B000020B12069401C20610120A0722E46E0699E
:102B1000B042DCD800BF3846BDE8F0812DE9F0476F
:102B200005468846D5F81C90B8F1000F05D1EE682F
:102B30000EB14E4510D301260EE041462846FFF760
:102B40008DFE0746022F02D20120BDE8F0874F45D7
:102B500001D23846F9E74646344600BF641C4C456E
:102B600004D30224B44201D90020EEE721462846CE
:102B7000FFF774FE074607B909E0781C08B1012F7A
:102B800001D13846E1E7B442E8D10020DDE700BFDB
:102B90006FF0704221462846FFF7E9FE10B14FF072
:102BA000FF30D2E7B8F1000F08D022464146284650
:102BB000FFF7DDFE10B14FF0FF30C6E7EC6028698B
:102BC000401C20B12869401E28610120A8722046BF
:102BD000BBE70246891ED069801E884201D80020CA
:102BE00070479378906A01FB0300F9E72DE9F04103
:102BF00004460E46E680A568012D03D02068C06912
:102C0000A84202D80220BDE8F0812DB920680078E2
:102C1000032801D12068456A65B9E560206800890C
:102C2000B04201DC0220EEE72068406A00EB16109B
:102C3000206120E020688078070112E029462068A2
:102C4000FFF70CFE0546681C08B90120DBE7022DE2
:102C500003D32068C069A84201D80220D3E7F01B43
:102C600086B2BE42EADAE56029462068FFF7B1FF86
:102C700000EB161020612068303006F00F0100EBE9
:102C8000411060610020BEE72DE9F041044688460E
:102C9000E088401C86B20EB1206910B90420BDE85E
:102CA000F08106F00F0000286FD12069401C2061E0
:102CB000E06828B920680089B04266DC0420EEE7AD
:102CC00020688078401E00EA161000285DD1E16877
:102CD0002068FFF7C3FD0546012D01D80220DEE77D
:102CE000681C08B90120DAE72068C069A84246D804
:102CF000B8F1000F01D10420D1E7E1682068FFF7A7
:102D00000DFF05460DB90720C9E7012D01D10220AD
:102D1000C5E7681C08B90120C1E700212068FFF75A
:102D2000FFFC08B10120BAE7216801F130004FF43F
:102D300000720021FFF7CDFC29462068FFF749FF0C
:102D40002168C862002710E0012021680871002175
:102D50002068FFF7E5FC08B10120A0E72068C06A01
:102D6000401C2168C862781CC7B220688078B842CD
:102D7000EADC2068C06AC01B2168C86200BFE56049
:102D800029462068FFF725FF2061E6802068303063
:102D900006F00F0100EB4110606100207FE72DE994
:102DA000F041044600212046FFF720FF054615B1FB
:102DB0002846BDE8F08100BF21692068FFF7B0FC1C
:102DC000054605B116E0666937780FB9042511E0AC
:102DD000F07A00F0080030B90B223046A169FFF705
:102DE00082FC00B906E000212046FFF74DFF0546B2
:102DF000002DE1D000BF2846DBE72DE9F041044675
:102E000004251BE021692068FFF78AFC054605B10F
:102E100017E067693E780EB9042512E0E52E06D06A
:102E20002E2E04D0F87A00F0080000B909E0002145
:102E30002046FFF729FF054605B102E0206900287A
:102E4000E0D100BF0DB1002020612846BDE8F0812F
:102E50002DE9F041044600212046FFF7C7FE054654
:102E6000ADB900BF21692068FFF75AFC054605B1DE
:102E70000CE060690678E52E00D006B906E0012175
:102E80002046FFF701FF0546002DEBD000BFC5B976
:102E900021692068FFF744FC054695B9676920223F
:102EA00000213846FFF715FC0B223846A169FFF7D1
:102EB00003FCA069C07A00F0180038730120216873
:102EC00008712846BDE8F08170B50446E1882046C7
:102ED000FFF78CFE05465DB921692068FFF720FCED
:102EE00005462DB9E5206169087001202168087147
:102EF000284670BD2DE9F35F009886690B222021DA
:102F00003046FFF7E6FB00200546804682464FF03C
:102F100008090198D0F800B000BF50460AF1010A34
:102F20001BF80040202C03DB2F2C01D05C2C00D19F
:102F300056E02E2C01D0C8450EDBB9F1080F01D1A7
:102F40002E2C02D00620BDE8FC9F4FF008084FF061
:102F50000B09A806050EE0E7802C01DB45F0030510
:102F6000812C01DB9F2C03DDE02C1DDBFC2C1BDC0A
:102F700050460AF1010A1BF80070402F01DB7E2F3A
:102F800003DD802F05DBFC2F03DCA9F101004045A8
:102F900001DC0620D7E7404608F1010834544046DA
:102FA00008F1010837541AE02146FEA0FFF7AEFBF6
:102FB00008B10620C7E7412C04DB5A2C02DC45F09F
:102FC000020508E0612C06DB7A2C04DC45F00105E3
:102FD000A4F12000C4B2404608F1010834549CE733
:102FE00000BF0BEB0A0101980160202C01DA0420DC
:102FF00000E000200446B8F1000F01D10620A2E74E
:103000003078E52801D105203070B9F1080F01D1E1
:10301000A806050E05F00300012801D144F01004B4
:1030200005F00C00042801D144F00804F4720020DB
:1030300089E7F0B505460C4604F109032F69002F16
:1030400052D06869067B002213E0815C202900D100
:1030500011E0052900D1E52106F0080737B1412923
:1030600004DB5A2902DC01F12007F9B203F8011B45
:10307000521C082AE9DB00BF077A202F18D02E2720
:1030800003F8017B082210E0815C202900D10EE0CA
:1030900006F0100737B1412904DB5A2902DC01F19F
:1030A0002007F9B203F8011B521C0B2AECDB00BF0E
:1030B000C77A2772C77F4FEA076C877F4CEA074CB5
:1030C000477F4CEA072790F81CC047EA0C072760A7
:1030D00090F818C0477E4CEA0727A78090F816C0E2
:1030E000C77D4CEA0727E78000271F70F0BD2DE958
:1030F000F3410446019800782F2803D00198007806
:103100005C2802D10198401C01900020A060019829
:103110000078202807D200212046FFF767FD0646E9
:10312000002060612BE000BF01A92046FFF7E2FE0E
:10313000064606B122E02046FFF731FE0646A069AA
:10314000C07A00F0040726B1042E01D107B9052684
:1031500014E007B112E06569E87A00F0100008B9E0
:1031600005260BE0A97EE87E41EA00212A7D687DE4
:1031700042EA002041EA0040A060D5E700BF3046A7
:10318000BDE8FC8170B504460D46607801232A46EF
:1031900004F13001FFF74EFA08B1032070BD94F836
:1031A0002E1294F82F0241EA00204AF65521884257
:1031B00001D00220F2E703227D4904F16600FFF707
:1031C00092FA08B90020E9E70322794904F1820064
:1031D000FFF789FA30B994F8580000F0800008B978
:1031E0000020DBE70120D9E72DE9F74F84B00498F0
:1031F000D0F800B09BF80000A0F13009B9F1090F38
:1032000009D89BF801003A2805D10BF1020B04986C
:10321000C0F800B001E04FF00009B9F1000F03D091
:103220000B2007B0BDE8F08F624850F829400598A0
:1032300004600CB90C20F4E7207878B16078FFF7CF
:10324000E8F9804608F0010040B9069820B108F07E
:10325000040008B10A20E4E70020E2E70020207023
:1032600084F801906078FFF7BDF9804608F001000E
:1032700008B10320D5E7069820B108F0040008B192
:103280000A20CEE74FF0000A51462046FFF77AFFAA
:103290000546012D13D104F5F777387978B1F87A1E
:1032A0000106B87A41EA0041787A41EA0020397A89
:1032B00040EA010A51462046FFF764FF0546032D08
:1032C00001D10120ADE745B93B20015D94F83C00F8
:1032D00041EA0020B0F5007F01D00D20A1E7462093
:1032E000015D94F8470041EA002676B994F857004A
:1032F000010694F8560041EA004194F8550041EA6D
:10330000002094F8541040EA0106A6614020005DB8
:10331000E070E07846433E20015D94F83F0041EACA
:103320000020504420623D20005DA0704120015DDE
:1033300094F8420041EA002020814320015D94F886
:10334000440041EA00200290029870B994F85300BA
:10335000010694F8520041EA004194F8510041EA14
:10336000002094F85010084302903E20015D94F82C
:103370003F0041EA00210298401A801B2189A0EBFE
:103380001110A178B0FBF1F0801C0190E0610125E3
:1033900040F6F7710198884200D302254FF6F77185
:1033A000019809E020222A2B2C5B3D5D7C7F0000E8
:1033B000D25C000834000020884200D30325032D8E
:1033C0000FD194F85F00010694F85E0041EA0041D5
:1033D00094F85D0041EA002094F85C1008436062B4
:1033E00002E0206A30446062206A3044218900EBA8
:1033F0001110A0624FF0FF30206100202071032DDA
:103400005CD1A07294F8601094F8610041EA002049
:10341000504460616078012304F130016269FFF774
:1034200009F9E8BB94F82E1294F82F0241EA002023
:103430004AF65521884241D13320005D01063220F1
:10344000005D41EA00413120005D41EA002094F82E
:1034500030100843F949884230D194F81702010628
:1034600094F8160241EA004194F8150241EA00205E
:1034700094F814120843F24988421FD194F81F02AD
:10348000010694F81E0241EA004194F81D0241EA47
:10349000002094F81C120843E06094F81B0200E03E
:1034A0000CE0010694F81A0241EA004194F819026E
:1034B00041EA002094F8181208432061257000208A
:1034C000E062E0480088401C80B2DE490880E0806D
:1034D000002003900398A4E670B504460D4624B17D
:1034E000207810B1E088A84201D0092070BD607832
:1034F000FFF78FF800F0010008B10320F6E7002085
:10350000F4E70246012A01DB0B207047CE4850F851
:1035100022300BB10020187009B100200870CA4891
:1035200040F822100020F0E72DE9F7438AB0054665
:1035300016460020286006F01F0606F01E0203A9AA
:103540000BA8FFF751FE07461FB138460DB0BDE886
:10355000F083CDF824D003A80B99FFF7C8FD0746E8
:1035600006F01C00002868D067B1042F03D103A81F
:10357000FFF76EFC07460FB13846E7E746F008064E
:10358000089C41E006F0040008B10820DEE7089C32
:103590001CB1E07A00F0110008B10720D6E706F070
:1035A000080080B3A17EE07E41EA0021227D607D9B
:1035B00042EA002041EA004900202075002161759F
:1035C000A076E17620776177A177E17701200399F2
:1035D00008710398D0F82C80B9F1000F0BD0494640
:1035E0000398FFF767FA07460FB13846AEE7A9F12F
:1035F00001000399C86041460398FFF791F8074618
:103600000FB13846A2E7FFE706F00800A0B100209E
:10361000E072FFF74CF8804684F80E804FEA1821DC
:10362000E1734FEA184121744FEA18616174012077
:103630000399087146F0200613E00FB1384685E77C
:10364000089C1CB1E07A00F0100008B104207DE76E
:1036500006F0020028B1E07A00F0010008B107206E
:1036600074E70398C06AE86108982862AE71A17E89
:10367000E07E41EA0021227D607D42EA002041EAAD
:1036800000402861E07F0106A07F41EA0041607FA1
:1036900041EA0020217F0843E8600020A860FF2065
:1036A000E8710020A861039828600398C088A8806A
:1036B00000204BE72DE9FF4F83B00446154699469D
:1036C000DDF810A00020C9F80000A1882068FFF7ED
:1036D00003FF0290029818B1029807B0BDE8F08F7E
:1036E000A07900F0800008B10220F6E7A07900F090
:1036F000010008B90720F0E7D4E90210401A019050
:103700000198854200D9019DC1E02089C0F30800DD
:1037100000287BD1E0792168897888421EDBA06887
:1037200008B9206903E061692068FFF797F88346CC
:10373000BBF1010F05D8A07940F08000A0710220F4
:10374000CBE70BF1010028B9A07940F08000A0710F
:103750000120C2E7C4F814B00020E071616920685C
:10376000FFF737FA06462EB9A07940F08000A07125
:103770000220B2E7E07906444FEA5528B8F1000F7D
:1037800031D0E079404421688978884204D92068A2
:103790008078E179A0EB010808F0FF032168487800
:1037A00032465146FEF746FF28B1A07940F080002E
:1037B000A071012091E7A07900F0400068B1A069F4
:1037C000801B404509D2A169891B0AEB41204FF4B7
:1037D000007204F12401FEF76FFFE0794044E071CC
:1037E0004FEA482749E0A07900F0400098B12168ED
:1037F0004878012304F12401A269FEF738FF30B1B3
:10380000A07940F08000A071012066E722E0A07955
:1038100020F04000A071A069B04217D0216848781C
:103820000123324604F12401FEF704FF70B1A079B0
:1038300040F08000A07101204FE70000525261412A
:10384000727241613800002034000020A661E079E6
:10385000401CE0712089C0F30800C0F50077AF423A
:1038600000D92F462089C0F3080204F12400111862
:103870003A465046FEF720FF00BFBA44A0683844DD
:10388000A060D9F800003844C9F80000ED1B002DF5
:103890007FF43BAF002020E72DE9FF4F81B00446C5
:1038A00015469A46DDF808B00020CAF80000A18845
:1038B0002068FFF711FE0090009818B1009805B03D
:1038C000BDE8F08FA07900F0800008B10220F6E793
:1038D000A07900F0020008B90720F0E7E06828446A
:1038E000E168884200D20025CEE02089C0F30800BC
:1038F000002875D1E0792168897888422CDBA0689E
:1039000058B9D4F81090B9F1000F0BD100212068FC
:10391000FFF704F98146206104E061692068FFF740
:10392000FDF88146B9F1000F00D1B0E0B9F1010F07
:1039300005D1A07940F08000A0710220BFE709F115
:10394000010028B9A07940F08000A0710120B6E7FD
:10395000C4F814900020E071A07900F0400090B10C
:1039600021684878012304F12401A269FEF77FFE53
:1039700028B1A07940F08000A07101209FE7A079D4
:1039800020F04000A07161692068FFF722F9064627
:103990002EB9A07940F08000A07102208FE7E07975
:1039A00006444FEA5528B8F1000F32D0E079404480
:1039B00021688978884204D920688078E179A0EB71
:1039C000010808F0FF032168487832465946FEF79F
:1039D0004EFE30B1A07940F08000A07101206EE76A
:1039E00031E0A069801B40450DD2A069801B0BEB24
:1039F00040214FF4007204F12400FEF75DFEA0792F
:103A000020F04000A071E0794044E0714FEA48277F
:103A100030E0A069B04212D0D4E9020188420ED24F
:103A2000216848780123324604F12401FEF702FEA2
:103A300028B1A07940F08000A07101203FE7A66185
:103A4000E079401CE0712089C0F30800C0F50077E0
:103A5000AF4200D92F462189C1F3080204F12401A5
:103A600050183A465946FEF727FEA07940F040002C
:103A7000A07100BFBB44A0683844A060DAF8000021
:103A80003844CAF80000ED1B002D7FF42EAF00BFB4
:103A9000D4E90201884201D9A068E060A07940F031
:103AA0002000A07100200AE72DE9F0410446A1881A
:103AB0002068FFF711FD0746002F4FD1A07900F0D5
:103AC000200000284AD0A07900F0400078B1216899
:103AD0004878012304F12401A269FEF7C8FD10B162
:103AE0000120BDE8F081A07920F04000A071E169DB
:103AF0002068FEF715FE0746002F2FD1256AE87AC9
:103B000040F02000E872207B2877A089010A6977BD
:103B1000E068010CA977E068010EE977207CA876BF
:103B2000208A010AE9762069000C28752069010EB7
:103B30006975FEF7BCFD0646AE75310AE975310CB4
:103B40002976310E6976A07920F02000A07101203D
:103B5000216808712068FEF71CFE07463846C0E75A
:103B600070B504462046FFF79FFF05460DB90020BB
:103B70002060284670BD2DE9F04704460E46A18816
:103B80002068FFF7A9FC8246BAF1000F02D0504628
:103B9000BDE8F087A07900F0800008B10220F7E7C7
:103BA000E068B04204D2A07900F0020000B9E668F3
:103BB000D4F808904FF00008C4F80880FF20E071A6
:103BC000002E7DD0206880784702B9F1000F11D017
:103BD000701EB0FBF7F1A9F10100B0FBF7F08142D4
:103BE00008D3A9F10100791E8843A060A068361AA5
:103BF000656918E02569ADB900212068FEF78EFFE0
:103C00000546012D05D1A07940F08000A071022069
:103C1000BEE7681C28B9A07940F08000A07101209F
:103C2000B6E725616561002D4AD029E0A07900F052
:103C3000020038B129462068FEF770FF054635B905
:103C40003E461FE029462068FEF708FE0546681C30
:103C500028B9A07940F08000A071012098E7012DDB
:103C600003D92068C069A84205D8A07940F0800037
:103C7000A07102208CE76561A0683844A060F61B43
:103C8000BE42D3D800BFA0683044A060C6F347202E
:103C9000E071C6F3080068B129462068FEF799FF75
:103CA0008046B8F1000F06D1A07940F08000A071E5
:103CB00002206DE704E0E0798044E079401CE07187
:103CC0002089C0F3080050B3A069404527D0A079EF
:103CD00000F0400090B121684878012304F12401EC
:103CE000A269FEF7C4FC28B1A07940F08000A07161
:103CF00001204DE7A07920F04000A07121684878AC
:103D00000123424604F12401FEF794FC28B1A07976
:103D100040F08000A07101203AE7C4F81880D4E98F
:103D20000201884205D9A068E060A07940F0200037
:103D3000A07150462CE773B584B00446002221469A
:103D400005A8FFF751FA064636BB01A8A061204638
:103D50000599FFF7CCF90646DEB9656985B1E87AC1
:103D600000F0100058B1A97EE87E41EA00212A7DCA
:103D7000687D42EA002041EA0040A06000E005269C
:103D80003EB92068C088A08000212046FEF72EFFA3
:103D90000646042E00D10526304606B070BDFEB59D
:103DA00004460E46A1882068FFF796FB054605BB32
:103DB000C4F818D02EB900212046FEF717FF05469B
:103DC00017E02046FFF719F80546042D02D1002020
:103DD000206100256DB931462046FFF72AF9002100
:103DE0002046FEF751FF0546042D02D10020206138
:103DF00000252846FEBD33B58BB00D46002204A930
:103E00000BA8FFF7F1F904467CB901A80A9004A8B1
:103E10000B99FFF76CF904463CB9099820B1294683
:103E200004A8FFF706F900E0062420460DB030BDD7
:103E30002DE9F74F82B08B4614460022214602A896
:103E4000FFF7D2F90190019818B1019805B0BDE8CB
:103E5000F08F20680169C069801E814205D8206802
:103E60000069CBF800000020F0E7206890F800A07F
:103E70000026BAF1010F1BD1022700BF3946206886
:103E8000FEF7ECFC804608F1010008B90120DDE7EF
:103E9000B8F1010F01D10220D8E7B8F1000F00D12D
:103EA000761C781C07462168C9698842E6D33BE046
:103EB0002068C7692068006A00904FF0000900255B
:103EC00000BFB9F1000F10D1009A531C11460093A6
:103ED0002068FEF725FC0190019808B10198B5E72C
:103EE000206800F130054FF40079BAF1020F09D1D2
:103EF0002878697840EA012000B9761CAD1CA9F148
:103F000002090EE0E8780006A97840EA01406978E5
:103F100040EA01202978084300B9761C2D1DA9F13B
:103F20000409781E071ECCD120680661BAF1030F80
:103F300002D1012021688872CBF80060002085E75B
:103F400070B50446A1882068FFF7C6FA06460EB190
:103F5000304670BDA07900F0800008B10220F8E77B
:103F6000A07900F0020008B90720F2E7D4E90210B6
:103F700088422DD9A068E060A07940F02000A071AF
:103F8000A06838B921692068FEF794FD0646002034
:103F900020611DE061692068FEF760FC054600268F
:103FA000681C00B90126012D00D1022686B92068BF
:103FB000C069A8420CD96FF0704261692068FEF7B1
:103FC000D6FC064626B929462068FEF773FD06464C
:103FD0001EB1A07940F08000A0713046B9E771B5FC
:103FE00091B001220AA911A8FFF7FEF8044614B106
:103FF000204612B070BDCDF840D00AA81199FFF745
:1040000076F8044600BF0CB12046F2E70F9D0DB9CB
:104010000620EEE7E87A00F0010008B10720E8E7A3
:10402000A97EE87E41EA00212A7D687D42EA0020DF
:1040300041EA0046E87A00F01000D8B1022E01D221
:104040000220D6E71C220AA903A8FEF735FB059635
:10405000002103A8FEF7CAFD04460CB12046C8E7BC
:1040600003A8FEF7CAFE044604B90724042C01D0B5
:104070002046BEE70AA8FEF727FF044654B926B13A
:1040800031460A98FEF716FD04461CB90A98FEF759
:1040900080FB04462046ACE72DE9F1478BB00122B6
:1040A00004A90BA8FFF7A0F807461FB138460CB0CB
:1040B000BDE8F08701A80A9004A80B99FFF717F84C
:1040C000074607B9082700BF042F01D03846EEE79E
:1040D00000210498FEF722FD0546002705B90727B1
:1040E000012D00D10227681C00B9012727B9002142
:1040F0000498FEF715FB07460FB13846D7E7294667
:104100000498FEF766FD8246049800F130044FF4EF
:10411000007200212046FEF7DCFA0B222021204607
:10412000FEF7D7FA2E2020701020E072FEF7BFFABB
:104130000646A675310AE175310C2176310E61769D
:10414000A576290AE176280C2075290E61752022B2
:10415000214604F12000FEF7AFFA2E2084F821005A
:10416000DDF8188004980078032805D10498406A87
:10417000404501D14FF0000884F83A804FEA1821F9
:1041800084F83B10C8F30741342001554FEA186109
:1041900084F835104FF0000919E00498C0F82CA0FD
:1041A0000AF1010A01200499087100210498FEF720
:1041B000B7FA07460FB1384679E74FF4007200218D
:1041C0002046FEF786FA09F1010000F0FF09049885
:1041D00080784845E1DC04A8FEF73AFE074627B19F
:1041E00029460498FEF766FC17E0099C1020E0724F
:1041F000A675310AE175310C2176310E6176A5760E
:10420000290AE176280C2075290E61750120049990
:1042100008710498FEF7BDFA0746384647E7F7B538
:104220008AB00F461446012203A90AA8FEF7DCFF54
:104230000646DEB9CDF824D003A80A99FEF757FF49
:10424000064600BF96B9089D0DB906260EE004F09B
:10425000270407EA0400E97AA1430843E872012031
:10426000039908710398FEF794FA064630460DB09C
:10427000F0BD73B58AB00D46012203A90AA8FEF766
:10428000B3FF0646EEB9CDF824D003A80A99FEF78D
:104290002EFF064600BFA6B9089C0CB9062610E002
:1042A000A879A075E8880112E17528792076A88898
:1042B000011261760120039908710398FEF769FAEB
:1042C000064630460CB070BDF3B597B00F4606A851
:1042D0001690012210A917A8FEF786FF05463DB9E2
:1042E0001098099010A81799FEF701FF054600BF26
:1042F00015B1284619B0F0BD159808B90420F9E7A2
:10430000159800F10B0115226846FEF7D5F91C221D
:1043100010A909A8FEF7D0F9394609A8FEF7E7FE6B
:10432000054605B90825042D59D109A8FEF790FDC9
:104330000546002D53D10E9C13220DF1020104F10C
:104340000D00FEF7B9F99DF8000040F02000E07282
:10435000012010990871E07A00F01000002834D094
:10436000237D627D43EA022294F81AC0E37E4CEA80
:10437000032342EA03010998FEF72BFC06460EB917
:10438000022522E031460998FEF7CAF90546099848
:1043900000F15004CDB960782E2816D10998007824
:1043A000032806D109990B98496A884201D1002057
:1043B00000E00B980646A676310AE176300C2075AF
:1043C000310E617501200999087145B910A8FEF7F1
:1043D0007BFD05461DB91098FEF7DBF9054628461A
:1043E00088E7000030B51F4800681F4AB0FBF2F1B3
:1043F000B1F1807F01D301201DE021F07F40401EFC
:104400004FF0E022506150170F22002807DA1307FF
:104410001D0E164B00F00F04241F1D5503E013075B
:104420001C0E134B1C5400BF00204FF0E022906183
:1044300007201061002008B100BFFEE730BD01B5C4
:104440000C490098086000BF0A4800680028FBD1AA
:1044500008BD0848006820B106480068401E0549AC
:1044600008607047D85C0008A086010018ED00E0E5
:1044700000E400E03C00002000B585B0012144F2DA
:10448000040000F037FD4FF40070ADF81000182064
:104490008DF8130003208DF8120004A9754800F070
:1044A0008DFA4FF48060ADF8100004208DF81300F1
:1044B00004A9704800F082FA4FF4E1300090002027
:1044C000ADF80400ADF80600ADF80800ADF80C003A
:1044D0000C20ADF80A006946674800F0B8FD0121DC
:1044E000654800F022FE05B000BD70B504460D46DB
:1044F000E1B2614800F081FE00BF5F48008800F033
:1045000080000028F9D0204670BDF0B503460D4666
:104510001646002729460A2E03D000200870284698
:10452000F0BD33B9302001F8010B00200870284697
:10453000F6E7002B03DA2D2001F8010B5B4242F273
:1045400010720DE093FBF2F404B937B104F13000BE
:1045500001F8010B04FB123301270A2092FBF0F251
:10456000002AEFDC002008702846D9E70FB470B5A8
:1045700086B006460CA8019073E00B9800785C2882
:104580001CD10B98401C0B9000786E2809D0722823
:104590000FD10D21304600F030FE0B98401C0B90DF
:1045A0000BE00A21304600F028FE0B98401C0B90CF
:1045B00003E00B98401C0B9000BF4BE00B98007879
:1045C000252840D10B98401C0B900078642818D007
:1045D000732833D1019810C801900BE02178304640
:1045E00000F00BFE00BF4021304600F05DFE0028C9
:1045F000F9D0641C20780028F0D10B98401C0B9057
:1046000020E0019820C801900A2202A92846FFF75D
:104610007CFF02AC0BE02178304600F0EEFD00BFDD
:104620004021304600F040FE0028F9D0641C20787C
:104630000028F0D10B98401C0B9003E00B98401C15
:104640000B9000BF06E00B9810F8011B0B90304652
:1046500000F0D3FD00BF4021304600F025FE0028C9
:10466000F9D00B980078002887D106B070BC5DF8AF
:1046700014FB0000000801400038014000B587B07D
:1046800001211C2000F036FC0121080300F032FC5F
:10469000E020ADF8040003208DF8060018208DF806
:1046A000070001A98D4800F089F94FF48050ADF85A
:1046B000040003208DF8060010208DF8070001A9E2
:1046C000874800F07BF94FF48040ADF8040001A961
:1046D000834800F073F94020ADF8040001A9814837
:1046E00000F06CF928208DF807008020ADF8040058
:1046F00001A97C4800F062F90020ADF808004FF4F1
:104700008270ADF80A000020ADF80C00ADF80E0084
:10471000ADF810004FF40070ADF812002020ADF895
:1047200014000020ADF816000720ADF8180002A90B
:104730006D4801F099F801216B4801F032F907B09A
:1047400000BD10B5044600BF0221674801F0ADF975
:104750000028F9D02146644801F054F900BF012136
:10476000614801F0A2F90028F9D05F4801F04CF946
:10477000C0B210BD10B500BF02215B4801F095F931
:104780000028F9D00021584801F03CF900BF012170
:10479000554801F08AF90028F9D0534801F034F95E
:1047A000C0B210BD70B506460C4615464D48C068EF
:1047B00040F040004B49C86049480C30006820F484
:1047C000805047490C3108600220FFF7BAFF30469D
:1047D000FFF7B7FF2046FFF7B4FF2846FFF7B1FF0A
:1047E0003F480C30006840F480503D490C3108606F
:1047F00070BD70B5054600243A48C06840F04000DE
:104800003849C86036480C30006820F4805034497C
:104810000C3108600320FFF794FF2846FFF791FF53
:10482000FFF7A8FF0402FFF7A5FF04432C480C3054
:10483000006840F480502A490C310860204670BD61
:1048400070B50024002526480C30006820F4804014
:1048500023490C3108604FF47A70FFF7F0FDFF2018
:10486000FFF76FFF1F48C06840F040001D49C86057
:104870001B480C30006840F4805019490C31086026
:104880000846006840F4804008604FF47A70FFF7F3
:10489000D6FD002208211046FFF784FF0022982150
:1048A0000320FFF77FFF8122BB210520FFF77AFF5E
:1048B000224629460220FFF775FF002211460B20F1
:1048C000FFF770FF4FF47A70FFF7B9FD00BF80214A
:1048D000044800F006F90028F9D070BD0008014036
:1048E000000C0140001001400030014010B50446AA
:1048F000C649601A8C422FD009DCC548204480B1DB
:10490000B0F5806F16D0B0F5006F4AD11BE0B0F55E
:10491000806F2AD0B0F5006F30D0B0F5406F40D135
:1049200035E00121042000F0FFFA0021042000F00E
:10493000FBFA37E00121082000F0F6FA00210820F8
:1049400000F0F2FA2EE00121102000F0EDFA002133
:10495000102000F0E9FA25E00121202000F0E4FA1F
:104960000021202000F0E0FA1CE00121402000F0AE
:10497000DBFA0021402000F0D7FA13E0012180206B
:1049800000F0D2FA0021802000F0CEFA0AE00121E6
:10499000080200F0C9FA00214FF4807000F0C4FA58
:1049A00000E000BF00BF10BD10B50121084600F0B7
:1049B000BBFA0021012000F0B7FA10BD2DE9F0414B
:1049C000024600250026002000230024002791F83D
:1049D00003C00CF00F0591F803C00CF0100CBCF1F3
:1049E000000F03D091F802C04CEA050591F800C011
:1049F000BCF1000F31D0146800202BE04FF0010C07
:104A00000CFA00F3B1F800C00CEA03069E4220D174
:104A100083004FF00F0C0CFA03F7BC4305FA03FCBC
:104A20004CEA040491F803C0BCF1280F06D14FF002
:104A3000010C0CFA00FCC2F814C00AE091F803C0A3
:104A4000BCF1480F05D14FF0010C0CFA00FCC2F884
:104A500010C0401C0828D1D31460B1F800C0BCF1CC
:104A6000FF0F34DD546800202EE000F1080C4FF0F9
:104A7000010808FA0CF3B1F800C00CEA03069E42E4
:104A800021D183004FF00F0C0CFA03F7BC4305FA59
:104A900003FC4CEA040491F803C0BCF1280F05D1D3
:104AA00000F1080C08FA0CF8C2F8148091F803C061
:104AB000BCF1480F07D100F1080C4FF0010808FACB
:104AC0000CF8C2F81080401C0828CED35460BDE812
:104AD000F0814FF6FF710180022181700421C170C5
:104AE00070470246002093680B400BB1012000E0A4
:104AF000002070470146886880B270470246002057
:104B0000D3680B400BB1012000E000207047014644
:104B1000C86880B2704701617047416170470AB14F
:104B2000016100E041617047C16070474FF480321D
:104B30000A438261816182618269826970470246AB
:104B40000020344B18684FF68073184040EA02107A
:104B50000843304B186070472F49C8617047F0B563
:104B60000A4600230024002100252A4E7168C0F364
:104B7000034583B200F44016B6F5401F08D121F07A
:104B80007061244E766826F07066224F7E6012E0D7
:104B900000F48016B6F5801F06D1032606FA05F448
:104BA000A14341F0706106E0460D360103FA06F6B6
:104BB000B14341F0706122B1460D360103FA06F6A9
:104BC0003143144E7160F0BD30B500228B071C0FCD
:104BD0000F2303FA04F20F4B08338C1053F82430E0
:104BE00093430C4C08348D1044F8253023468C1028
:104BF00053F824308C07240F00FA04F42343054CA7
:104C000008348D1044F8253030BD000000140140F8
:104C100000F8FEBF0000014000002042DE480068AE
:104C200040F00100DC49086008464068DB49084064
:104C3000D949486008460068D9490840D649086003
:104C40000846006820F4802008600846406820F488
:104C5000FE004860002088607047CF49096821F451
:104C60008031CD4A11601146096821F4802111601C
:104C7000B0F5803F03D0B0F5802F0ED106E0C649D5
:104C8000096841F48031C44A116007E0C2490968EB
:104C900041F4A021C04A116000E000BF00BF70478E
:104CA00010B501460022002300204A11012A02D13A
:104CB000B94C236806E0022A02D1B74C236A01E00E
:104CC000B54C636A01F01F02012494401C400CB1F2
:104CD000012000E0002010BD38B500200090002425
:104CE000002500BF3120FFF7DBFF05460098401C80
:104CF00000901DB90098B0F5A06FF3D13120FFF7F7
:104D0000CFFF08B1012400E00024204638BD014651
:104D10000020A14A106820F0F80040EAC1001060AD
:104D20007047A04908607047024600209A4B5868B7
:104D300020F47C1042EA01031843974B58607047F7
:104D400098490866704701460020934A506820F051
:104D500003000843506070478F48406800F00C0023
:104D60007047014600208C4A506820F0F00008434C
:104D70005060704701460020874A506820F4E06088
:104D800008435060704701460020834A506820F471
:104D9000605040EAC1005060704729B17E4A527AA3
:104DA00002437D4B5A7204E07B4A527A82437A4B2B
:104DB0005A7270477B49D83108607047014600201D
:104DC000754A506820F44040084350607047002105
:104DD000714A20321170704A82F82010012802D0E6
:104DE00004280AD104E001216B4A2032117005E049
:104DF0000521694A2032117000E000BF00BF7047F2
:104E00006949086070476449096A0143624A11624E
:104E10007047654944390860704730B50021002269
:104E2000002400235C4D6D6805F00C0121B10429BC
:104E300005D0082923D105E05C4D056022E05B4DDB
:104E400005601FE0544D6D6805F47012022505EBF6
:104E50009242514D6D6805F480341CB9544D554350
:104E600005600BE04C4D6D6805F400351DB1504DEB
:104E70005543056002E04D4D5543056002E04B4D42
:104E8000056000BF00BF444D6D6805F0F0010909E1
:104E9000484D6B5C0568DD4045603F4D6D6805F42D
:104EA000E061090A434D6B5C4568DD4085603A4D21
:104EB0006D6805F46051C90A3E4D6B5C4568DD4084
:104EC000C560354D6D6805F44041890B3A4D6B5C0A
:104ED000C568B5FBF3F5056130BD29B12E4A5269AD
:104EE00002432D4B5A6104E02B4A526982432A4BFC
:104EF0005A61704729B1284A92690243264B9A6148
:104F000004E0254A92698243234B9A61704729B194
:104F1000214AD2690243204BDA6104E01E4AD26979
:104F200082431D4BDA61704729B11B4AD2680243A4
:104F3000194BDA6004E0184AD2688243164BDA60F3
:104F4000704729B1144A12690243134B1A6104E0F5
:104F5000114A12698243104B1A6170471249403955
:104F6000086070470F49C86470470B49C8717047A3
:104F70000948406A40F0807007494862704701461E
:104F80000020054A92680A400AB1012000E0002092
:104F90007047014988727047001002400000FFF816
:104FA000FFFFF6FE000042428004424200127A00F7
:104FB00000093D00400000205000002010B50446CC
:104FC000D749601A8C422BD006DCD648204498B1D1
:104FD000B0F5806F38D119E0B0F5806F2AD0B0F508
:104FE0006C4F31D101218803FFF79EFF00214FF460
:104FF0008040FFF799FF28E001214804FFF7A1FF57
:1050000000214FF40030FFF79CFF1EE001218804CF
:10501000FFF797FF00214FF48020FFF792FF14E085
:105020000121C804FFF78DFF00214FF40020FFF796
:1050300088FF0AE001210805FFF783FF00214FF4F4
:105040008010FFF77EFF00E000BF00BF10BD2DE91C
:10505000F04786B005460E460024A24600BF00BFBA
:1050600000272F462C8A4CF6FF700440F08804433A
:105070002C82AC894EF6F3100440B0883189084385
:10508000718908430443AC81AC8A4FF6FF40044069
:10509000B0890443AC8201A8FFF7BFFEA248874253
:1050A00002D1DDF810A001E0DDF80CA00AEBCA0087
:1050B00000EB0A1031688900B0FBF1F86420B8FBFE
:1050C000F0F004012009642101FB1089322000EB7B
:1050D0000910B0FBF1F000F00F0004432C8106B082
:1050E000BDE8F0874FF41651016000218180C18036
:1050F00001810C21418100218181704710B5024658
:105100000020108A4FF2FF0318400B884C8823437D
:105110008C882343CC8823431843108210BD002180
:10512000018041808180C180704721B1828942F431
:105130000052828104E082894DF6FF731A40828119
:105140007047F0B5034600240026002500201846CD
:10515000C1F3421401F01F06012707FA06F5012CDE
:1051600001D10C3004E0022C01D1103000E01430E9
:105170001AB107682F43076002E00768AF43076072
:10518000F0BD1AB1838A0B43838202E0838A8B438A
:1051900083827047028A4FF6F0731A400282028AB5
:1051A0000A430282704782894FF2FF731A4082815C
:1051B00082890A438281704721B1828942F00202CA
:1051C000828104E082894FF6FD731A408281704724
:1051D000028A4FF6DF731A400282028A0A43028271
:1051E000704721B1028A42F48042028204E0028ABE
:1051F0004BF6FF731A4002827047C1F308028280A7
:10520000704701468888C0F308007047818941F0E3
:10521000010181817047028BD2B20283028B42EA84
:10522000012202837047028B02F47F420283028BC9
:105230000A430283704721B1828A42F020028282AF
:1052400004E0828A4FF6DF731A408282704721B1F0
:10525000828A42F01002828204E0828A4FF6EF7363
:105260001A408282704721B1828A42F0080282820B
:1052700004E0828A4FF6F7731A4082827047828A6E
:105280004FF6FB731A408282828A0A4382827047F9
:1052900021B1828A42F00202828204E0828A4FF6C1
:1052A000FD731A40828270470246002013880B402B
:1052B0000BB1012000E000207047CA430280704714
:1052C00070B502460B460024002100250020C3F3E0
:1052D000421503F01F01012606FA01F1012D02D14A
:1052E0009689314006E0022D02D1168A314001E054
:1052F000968A31401C12012606FA04F416883440BE
:1053000011B10CB1012000E0002070BD10B50022E9
:1053100000230A1201249440A3B2DC43048010BD90
:10532000004C004000BCFFBF0038014000206C4929
:10533000086048608860C86048628862C8626948DE
:1053400088630020C86370470021654A516847F6AA
:10535000FF6291430278C3681A4383681A43036962
:105360001A4343681A4343691A4311435C4A516024
:1053700070470021017041608160C160016141613D
:1053800070475949086070475549096821F0030181
:10539000534A116011460968014311607047504833
:1053A000006800F00300704729B14D4AD26B0243F8
:1053B0004B4BDA6304E04A4AD26B8243484BDA63D0
:1053C00070474A49086070470021454B02689A605F
:1053D0001A46D1686FF30A01D0E901231A43C36862
:1053E0001A4303691A4311433D4AD16070470021B3
:1053F000016041608160C1600161704738480069A7
:10540000C0B27047014636480844406970470021E1
:10541000334B02685A6242689A621A46D16A21F096
:10542000F701D0E902231A4303691A4343691A4377
:1054300011432B4AD16270474FF0FF3101600021C8
:1054400041608160C1600161416170472448006B27
:1054500070472348803000687047214980310860D8
:1054600070471F48806C70472049143108607047AE
:105470001E491831086070471C491C31086070478C
:105480001A49203108607047194908607047184967
:10549000091D0860704701218143154A08321160D7
:1054A000704713490C3108607047014600200C4AD0
:1054B000526B0A400AB1012000E000207047084901
:1054C0008863704701460020054A526B0A400AB1C2
:1054D000012000E000207047014988637047000008
:1054E00000800140FF07C000A00030428C05304220
:1054F000AC01304231490143314A1160704770B507
:10550000002100230F22C47804B32D4C246804F436
:10551000E064C4F5E064210AC1F10403CA404478A0
:1055200004FA03F18478144021430901254C0678DC
:10553000A155047804F01F050124AC4005786D11D5
:10554000AD0005F1E025C5F8004109E0047804F05C
:105550001F050124AC401C4D0678761145F8264005
:1055600070BD1A4A0A400243154B1B1F1A60704750
:1055700039B1134A121D12680243114B1B1D1A60E8
:1055800006E00F4A121D126882430D4B1B1D1A6064
:105590007047042808D14FF0E021096941F0040167
:1055A0004FF0E022116107E04FF0E021096921F09E
:1055B00004014FF0E0221161704700000000FA057D
:1055C0000CED00E000E400E080E100E080FFFF1F60
:1055D000016821F0010101600021016041608160EA
:1055E000C160874A811A90425BD012DC854AA0EBE9
:1055F000020190423AD007DC83490144D9B1142911
:1056000022D028297AD128E0142938D0282975D128
:105610003EE0B1F56C7F5BD006DCB1F5627F49D02E
:10562000B1F5677F6AD14CE0B1F5717F57D0B1F524
:10563000767F63D15BE073494439496841F00F01DB
:10564000704A443A51605AE06E494439496841F021
:10565000F0016C4A443A516051E06A494439496862
:1056600041F47061674A443A516048E06549443901
:10567000496841F47041634A443A51603FE06149EE
:105680004439496841F470215E4A443A516036E039
:105690005C494439496841F470015A4A443A5160BE
:1056A0002DE058494439496841F07061554A443AFF
:1056B000516024E05549096841F00F01534A1160D7
:1056C0001DE05249096841F0F001504A116016E0AE
:1056D0004E49096841F470614C4A11600FE04B4932
:1056E000096841F47041494A116008E006E0474901
:1056F000096841F47021454A116000E000BF00BF15
:10570000704710B50022026847F6F0739A430C6A9E
:105710008B6823430C6923434C6923438C692343DF
:10572000CC6923434C6A23438C6A23431A430260A7
:10573000CB6843600B6883604B68C36010BD002179
:10574000016041608160C160016141618161C1614D
:10575000016241628162704721B1026842F0010238
:10576000026003E0026822F00102026070471AB191
:1057700003680B43036002E003688B4303607047D8
:105780000146486880B2704701460020002201F0BF
:1057900080531BB11D4B1B1F1A6802E0194B443B81
:1057A0001A6802EA01030BB1012000E000207047F3
:1057B00000F0805111B11549086002E011494439E7
:1057C0004860704701460020002201F080531BB161
:1057D0000E4B1B1F1A6802E00A4B443B1A6802EA90
:1057E00001030BB1012000E00020704700F0805160
:1057F00011B10649086002E0024944394860704727
:105800008000024044000240F8FFFDBF0404024053
:1058100010B50446BD48204478B1B0F5806F16D06D
:10582000B0F5784F1DD101210803FFF77DFB002162
:105830004FF48050FFF778FB14E001218803FFF755
:1058400080FB00214FF48040FFF77BFB0AE0012141
:10585000C803FFF776FB00214FF40040FFF771FB10
:1058600000E000BF00BF10BD10B50022028802F4A6
:1058700041520B884C8823438C882343CC88234394
:105880000C8923434C8923438C892343CC892343AC
:105890001A430280838B4FF2FF74234083830B8A69
:1058A000038210BD2DE9F04786B005460C464FF047
:1058B000000902274FF000084FF0010A0026A88BCC
:1058C0004FF240010840A88302202884B5F81C90BC
:1058D0002089022801D100BF31E0A08810B94FF023
:1058E000010A01E04FF0020A01A8FFF796FAE088EA
:1058F000B0F5007F0AD1019800EB800040002189BB
:105900000902B0FBF1F0401D86B20BE04FEA4A10ED
:1059100021894843019901EB81014900B1FBF0F075
:10592000401D86B20A20B6FBF0F606F00108A6EB91
:105930000800C0F34F074FF6FF7000EA0828022F57
:1059400001DBFF2F02DD02274FF0000847EA0800C5
:10595000E18808432884208840F400606188084377
:10596000A18808436189084340EA0909A5F81C9009
:1059700006B0BDE8F0870021018041808180C180B0
:10598000018141818181C18107210182704700210C
:10599000018041808180C1800221018100214181FB
:1059A000704721B1028842F04002028004E0028880
:1059B0004FF6BF731A400280704721B1828B42F4C8
:1059C0008062828304E0828B4FF6FF331A40828329
:1059D000704730B5002400230C110125A540ABB25F
:1059E0001AB185881D43858002E085889D438580A6
:1059F00030BD1AB183880B43838002E083888B43D8
:105A000083807047818170470146888970474FF6CF
:105A1000FF62914204D0028842F48072028004E066
:105A200002884FF6FF631A400280704721B18288D6
:105A300042F00402828004E082884FF6FB731A4031
:105A40008280704702884FF2FF731A4002800288FA
:105A50000A4302807047018841F4805101807047F9
:105A600021B1028842F40052028004E002884DF61F
:105A7000FF731A400280704702460020012901D0BE
:105A8000108B00E0908A70470146088A7047B1F594
:105A9000804F04D1028842F48042028004E00288F0
:105AA0004BF6FF731A4002807047024600201389AC
:105AB0000B400BB1012000E000207047CA43028177
:105AC0007047F0B50246002000240023002501F0B5
:105AD0000F070126BE40B4B20B1101269E40B3B29F
